:020000040800F2
:1000000000000520555200081119000813190008B6
:100010001519000817190008191900080000000038
:100020000000000000000000000000001B19000894
:100030001D190008000000001F1900082119000800
:10004000A5520008A5520008A5520008A5520008B4
:10005000A5520008A5520008A5520008A5520008A4
:10006000A5520008A5520008A5520008A552000894
:10007000A5520008A5520008A5520008A552000884
:10008000A5520008A5520008A5520008A552000874
:10009000A5520008A5520008A5520008A552000864
:1000A000A5520008A5520008A5520008A552000854
:1000B000A5520008A5520008A5520008A552000844
:1000C000A5520008A5520008A5520008A552000834
:1000D000A5520008A5520008A5520008A552000824
:1000E000A5520008A552000800000000A552000813
:1000F000A5520008A5520008A5520008A552000804
:10010000A5520008A5520008A5520008A5520008F3
:10011000A5520008A5520008A5520008A5520008E3
:10012000A5520008A5520008A5520008A5520008D3
:10013000A5520008A5520008A552000800000000C2
:10014000A5520008A5520008A5520008A5520008B3
:10015000A5520008A5520008A5520008A5520008A3
:10016000A5520008A5520008A5520008A552000893
:10017000A5520008A5520008000000000000000081
:10018000A5520008A5520008A5520008A552000873
:10019000A5520008A5520008000000000000000061
:1001A0000000000000000000A55200082919000806
:1001B000A552000800000000A55200080000000041
:1001C00081F0004102E000BF83F0004330B54FEA08
:1001D00041044FEA430594EA050F08BF90EA020F75
:1001E0001FBF54EA000C55EA020C7FEA645C7FEA08
:1001F000655C00F0E2804FEA5454D4EB5555B8BF2B
:100200006D420CDD2C4480EA020281EA030382EA9B
:10021000000083EA010180EA020281EA0303362D2D
:1002200088BF30BD11F0004F4FEA01314FF4801C00
:100230004CEA113102D0404261EB410113F0004F12
:100240004FEA03334CEA133302D0524263EB4303C9
:1002500094EA050F00F0A780A4F10104D5F1200E67
:100260000DDB02FA0EFC22FA05F2801841F10001C2
:1002700003FA0EF2801843FA05F359410EE0A5F196
:1002800020050EF1200E012A03FA0EFC28BF4CF0C7
:10029000020C43FA05F3C01851EBE37101F000457D
:1002A00007D54FF0000EDCF1000C7EEB00006EEB8A
:1002B0000101B1F5801F1BD3B1F5001F0CD3490814
:1002C0005FEA30004FEA3C0C04F101044FEA44526B
:1002D00012F5800F80F09A80BCF1004F08BF5FEAF2
:1002E000500C50F1000041EB045141EA050130BDD2
:1002F0005FEA4C0C404141EB0101013C28BFB1F5E4
:10030000801FE9D291F0000F04BF01460020B1FA2E
:1003100081F308BF2033A3F10B03B3F120020CDA01
:100320000C3208DD02F1140CC2F10C0201FA0CF0DF
:1003300021FA02F10CE002F11402D8BFC2F1200C44
:1003400001FA02F120FA0CFCDCBF41EA0C019040FA
:10035000E41AA2BF01EB0451294330BD6FEA040443
:100360001F3C1CDA0C340EDC04F11404C4F120022E
:1003700020FA04F001FA02F340EA030021FA04F340
:1003800045EA030130BDC4F10C04C4F1200220FA97
:1003900002F001FA04F340EA0300294630BD21FAD5
:1003A00004F0294630BD94F0000F83F4801306BF9B
:1003B00081F480110134013D4EE77FEA645C18BF8F
:1003C0007FEA655C29D094EA050F08BF90EA020F26
:1003D00005D054EA000C04BF1946104630BD91EA1E
:1003E000030F1EBF0021002030BD5FEA545C05D121
:1003F0004000494128BF41F0004130BD14F5800460
:100400003CBF01F5801130BD01F0004545F0FE41D3
:1004100041F470014FF0000030BD7FEA645C1ABF08
:10042000194610467FEA655C1CBF0B46024650EA3F
:10043000013406BF52EA033591EA030F41F400216B
:1004400030BD00BF90F0000F04BF0021704730B5F1
:100450004FF4806404F132044FF000054FF00001C6
:1004600050E700BF90F0000F04BF0021704730B587
:100470004FF4806404F1320410F0004548BF40425C
:100480004FF000013EE700BF42004FEAE2014FEAB1
:1004900031014FEA02701FBF12F07F4393F07F4F8C
:1004A00081F06051704732F07F4208BF704793F08F
:1004B0007F4F04BF41F40021704730B54FF46074A2
:1004C00001F0004521F000411CE700BF50EA0102A5
:1004D00008BF704730B54FF000050AE050EA01024E
:1004E00008BF704730B511F0004502D5404261EBBE
:1004F00041014FF4806404F132045FEA915C3FF4FF
:10050000D8AE4FF003025FEADC0C18BF03325FEA9B
:10051000DC0C18BF033202EBDC02C2F1200300FA4C
:1005200003FC20FA02F001FA03FE40EA0E0021FA71
:1005300002F11444BDE600BF70B54FF0FF0C4CF45F
:10054000E06C1CEA11541DBF1CEA135594EA0C0F11
:1005500095EA0C0F00F0DEF82C4481EA030621EA4C
:100560004C5123EA4C5350EA013518BF52EA033587
:1005700041F4801143F4801338D0A0FB02CE4FF039
:100580000005E1FB02E506F00042E0FB03E54FF069
:100590000006E1FB03569CF0000F18BF4EF0010E61
:1005A000A4F1FF04B6F5007F64F5407404D25FEA5D
:1005B0004E0E6D4146EB060642EAC62141EA555110
:1005C0004FEAC52040EA5E504FEACE2EB4F1FD0C52
:1005D00088BFBCF5E06F1ED8BEF1004F08BF5FEAD0
:1005E000500E50F1000041EB045170BD06F0004682
:1005F00046EA010140EA020081EA0301B4EB5C042F
:10060000C2BFD4EB0C0541EA045170BD41F4801126
:100610004FF0000E013C00F3AB8014F1360FDEBF4B
:10062000002001F0004170BDC4F10004203C35DA27
:100630000C341BDC04F11404C4F1200500FA05F3AA
:1006400020FA04F001FA05F240EA020001F000424B
:1006500021F0004110EBD37021FA04F642EB0601C1
:100660005EEA430E08BF20EAD37070BDC4F10C04EB
:10067000C4F1200500FA04F320FA05F001FA04F2AF
:1006800040EA020001F0004110EBD37041F100019B
:100690005EEA430E08BF20EAD37070BDC4F12005A6
:1006A00000FA05F24EEA020E20FA04F301FA05F20E
:1006B00043EA020321FA04F001F0004121FA04F2B6
:1006C00020EA020000EBD3705EEA430E08BF20EA86
:1006D000D37070BD94F0000F0FD101F000464000C0
:1006E00041EB010111F4801F08BF013CF7D041EA42
:1006F000060195F0000F18BF704703F00046520046
:1007000043EB030313F4801F08BF013DF7D043EA16
:100710000603704794EA0C0F0CEA135518BF95EACC
:100720000C0F0CD050EA410618BF52EA4306D1D153
:1007300081EA030101F000414FF0000070BD50EA72
:10074000410606BF1046194652EA430619D094EAFC
:100750000C0F02D150EA013613D195EA0C0F05D1E6
:1007600052EA03361CBF104619460AD181EA03013A
:1007700001F0004141F0FE4141F470014FF00000F2
:1007800070BD41F0FE4141F4780170BD70B54FF08D
:10079000FF0C4CF4E06C1CEA11541DBF1CEA13550D
:1007A00094EA0C0F95EA0C0F00F0A7F8A4EB0504EF
:1007B00081EA030E52EA03354FEA013100F08880E6
:1007C0004FEA03334FF0805545EA131343EA1263AF
:1007D0004FEA022245EA111545EA10654FEA002664
:1007E0000EF000419D4208BF964244F1FD0404F51D
:1007F000407402D25B084FEA3202B61A65EB030579
:100800005B084FEA32024FF480104FF4002CB6EB35
:10081000020E75EB030E22BFB61A754640EA0C00B5
:100820005B084FEA3202B6EB020E75EB030E22BFF5
:10083000B61A754640EA5C005B084FEA3202B6EB36
:10084000020E75EB030E22BFB61A754640EA9C00F5
:100850005B084FEA3202B6EB020E75EB030E22BFC5
:10086000B61A754640EADC0055EA060E18D04FEA83
:10087000051545EA16754FEA06164FEAC30343EA23
:1008800052734FEAC2025FEA1C1CC0D111F4801FF0
:100890000BD141EA00014FF000004FF0004CB6E7E9
:1008A00011F4801F04BF01430020B4F1FD0C88BF88
:1008B000BCF5E06F3FF6AFAEB5EB030C04BFB6EB93
:1008C000020C5FEA500C50F1000041EB045170BD86
:1008D0000EF0004E4EEA113114EB5C04C2BFD4EBB3
:1008E0000C0541EA045170BD41F480114FF0000E37
:1008F000013C90E645EA060E8DE60CEA135594EAB3
:100900000C0F08BF95EA0C0F3FF43BAF94EA0C0FB5
:100910000AD150EA01347FF434AF95EA0C0F7FF42A
:1009200025AF104619462CE795EA0C0F06D152EA7E
:1009300003353FF4FDAE1046194622E750EA410662
:1009400018BF52EA43067FF4C5AE50EA41047FF473
:100950000DAF52EA43057FF4EBAE12E74FF0FF3CD8
:1009600006E000BF4FF0010C02E000BF4FF0010CA9
:100970004DF804CD4FEA410C7FEA6C5C4FEA430C22
:1009800018BF7FEA6C5C1BD001B050EA410C0CBF71
:1009900052EA430C91EA030F02BF90EA020F0020D3
:1009A000704710F1000F91EA030F58BF994208BF3A
:1009B00090422CBFD8176FEAE37040F001007047F7
:1009C0004FEA410C7FEA6C5C02D150EA013C07D14E
:1009D0004FEA430C7FEA6C5CD6D152EA033CD3D099
:1009E0005DF8040B704700BF8446104662468C4693
:1009F0001946634600E000BF01B5FFF7B7FF0028C6
:100A000048BF10F1000F01BD4DF808EDFFF7F4FFEE
:100A10000CBF012000205DF808FB00BF4DF808ED79
:100A2000FFF7EAFF34BF012000205DF808FB00BF9C
:100A30004DF808EDFFF7E0FF94BF012000205DF8BE
:100A400008FB00BF4DF808EDFFF7CEFF94BF012073
:100A500000205DF808FB00BF4DF808EDFFF7C4FF6C
:100A600034BF012000205DF808FB00BF4FEA410CB5
:100A70007FEA6C5C02D150EA013C0AD14FEA430C98
:100A80007FEA6C5C02D152EA033C02D14FF00000D5
:100A900070474FF00100704753B94AB9002908BFA9
:100AA00000281CBF4FF0FF314FF0FF3000F0E2B8DC
:100AB000ADF1080C6DE904CE05F052FEDDF804E05E
:100AC000DDE9022304B0704700F1340191E83800F9
:100AD0009C46A6464CF8045D90E8FF0FE54600BD35
:100AE00090EC210B704700BF80EC210B704700BFDA
:100AF00090EC200B704700BF80EC200B704700BFCC
:100B0000D0EC200B704700BFC0EC200B704700BF3B
:100B1000F0EC0201F0EC0211F0EC0221F0EC0231F9
:100B2000F0EC0241F0EC0251F0EC0261F0EC0271E9
:100B3000F0EC0281F0EC0291F0EC02A1F0EC02B1D9
:100B4000F0EC02C1F0EC02D1F0EC02E1F0EC02F1C9
:100B5000704700BFE0EC0201E0EC0211E0EC022182
:100B6000E0EC0231E0EC0241E0EC0251E0EC026129
:100B7000E0EC0271E0EC0281E0EC0291E0EC02A119
:100B8000E0EC02B1E0EC02C1E0EC02D1E0EC02E109
:100B9000E0EC02F1704700BFB0FC0181B0FC0191B4
:100BA000B0FC01A1B0FC01B1704700BFA0FC018105
:100BB000A0FC0191A0FC01A1A0FC01B1704700BF05
:100BC000EC4600B52DE900502DE9FF1F4FF0000362
:100BD0002DE90C0001A906F077F8DDF840E012B02D
:100BE000704700BFEC4600B52DE900502DE9FF1F0E
:100BF0004FF000032DE90C0001A906F0A1F8DDF883
:100C000040E012B0704700BFEC4600B52DE900503F
:100C10002DE9FF1F4FF000032DE90C0001A906F09C
:100C2000B1F8DDF840E012B0704700BFEC4600B507
:100C30002DE900502DE9FF1F4FF000032DE90C00B6
:100C400001AB06F075F8DDF840E012B0704700BF68
:100C5000EC4600B52DE900502DE9FF1F4FF00003D1
:100C60002DE90C0001AA06F0E1F8DDF840E012B031
:100C7000704700BF704700BF10B5054C237833B9EB
:100C8000044B13B10448AFF300800123237010BD5F
:100C90007000002000000000C477000808B5034B76
:100CA0001BB103490348AFF3008008BD00000000FA
:100CB00074000020C47700082DE9F0418EB00024B4
:100CC00009940A940B940C940D944D4BDA6C42F0F9
:100CD0001002DA64DA6C02F010020192019ADA6C06
:100CE00042F00402DA64DA6C02F004020292029A20
:100CF000DA6C42F02002DA64DA6C02F0200203922D
:100D0000039ADA6C42F08002DA64DA6C02F0800254
:100D10000492049ADA6C42F00102DA64DA6C02F0AE
:100D200001020592059ADA6C42F00202DA64DA6C8A
:100D300002F002020692069ADA6C42F00802DA64C5
:100D4000DA6C02F008020792079ADA6C42F040026D
:100D5000DA64DB6C03F040030893089B02F09CF814
:100D6000284E22464FF4E771304601F025FDDFF8AA
:100D7000A48022464FF48741404601F01DFD224FDA
:100D800022468021384601F017FD4FF400530993A5
:100D90004FF488130A930B9409A91C4801F014FC22
:100DA000012509950A940B9409A9304601F00CFC21
:100DB0004FF4E77309930A950B940C9409A93046F4
:100DC00001F002FC4FF4874309930A950B940C94AD
:100DD00009A9404601F0F8FB202309930A940B94DB
:100DE00009A90B4801F0F0FB802309930A950B94A5
:100DF0000C9409A9384601F0E7FB0EB0BDE8F0817C
:100E00000010024000140048000C00480008004890
:100E1000001800480004004872B6FEE708B51648FE
:100E2000164B0360164B43604FF0805383600023E2
:100E3000C36003610C224261836103624362836287
:100E4000436604F044F970B900210B4804F0B7F987
:100E500058B90021084804F0D7F940B9064804F011
:100E60008FF930B908BDFFF7D7FFFFF7D5FFFFF7C0
:100E7000D3FFFFF7D1FF00BF487E00200080004075
:100E80002433030000B58BB0002307930893099324
:100E90000193029303930493059306931F48204AFA
:100EA000026043608360C360036104224261037691
:100EB00043760122C26180F820308362C36280F8E9
:100EC0003030436380F838200C21C16303644364ED
:100ED000826400F09DFDD0B90023079307A90F4855
:100EE00001F07AFAA8B90F4B01930623029300236D
:100EF00003937F2204920422059206930DEB0201D4
:100F0000064800F013FF30B90BB05DF804FBFFF7A3
:100F100083FFFFF781FFFFF77FFF00BF8C7D00207D
:100F2000000004500200300400B58FB000230A9383
:100F30000B930C930D9307930893099300930193DC
:100F4000029303930493059306932A482A4A026066
:100F50007722426083606322C2600361836103F091
:100F600007FB002836D14FF480530A930AA9214881
:100F700003F04EFC80BB1F4803F02AFB70BB00232C
:100F80000793099307A91B4803F086FD40BB602324
:100F9000009300220192029204926946154803F0E0
:100FA0008DFBF8B904226946124803F087FBD8B9D3
:100FB000082269460F4803F081FBB8B90C22694644
:100FC0000C4803F07BFB98B90A4800F04FFC0FB0C7
:100FD0005DF804FBFFF720FFFFF71EFFFFF71CFF84
:100FE000FFF71AFFFFF718FFFFF716FFFFF714FFD1
:100FF000FFF712FF4C7F00200004004000B589B0CD
:10100000002304930593069307930193029303939C
:101010001348144A02607722426083604FF6FF72E1
:10102000C2600361836103F0A3FA90B94FF4805367
:10103000049304A90A4803F0EBFB60B90023019371
:10104000039301A9064803F027FD30B909B05DF804
:1010500004FBFFF7E1FEFFF7DFFEFFF7DDFE00BF59
:10106000987F00200008004000B58FB03422002196
:1010700001A804F03DF92548254B03600023436097
:101080008360C36003611D224261032282613B22AF
:10109000C261072202629F2242625722826240F2AC
:1010A0007112C2625B22026380F83430C82280F879
:1010B000352080F8363001F01BFD18BB002201926C
:1010C0006421029103925023049302200590FF2093
:1010D000069007924FF480600890052009900D4813
:1010E0000A900B910C93C8238DF834308DF835306D
:1010F0008DF8363001A9054801F0DEFD20B90FB0AA
:101100005DF804FBFFF788FEFFF786FED87E00201F
:10111000006801408C00002008B51548154B03609D
:101120004FF4E133436000238360C36003610C220A
:1011300042618361C36103624362836203F0C7FF5C
:1011400070B900210A4804F03AF858B9002108485B
:1011500004F05AF840B9064804F012F830B908BD56
:10116000FFF75AFEFFF758FEFFF756FEFFF754FE53
:10117000E47F0020004C004008B51348134B036087
:10118000A3F13E53A3F58013A3F5656343600023E9
:1011900083600122C260036143618361C3610362B2
:1011A00001F018FB50B90021074801F071FB38B974
:1011B0000021054801F09AFB20B908BDFFF72CFE7D
:1011C000FFF72AFEFFF728FEF47D00200084004090
:1011D00000B599B04822002106A804F089F8002043
:1011E0000190029003900490059001F0CFFD30BB78
:1011F0001023069301220D9200230E9360230F9378
:1012000002231193129213923C2214921593169377
:10121000179306A801F026FF98B90F230193032323
:101220000293002303934FF48062049205930521F7
:1012300001A802F09DFA30B919B05DF804FBFFF780
:10124000EBFDFFF7E9FDFFF7E7FD00000000000000
:1012500038B52DED028B00F0A5FBFFF7B9FFFFF7C6
:101260002BFDFFF7DBFDFFF70DFEFFF75DFEFFF740
:10127000C5FEFFF7F9FEFFF74FFFFFF77DFF0021E7
:101280004F4803F055FB002305E04E4A4FF47841E8
:1012900042F823100133B3F5FA5FF6DB4A4C2046DF
:1012A00001F01CF84FF0FF31204600F0ADFC204665
:1012B00000F038FD80B2FFF7D5F831A3D3E9002361
:1012C000FFF73AF904460D4602460B462EA1D1E936
:1012D0000001FEF779FF2EA3D3E90023FFF756FAAA
:1012E00002460B4620462946FFF750FA41EC180B00
:1012F00041EC100B04F004F851EC100B26A3D3E9D9
:101300000023FFF719F926A3D3E90023FEF75EFFB8
:1013100004460D46B0EE480AF0EE680A03F0F0FF0E
:101320009FED211B04F030F851EC100B20A3D3E902
:101330000023FFF701F902460B4620462946FEF737
:1013400045FF02460B4600202049FFF71FFA1AA36B
:10135000D3E90023FEF738FF1D4BC3E900011D4C04
:101360008021204601F02DFA4FF48041204601F003
:1013700028FA4FF4FA7000F037FB8FE7AFF30080E4
:101380006666666666660A3F6666666666660A4002
:10139000000000000088C3402829B000A60C2C3FA4
:1013A000A019C40776FC473F000000000000084079
:1013B000C1EE20E8FBB87C3E666666666602714058
:1013C0004C7F00208C0000208C7D00200000F03F2E
:1013D000788000200004004882B00A4B1A6E42F068
:1013E00001021A661A6E02F001020092009A9A6DCA
:1013F00042F080529A659B6D03F080530193019BEC
:1014000002B070470010024010B5AEB00446002193
:1014100029912A912B912C912D91982203A803F0C8
:1014200067FF22681D4B9A4201D02EB010BD4FF4C9
:10143000804303934FF08053239301230493059338
:101440001823069302230793089309934FF08073A0
:101450000A9303A802F020FCE8B9114BDA6C42F4BD
:101460000052DA64DA6C02F400520192019ADA6CEA
:1014700042F00402DA64DB6C03F004030293029B83
:10148000012329930B232A9300232B9329A9054891
:1014900001F09AF8C9E7FFF7BFFCDEE7000004504F
:1014A000001002400008004810B5AEB0044600210C
:1014B00029912A912B912C912D91982203A803F028
:1014C00017FF2268184B9A4201D02EB010BD4FF47E
:1014D0008013039303A802F0DFFB10BB134CE36CF3
:1014E00043F00803E364E36C03F008030193019BFA
:1014F0004FF44053299312232A9300232B93032361
:101500002C9304232D9329A9094801F05DF8E36D7C
:1015100043F00203E365E36D03F002030293029BD1
:10152000D3E7FFF779FCD9E70084004000100240C0
:10153000000C004810B5B0B0044600212B912C914E
:101540002D912E912F91982205A803F0D1FE2368AA
:10155000304A934204D0304A93422FD030B010BD6D
:101560002023059305A802F097FB20BB2B4BDA6DD7
:1015700042F00102DA65DA6D02F001020192019A8D
:10158000DA6C42F04002DA64DB6C03F04003029351
:10159000029B01F081FC4FF4C0732B9302232C9328
:1015A00000232D9303232E9308232F932BA91C484C
:1015B00001F00AF8D2E7FFF72FFCD7E708230593DD
:1015C00005A802F069FB08BB144B9A6D42F4002297
:1015D0009A659A6D02F400220392039ADA6C42F043
:1015E0000102DA64DB6C03F001030493049B032320
:1015F0002B9302222C9200222D922E9308232F93BC
:101600002BA94FF0904000F0DFFFA7E7FFF704FCA5
:10161000DAE700BF00800040004C004000100240AC
:10162000001800482DE9F047B4B0044600212F917E
:101630003091319132913391982209A803F058FEEC
:1016400022686F4B9A4202D034B0BDE8F0874FF465
:1016500080030993012311931293262313930223EA
:101660001493169315934FF08073179309A802F003
:1016700013FB002840F0C180624B1A6E42F080627A
:101680001A661A6E02F080620192019ADA6C42F0D8
:101690001002DA64DA6C02F010020292029ADA6C3A
:1016A00042F00402DA64DA6C02F004020392039A54
:1016B000DA6C42F00102DA64DA6C02F001020492A0
:1016C000049ADA6C42F02002DA64DA6C02F020024A
:1016D0000592059ADA6C42F00202DA64DA6C02F0E2
:1016E00002020692069ADA6C42F00802DA64DA6CB8
:1016F00002F008020792079ADA6C42F04002DA64BC
:10170000DB6C03F040030893089B01F0C5FB4FF628
:101710008C732F9302263096002431940325329542
:101720000B2733972FA9384800F04EFF04232F933F
:1017300030963194329533972FA9344800F044FF06
:1017400010232F9330963194329533972FA94FF071
:10175000904000F039FF4FF40069CDF8BC9030960E
:10176000319432954FF00908CDF8CC80DFF8A8A06D
:101770002FA9504600F028FF4FF470432F93309666
:101780003194329533972FA9504600F01DFFCDF8C4
:10179000BC9030963194329533972FA91C4800F0B5
:1017A00013FF4CF203732F93309631943295339795
:1017B0002FA9184800F008FF40232F93309631944A
:1017C0003295CDF8CC80DFF854802FA9404600F048
:1017D000FBFE4FF400532F9330963194329533979C
:1017E0002FA9404600F0F0FE224621465B2000F083
:1017F00091FE5B2000F0C6FE26E7FFF70DFB3BE7FE
:101800000068014000100240001000480008004835
:1018100000040048000C004800140048001800486C
:1018200082B003680E4A934204D00E4A93420CD011
:1018300002B070470C4B9A6D42F002029A659B6DA4
:1018400003F002030093009BF2E7074B9A6D42F00E
:1018500004029A659B6D03F004030193019BE7E783
:1018600000040040000800400010024030B589B07C
:101870000023039304930593069307930268214B77
:101880009A4201D009B030BD03F50333DA6C42F05F
:101890000102DA64DA6C02F001020092009ADA6C5A
:1018A00042F00202DA64DA6C02F002020192019A5A
:1018B000DA6C42F00402DA64DB6C03F00403029396
:1018C000029B8023039302240494079403A94FF0FE
:1018D000904000F079FE03230393049400250595BE
:1018E0000695079403A9084800F06EFE4023039371
:1018F000049405950695079403A9044800F064FE36
:10190000C0E700BF00040040000400480008004891
:10191000FEE7FEE7FEE7FEE7FEE770477047704729
:1019200008B500F04FF808BD10B5044C204601F092
:101930005AF90021204601F0F3F910BDD87E0020AD
:10194000034AD2F8883043F47003C2F888307047F5
:1019500000ED00E0104B1B780BB90120704710B56B
:1019600004464FF47A70B0FBF3F30C4A1068B0FBF6
:10197000F3F000F015FE68B90F2C01D901200AE040
:10198000002221464FF0FF3000F0C4FD044B1C60E4
:10199000002000E0012010BD040000200000002015
:1019A0000800002010B5032000F0A2FD0020FFF782
:1019B000D1FF10B10124204610BD0446FFF70CFDF5
:1019C000F9E70000034B1B78034A11680B441360CE
:1019D000704700BF0400002080800020014B186881
:1019E000704700BF8080002038B50446FFF7F6FF3F
:1019F0000546B4F1FF3F02D0044B1B781C44FFF7AF
:101A0000EDFF401BA042FAD338BD00BF0400002008
:101A100030B583B000230193002800F0E68004462F
:101A2000836D13B323689A6812F0005F05D09A683B
:101A300022F0204222F03F029A602268936813F05D
:101A4000805F1FD1936823F0104323F03F0343F0DE
:101A500080539360664B1B689B09664AA2FB032375
:101A60009B0901335B00019309E0FFF7CDFC0023E4
:101A7000E36584F85430D5E7019B013B0193019B5A
:101A8000002BF9D12268936813F0805F40F08480C6
:101A9000A36D43F01003A365E36D43F00103E36519
:101AA0000120936813F0040300D00123A16D11F00D
:101AB000100F40F09380002B40F09080A36D23F432
:101AC000817343F00203A365936813F0010F14D1EF
:101AD000494B9A6812F0010200D00122474B9B68E3
:101AE00013F0010300D00123134306D16368444976
:101AF0008A6822F47C1213438B60627E636B43EA34
:101B00004233E2681343A268134394F8202043EA67
:101B10000243012A42D0A26A22B102F47072E16A41
:101B20000A4313432168CD68364A2A401A43CA60E3
:101B300021688B6813F0040300D001238A6812F037
:101B4000080200D00122C3B9BAB9E36C227E43EA8D
:101B5000823394F8302043EA4202CB6823F4804376
:101B600023F006031343CB6094F83830012B1AD0CE
:101B70002268136923F0010313612369012B24D028
:101B80002268136B23F00F031363A36D23F0030389
:101B900043F00103A36526E0002082E7626A013A70
:101BA00043EA4243B7E721680B6923F4FF6323F05C
:101BB0000403E26B256C2A43656C2A43A56C2A4317
:101BC000134343F001030B61D7E721680B6B23F04C
:101BD0000F03E269013A13430B63D6E7A36D43F0A9
:101BE0001003A365012003B030BD0120FBE700BF57
:101BF00000000020632D3E05000004500001045049
:101C00000003045007C0F0FF2DE9F04104460E46E2
:101C1000424B9F6807F01F074569082D14D0092F14
:101C200005D840F22123FB4013F0010F06D13B4BB6
:101C30009B6813F4604F2CD1042505E00368DB6832
:101C400013F0010F1FD10425FFF7C8FE804623685B
:101C50001A682A4223D1B6F1FF3FF8D0FFF7BEFE43
:101C6000A0EB0800B04201D8002EF0D123681B6819
:101C70002B42ECD1A36D43F00403A365002384F849
:101C80005430032045E0836D43F020038365012039
:101C90003FE0A36D43F02003A365012039E0A26D6E
:101CA00042F40072A265DA6812F4406F11D1627ECC
:101CB0007AB91A6812F0080F0BD0A26D22F4807264
:101CC000A265A26D12F4805F03D1A26D42F0010201
:101CD000A265134A93420CD01A4693420CD0092FA6
:101CE00005D840F22121F94011F0010F04D1D2684A
:101CF00003E0A2F58072F0E7DA68082D06D012F44E
:101D0000804F08D10C221A60002002E008221A60DD
:101D10000020BDE8F0810020FBE700BF0003045075
:101D2000000104500368186C70470000F0B583B0E0
:101D30000022019290F85420012A00F057820346B5
:101D4000012280F854200268926812F0040F09D032
:101D5000826D42F0200282650120002283F8542027
:101D600003B0F0BD4A68052A09D8023A032A00F2F6
:101D70009D80DFE802F0029194970C224A601D6872
:101D80004C683035220A920002F00C02A85804F088
:101D90001F0E1F2404FA0EF420EA04000C68C4F39A
:101DA000846C0CFA0EFC40EA0C00A8501C68A26877
:101DB00012F0040200D00122A06810F0080000D048
:101DC0000120002A34D1002832D18868B0F1004FB8
:101DD0006FD00E681434720E920002F00402A558FF
:101DE000C6F3045C072606FA0CF625EA060500FA97
:101DF0000CF02843A0501868426922F0004242616A
:101E00004C691868C268C2F3C102520094400D695F
:101E1000042D63D00E68603050F82570AC4A3A400B
:101E200006F0F8463443224342F0004240F82520B1
:101E30001868826812F0010F17D10A68CD68D0F8CF
:101E4000B040C2F3120C24EA0C0405F0180CA14DAA
:101E500025FA0CF52A40C2F312022243C0F8B02042
:101E6000C8689D4A904200F0A1800A689B490A42D6
:101E700000F0B8819A49896801F0E074994882427B
:101E800000F062819848824200F085819748824242
:101E900000F09581002060E712224A606FE7182267
:101EA0004A606CE74FF480724A6068E706224A6035
:101EB00065E708681434420E920002F00402A55847
:101EC000C0F30450072606FA00F025EA0000A050EF
:101ED0001868426942F00042426191E7026E046E66
:101EE000C4F384640A68C2F3120585BBC2F384623A
:101EF000944234D01C68626E606EC0F384600A68DD
:101F0000C2F3120585BBC2F38462904234D01C68D0
:101F1000A26EA06EC0F384600A68C2F3120585BB8E
:101F2000C2F38462904234D01C68E26EE06EC0F36B
:101F300084600A68C2F3120585BBC2F384629042D2
:101F40007FF476AFE26E22F00042E26670E792FA2A
:101F5000A2F212B1B2FA82F2CAE72022C8E7026EF8
:101F600022F000420266C5E792FAA2F212B1B2FA7A
:101F700082F2CAE72022C8E7626E22F0004262665F
:101F8000C5E792FAA2F212B1B2FA82F2CAE72022AF
:101F9000C8E7A26E22F00042A266C5E792FAA2F25A
:101FA00012B1B2FA82F2CAE72022C8E71C680A68B6
:101FB000C2F31205002D38D1900E013000F01F0041
:101FC00009288CBF00200120002866D0002D3BD1BD
:101FD000900E0130800600F0F840002D40D1970EA1
:101FE000013707F01F070126BE403043002D46D1C0
:101FF000920E013202F01F0202EB42021205104360
:102000008D6804F1140E420E920002F004025EF894
:102010000240C0F304500726864024EA060C85409F
:102020004CEA05054EF802501FE792FAA2F048B1BB
:10203000B0FA80F0013000F01F0009288CBF0020AA
:102040000120C1E72020F5E792FAA2F030B1B0FA02
:1020500080F00130800600F0F840BEE72020F8E76D
:1020600092FAA2F64EB1B6FA86F6013606F01F06CF
:102070004FF0010C0CFA06F6B7E72026F5E792FAC6
:10208000A2F242B1B2FA82F2013202F01F0202EB76
:1020900042021205B3E72022F6E74DBB900E013055
:1020A000800600F0F8407DBB970E013707F01F0750
:1020B0000126BE403043B5BB920E013202F01F0232
:1020C00002EB42021E3A120542F00072104397E7FB
:1020D00000F0FF03FFFF070000007F4000000880C2
:1020E00000030450000052C7000084CB01000080B0
:1020F00092FAA2F030B1B0FA80F00130800600F020
:10210000F840D0E72020F8E792FAA2F64EB1B6FAEE
:1021100086F6013606F01F064FF0010C0CFA06F6A3
:10212000C8E72026F5E792FAA2F25AB1B2FA82F293
:10213000013202F01F0202EB42021E3A120542F087
:102140000072C3E72022F3E711F4000F7FF49AAE88
:102150001968274A914201D00020FEE544F40002AC
:102160002448816821F0E0710A438260224A1268A3
:1021700092092249A1FB02129209013202EB4202AA
:102180009200019202E0019A013A0192019A002A1A
:10219000F9D10020E1E511F0807F7FF477AE196876
:1021A000134A914201D00020D7E544F080721148D3
:1021B000816821F0E0710A4382600020CDE511F4CE
:1021C000800F11D119680A4A914201D00020C4E55C
:1021D00044F480020748816821F0E0710A4382607C
:1021E0000020BAE50020B8E50020B6E50220B7E5FA
:1021F000000004500003045000000020632D3E0541
:1022000030B583B00023019303689A6812F0010F80
:1022100058D1044699682D4A114219D19A6822F082
:10222000004222F03F0242F001029A60284B9B6874
:1022300013F4000F1CD0274B1B689B09264AA2FBF6
:1022400003239B09013303EB43039B0001930CE041
:10225000836D43F010038365C36D43F00103C365D1
:10226000012030E0019B013B0193019B002BF9D140
:10227000FFF7B4FB054623681A6812F0010F1FD15F
:102280009A6812F0010F07D19A6822F0004222F0FA
:102290003F0242F001029A60FFF7A0FB431B022BB2
:1022A000E9D923681B6813F0010FE4D1A36D43F053
:1022B0001003A365E36D43F00103E365012002E031
:1022C000002000E0002003B030BD00BF3F000080D0
:1022D0000003045000000020632D3E0538B53C4B40
:1022E0009D6803689B6813F0040F6CD1044605F0E9
:1022F0001F0590F85430012B67D0012380F854302B
:10230000FFF77EFF00285AD1A36D23F4706323F0FA
:10231000010343F48073A36523682E4A934232D0AD
:102320001A46934200D01DB9A26D22F48012A26514
:10233000A26D12F4805F29D0E26D22F00602E26500
:102340001C221A60002384F854302368214A9342E7
:102350001FD01A4693421FD0092D05D840F22121E3
:10236000E94011F0010F17D1A36D43F48013A36569
:10237000D36813F0007F27D0A36D23F4405343F4B8
:102380008053A36520E0A2F58072CAE70022E265CF
:10239000D6E7A2F58072DDE7DA6812F0007F05D09B
:1023A000A26D22F4405242F48052A2659A6822F053
:1023B000004222F03F0242F004029A6004E000234F
:1023C00084F8543000E0022038BD0220FCE700BF52
:1023D000000304500001045090F85420012A7ED0DC
:1023E00010B49BB00346012280F8542000221692BC
:1023F000179200683B4A904238D000220092009A1F
:10240000002A37D0926812F0040200D001228068BE
:1024100010F0040F53D1002A51D10A68002A32D09B
:10242000314CA26822F46042486893F830C040EA18
:102430004C300243A2602B4A906810F0010000D09B
:1024400001202A4A926812F0010200D001220243C0
:1024500041D1254CA26822F4716222F00F02086873
:10246000896801430A43A26000202DE002F58072D2
:102470000092C4E79A6D42F020029A65002283F828
:102480005420012023E018498A6822F460428A60BF
:10249000144A916811F0010100D00121134A926899
:1024A00012F0010200D001220A4316D10E498A68B7
:1024B00022F4716222F00F028A60002004E09A6D1B
:1024C00042F020029A650120002283F854201BB0BC
:1024D0005DF8044B70470020F6E70020F4E7022087
:1024E000704700BF00000450000304500001045076
:1024F000074AD36823F4E0631B041B0C000200F4BA
:10250000E060034343F0BF6343F40033D36070479C
:1025100000ED00E000B5194BDB68C3F30223C3F103
:10252000070CBCF1040F28BF4FF0040C03F1040E9C
:10253000BEF1060F18D9033B4FF0FF3E0EFA0CFC1C
:1025400021EA0C0199400EFA03FE22EA0E020A4328
:1025500000280BDB1201D2B200F1604000F56140AF
:1025600080F800235DF804FB0023E5E700F00F008E
:102570001201D2B2024B1A54F4E700BF00ED00E0A2
:1025800014ED00E0002807DB00F01F0240090123E2
:102590009340024A42F82030704700BF00E100E05B
:1025A0000138B0F1807F0BD24FF0E0235861054A2B
:1025B000F02182F823100020986107221A617047E9
:1025C0000120704700ED00E0F0B583B0002362E029
:1025D00085685E000324B44025EA0405CC68B44055
:1025E0002C438460456825EA0C054C68C4F300144C
:1025F0009C402C43446060E0DD08083550F82540DD
:1026000003F0070C4FEA8C0C4FF00F0E0EFA0CFE85
:1026100024EA0E0E0C6904FA0CF444EA0E0440F8A5
:10262000254061E0072400E0002404FA0EF42C4366
:102630000CF1020C5C4D45F82C405C4CA568D44371
:1026400025EA02064F6817F4801F01D042EA05060A
:10265000564DAE60ED6804EA05064F6817F4001F9A
:1026600001D042EA0506514DEE606D6804EA0506A8
:102670004F6817F4003F01D042EA05064B4D6E60EB
:102680002D682C404E6816F4803F01D042EA0504C4
:10269000464A146001330A6832FA03F400F081807C
:1026A0004FF0010C0CFA03FC1CEA0202F2D04C6859
:1026B00004F00304013C012C8AD94C6804F00304A3
:1026C000032C0CD0C4685D004FF0030C0CFA05FC21
:1026D00024EA0C0C8C68AC4044EA0C04C4604C68DE
:1026E00004F00304022C87D004684FEA430E4FF035
:1026F000030C0CFA0EFC24EA0C0C4C6804F00304E6
:1027000004FA0EF444EA0C0404604C6814F4403FEC
:10271000C0D0274C256E45F001052566246E04F0D7
:1027200001040194019C4FEA930C0CF102051E4C2C
:1027300054F8255003F0030E4FEA8E0E0F2404FACE
:102740000EF425EA0405B0F1904F3FF46DAF194C3B
:10275000A0421AD004F58064A04218D004F5806429
:10276000A04216D004F58064A04214D004F5806421
:10277000A04212D004F58064A04210D004F5806419
:10278000A0423FF44FAF08244FE701244DE7022455
:102790004BE7032449E7042447E7052445E70624DB
:1027A00043E703B0F0BD00BF00000140000401405A
:1027B00000100240000400480AB181617047816244
:1027C0007047436901EA030221EA030141EA024139
:1027D00081617047002859D010B5044690F8413007
:1027E000002B43D0242384F841302268136823F05F
:1027F000010313606368226823F070631361226829
:10280000936823F400439360E368012B33D0A368FB
:10281000226843F404439360E368022B31D02268BA
:10282000536843F0007343F4004353602268D36855
:1028300023F40043D360236962691343A1692268CA
:1028400043EA0123D360E369216A22680B431360E2
:102850002268136843F001031360002060642023A2
:1028600084F84130206384F8420010BD80F8403085
:10287000FEF71AFEB6E7A368226843F400439360AC
:10288000CAE723684FF400625A60C8E70120704726
:10289000034690F84120D2B2202A23D190F840205C
:1028A000012A21D0012280F84020242280F84120F2
:1028B0000068026822F0010202601868026822F4CF
:1028C00080520260186802681143016019680A6842
:1028D00042F001020A60202283F84120002083F8A0
:1028E000400070470220704702207047034690F86E
:1028F0004120D2B2202A21D190F84020012A1FD0B5
:10290000012280F84020242280F8412000680268DB
:1029100022F0010202601868026822F4706242EA42
:102920000122026019680A6842F001020A6020224E
:1029300083F84120002083F8400070470220704750
:102940000220704770B54D680368DC68C4F30B441F
:1029500025444FEAC21C03EBC213D3F8884004F0AD
:10296000F024C3F888400B680468E668C6F30B4699
:102970003344013304EBC21443EA0543C4F88830FE
:10298000CD680368DC68C4F30A04254403EBC21372
:10299000D3F88C4004F0F024C3F88C408B680468B2
:1029A000E668C6F30A063344013304EBC21443EA73
:1029B0000543C4F88C30036803EBC213D3F894408A
:1029C00024F00704C3F89440036803EBC2130C69B6
:1029D000C3F8944091F831E091F832508E69036861
:1029E00003EBC213D3F89C400024C3F89C4091F839
:1029F000303043EA0E2343EA0543056805EBC21570
:102A000043EA0663C5F89C30036803EBC213D3F8AE
:102A1000985025F0FF05C3F89850036803EBC213E4
:102A20004D69C3F89850036803EBC213D3F8A05064
:102A300025F4E06525F00705C3F8A0500D6A03688A
:102A400003EBC213CE693543C3F8A050036803EB10
:102A5000C213D3F8AC50C3F8AC40036803EBC21305
:102A60004A6AC3F8AC200A6982B1531E062B05D806
:102A7000DFE803F03C0D080604040A00012206E02A
:102A8000022204E0022202E0022200E004220368A3
:102A90006344D3F8B04004F0E024C3F8B0408B6A3C
:102AA00002FB03F44B680D685B1B02FB03F303336B
:102AB0000268624443EA0443C2F8B03003686344E6
:102AC000D3F8B42022F4FF6222F00702C3F8B42046
:102AD00003686344CA6AC3F8B42003686344D3F844
:102AE000842042F00102C3F8842070BD0322CEE7A7
:102AF000002871D038B5044690F86D30002B66D0B0
:102B0000022384F86D302268936923F07043936147
:102B100021688A696368A0680343E0680343206909
:102B2000034313438B6121688A682C4B1A408A60E7
:102B300020688268A169656941EA05410A438260AB
:102B40002168CA681A40CA602068C268216AE569BB
:102B500041EA05410A43C26021680A691A400A61D4
:102B600020680269A16A656A41EA05410A43026177
:102B700021684A6913404B61E06A21684B69226B06
:102B800042EA004213434B6194F8350094F8363022
:102B90001B042168CA6A02F07F42CA622168CA6ABD
:102BA00043EA002394F8340003431343CB622268C2
:102BB000536B43F0060353632268936943F00103A8
:102BC000936100202067012384F86D3038BD80F8C0
:102BD0006C30FEF727FD93E70120704700F800F006
:102BE00070477047704770B5044603689D6B5E6B15
:102BF00015F0040F02D016F0040F12D115F0020FD9
:102C000002D016F0020F1FD115F0010F02D016F0FE
:102C1000010F2ED115F0080F02D016F0080F39D190
:102C200070BD5A6B22F004025A6303680422DA630F
:102C3000036F43F00103036780F86D20002380F8E1
:102C40006C30FFF7CDFFD9E72268536B23F0020306
:102C5000536323680222DA63236F13432367042339
:102C600084F86D30002384F86C302046FFF7B8FFFD
:102C7000CAE72268536B23F00103536322680123E0
:102C8000D36384F86D30002384F86C302046FFF75E
:102C9000A8FFBFE72268536B23F008035363236840
:102CA0000822DA63012384F86D30002384F86C3045
:102CB0002046FFF797FFB3E7F8B590F86C30012B8B
:102CC0002CD004460D461646012780F86C7002236E
:102CD00080F86D304FF0340C0CFB020C0CF1380C0A
:102CE0008E46BEE80F00ACE80F00BEE80F00ACE86F
:102CF0000F00BEE80F00ACE80F00DEF80030CCF8A3
:102D00000030324629462046FFF71CFE23685F62EA
:102D100084F86D70002084F86C00F8BD0220FCE798
:102D200090F86C20012A1AD010B40346012083F8D1
:102D30006C00022283F86D201C68626B22F0010295
:102D40006263084A116419684A6B02434A6383F854
:102D50006D00002083F86C005DF8044B7047022082
:102D6000704700BF00680140074B186800F4C0605E
:102D7000B0F5806F04D0D3F8800010F4807000D1DB
:102D800070474FF40070FBE700700040002836D118
:102D90003E4B1B6803F4C063B3F5806F08D03B4A19
:102DA000D2F8803023F48073C2F88030002070475E
:102DB000364AD2F8803023F48073C2F8803013682A
:102DC00023F4C06343F400731360314B1B68322259
:102DD00002FB03F32F4AA2FB03239B0C013300E009
:102DE000013B2A4A526912F4806F01D0002BF7D1BF
:102DF000264B5B6913F4806F44D100207047B0F517
:102E0000007F08D0214A136823F4C06343F4806331
:102E10001360002070471D4B1B6803F4C063B3F5BB
:102E2000806F08D0194AD2F8803043F48073C2F81A
:102E3000803000207047154AD2F8803043F4807308
:102E4000C2F88030136823F4C06343F40073136046
:102E50000F4B1B68322202FB03F30E4AA2FB032333
:102E60009B0C013300E0013B084A526912F4806F69
:102E700001D0002BF7D1054B5B6913F4806F03D1B0
:102E80000020704703207047032070470070004007
:102E90000000002083DE1B43024A536843F40073A2
:102EA00053607047007000401A4BDB6803F0030367
:102EB000022B2BD0032B2BD0012B14D00021154A31
:102EC000D368C3F303130133D068C0F3062001FBBA
:102ED00000F0B0FBF3F0D368C3F3416301335B0050
:102EE000B0FBF3F070470B4B1B6813F0080F08D1D1
:102EF000084BD3F89430C3F30323074A52F8231046
:102F0000DDE7044B1B68C3F30313F6E70349D6E779
:102F10000349D4E700100240F87700080024F400C9
:102F200000127A0030B583B004461F4B9B6D13F03E
:102F3000805F0AD0FFF718FFB0F5007F16D07F2C16
:102F40001ED8702C2BD000211BE0174DAB6D43F029
:102F50008053AB65AB6D03F080530193019BFFF78A
:102F600003FFAB6D23F08053AB65E5E7802C03D9FD
:102F7000A02C03D9022104E0002102E0012100E09D
:102F800002210A4A136823F00F030B4313601368EE
:102F900003F00F038B4204D1002003B030BD0121A8
:102FA000EFE70120F9E700BF0010024000200240D7
:102FB000284A9368D26802F0030213F00C030AD087
:102FC0000C2B06D0042B1FD0082B20D0002002464B
:102FD00010E0012AF6D11F4A126812F0080F0CD136
:102FE0001C4AD2F89420C2F303221B4951F8222034
:102FF00043B100200C2B0DD07047164A1268C2F363
:103000000312F2E71046F5E714480022F2E71448ED
:103010000022EFE70F4BDB6803F00303022B16D00F
:10302000032B00D10E4A0B49CB68C3F303130133C2
:10303000C868C0F3062002FB00F0B0FBF3F0CB68D9
:10304000C3F3416301335B00B0FBF3F0D4E7034A01
:10305000E9E700BF00100240F87700080024F40000
:1030600000127A00002800F06783F0B583B00446B0
:10307000964B9D6805F00C05DE6806F003060368B4
:1030800013F0100F5AD0E5B10C2D18D0E369002BC6
:1030900000F0BB808D4A136843F001031360FEF714
:1030A0009DFC0746894B1B6813F0020F40F09A8085
:1030B000FEF794FCC01B0228F4D9032049E3012E3B
:1030C000E4D1824B1B6813F0020F03D0E369002B9D
:1030D00000F03483606A7D4B1B6813F0080F5BD0EF
:1030E0007A4B1B6803F0F00398425CD8774B1A6860
:1030F00042F008021A601A6822F0F002616A0A437C
:103100001A605A6822F47F42216A42EA01225A6018
:10311000002D60D0FFF74CFF6C4B9B68C3F303138B
:103120006B4AD35C03F01F03D8406A4B18606A4BAC
:103130001868FEF70FFC002840F00B83236813F09B
:10314000010F00F08180082D75D00C2D71D06368BF
:10315000B3F5803F00F09880B3F5A02F00F09A807F
:103160005A4B1A6822F480321A601A6822F48022BC
:103170001A606368002B00F09A80FEF72FFC074668
:10318000524B1B6813F4003F5ED1FEF727FCC01BB7
:103190006428F5D90320DCE24C4BD3F894301B09AA
:1031A00003F0F003A0E7FFF7BDFE002840F0C8825F
:1031B000464B1A6842F008021A601A6822F0F002C0
:1031C000616A0A431A605A6822F47F42216A42EA1D
:1031D00001225A609EE7606AFFF7A4FE002899D09A
:1031E0000120B6E2394B1A6842F008021A601A68E8
:1031F00022F0F002616A0A431A605A6822F47F42A0
:10320000216A42EA01225A6098E7304A136823F0A3
:1032100001031360FEF7E2FB07462C4B1B6813F01B
:10322000020F8BD0FEF7DAFBC01B0228F5D9032072
:103230008FE2032E8BD1254B1B6813F4003F03D084
:103240006368002B00F07E82236813F0020F58D0D1
:10325000042D45D00C2D41D0E368002B00F0918067
:103260001A4A136843F480731360FEF7B7FB0646EF
:10327000164B1B6813F4806F7AD1FEF7AFFB801BEF
:103280000228F5D9032064E2104A136843F480331E
:1032900013606EE703F18043A3F53C331A6842F4F0
:1032A00080221A601A6842F480321A6061E7FEF7E1
:1032B00095FB0746054B1B6813F4003FC4D0FEF78F
:1032C0008DFBC01B6428F5D9032042E200100240A8
:1032D000E07700080000002008000020022EBBD18B
:1032E000AF4B1B6813F4806F03D0E368002B00F032
:1032F0002B82AB4A536823F0FE43216943EA016302
:103300005360236813F0080F7DD06369002B63D0EE
:10331000A34BD3F89430A16903F01002914210D06E
:1033200003F00302022A00F0118213F0010F3CD1D6
:103330009B4AD2F8943023F01003A1690B43C2F8E2
:103340009430974AD2F8943043F00103C2F8943095
:10335000FEF744FB0646924BD3F8943013F0020F6D
:1033600051D1FEF73BFB801B1128F4D90320F0E17B
:103370008B4A536823F0FE43216943EA016353609B
:10338000BFE7874A136823F480731360FEF726FBB8
:103390000646834B1B6813F4806FB2D0FEF71EFB0A
:1033A000801B0228F5D90320D3E17D4AD2F894305E
:1033B00023F00103C2F89430FEF710FB0646784B69
:1033C000D3F8943013F0020FB2D0FEF707FB801B46
:1033D0001128F4D90320BCE1714AD2F8943023F0CB
:1033E0000103C2F89430FEF7F9FA06466C4BD3F8A5
:1033F000943013F0020F06D0FEF7F0FA801B11286C
:10340000F4D90320A5E1236813F0040F00F08D80A8
:10341000634B9B6D13F0805F2ED1614B9A6D42F030
:1034200080529A659B6D03F080530193019B0126A6
:103430005C4B1B6813F4807F20D0A36813F0010F4E
:1034400038D05749D1F8902022F0800203F0800351
:103450001343C1F89030A36813F0040F22D0D1F8C1
:10346000902042F00402C1F89020D1F8902042F060
:103470000102C1F890202AE00026D9E7494A1368E2
:1034800043F480731360FEF7A9FA0746454B1B68A7
:1034900013F4807FD1D1FEF7A1FAC01B0228F5D921
:1034A000032056E13E4AD2F8903043F00103C2F8BF
:1034B00090300CE03A4BD3F8902022F00102C3F890
:1034C0009020D3F8902022F00402C3F89020A36843
:1034D0008BB1FEF783FA0746314BD3F8903013F0E7
:1034E000020F21D1FEF77AFAC01B41F288339842CD
:1034F000F2D903202DE1FEF771FA0746284BD3F8E5
:10350000903013F0020F08D0FEF768FAC01B41F2AA
:1035100088339842F2D903201BE1214AD2F8903037
:1035200023F08003C2F89030E6B9236813F0200F2F
:103530003AD0A36AE3B11A4AD2F8983043F00103B3
:10354000C2F89830FEF74AFA0646154BD3F8983081
:1035500013F0020F28D1FEF741FA801B0228F4D99C
:103560000320F6E00E4A936D23F080539365DCE769
:103570000B4AD2F8983023F00103C2F89830FEF7D6
:103580002DFA0646064BD3F8983013F0020F0BD0F5
:10359000FEF724FA801B0228F4D90320D9E000BFEB
:1035A0000010024000700040E36A002B00F0D08061
:1035B000022B17D00C2D00F0D2806A4A136823F03A
:1035C00080731360FEF70AFA0446664B1B6813F01B
:1035D000007F00F0AA80FEF701FA001B0228F4D950
:1035E0000320B6E05F4BDB6803F00301226B9142DE
:1035F0000FD00C2D00F0AF805A4B1B6813F0806F7A
:1036000040F0AB80574B1B6813F0805F2BD001203C
:103610009FE003F0F002616B0139B2EB011FE8D1CA
:1036200003F4FE42A16BB2EB012FE2D103F078422A
:10363000E16BB2EBC16FDCD103F4C001226C520824
:10364000013AB1EB425FD4D103F0C063626C52081F
:10365000013AB3EB426FCCD1424B1B6813F0007FB1
:1036600049D0002075E03F4A136823F0807313604F
:10367000FEF7B4F905463B4B1B6813F0007F06D0FC
:10368000FEF7ACF9401B0228F5D9032061E0354A6A
:10369000D36835491940236B606B013843EA001346
:1036A000A06B43EA0023206C4008013843EA4053F2
:1036B000606C4008013843EA4063E06B43EAC06352
:1036C0001943D160136843F080731360D36843F0EB
:1036D0008073D360FEF782F90446224B1B6813F017
:1036E000007F06D1FEF77AF9001B0228F5D90320E6
:1036F0002FE000202DE01B4B1A6842F080721A6008
:10370000DA6842F08072DA60FEF768F90446154B19
:103710001B6813F0007F06D1FEF760F9031B022B34
:10372000F5D9032015E0002013E00E4AD1680F4BB5
:103730000B40D36000200CE001207047012008E01E
:10374000012006E0012004E0012002E0012000E069
:10375000002003B0F0BD0120FBE70120F9E70120C4
:10376000F7E700BF001002400C809D01FCFFEEFE59
:10377000002800F0EA80F8B50D460446774B1B6838
:1037800003F00F038B420BD2744A136823F00F032C
:103790000B431360136803F00F038B4240F0D78094
:1037A000236813F0020F0CD0A2686D4B9B6803F0E6
:1037B000F0039A4205D96A498B6823F0F0031A4353
:1037C0008A60236813F0010F6ED06368032B0DD05D
:1037D000022B25D0002B3CD103F1804303F50433A9
:1037E0001B6813F0020F21D10120A7E05C4B1B687E
:1037F00013F0007F01D10120A0E0FFF755FB594BEA
:1038000098422DD9564B9B6813F0F00F2AD1544A99
:10381000936823F0F00343F080039360802724E053
:103820004F4B1B6813F4003F00F09380FFF7C0FB81
:103830004C4B984218D94A4B9B6813F0F00F2FD18C
:10384000474A936823F0F00343F080039360802796
:103850000BE0434B1B6813F4806FE7D101206DE050
:10386000002702E0002700E000273D4A936823F08C
:10387000030361680B439360FEF7B0F80646384BCC
:103880009B6803F00C036268B3EB820F0AD0FEF76B
:10389000A5F8801B41F288339842F0D903204DE00F
:1038A0000027E2E7002F4AD1236813F0020F0CD063
:1038B000A2682B4B9B6803F0F0039A4205D228497B
:1038C0008B6823F0F0031A438A60244B1B6803F0D3
:1038D0000F03AB420AD9214A136823F00F032B438D
:1038E0001360136803F00F03AB4234D1236813F065
:1038F000040F06D01A4A936823F4E063E1680B438F
:103900009360236813F0080F07D0154A936823F4D7
:103910006053216943EAC1039360FFF749FB104BF1
:103920009B68C3F30313104AD35C03F01F03D84012
:103930000E4B18600E4B1868FEF70CF8F8BD084ADD
:10394000936823F0F0039360AEE7012070470120F5
:10395000F4E70120F2E70120F0E700BF0020024079
:103960000010024000B4C404E0770008000000200A
:1039700008000020014B1868704700BF00000020BD
:1039800008B5FFF7F7FF054B9B68C3F30223044A12
:10399000D35C03F01F03D84008BD00BF00100240F5
:1039A000F077000808B5FFF7E5FF054B9B68C3F308
:1039B000C223044AD35C03F01F03D84008BD00BFF4
:1039C00000100240F0770008F8B504460F46544B4B
:1039D000DB6813F0030F0ED0514BDB6803F00303D9
:1039E0000268934202D001252846F8BD002A00F063
:1039F0009580002509E00368022B54D0032B59D091
:103A0000012B43D00125002DEED1454A136823F048
:103A100080631360FDF7E2FF0646414B1B6813F01D
:103A2000006F05D0FDF7DAFF831B022BF5D90325C4
:103A3000002DD9D1002F4BD139480369394A1A409A
:103A4000A168E368DB0643EA01236168013943EAC0
:103A500001131A430261324A136843F08063136012
:103A6000FDF7BCFF06462E4B1B6813F0006F05D117
:103A7000FDF7B4FF831B022BF5D90325002DB3D12D
:103A8000274A1369A1690B431361ADE7244A126801
:103A900012F0020F1AD02249CA6822F0030213431F
:103AA000CB600025AFE71E4A126812F4806FF2D196
:103AB0000125A8E71A4A126812F4003FEBD1184A10
:103AC000126812F4802FE6D101259CE701259AE7C0
:103AD000012F11D012480369134A1A40A168636983
:103AE0005B08013B5B0643EA01236168013943EA55
:103AF00001131A430261AEE7094803690B4A1A40F1
:103B0000A16823695B08013B5B0543EA0123616807
:103B1000013943EA01131A4302619CE7012563E777
:103B2000001002400F80FF070F80FFF90F809FFFFA
:103B3000F8B504460F46544BDB6813F0030F0ED064
:103B4000514BDB6803F003030268934202D0012566
:103B50002846F8BD002A00F09580002509E003689A
:103B6000022B54D0032B59D0012B43D00125002D1B
:103B7000EED1454A136823F080531360FDF72EFF02
:103B80000646414B1B6813F0005F05D0FDF726FF8A
:103B9000831B022BF5D90325002DD9D1002F4BD142
:103BA00039484369394A1A40A168E368DB0643EAA9
:103BB00001236168013943EA01131A434261324A21
:103BC000136843F080531360FDF708FF06462E4B41
:103BD0001B6813F0005F05D1FDF700FF831B022B6C
:103BE000F5D90325002DB3D1274A5369A1690B43A9
:103BF0005361ADE7244A126812F0020F1AD022492D
:103C0000CA6822F003021343CB600025AFE71E4AC7
:103C1000126812F4806FF2D10125A8E71A4A1268DF
:103C200012F4003FEBD1184A126812F4802FE6D14B
:103C300001259CE701259AE7012F11D0124843691D
:103C4000134A1A40A16863695B08013B5B0643EABB
:103C500001236168013943EA01131A434261AEE767
:103C6000094843690B4A1A40A16823695B08013B74
:103C70005B0543EA01236168013943EA01131A43F2
:103C800042619CE7012563E7001002400F80FF07B7
:103C90000F80FFF90F809FFF2DE9F04182B00446AD
:103CA000036813F4006F34D0C36E402B1FD00BD8C1
:103CB00023B3202B05D100212030FFF739FF054623
:103CC00021E00126354626E0602B20D0802B0BD149
:103CD0000025634AD2F89C3023F0E003E16E0B43E9
:103CE000C2F89C30002616E00126354613E05C4AF7
:103CF000D36843F48033D3600025EAE70021043021
:103D0000FFF762FE0546002DE3D02E4603E00025B6
:103D1000DFE700263546236813F4805F33D0236F36
:103D2000B3F5007F22D00DD833B3B3F5807F06D131
:103D3000002104F12000FFF7FBFE054608E0012604
:103D4000354620E0B3F5407F02D0B3F5806F0AD14D
:103D5000C5B9434AD2F89C3023F4E063216F0B438A
:103D6000C2F89C300FE0012635460CE03C4AD3688F
:103D700043F48033D360EBE70021201DFFF724FEDE
:103D80000546E5E72E46236813F4003F71D0344B17
:103D90009B6D13F0805F4ED1314B9A6D42F0805293
:103DA0009A659B6D03F080530193019B4FF00108CE
:103DB0002C4A136843F480731360FDF70FFE074627
:103DC000284B1B6813F4807F05D1FDF707FEC01B4D
:103DD0000228F5D90325002D46D1214BD3F8903088
:103DE00013F4407316D0D4F894209A4212D01C4A8F
:103DF000D2F8903023F44073D2F8901041F480311F
:103E0000C2F89010D2F8901021F48031C2F89010CE
:103E1000C2F8903013F0010F10D1002D40F06081F6
:103E20000F4AD2F8903023F44073D4F894100B4327
:103E3000C2F8903019E04FF00008B9E7FDF7CEFD69
:103E40000746074BD3F8903013F0020FE5D1FDF78A
:103E5000C5FDC01B41F288339842F2D90325DCE747
:103E600000100240007000402E46B8F1000F40F0F4
:103E70003981236813F0010F08D0B64AD2F8883090
:103E800023F00303E16B0B43C2F88830236813F07F
:103E9000020F08D0AF4AD2F8883023F00C03216C0F
:103EA0000B43C2F88830236813F0040F08D0A94AE6
:103EB000D2F8883023F03003616C0B43C2F88830AD
:103EC000236813F0080F08D0A24AD2F8883023F0F4
:103ED000C003A16C0B43C2F88830236813F0100FA5
:103EE00008D09C4AD2F8883023F44073E16C0B432D
:103EF000C2F88830236813F0200F08D0954AD2F812
:103F0000883023F44063216D0B43C2F88830236866
:103F100013F4007F08D08F4AD2F8883023F440236E
:103F2000616E0B43C2F88830236813F4806F08D0A9
:103F3000884AD2F8883023F44013A16E0B43C2F8AC
:103F40008830236813F0400F08D0824AD2F88830B6
:103F500023F44053616D0B43C2F88830236813F09B
:103F6000800F08D07B4AD2F8883023F44043A16DFB
:103F70000B43C2F88830236813F4807F08D0754A59
:103F8000D2F8883023F44033E16D0B43C2F8883017
:103F9000236813F4801F08D06E4AD2F89C3023F0B7
:103FA0000303216E0B43C2F89C30236813F4005FB7
:103FB00011D0684AD2F8883023F04063616F0B4318
:103FC000C2F88830636FB3F1006F00F09180B3F1F5
:103FD000806F00F09280236813F4002F20D0A36F2D
:103FE000B3F5804F00F093805A4AD2F89C3023F406
:103FF0008043C2F89C30D2F8883023F04063A16F30
:104000000B43C2F88830A36FB3F1006F00F08780D4
:10401000B3F5804F00F08980B3F1806F00F08B80A2
:10402000236813F4802F11D04A4AD2F8883023F045
:104030004063E16F0B43C2F88830E36FB3F1006F68
:1040400000F08380B3F1806F00F08680236813F462
:10405000804F0ED03F4AD2F8883023F04053D4F836
:1040600080100B43C2F88830D4F88030B3F1805F01
:104070007CD0236813F4803F09D0364AD2F89C30B4
:1040800023F00403D4F884100B43C2F89C30236857
:1040900013F4001F09D02F4AD2F89C3023F01803E4
:1040A000D4F888100B43C2F89C30236813F4800FB7
:1040B00066D1236813F0807F0ED0264AD2F89C3058
:1040C00023F44013D4F890100B43C2F89C30D4F87A
:1040D0009030B3F5001F7CD0304602B0BDE8F081CF
:1040E0002E46C2E61B4A936D23F080539365C0E6CB
:1040F000D36843F48013D3606DE70121201DFFF7DF
:1041000063FC054600283FF466AF064663E7114AA4
:10411000D2F89C3043F48043C2F89C3073E70D4AD8
:10412000D36843F48013D3607AE70A4AD36843F430
:104130008033D36074E70121201DFFF745FC05465D
:1041400000283FF46DAF06466AE7D36843F4801356
:10415000D3607BE7001002400121201DFFF734FCF3
:10416000054600283FF472AF06466FE70221201D86
:10417000FFF72AFC054600283FF47BAF064678E7A8
:10418000164A136823F080531360FDF727FC074697
:10419000124B1B6813F0005F05D0FDF71FFCC31B1B
:1041A000022BF5D903251DB1002D82D02E4680E7C4
:1041B0000A4AD2F89C3023F44033D4F88C100B43D5
:1041C000C2F89C30022104F12000FFF7B1FC054643
:1041D000EAE7D36843F48013D3607DE70010024020
:1041E00030B4036A23F001030362026A44688369FE
:1041F00023F4803323F073030D681D4322F0020281
:104200008B6813431C4A90420FD002F50062904223
:104210000BD002F54062904207D002F580629042D6
:1042200003D002F58062904205D123F00803CA68EA
:104230001A4322F00403104A90420FD002F50062A4
:1042400090420BD002F54062904207D002F58062A6
:10425000904203D002F58062904205D124F440746C
:104260004A6922438C691443446085614A68426309
:10427000036230BC704700BF002C014030B4036AB9
:1042800023F480730362036A4468C26922F48032B3
:1042900022F073020D68154323F400738A6843EA21
:1042A0000223184A904203D002F50062904206D1E0
:1042B00023F40063CA6843EA022323F48063114AAB
:1042C00090420FD002F5006290420BD002F540629E
:1042D000904207D002F58062904203D002F58062DE
:1042E000904207D124F440524C6942EA04128C698E
:1042F00042EA04144460C5614A68C263036230BC88
:10430000704700BF002C014030B4036A23F480538F
:104310000362036A4468C26922F0807222F4E642B2
:104320000D6842EA052223F400538D6843EA053301
:104330000F4DA8420FD005F50065A8420BD005F53A
:104340004065A84207D005F58065A84203D005F571
:104350008065A84204D124F480444D6944EA851460
:104360004460C2614A680264036230BC704700BFA7
:10437000002C014030B4036A23F480330362036AE3
:104380004468426D22F4803222F070020D681543B9
:1043900023F400338A6843EA02430F4A90420FD065
:1043A00002F5006290420BD002F54062904207D0C5
:1043B00002F58062904203D002F58062904204D1FF
:1043C00024F480344A6944EA0224446045654A681A
:1043D0008265036230BC7047002C014030B4036A30
:1043E00023F480130362036A4468426D22F08072F2
:1043F00022F4E0420D6842EA052223F400138D689E
:1044000043EA05530F4DA8420FD005F50065A842B9
:104410000BD005F54065A84207D005F58065A84298
:1044200003D005F58065A84204D124F480244D69A9
:1044300044EA8524446042654A68C265036230BC30
:10444000704700BF002C014010B4036A046A24F0D6
:1044500001040462846924F0F00C4CEA021223F097
:104460000A030B43826103625DF8044B704710B48A
:10447000036A23F0100303628469036A24F4704C16
:104480004CEA023223F0A00343EA01138261036283
:104490005DF8044B7047836823F070030B4343F0CF
:1044A00007038360704770470368304A904212D018
:1044B000B0F1804F0FD0A2F5943290420BD002F5AC
:1044C0008062904207D002F58062904203D002F5EC
:1044D0009432904203D123F070034A681343234A75
:1044E00090421ED0B0F1804F1BD0A2F59432904282
:1044F00017D002F58062904213D002F5806290429C
:104500000FD002F5943290420BD002F540629042F7
:1045100007D002F58062904203D002F5806290429B
:1045200003D123F44073CA68134323F080034A691C
:10453000134303608B68C3620B6883620B4B984222
:104540000FD003F5006398420BD003F54063984207
:1045500007D003F58063984203D003F58063984247
:1045600001D10B690363012343617047002C0140B3
:1045700060B310B5044690F83D3013B3022384F8BD
:104580003D30214651F8040BFFF78EFF012384F8DC
:10459000483084F83E3084F83F3084F8403084F866
:1045A000413084F8423084F8433084F8443084F851
:1045B000453084F8463084F8473084F83D30002098
:1045C00010BD80F83C30FDF72BF9D7E7012070478C
:1045D00060B310B5044690F83D3013B3022384F85D
:1045E0003D30214651F8040BFFF75EFF012384F8AC
:1045F000483084F83E3084F83F3084F8403084F806
:10460000413084F8423084F8433084F8443084F8F0
:10461000453084F8463084F8473084F83D30002037
:1046200010BD80F83C30FFF73EFFD7E70120704710
:1046300030B4036A23F010030362036A446882699A
:1046400022F0807222F4E6420D6842EA052223F04D
:1046500020038D6843EA0513174DA84203D005F5E2
:104660000065A84206D123F08003CD6843EA051314
:1046700023F04003104DA8420FD005F50065A84275
:104680000BD005F54065A84207D005F58065A84226
:1046900003D005F58065A84207D124F4406C4C692D
:1046A0004CEA840C8C694CEA8404446082614A6858
:1046B0008263036230BC7047002C014038B590F82B
:1046C0003C30012B00F0958004460D46012380F814
:1046D0003C30142A00F28880DFE802F00B868686E0
:1046E0001F86868634868686488686865D8686868A
:1046F00071000068FFF774FD2268936943F00803B6
:1047000093612268936923F004039361226893699B
:1047100029690B439361002067E00068FFF788FF79
:104720002268936943F4006393612268936923F4D8
:104730008063936122689369296943EA0123936145
:10474000002052E00068FFF799FD2268D36943F02A
:104750000803D3612268D36923F00403D36122687C
:10476000D36929690B43D36100203EE00068FFF75D
:10477000CBFD2268D36943F40063D3612268D36917
:1047800023F48063D3612268D369296943EA012352
:10479000D361002029E00068FFF7ECFD2268536D2B
:1047A00043F0080353652268536D23F004035365F7
:1047B0002268536D29690B435365002015E000689A
:1047C000FFF70CFE2268536D43F4006353652268C3
:1047D000536D23F4806353652268536D296943EA5E
:1047E00001235365002000E00120002384F83C30C1
:1047F00038BD0220FCE710B4846824F47F4C42EA00
:1048000003220A4342EA0C0282605DF8044B7047BF
:1048100090F83C30012B76D010B50446012380F887
:104820003C30022380F83D3002689068374B0340EB
:1048300093600B68602B4CD029D8402B54D00CD9F6
:10484000502B22D1CA6849682068FFF7FDFD50212E
:104850002068FFF720FE002005E0202B0DD009D9AD
:10486000302B0AD00120012384F83D30002384F846
:104870003C3010BD0BB1102B05D119462068FFF755
:104880000AFE0020EFE70120EDE70120EBE7B3F59A
:10489000805F34D0B3F5005F0CD1CB684A6889687B
:1048A0002068FFF7A8FF2268936843F48043936071
:1048B0000020D8E7702B24D1CB684A68896820682B
:1048C000FFF799FF2268936843F077039360002015
:1048D000C9E7CA6849682068FFF7C9FD60212068F8
:1048E000FFF7D9FD0020BEE7CA6849682068FFF7D6
:1048F000ABFD40212068FFF7CEFD0020B3E700208C
:10490000B1E70120AFE70220704700BF8800FEFF3B
:1049100001F01F014FF0010C0CFA01FC036A23EABD
:104920000C030362036A8A4013430362704700006A
:1049300010B5044610293CD8DFE801F0093B3B3BA9
:104940001F3B3B3B263B3B3B2D3B3B3B340090F826
:104950003E30DBB2013B18BF0123002B40F09280B8
:1049600010297DD8DFE801F02C7C7C7C6C7C7C7C81
:10497000707C7C7C747C7C7C780090F83F30DBB26F
:10498000013B18BF0123E8E790F84030DBB2013B60
:1049900018BF0123E1E790F84130DBB2013B18BFBB
:1049A0000123DAE790F84230DBB2013B18BF012364
:1049B000D3E790F84330DBB2013B18BF0123CCE7CB
:1049C000022384F83E3001222068FFF7A1FF23680C
:1049D0002F4A93420FD002F5006293420BD002F5AA
:1049E0004062934207D002F58062934203D002F501
:1049F0008062934203D15A6C42F400425A642368A5
:104A0000234A934230D0B3F1804F2DD0A2F5943297
:104A1000934229D002F58062934225D002F580624C
:104A2000934221D002F5943293421DD002F54062A8
:104A3000934219D01A6842F001021A60002022E065
:104A4000022384F83F30BEE7022384F84030BAE7FF
:104A5000022384F84130B6E7022384F84230B2E7FB
:104A6000022384F84330AEE799680A4A0A40062ACE
:104A70000AD0B2F5803F09D01A6842F001021A60EC
:104A8000002000E0012010BD0020FCE70020FAE734
:104A9000002C01400700010090F83C20012A42D080
:104AA00030B40346012280F83C20022280F83D20E9
:104AB0000068426884681D4DA84203D005F5006572
:104AC000A84203D122F470024D682A4322F07002FA
:104AD0000D682A4342601A681448824216D0B2F127
:104AE000804F13D0A0F5943082420FD000F5806043
:104AF00082420BD000F58060824207D000F59430EE
:104B0000824203D000F54060824204D124F0800448
:104B1000896821439160012283F83D20002083F8B9
:104B20003C0030BC70470220704700BF002C0140A1
:104B300070B50446016883680269134342691343F0
:104B4000C26913430868964A02401A430A60226801
:104B5000536823F44053E1680B435360A169226812
:104B6000904B9A4201D0236A1943936823F06E4315
:104B700023F430630B4393602268D36A23F00F035E
:104B8000616A0B43D3622368874A934210D0874AF5
:104B9000934221D0864A934237D0864A93425CD0D2
:104BA000854A93426BD07F4A93427DD010223AE0EF
:104BB00002F55842D2F8882002F00302032A09D8ED
:104BC000DFE802F00204870601222CE004222AE03A
:104BD000082228E0102226E002F5E632D2F88820EA
:104BE00002F00C020C2A0ED8DFE802F0070D0D0DC2
:104BF000090D0D0D750D0D0D0B00002213E00422A3
:104C000011E008220FE010220DE002F5E432D2F8A4
:104C1000882002F03002202A5FD01AD8002A5ED005
:104C2000102A5ED104225F498B4276D0E069B0F54C
:104C3000004F00F0C980082A00F23481DFE812F04A
:104C4000F7001901F50032011C0132013201320175
:104C50001F01302A47D10822E5E702F5E232D2F8F7
:104C6000882002F0C002802A3FD004D8FAB3402A3C
:104C70003FD10422D7E7C02A3DD10822D3E702F56D
:104C8000E032D2F8882002F44072B2F5007F34D0CE
:104C900005D8A2B3B2F5807F33D10422C3E7B2F5C1
:104CA000407F30D10822BEE702F5C832D2F8882012
:104CB00002F44062B2F5006F27D005D83AB3B2F5DE
:104CC000806F26D10422AEE7B2F5406F23D10822CF
:104CD000A9E70222A7E70222A5E70222A3E7002212
:104CE000A1E710229FE710229DE702229BE7002206
:104CF00099E7102297E7102295E7022293E7002216
:104D000091E710228FE710228DE702228BE7002225
:104D100089E7102287E7102285E7082A00F2B2808F
:104D2000DFE802F008B03BB038B0B0B005004FF497
:104D3000004004E0FEF724FE002800F0A580626A2F
:104D40001E4B33F81220B0FBF2F3656805EB45010A
:104D5000994200F29B80B3EB053F00F29980002658
:104D600033463146FBF798FE090241EA1061000222
:104D70006B08C0182A46334641F10001FBF78CFE50
:104D8000A0F540720E4B9A4200F284802368D860EE
:104D9000304665E0FEF70CF9CEE70A48CFE700BFE2
:104DA000F369FFCF0080004000380140004400401C
:104DB00000480040004C00400050004028780008A7
:104DC000FFFC0F000024F400082A65D8DFE802F099
:104DD000072705642A6464640B00354803E0FEF786
:104DE000CFFD00285AD0626A324B33F81230B0FB44
:104DF000F3F06268530803EB4003B3FBF2F3A3F153
:104E000010014FF6EF7291424AD89AB222F00F0287
:104E1000C3F3420313432268D360002020E0FEF76F
:104E2000C1FDDEE7FEF7C4F8DBE7214803E0FEF74B
:104E3000A7FD002838D0626A1E4B33F81230B0FB51
:104E4000F3F0636800EB5300B0FBF3F0A0F1100245
:104E50004FF6EF739A4229D8236880B2D8600020B9
:104E60000123A4F86A30A4F868300023236763673D
:104E700070BDFEF797FDDCE7FEF79AF8D9E74FF42F
:104E80000040D8E70120EBE70020E9E70120E7E751
:104E90000120E5E70120E3E70120E1E70020DFE76B
:104EA0000120DDE70120DBE70020D9E70120D7E77B
:104EB0000024F40028780008836A13F0010F06D05C
:104EC0000268536823F40033C16A0B435360836A5A
:104ED00013F0020F06D00268536823F48033016B8D
:104EE0000B435360836A13F0040F06D002685368C3
:104EF00023F48023416B0B435360836A13F0080F44
:104F000006D00268536823F40043816B0B4353605F
:104F1000836A13F0100F06D00268936823F480535D
:104F2000C16B0B439360836A13F0200F06D00268B5
:104F3000936823F40053016C0B439360836A13F06E
:104F4000400F0AD00268536823F48013416C0B436E
:104F50005360436CB3F5801F0BD0836A13F0800F4E
:104F600006D00268536823F40023C16C0B435360DE
:104F700070470268536823F4C003816C0B4353608D
:104F8000EBE72DE9F84305460F4616469946DDF84E
:104F900020802B68DC6937EA04040CBF012400245C
:104FA000B44257D1B8F1FF3FF3D0FCF717FDA0EBA7
:104FB000090040452FD8B8F1000F2CD02B681A6893
:104FC00012F0040FE5D0DA6912F4006FE1D04FF46B
:104FD00000621A622A6852E8003F23F4D07342E864
:104FE00000310029F6D12A6802F1080353E8003F96
:104FF00023F00103083242E800310029F3D12023D5
:10500000C5F88430C5F88830C5F88C30002385F8A1
:10501000803003201FE02A6852E8003F23F4D07359
:1050200042E800310029F6D12A6802F1080353E86A
:10503000003F23F00103083242E800310029F3D198
:105040002023C5F88430C5F88830002385F88030E7
:10505000032000E00020BDE8F88330B583B00446AB
:105060000023C0F88C30FCF7B9FC054622681268B2
:1050700012F0080F0FD123681B6813F0040F18D12A
:105080002023C4F88430C4F888300020E06684F817
:10509000800003B030BD6FF07E43009303460022D2
:1050A0004FF400112046FFF76CFF0028E3D00320E7
:1050B000EFE76FF07E4300932B4600224FF4800110
:1050C0002046FFF75EFF0028DAD00320E1E778B33F
:1050D00010B50446D0F884300BB32423C4F88430D0
:1050E0002268136823F0010313602046FFF720FDB8
:1050F000012813D0A36ABBB92268536823F49043F4
:1051000053602268936823F02A039360226813682F
:1051100043F0010313602046FFF79FFF10BD80F8A6
:105120008030FCF707FAD8E72046FFF7C5FEE3E733
:1051300001207047436E2BB90123A0F86A30A0F814
:105140006830704730B403689A68C2F34262996865
:10515000490F094D6B5CDB00084C615C93FBF1F37C
:10516000A0F86A30AB5CDB00A25C93FBF2F3A0F822
:10517000683030BC704700BF4878000840780008AD
:1051800090F88030012B18D0012380F88030242340
:10519000C0F8843003681A68196821F001011960A9
:1051A00022F000520023436601680A602022C0F802
:1051B000842080F88030184670470220704738B548
:1051C00090F88030012B1DD00446012380F88030F8
:1051D0002423C0F8843003681D681A6822F0010295
:1051E0001A600268936823F0604319439160FFF7E7
:1051F000A1FF23681D602023C4F88430002084F8B8
:10520000800038BD0220FCE738B590F88030012BD3
:105210001DD00446012380F880302423C0F8843058
:1052200003681D681A6822F001021A600268936818
:1052300023F0606319439160FFF77CFF23681D60D2
:105240002023C4F88430002084F8800038BD022078
:10525000FCE70000DFF834D0FCF772FB0C480D4986
:105260000D4A002302E0D458C4500433C4188C42C1
:10527000F9D30A4A0A4C002301E013600432A24227
:10528000FBD300F011F8FBF7E3FFFEE70000052079
:1052900000000020700000207879000870000020D5
:1052A00088800020FEE7000070B50D4D0D4C641B9A
:1052B000A4100026A64209D10B4D0C4C02F082FA34
:1052C000641BA4100026A64205D170BD55F8043B0E
:1052D00098470136EEE755F8043B98470136F2E768
:1052E0006879000868790008687900086C79000816
:1052F00002440346934200D1704703F8011BF9E7CB
:1053000038B52DED028B55EC104B00F0B5F8224668
:105310002B4620462946B0EE408AF0EE608AFBF725
:10532000A5FB98B90022002320462946FBF794FBF1
:1053300060B90022002320462946FBF765FB60B1D7
:1053400002F0D8F99FED0C8B22230360B0EE480ADF
:10535000F0EE680ABDEC028B38BD02F0CBF9BDEC73
:10536000028B034621221A600548BDE8384001F04F
:105370006BB900BFAFF30080000000000000F0FF39
:105380005078000800000000F8B52DED028B55ECB8
:10539000114B57EC106B00F08BFA22462B4620463F
:1053A0002946B0EE408AF0EE608AFBF75FFB78B9E1
:1053B0000022002330463946FBF726FBF0B10022DD
:1053C000002320462946FBF71FFB40B19FED288BA9
:1053D000B0EE480AF0EE680ABDEC028BF8BD45EC71
:1053E000104B01F025F90028F2D020462946002272
:1053F0000023FBF713FB0028EAD02EE0B0EE480AAA
:10540000F0EE680A01F014F9A0B151EC180B00227B
:105410000023FBF7F9FA0028DAD047EC106B01F013
:1054200007F90028D4D045EC104B01F001F9002811
:10543000CED012E047EC106B01F0FAF80028E4D06F
:1054400045EC104B01F0F4F80028DED053EC182B9B
:1054500051EC180BFBF70AFB20B902F04BF92223A1
:105460000360B5E702F046F921230360B0E700BF0F
:10547000000000000000F03F2DE9F04F51EC100B50
:105480002DED028BB1F5801F85B00F4658DA21F063
:105490000043034310EE102A00F0FC800029C0F204
:1054A0003C81E14B0022FBF747F8E04B0F469F425F
:1054B0006FF0350249DC3E15C7F3130707F51523D6
:1054C000A6F2FF3603F66473164403F4801306EB6A
:1054D000135683F07F5383F4401343EA07010022FD
:1054E000D34BFAF771FEBB1CC3F31303022B8246A6
:1054F0008B4635DC00220023FBF786FA002800F0FB
:10550000D680002E00F060813046FAF7ABFFB0A3E2
:10551000D3E9002306460F46FBF70EF8AEA3D3E906
:10552000002304460D4630463946FBF705F802468F
:105530000B4620462946FAF749FE41EC100B0AE0DB
:10554000BA4B9F424FF00002B5DD02460B46FAF718
:105550003DFE41EC100B05B0BDEC028BBDE8F08FB9
:10556000A7F5C223A3F27A43019300224FF08043B0
:10557000FAF72CFE02460B4650465946FBF706F951
:1055800041EC180B3046FAF76DFF53EC182BCDE9C0
:10559000020151EC180BFAF7CFFF02460B4680468A
:1055A0008946FAF7C9FF8EA3D3E9002304460D46C6
:1055B000FAF7C2FF8CA3D3E90023FAF707FE2246CD
:1055C0002B46FAF7B9FF8AA3D3E90023FAF7FEFDC9
:1055D00022462B46FAF7B0FF87A3D3E90023FAF758
:1055E000F5FD42464B46FAF7A7FF85A3D3E9002312
:1055F0008046894620462946FAF79EFF82A3D3E9D2
:105600000023FAF7E3FD22462B46FAF795FF80A325
:10561000D3E90023FAF7DAFD22462B46FAF78CFF8E
:105620000B46024649464046FAF7D0FDC7F5D72754
:10563000019B51371F43002F804689465FDD7D4B1C
:10564000002250465946FAF777FF52465B46FAF772
:1056500073FF04460D46002E69D122462B46404674
:105660004946FAF7B3FD53EC182BFAF765FF0246EB
:105670000B4620462946FAF7A7FD02460B46504640
:105680005946FAF7A1FD41EC100B05B0BDEC028BB9
:10569000BDE8F08F0022002367490020FBF776F871
:1056A00041EC100B05B0BDEC028BBDE8F08F5AA3A6
:1056B000D3E9002350465946FAF73EFF02460B460F
:1056C00000205C49FAF780FD524604460D465B46D1
:1056D00050465946FAF730FF02460B462046294607
:1056E000FAF72AFF04460D46002E59D102460B4612
:1056F00050465946FAF768FD41EC100B2BE7002E97
:1057000040F09C8002460B4650465946FAF75CFD35
:1057100053EC182BFAF710FFAFE70B46FAF754FDDE
:1057200000220023FBF732F841EC100B13E728A30B
:10573000D3E90023DDE90201FAF7FEFE22462B46FB
:1057400006460F4640464946FAF740FD53EC182BF3
:10575000FAF7F2FE20A3D3E9002380468946DDE96B
:105760000201FAF7E9FE02460B4640464946FAF7BF
:105770002DFD02460B4620462946FAF725FD5246E6
:105780005B46FAF721FD02460B4630463946FAF7EA
:105790001BFD41EC100B05B0BDEC028BBDE8F08F9A
:1057A0003046FAF75FFE0AA3D3E900238046894614
:1057B000FAF7C2FE08A3D3E9002306460F46404687
:1057C0004946FAF7B9FED4E79FED150BC3E600BFD3
:1057D0000000E0FE422EE63F763C7935EF39EA3DA7
:1057E00044523EDF12F1C23FDE03CB966446C73F10
:1057F000599322942449D23F935555555555E53F29
:105800009FC678D0099AC33FAF788E1DC571CC3F33
:1058100004FA97999999D93F555555555555D53FFE
:10582000000000000000000000005043FFFFEF7F79
:105830000000F03F0000E03F000050C318A3D3E990
:105840000023DDE90201FAF777FE42464B460446A3
:105850000D4650465946FAF7B7FC53EC182BFAF7A9
:105860006BFE11A3D3E9002306460F46DDE90201D2
:10587000FAF762FE02460B4630463946FAF7A4FCB8
:1058800052465B46FAF7A0FC02460B4620462946E4
:10589000FAF79AFC41EC100B5DE600BFAFF3008015
:1058A0000000E0FE422EE63F763C7935EF39EA3DD6
:1058B0002DE9F04F55EC114B2DED0C8B25F0004AE6
:1058C0005AEA040057EC106B87B014D1B3197C4925
:1058D00087F4002252419842914123D222462B461E
:1058E00030463946FAF772FC41EC100B07B0BDECBC
:1058F0000C8BBDE8F08F734927F00049894510EE05
:10590000102AB84615DD08F1404808F5801858EA15
:105910000208E3D123196A4985F4002252419845CF
:105920009141DBD39FED640B07B0BDEC0C8BBDE860
:10593000F08F11EE103AAB4642D062498A45E2DC64
:1059400000F09480B8F1000F73DB002100917BB967
:105950005C4B9A4500F08E805B4B9A4500F0A2802C
:10596000BBF1804F00F0C084584B9B4500F0D583BD
:1059700047EC106B029200F051FE029A62B3009A5B
:105980004FEAD873013B0493134300F09280504BCD
:105990009A4540F3A38003F104739A454D4B40F3BD
:1059A0003D84994540F3B284BBF1000F40F3B284CB
:1059B000002007B0BDEC0C8BBDE8F04F00F024BE1A
:1059C000002E8BD1B9E747EC106B009200F026FE59
:1059D000009A002A6DD10092B9F1000F04D03A4B21
:1059E00028F040429A42CAD1BBF1000F07DA53ECCB
:1059F000102B35490020FAF7C9FE41EC100BB8F125
:105A0000000FBFF673AF009B09F1404909F58019FB
:105A100059EA030940F08E8453EC102B10461946C6
:105A2000FAF7D2FB02460B46FAF7B0FE41EC100B38
:105A30005CE729498A452FDCA1F154718A450FDDC5
:105A40004FEA2A51A1F2FF31142940F36584C1F1D4
:105A5000340123FA01F000FA01F1994200F0A38425
:105A600000210091002B3FF477AF81E7002B3FF43A
:105A700069AF48E709F1404303F5801313433FF44E
:105A800051AF144B994540F38283BBF1000FC0F234
:105A90005F8445EC104B29E702210091002B3FF475
:105AA00057AF65E7BBF1000FC0F2148447EC106BF1
:105AB0001CE732463B46B1E7000000000000F03F23
:105AC0000000F0FF0000F07F0000F03F0000E03F2A
:105AD0000000E041FFFFEF3FFFFF3F43E44B08EAD8
