:020000040800F2
:10000000000005209D930008D9230008DF23000885
:10001000E5230008EB230008F1230008000000009E
:10002000000000000000000000000000F7230008AE
:100030000524000800000000132400082124000803
:10004000ED930008ED930008ED930008ED93000890
:10005000ED930008ED930008ED930008ED93000880
:10006000ED930008ED930008ED9300082D2400089F
:1000700041240008ED930008ED930008ED9300087B
:10008000ED930008ED930008ED930008ED93000850
:10009000ED930008ED930008ED930008ED93000840
:1000A000ED930008ED930008ED930008ED93000830
:1000B000ED930008ED930008ED930008ED93000820
:1000C000ED930008ED930008ED930008ED93000810
:1000D000ED930008ED930008ED930008ED93000800
:1000E000ED930008ED93000800000000ED93000878
:1000F000ED930008ED930008ED930008ED930008E0
:10010000ED930008ED930008ED930008ED930008CF
:10011000ED930008ED930008ED930008ED930008BF
:10012000ED930008ED930008ED930008ED930008AF
:10013000ED930008ED930008ED9300080000000027
:10014000ED930008ED930008ED930008ED9300088F
:10015000ED930008ED93000855240008ED93000886
:10016000ED930008ED930008ED930008ED9300086F
:10017000ED930008ED93000800000000000000006F
:10018000ED930008ED930008ED930008ED9300084F
:10019000ED930008ED93000800000000000000004F
:1001A0000000000000000000ED930008ED9300083F
:1001B000ED93000800000000ED930008000000002F
:1001C000034613F8012B002AFBD1181A0138704797
:1001D00001F0FF01102A2BDB10F0070F08D010F8F8
:1001E000013B013A8B422DD010F0070F42B3F6D1FC
:1001F000F0B441EA012141EA014122F007047FF015
:1002000000070023F0E80256083C85EA010586EA6B
:10021000010685FA47F5A3FA87F586FA47F6A5FAA7
:1002200087F68EB9EED1F0BC01F0FF0102F00702B3
:1002300032B110F8013B013A83EA010313B1F8D15E
:100240000020704701387047002D06BF354603383F
:10025000073815F0010F07D1013015F4807F02BF78
:10026000013015F4C03F0130F0BC0138704700BFC9
:1002700081F0004102E000BF83F0004330B54FEA57
:1002800041044FEA430594EA050F08BF90EA020FC4
:100290001FBF54EA000C55EA020C7FEA645C7FEA57
:1002A000655C00F0E2804FEA5454D4EB5555B8BF7A
:1002B0006D420CDD2C4480EA020281EA030382EAEB
:1002C000000083EA010180EA020281EA0303362D7D
:1002D00088BF30BD11F0004F4FEA01314FF4801C50
:1002E0004CEA113102D0404261EB410113F0004F62
:1002F0004FEA03334CEA133302D0524263EB430319
:1003000094EA050F00F0A780A4F10104D5F1200EB6
:100310000DDB02FA0EFC22FA05F2801841F1000111
:1003200003FA0EF2801843FA05F359410EE0A5F1E5
:1003300020050EF1200E012A03FA0EFC28BF4CF016
:10034000020C43FA05F3C01851EBE37101F00045CC
:1003500007D54FF0000EDCF1000C7EEB00006EEBD9
:100360000101B1F5801F1BD3B1F5001F0CD3490863
:100370005FEA30004FEA3C0C04F101044FEA4452BA
:1003800012F5800F80F09A80BCF1004F08BF5FEA41
:10039000500C50F1000041EB045141EA050130BD21
:1003A0005FEA4C0C404141EB0101013C28BFB1F533
:1003B000801FE9D291F0000F04BF01460020B1FA7E
:1003C00081F308BF2033A3F10B03B3F120020CDA51
:1003D0000C3208DD02F1140CC2F10C0201FA0CF02F
:1003E00021FA02F10CE002F11402D8BFC2F1200C94
:1003F00001FA02F120FA0CFCDCBF41EA0C0190404A
:10040000E41AA2BF01EB0451294330BD6FEA040492
:100410001F3C1CDA0C340EDC04F11404C4F120027D
:1004200020FA04F001FA02F340EA030021FA04F38F
:1004300045EA030130BDC4F10C04C4F1200220FAE6
:1004400002F001FA04F340EA0300294630BD21FA24
:1004500004F0294630BD94F0000F83F4801306BFEA
:1004600081F480110134013D4EE77FEA645C18BFDE
:100470007FEA655C29D094EA050F08BF90EA020F75
:1004800005D054EA000C04BF1946104630BD91EA6D
:10049000030F1EBF0021002030BD5FEA545C05D170
:1004A0004000494128BF41F0004130BD14F58004AF
:1004B0003CBF01F5801130BD01F0004545F0FE4123
:1004C00041F470014FF0000030BD7FEA645C1ABF58
:1004D000194610467FEA655C1CBF0B46024650EA8F
:1004E000013406BF52EA033591EA030F41F40021BB
:1004F00030BD00BF90F0000F04BF0021704730B541
:100500004FF4806404F132044FF000054FF0000115
:1005100050E700BF90F0000F04BF0021704730B5D6
:100520004FF4806404F1320410F0004548BF4042AB
:100530004FF000013EE700BF42004FEAE2014FEA00
:1005400031014FEA02701FBF12F07F4393F07F4FDB
:1005500081F06051704732F07F4208BF704793F0DE
:100560007F4F04BF41F40021704730B54FF46074F1
:1005700001F0004521F000411CE700BF50EA0102F4
:1005800008BF704730B54FF000050AE050EA01029D
:1005900008BF704730B511F0004502D5404261EB0D
:1005A00041014FF4806404F132045FEA915C3FF44E
:1005B000D8AE4FF003025FEADC0C18BF03325FEAEB
:1005C000DC0C18BF033202EBDC02C2F1200300FA9C
:1005D00003FC20FA02F001FA03FE40EA0E0021FAC1
:1005E00002F11444BDE600BF70B54FF0FF0C4CF4AF
:1005F000E06C1CEA11541DBF1CEA135594EA0C0F61
:1006000095EA0C0F00F0DEF82C4481EA030621EA9B
:100610004C5123EA4C5350EA013518BF52EA0335D6
:1006200041F4801143F4801338D0A0FB02CE4FF088
:100630000005E1FB02E506F00042E0FB03E54FF0B8
:100640000006E1FB03569CF0000F18BF4EF0010EB0
:10065000A4F1FF04B6F5007F64F5407404D25FEAAC
:100660004E0E6D4146EB060642EAC62141EA55515F
:100670004FEAC52040EA5E504FEACE2EB4F1FD0CA1
:1006800088BFBCF5E06F1ED8BEF1004F08BF5FEA1F
:10069000500E50F1000041EB045170BD06F00046D1
:1006A00046EA010140EA020081EA0301B4EB5C047E
:1006B000C2BFD4EB0C0541EA045170BD41F4801176
:1006C0004FF0000E013C00F3AB8014F1360FDEBF9B
:1006D000002001F0004170BDC4F10004203C35DA77
:1006E0000C341BDC04F11404C4F1200500FA05F3FA
:1006F00020FA04F001FA05F240EA020001F000429B
:1007000021F0004110EBD37021FA04F642EB060110
:100710005EEA430E08BF20EAD37070BDC4F10C043A
:10072000C4F1200500FA04F320FA05F001FA04F2FE
:1007300040EA020001F0004110EBD37041F10001EA
:100740005EEA430E08BF20EAD37070BDC4F12005F5
:1007500000FA05F24EEA020E20FA04F301FA05F25D
:1007600043EA020321FA04F001F0004121FA04F205
:1007700020EA020000EBD3705EEA430E08BF20EAD5
:10078000D37070BD94F0000F0FD101F0004640000F
:1007900041EB010111F4801F08BF013CF7D041EA91
:1007A000060195F0000F18BF704703F00046520095
:1007B00043EB030313F4801F08BF013DF7D043EA66
:1007C0000603704794EA0C0F0CEA135518BF95EA1C
:1007D0000C0F0CD050EA410618BF52EA4306D1D1A3
:1007E00081EA030101F000414FF0000070BD50EAC2
:1007F000410606BF1046194652EA430619D094EA4C
:100800000C0F02D150EA013613D195EA0C0F05D135
:1008100052EA03361CBF104619460AD181EA030189
:1008200001F0004141F0FE4141F470014FF0000041
:1008300070BD41F0FE4141F4780170BD70B54FF0DC
:10084000FF0C4CF4E06C1CEA11541DBF1CEA13555C
:1008500094EA0C0F95EA0C0F00F0A7F8A4EB05043E
:1008600081EA030E52EA03354FEA013100F0888035
:100870004FEA03334FF0805545EA131343EA1263FE
:100880004FEA022245EA111545EA10654FEA0026B3
:100890000EF000419D4208BF964244F1FD0404F56C
:1008A000407402D25B084FEA3202B61A65EB0305C8
:1008B0005B084FEA32024FF480104FF4002CB6EB85
:1008C000020E75EB030E22BFB61A754640EA0C0005
:1008D0005B084FEA3202B6EB020E75EB030E22BF45
:1008E000B61A754640EA5C005B084FEA3202B6EB86
:1008F000020E75EB030E22BFB61A754640EA9C0045
:100900005B084FEA3202B6EB020E75EB030E22BF14
:10091000B61A754640EADC0055EA060E18D04FEAD2
:10092000051545EA16754FEA06164FEAC30343EA72
:1009300052734FEAC2025FEA1C1CC0D111F4801F3F
:100940000BD141EA00014FF000004FF0004CB6E738
:1009500011F4801F04BF01430020B4F1FD0C88BFD7
:10096000BCF5E06F3FF6AFAEB5EB030C04BFB6EBE2
:10097000020C5FEA500C50F1000041EB045170BDD5
:100980000EF0004E4EEA113114EB5C04C2BFD4EB02
:100990000C0541EA045170BD41F480114FF0000E86
:1009A000013C90E645EA060E8DE60CEA135594EA02
:1009B0000C0F08BF95EA0C0F3FF43BAF94EA0C0F05
:1009C0000AD150EA01347FF434AF95EA0C0F7FF47A
:1009D00025AF104619462CE795EA0C0F06D152EACE
:1009E00003353FF4FDAE1046194622E750EA4106B2
:1009F00018BF52EA43067FF4C5AE50EA41047FF4C3
:100A00000DAF52EA43057FF4EBAE12E74FF0FF3C27
:100A100006E000BF4FF0010C02E000BF4FF0010CF8
:100A20004DF804CD4FEA410C7FEA6C5C4FEA430C71
:100A300018BF7FEA6C5C1BD001B050EA410C0CBFC0
:100A400052EA430C91EA030F02BF90EA020F002022
:100A5000704710F1000F91EA030F58BF994208BF89
:100A600090422CBFD8176FEAE37040F00100704746
:100A70004FEA410C7FEA6C5C02D150EA013C07D19D
:100A80004FEA430C7FEA6C5CD6D152EA033CD3D0E8
:100A90005DF8040B704700BF8446104662468C46E2
:100AA0001946634600E000BF01B5FFF7B7FF002815
:100AB00048BF10F1000F01BD4DF808EDFFF7F4FF3E
:100AC0000CBF012000205DF808FB00BF4DF808EDC9
:100AD000FFF7EAFF34BF012000205DF808FB00BFEC
:100AE0004DF808EDFFF7E0FF94BF012000205DF80E
:100AF00008FB00BF4DF808EDFFF7CEFF94BF0120C3
:100B000000205DF808FB00BF4DF808EDFFF7C4FFBB
:100B100034BF012000205DF808FB00BF4FEA410C04
:100B20007FEA6C5C02D150EA013C0AD14FEA430CE7
:100B30007FEA6C5C02D152EA033C02D14FF0000024
:100B400070474FF0010070474FEA410212F5001262
:100B500015D211D56FF47873B3EB625212D94FEA04
:100B6000C12343F0004343EA505311F0004F23FAEE
:100B700002F018BF404270474FF00000704750EA43
:100B8000013005D111F0004008BF6FF00040704700
:100B90004FF00000704700BF4A0011D212F500125A
:100BA00011D20DD56FF47873B3EB62520ED44FEAC5
:100BB000C12343F0004343EA505323FA02F0704745
:100BC0004FF00000704750EA013002D14FF0FF3083
:100BD00070474FF00000704753B94AB9002908BF69
:100BE00000281CBF4FF0FF314FF0FF3000F0E2B89B
:100BF000ADF1080C6DE904CE0EF00EF9DDF804E05D
:100C0000DDE9022304B0704700F1340191E83800B7
:100C10009C46A6464CF8045D90E8FF0FE54600BDF3
:100C200090EC210B704700BF80EC210B704700BF98
:100C300090EC200B704700BF80EC200B704700BF8A
:100C4000D0EC200B704700BFC0EC200B704700BFFA
:100C5000F0EC0201F0EC0211F0EC0221F0EC0231B8
:100C6000F0EC0241F0EC0251F0EC0261F0EC0271A8
:100C7000F0EC0281F0EC0291F0EC02A1F0EC02B198
:100C8000F0EC02C1F0EC02D1F0EC02E1F0EC02F188
:100C9000704700BFE0EC0201E0EC0211E0EC022141
:100CA000E0EC0231E0EC0241E0EC0251E0EC0261E8
:100CB000E0EC0271E0EC0281E0EC0291E0EC02A1D8
:100CC000E0EC02B1E0EC02C1E0EC02D1E0EC02E1C8
:100CD000E0EC02F1704700BFB0FC0181B0FC019173
:100CE000B0FC01A1B0FC01B1704700BFA0FC0181C4
:100CF000A0FC0191A0FC01A1A0FC01B1704700BFC4
:100D0000EC4600B52DE900502DE9FF1F4FF0000320
:100D10002DE90C0001A90EF033FBDDF840E012B024
:100D2000704700BFEC4600B52DE900502DE9FF1FCC
:100D30004FF000032DE90C0001A90EF05DFBDDF87A
:100D400040E012B0704700BFEC4600B52DE90050FE
:100D50002DE9FF1F4FF000032DE90C0001A90EF053
:100D60006DFBDDF840E012B0704700BFEC4600B507
:100D70002DE900502DE9FF1F4FF000032DE90C0075
:100D800001AB0EF031FBDDF840E012B0704700BF60
:100D9000EC4600B52DE900502DE9FF1F4FF0000390
:100DA0002DE90C0001AA0EF09DFBDDF840E012B029
:100DB000704700BF704700BF10B5054C237833B9AA
:100DC000044B13B10448AFF300800123237010BD1E
:100DD000E0010020000000009CFD000808B5034B66
:100DE0001BB103490348AFF3008008BD00000000B9
:100DF000E40100209CFD0008B0B586B000AF0346BA
:100E00000A46FB801346BB80FB88012B02D0022BD5
:100E10006FD093E0BB881846FFF77CFB50A3D3E963
:100E20000023FFF7E1FB02460B46C7E90423D7E99D
:100E3000042353A1D1E90001FFF71EFA02460B4635
:100E40001046194650A3D3E90023FFF7F7FC0246EA
:100E50000B46D7E90401FFF7F1FC02460B46C7E950
:100E6000022397ED020B0CF02BFD51EC100B48A365
:100E7000D3E90023FFF7B8FB02460B46104619469C
:100E800045A3D3E90023FFF7F9F902460B461446C0
:100E90001D4697ED020B0CF013FDB0EE407AF0EE1C
:100EA000607A9FED2B1BB0EE470AF0EE670A0CF05C
:100EB0004BFD51EC100B3AA3D3E90023FFF794FB51
:100EC00002460B4620462946FFF7D8F902460B4654
:100ED0004FF000002849FFF7B1FC02460B461046D0
:100EE00019461DA3D3E90023FFF7C6F902460B46B6
:100EF00025E0BB881846FFF70DFB19A3D3E90023B3
:100F0000FFF772FB02460B4617A1D1E90001FFF77C
:100F1000B3F902460B461046194615A3D3E9002340
:100F2000FFF78CFC02460B46104619464FF00002B4
:100F3000124BFFF7A3F902460B4600E001E043EC39
:100F4000172BB0EE470AF0EE670A1837BD46B0BD62
:100F50000000000000000840666666666612714088
:100F60006666666666660A3F52B81E85EB51E83FC4
:100F70007B14AE47E17A643F0000F03F00003E4042
:100F80006666666666660A40000000000088C34028
:100F90000395F1EF332E2C3FD7F7E12021CA473FCD
:100FA000B905B0A0E7517C3E80B483B000AF0346E2
:100FB0000A46FB801346BB80FB88002B03D1054A01
:100FC000BB88936300BF00BF0C37BD465DF8047B50
:100FD000704700BF0004004080B483B000AF0346F8
:100FE0000A46FB801346BB80FB88002B03D1054AD1
:100FF000BB88D36300BF00BF0C37BD465DF8047BE0
:10100000704700BF0004004080B582B000AF0346C7
:101010000A46FB801346BB8000F0DCFA00BF0837AD
:10102000BD4680BD80B483B000AF0346FB80FB8823
:101030001A465201D21A92001344DB009BB21846A2
:101040000C37BD465DF8047B7047000000000000CF
:1010500080B584B000AF5A4BD3E90001594BD3E9B6
:101060000023FFF709F902460B46C7E90223564B56
:101070001B881846FFF73EFA02460B464FF0000069
:101080005249FFF7DBFB02460B46104619464FF06C
:1010900000024F4BFFF7A8FA02460B4610461946CE
:1010A0004FF000024B4BFFF79FFA02460B461046EB
:1010B000194639A3D3E90023FFF7C0FB02460B46CC
:1010C0001046194636A3D3E90023FFF78DFA0246EE
:1010D0000B4610461946FFF75FFD0346FB8032A31F
:1010E000D3E90023D7E90201FFF704FD0346002BF3
:1010F00009D12FA3D3E90023D7E90201FFF7F0FCC0
:101100000346002B40D0344B01221A704FF00002EE
:101110004FF00003D7E90201FFF7D8FC0346002B8C
:1011200012D0012208212D4803F004FA254BD3E9FF
:10113000000121A3D3E90023FFF79EF802460B46E6
:101140002049C1E9002311E000220821234803F0CF
:10115000F1F91C4BD3E9000117A3D3E90023FFF7F2
:101160008DF802460B461749C1E9002301211C48AE
:1011700003F0F8F901F0F2F903461A4A1360FB880C
:10118000184600F00DFA03E0134B00221A7000BF5E
:1011900000BF1037BD4680BD0000000000CED24029
:1011A0000000000080842E41613255302AA9533F4F
:1011B000613255302AA953BF000000A0D091533F9F
:1011C0002002002000020020180200200000F03F52
:1011D00000004E4000003740080200200014004884
:1011E000000400480C020020B0B500AF284B5B683B
:1011F0009BB219460120FFF7FFFD53EC102B104660
:101200001946FFF7C9FC03469AB2224B1A80214BBC
:101210001A88214B1B889A422ED81E4B1B881846D1
:10122000FFF768F918A3D3E90023FFF7DDF90246B9
:101230000B4614461D46184B1B881846FFF75AF9F3
:1012400002460B4620462946FFF718F802460B4691
:10125000104619464FF00002104BFFF70FF80246F8
:101260000B4610461946FFF797FC03469BB21946FA
:101270000020FFF799FE03E000210020FFF794FE15
:1012800000BFB0BDAFF30080000000C0CCCCECBF0D
:10129000680A002042020020400200200000444072
:1012A00080B582B000AF0346FB80FB881946002062
:1012B000FFF792FE00BF0837BD4680BD80B400AF87
:1012C000074B4FF6FF721A80064B00221A80064B1E
:1012D00000221A8000BFBD465DF8047B704700BF46
:1012E00010020020120200201402002080B584B0F9
:1012F00000AF7860314BFB60786800F06BF8F968FC
:10130000786809F045FBB860BB681B78472B37D07D
:101310004D2B47D1012001F02DF97B680133184690
:1013200008F068F803469B2B1FD09B2B37DC6A2BF9
:1013300015D06A2B33DC682B0AD0692B2FD1204BB8
:101340001B88204A128811461846FFF75DFE16E0FA
:101350001D4B1A881D4B1A80FFF746FF0FE01A4BF2
:101360001B881846FFF79CFF09E0174B1B8818469F
:10137000FFF758FE03461A46154B1A8000BF0EE0D1
:10138000012001F0F7F87B680133184608F032F8C5
:101390000346012B05D8FFF75BFE00BF01E000BF4D
:1013A00000E000BFFFF78AFF04220021B86808F0C0
:1013B00049F800BF1037BD4680BD00BFB8FD00082A
:1013C000100200201202002014020020400200201F
:1013D0001602002080B584B000AF7860012001F0D3
:1013E000C9F85449786809F0D3FAF86098E0FB68C6
:1013F0001B78453B152B00F28B8001A252F823F09D
:10140000E3140008FD140008111500081115000868
:101410001115000811150008111500081115000814
:101420001115000811150008111500081115000804
:101430001115000859140008811400086D140008E3
:101440001115000811150008111500089514000861
:10145000AF140008C9140008FB680133184607F0F0
:10146000C9FF03469AB2344B1A8051E0FB6801333E
:10147000184607F0BFFF03469AB2304B1A8047E088
:10148000FB680133184607F0B5FF03469AB22C4BB0
:101490001A803DE0FB680133184607F0A8FFB0EE64
:1014A000407AF0EE607A274B83ED007B30E0FB68FA
:1014B0000133184607F09BFFB0EE407AF0EE607AF9
:1014C000214B83ED007B23E0FB680133184607F0D6
:1014D0008EFFB0EE407AF0EE607A1C4B83ED007B1D
:1014E00016E0FB680133184607F081FFB0EE407A42
:1014F000F0EE607A164B83ED007B09E0FB68013368
:10150000184607F077FF03469AB2124B1A8000BFC5
:10151000012001F02FF80749002009F039FAF8609E
:10152000FB68002B7FF463AF00BF00BF1037BD46E0
:1015300080BD00BFB8FD000810020020120200208C
:10154000140200202802002030020020380200206F
:10155000200200201802002080B582B000AF786021
:101560000B467B807B681B68094A93420CD114228E
:101570000849094807F0B2FB084B1B681A68074B7B
:101580001B6822F004021A6000BF0837BD4680BD08
:10159000008000406402002040030020600400201E
:1015A00080B483B000AF0346FB80094B1B68002268
:1015B0005A6200BF064B1B685A6AFB889A42F9D3ED
:1015C00000BF00BF0C37BD465DF8047B704700BF0D
:1015D0000C05002080B582B002AF104B5B689BB257
:1015E00019460120FFF708FC51EC100B0B4B5B6810
:1015F000009302460B460A490A4808F091FB094845
:10160000FEF7DEFD03469AB24FF0FF330549064868
:1016100005F08AFF00BFBD4680BD00BF680A0020FC
:10162000BCFD0008440200204003002080B500AF4C
:1016300000F02CFF00F07CF800F042FB00F00EFB05
:1016400000F06CF900F0E0FA00F090FA00F0B6F962
:1016500000F000FA00F0C0F800212B4804F078FFF9
:101660000421294804F074FF0821274804F070FF82
:1016700003222649264801F0DBFA264804F09EFEA4
:1016800014222549254807F029FB254B1B681A68B9
:10169000234B1B6822F004021A60142200211E480A
:1016A00007F0D0FEFFF70AFE1B4B1B78002B0ED075
:1016B0001C4B1B7883F00103DBB2002B07D01648CC
:1016C000FFF714FE14220021134807F0BBFE00F0C0
:1016D00045FF0246144B1B68D31A144A12889342E2
:1016E0000CD9124B1B88002B08D000210020FFF7DB
:1016F0008BFC00F033FF03460B4A1360FFF7A8FC96
:10170000FFF772FDD0E700BFC0040020680A002088
:10171000780200200C050020640200204003002015
:101720006004002008020020640A00201602002045
:1017300080B598B000AF07F1180348220021184681
:1017400007F080FE3B1D00221A605A609A60DA6042
:101750001A61002003F088F80346002B01D000F046
:10176000A7FB3023BB6101233B6401237B63002380
:10177000BB636023FB6302237B640123BB640123FF
:10178000FB643C233B6502237B650223BB6502238C
:10179000FB6507F11803184603F02AF90346002BEE
:1017A00001D000F085FB0F237B600323BB60002387
:1017B000FB6000233B6100237B613B1D0521184634
:1017C00003F092FD0346002B01D000F071FB00BF37
:1017D0006037BD4680BD000080B58AB000AF07F11C
:1017E0001C0300221A605A609A603B1D00221A6096
:1017F0005A609A60DA601A615A61434B434A1A6030
:10180000414B00225A60404B00229A603E4B00221E
:10181000DA603D4B01221A613B4B04225A613A4B7C
:1018200000221A76384B01225A76374B0322DA61AE
:10183000354B002283F82020334B00229A62324B32
:101840000022DA62304B012283F830202E4B002236
:101850005A632D4B012283F838202B4B0C22DA637C
:10186000294B00221A64284B00225A64264B01227D
:101870009A64254801F08AF80346002B01D000F055
:1018800017FB0023FB6107F11C0319461E4801F0FA
:10189000DBFF0346002B01D000F00AFB1C4B7B60F2
:1018A0000623BB600623FB607F233B6104237B612F
:1018B0000023BB613B1D1946134801F08BFA034618
:1018C000002B01D000F0F4FA124B7B600C23BB60BC
:1018D0003B1D19460C4801F07DFA0346002B01D050
:1018E00000F0E6FA0C4B7B601223BB603B1D1946EF
:1018F000054801F06FFA0346002B01D000F0D8FA3A
:1019000000BF2837BD4680BD78020020000004508B
:101910000200300404006008000052C780B500AF28
:10192000244B254A1A60234B4FF4E1325A60214B75
:1019300000229A601F4B0022DA601E4B00221A61BF
:101940001C4B0C225A611B4B00229A61194B00223E
:101950001A62184B00225A62164B10229A62154BDB
:101960004FF48052DA63134B00225A66114805F097
:101970008BFD0346002B01D000F09AFA00210D48A0
:1019800007F030F90346002B01D000F091FA002156
:10199000084807F065F90346002B01D000F088FAEB
:1019A000044807F0E6F80346002B01D000F080FA67
:1019B00000BF80BD400300200080004080B500AF24
:1019C000224B234A1A60214B4FF4E1325A601F4BDD
:1019D00000229A601D4B0022DA601C4B00221A6123
:1019E0001A4B0C225A61194B00229A61174B0022A4
:1019F000DA61164B00221A62144B00225A62134B12
:101A000000229A62114805F03FFD0346002B01D0E9
:101A100000F04EFA00210D4807F0E4F80346002BD1
:101A200001D000F045FA0021084807F019F90346F3
:101A3000002B01D000F03CFA044807F09AF8034666
:101A4000002B01D000F034FA00BF80BDD00300208D
:101A5000004C004080B58EB000AF07F12803002293
:101A60001A605A609A60DA6007F11C0300221A605B
:101A70005A609A603B4600221A605A609A60DA60A7
:101A80001A615A619A61374B374A1A60354B77228F
:101A90005A60344B00229A60324BFF22DA60314B9D
:101AA00000221A612F4B80229A612E4804F02EFCEE
:101AB0000346002B01D000F0FBF94FF48053BB62CA
:101AC00007F128031946274804F05CFF0346002B62
:101AD00001D000F0EDF9234804F0D8FC0346002BB8
:101AE00001D000F0E5F90023FB6100237B6207F1E0
:101AF0001C0319461B4805F03FFC0346002B01D090
:101B000000F0D6F960233B6000237B600023BB60BC
:101B100000233B613B4600221946124804F01EFE9A
:101B20000346002B01D000F0C3F93B4604221946BE
:101B30000C4804F013FE0346002B01D000F0B8F966
:101B40003B4608221946074804F008FE0346002BCE
:101B500001D000F0ADF9034800F07AFB00BF383740
:101B6000BD4680BDC00400200004004080B588B0A0
:101B700000AF07F1100300221A605A609A60DA6021
:101B80003B1D00221A605A609A601D4B1D4A1A6064
:101B90001B4B77225A601A4B00229A60184B4FF663
:101BA000FF72DA60164B00221A61154B00229A610F
:101BB000134804F0ABFB0346002B01D000F078F98A
:101BC0004FF480533B6107F1100319460C4804F0B1
:101BD000D9FE0346002B01D000F06AF900237B6098
:101BE0000023FB603B1D1946054805F0C5FB034675
:101BF000002B01D000F05CF900BF2037BD4680BD4E
:101C00000C0500200008004080B500AF124B4FF0DB
:101C1000A0421A60104B06225A600F4B02229A61B2
:101C20000D4B0122DA610C4B00221A620A4B002292
:101C30005A62094B01229A62074B00221A63064B33
:101C40000122DA62044802F0A7FC0346002B01D00F
:101C500000F02EF900BF80BD5805002080B582B08D
:101C600000AF164B9B6C154A43F004039364134B6F
:101C70009B6C03F004037B607B68104B9B6C0F4AEA
:101C800043F0010393640D4B9B6C03F001033B6035
:101C90003B68002200210B2001F055FF0B2001F0D2
:101CA0006EFF002200210C2001F04DFF0C2001F0FE
:101CB00066FF00BF0837BD4680BD00BF0010024070
:101CC00080B58CB000AF07F11C0300221A605A6087
:101CD0009A60DA601A61714BDB6C704A43F0100352
:101CE000D3646E4BDB6C03F01003BB61BB696B4BC1
:101CF000DB6C6A4A43F00403D364684BDB6C03F08B
:101D000004037B617B69654BDB6C644A43F0200311
:101D1000D364624BDB6C03F020033B613B695F4B98
:101D2000DB6C5E4A43F08003D3645C4BDB6C03F0F6
:101D30008003FB60FB68594BDB6C584A43F001039E
:101D4000D364564BDB6C03F00103BB60BB68534BA1
:101D5000DB6C524A43F00203D364504BDB6C03F05C
:101D600002037B607B684D4BDB6C4C4A43F04003C5
:101D7000D3644A4BDB6C03F040033B603B6802F0EA
:101D800027FE0022C821464802F0D4FB0022802111
:101D90004FF0904002F0CEFB002244F28301414814
:101DA00002F0C8FB002240213F4802F0C3FB0022A2
:101DB00040213E4802F0BEFB4FF40053FB614FF45C
:101DC00088133B6200237B6207F11C0319463748E6
:101DD00002F01EFA0123FB6100233B6200237B62B9
:101DE00007F11C0319462E4802F012FAC823FB61C2
:101DF00001233B6200237B620023BB6207F11C03CB
:101E00001946274802F004FA8023FB6101233B6254
:101E100000237B620023BB6207F11C0319464FF0CD
:101E2000904002F0F5F944F28303FB6101233B6229
:101E300000237B620023BB6207F11C03194619488B
:101E400002F0E6F92023FB6100233B6200237B6262
:101E500007F11C031946144802F0DAF94023FB612C
:101E600001233B6200237B620023BB6207F11C035A
:101E700019460D4802F0CCF94023FB6101233B6277
:101E800000237B620023BB6207F11C03194607484D
:101E900002F0BEF900BF3037BD4680BD00100240E1
:101EA00000140048000400480018004800080048DA
:101EB00080B400AF72B600BFFEE7000080B483B00C
:101EC00000AF0F4B1B6E0E4A43F0010313660C4B21
:101ED0001B6E03F001037B607B68094B9B6D084A16
:101EE00043F080539365064B9B6D03F080533B603A
:101EF0003B6800BF0C37BD465DF8047B704700BFF0
:101F00000010024080B5B0B000AF786007F1AC03BC
:101F100000221A605A609A60DA601A6107F11403AD
:101F200098220021184607F08DFA7B681B683C4A0E
:101F3000934271D14FF480437B614FF08053C7F8D7
:101F400094300123BB610123FB6118233B62022310
:101F50007B620423BB620223FB624FF080733B630E
:101F600007F11403184603F07DFC0346002B01D053
:101F7000FFF79EFF2B4BDB6C2A4A43F40053D364DC
:101F8000284BDB6C03F400533B613B69254BDB6C56
:101F9000244A43F00403D364224BDB6C03F00403B4
:101FA000FB60FB680323C7F8AC300B23C7F8B030E5
:101FB0000023C7F8B43007F1AC0319461A4802F001
:101FC00027F91A4B1A4A1A60184B05225A60174B08
:101FD00000229A60154B0022DA60144B80221A61AD
:101FE000124B4FF400725A61104B4FF400629A6129
:101FF0000E4B2022DA610D4B00221A620B4801F0D1
:10200000D9FD0346002B01D0FFF752FF7B68074A3A
:102010001A65064A7B68936200BFC037BD4680BD23
:10202000000004500010024000080048E0020020B8
:102030000800024080B5B2B000AF786007F1B40389
:1020400000221A605A609A60DA601A6107F11C0374
:1020500098220021184607F0F5F97B681B685C4A56
:1020600093426FD12023FB610023FB6607F11C0321
:10207000184603F0F7FB0346002B01D0FFF718FFCB
:10208000544BDB6D534A43F00103D365514BDB6D79
:1020900003F00103BB61BB694E4BDB6C4D4A43F05F
:1020A0004003D3644B4BDB6C03F040037B617B69E3
:1020B00002F08EFC4FF4C073C7F8B4300223C7F8A7
:1020C000B8300023C7F8BC300323C7F8C03008235A
:1020D000C7F8C43007F1B40319463F4802F098F836
:1020E0003E4B3F4A1A603D4B23225A603B4B002235
:1020F0009A603A4B0022DA60384B80221A61374BE3
:1021000000225A61354B00229A61344B0022DA6179
:10211000324B00221A62314801F04CFD0346002B7D
:1021200001D0FFF7C5FE7B682C4ADA672B4A7B6833
:10213000936200220021462001F005FD462001F0B7
:102140001EFD40E07B681B68264A93423BD1082372
:10215000FB6100237B6607F11C03184603F082FB3A
:102160000346002B01D0FFF7A3FE1A4B9B6D194AC3
:1021700043F400239365174B9B6D03F400233B61ED
:102180003B69144BDB6C134A43F00103D364114BDE
:10219000DB6C03F00103FB60FB680323C7F8B4307A
:1021A0000223C7F8B8300023C7F8BC300323C7F8B0
:1021B000C0300823C7F8C43007F1B40319464FF004
:1021C000904002F025F800BFC837BD4680BD00BF73
:1021D0000080004000100240001800486004002009
:1021E0001C000240004C004080B485B000AF786015
:1021F0007B681B68134A93420CD1134B9B6D124AA8
:1022000043F002039365104B9B6D03F00203FB60E8
:10221000FB6810E07B681B680C4A93420BD10A4BA9
:102220009B6D094A43F004039365074B9B6D03F0D4
:102230000403BB60BB6800BF1437BD465DF8047B78
:10224000704700BF0004004000100240000800403A
:1022500080B588B000AF786007F10C0300221A60E7
:102260005A609A60DA601A617B681B68114A93426F
:102270001BD1114BDB6C104A43F01003D3640E4B9F
:10228000DB6C03F01003BB60BB683823FB600223E8
:102290003B6100237B610023BB610223FB6107F1EB
:1022A0000C031946054801F0B3FF00BF2037BD46B7
:1022B00080BD00BF00040040001002400010004834
:1022C00080B5B0B000AF786007F1AC0300221A60AF
:1022D0005A609A60DA601A6107F1140398220021AB
:1022E000184607F0AFF87B681B68B3F1A04F6CD1BC
:1022F0004FF400537B610023C7F8883007F11403C3
:10230000184603F0AFFA0346002B01D0FFF7D0FDCB
:10231000304BDB6C2F4A43F00103D3642D4BDB6C55
:1023200003F001033B613B694FF4E853C7F8AC305D
:102330000223C7F8B0300023C7F8B4300323C7F82E
:10234000B8300A23C7F8BC3007F1AC0319464FF088
:10235000904001F05DFF4FF40073C7F8AC300023EC
:10236000C7F8B0300023C7F8B43007F1AC03194602
:102370004FF0904001F04CFF164BDB6C154A43F4D4
:102380008053D364134BDB6C03F48053FB60FB6816
:10239000104B9B6D03F08053002B14D10D4B9B6DA4
:1023A0000C4A43F0805393650A4B9B6D03F08053B6
:1023B000BB60BB6802F0FCFA064B9B6D054A23F03C
:1023C0008053936501E002F0F3FA00BFC037BD46C9
:1023D00080BD00BF0010024080B400AFFEE780B4B3
:1023E00000AFFEE780B400AFFEE780B400AFFEE7C9
:1023F00080B400AFFEE780B400AF00BFBD465DF81B
:10240000047B704780B400AF00BFBD465DF8047B1D
:10241000704780B400AF00BFBD465DF8047B7047D5
:1024200080B500AF00F086F800BF80BD80B500AF7A
:10243000024801F09DFD00BF80BD00BFE00200200A
:1024400080B500AF024801F093FD00BF80BD00BF22
:102450006004002080B500AF024805F0FBF800BF23
:1024600080BD00BF4003002080B400AF064BD3F80E
:102470008830054A43F47003C2F8883000BFBD4677
:102480005DF8047B704700BF00ED00E080B582B0CE
:1024900000AF0023FB71032001F04AFB002000F095
:1024A0000DF80346002B02D00123FB7101E0FFF77A
:1024B00005FDFB7918460837BD4680BD80B584B060
:1024C00000AF78600023FB73174B1B78002B23D0E1
:1024D000164B1A68144B1B7819464FF47A73B3FBEA
:1024E000F1F3B2FBF3F3184601F057FB0346002B60
:1024F0000FD17B680F2B09D8002279684FF0FF308D
:1025000001F021FB0A4A7B68136007E00123FB739B
:1025100004E00123FB7301E00123FB73FB7B1846FE
:102520001037BD4680BD00BF08000020000000201D
:102530000400002080B400AF064B1B781A46064BFF
:102540001B681344044A136000BFBD465DF8047B5A
:10255000704700BF08000020740A002080B400AF5C
:10256000034B1B681846BD465DF8047B704700BFEF
:10257000740A002080B584B000AF7860FFF7EEFFEA
:10258000B8607B68FB60FB68B3F1FF3F05D00A4B86
:102590001B781A46FB681344FB6000BFFFF7DEFFA1
:1025A0000246BB68D31AFA689A42F7D800BF00BF48
:1025B0001037BD4680BD00BF0800002080B483B046
:1025C00000AF786039607B689B6823F47C123B68BD
:1025D0001A437B689A6000BF0C37BD465DF8047BE8
:1025E000704780B483B000AF786039607B689B68C7
:1025F00023F0E0723B681A437B689A6000BF0C3797
:10260000BD465DF8047B704780B483B000AF78604E
:102610007B689B6803F0E07318460C37BD465DF895
:10262000047B704780B487B000AFF860B9607A600F
:102630003B60FB6860331A46BB689B0013447B61B8
:102640007B691A68084B13407A6802F0F8413A68CF
:102650000A43134343F000427B691A6000BF1C37F2
:10266000BD465DF8047B704700F0FF0380B485B081
:1026700000AF786039607B6860331A463B689B0026
:102680001344FB60FB681B6803F0F84318461437DB
:10269000BD465DF8047B704780B487B000AFF8603A
:1026A000B9607A60FB6860331A46BB689B001344CC
:1026B0007B617B691B6823F000427B681A437B695E
:1026C0001A6000BF1C37BD465DF8047B704780B4BC
:1026D00083B000AF786039607B685B6923F00042AB
:1026E0003B681A437B685A6100BF0C37BD465DF8F2
:1026F000047B704780B483B000AF78607B68DB6890
:1027000003F44063002B01D1012300E000231846AD
:102710000C37BD465DF8047B704780B487B000AFCE
:10272000F860B9607A60FB6830331A46BB681B0AF0
:102730009B0003F00C0313447B617B691A68BB6840
:1027400003F01F031F2101FA03F3DB431A407B68E8
:102750009B0E03F01F01BB6803F01F0301FA03F394
:102760001A437B691A6000BF1C37BD465DF8047BC5
:10277000704780B487B000AFF860B9607A60FB68DA
:1027800014331A46BB685B0E9B0003F0040313442A
:102790007B617B691A68BB681B0D03F01F0307216F
:1027A00001FA03F3DB431A40BB681B0D03F01F0360
:1027B000796801FA03F31A437B691A6000BF1C377A
:1027C000BD465DF8047B704780B485B000AFF8600B
:1027D000B9607A60FB68D3F8B020BB68C3F312031A
:1027E000DB431A407B6803F018030849D940BB68F3
:1027F0000B40C3F312031A43FB68C3F8B02000BFB9
:102800001437BD465DF8047B704700BFFFFF07002B
:1028100080B483B000AF78607B689B6803F01F03CF
:1028200018460C37BD465DF8047B704780B483B012
:1028300000AF78607B689B6823F0204323F03F0360
:102840007A68936000BF0C37BD465DF8047B704723
:1028500080B483B000AF78607B689B6803F000535E
:10286000B3F1005F01D1012300E0002318460C37CB
:10287000BD465DF8047B704780B483B000AF7860DC
:102880007B689B6823F0104323F03F0343F08052A2
:102890007B689A6000BF0C37BD465DF8047B7047CB
:1028A00080B483B000AF78607B689B6803F080538E
:1028B000B3F1805F01D1012300E0002318460C37FB
:1028C000BD465DF8047B704780B483B000AF78608C
:1028D0007B689B6823F0004323F03F0343F0010231
:1028E0007B689A6000BF0C37BD465DF8047B70477B
:1028F00080B483B000AF78607B689B6803F001030D
:10290000012B01D1012300E0002318460C37BD46FE
:102910005DF8047B704780B483B000AF78607B685B
:102920009B6823F0004323F03F0343F004027B68DD
:102930009A6000BF0C37BD465DF8047B704780B4D9
:1029400083B000AF78607B689B6803F00403042BBE
:1029500001D1012300E0002318460C37BD465DF885
:10296000047B704780B483B000AF78607B689B685D
:1029700003F00803082B01D1012300E000231846CF
:102980000C37BD465DF8047B7047000090B589B0F8
:1029900000AF78600023FB770023BB607B68002BCF
:1029A00001D1012334E17B681B69002B7B689B6D9F
:1029B000002B09D17868FFF7A5FA7B680022DA6559
:1029C0007B68002283F854207B681B681846FFF759
:1029D0003FFF0346002B04D07B681B681846FFF7B7
:1029E00025FF7B681B681846FFF75AFF0346002B3C
:1029F00015D17B681B681846FFF73EFF864B1B68A6
:102A00009B09864AA2FB03239B0901335B00BB6041
:102A100002E0BB68013BBB60BB68002BF9D17B685F
:102A20001B681846FFF73CFF0346002B0DD17B685F
:102A30009B6D43F010027B689A657B68DB6D43F009
:102A400001027B68DA650123FB777B681B68184607
:102A5000FFF775FF78617B689B6D03F01003002B17
:102A600040F0CD807B69002B40F0C9807B689B6D76
:102A700023F4817343F002027B689A657B681B68CC
:102A80001846FFF735FF0346002B10D16448FFF7C7
:102A90002FFF04466348FFF72BFF03462343002B19
:102AA00005D17B685B6819465F48FFF787FD7B6847
:102AB0005B7E5A037B685B6B1A437B68DB681A4357
:102AC0007B689B681A437B6893F820301B04134390
:102AD000BB617B6893F82030012B06D17B685B6A71
:102AE000013B5B04BA691343BB617B689B6A002BA3
:102AF00009D07B689B6A03F470727B68DB6A1343BE
:102B0000BA691343BB617B681B68DA68474B1340A3
:102B10007A681268B9690B43D3607B681B681846F2
:102B2000FFF70DFF38617B681B681846FFF71AFF37
:102B3000F8603B69002B40D1FB68002B3DD17B68DE
:102B4000DA6C7B681B7E9B031A437B6893F83030FA
:102B50005B001343BB617B681B68DB6823F4804325
:102B600023F006037A681268B9690B43D3607B6867
:102B700093F83830012B18D17B681B681B6923F44C
:102B8000FF6323F004037A68D16B7A68126C1143F7
:102B90007A68526C11437A68926C0A431A437B68D4
:102BA0001B6842F001021A6107E07B681B681A6922
:102BB0007B681B6822F001021A617B681B69012B8C
:102BC0000CD17B681B681B6B23F00F017B68DB69F2
:102BD0005A1E7B681B680A431A6307E07B681B6800
:102BE0001A6B7B681B6822F00F021A637B689B6D6F
:102BF00023F0030343F001027B689A6507E07B68DA
:102C00009B6D43F010027B689A650123FB77FB7F85
:102C100018462437BD4690BD00000020632D3E05B8
:102C200000000450000104500003045007C0F0FFEE
:102C300080B586B000AFF860B9607A605048FFF7A1
:102C4000E7FD3861FB681B681846FFF778FE03460E
:102C5000002B40F08E80FB6893F85430012B01D19B
:102C6000022389E0FB68012283F854203B69002B92
:102C700005D03B69052B02D03B69092B72D1F8685E
:102C800000F0A2FC0346FB75FB7D002B65D1FB68C1
:102C90009B6D23F4706323F0010343F48072FB689F
:102CA0009A65FB681B68374A934202D0FB681B6831
:102CB00000E0354BFA681268934202D03B69002B62
:102CC00005D1FB689B6D23F48012FB689A65FB6855
:102CD0009B6D03F48053002B06D0FB68DB6D23F063
:102CE0000602FB68DA6502E0FB680022DA65FB6831
:102CF0001B6D264ADA62FB681B6D254A1A63FB6866
:102D00001B6D244A5A63FB681B681C221A60FB680F
:102D1000002283F85420FB681B685A68FB681B6814
:102D200042F010025A60FB681B68DA68FB681B6897
:102D300042F00102DA60FB68186DFB681B684033E3
:102D40001946BA687B6800F0DDFF0346FB75FB6837
:102D50001B681846FFF7DFFD0DE0FB68002283F8D3
:102D6000542008E00123FB75FB68002283F85420FF
:102D700001E00223FB75FB7D18461837BD4680BD78
:102D8000000304500001045000000450D536000830
:102D9000AD370008C937000880B483B000AF786051
:102DA00000BF0C37BD465DF8047B704780B483B02C
:102DB00000AF786000BF0C37BD465DF8047B7047FC
:102DC00080B483B000AF786000BF0C37BD465DF8BB
:102DD000047B704780B5B6B000AF786039600023DF
:102DE00087F8D7300023FB607B6893F85430012BC1
:102DF00001D10223D3E37B68012283F854207B684E
:102E00001B681846FFF79BFD0346002B40F0B88374
:102E10003B685B68052B24D83B685B68023B032B4F
:102E20001BD801A252F823F0392E0008412E0008C9
:102E3000492E0008512E00083B680C225A6010E011
:102E40003B6812225A600CE03B6818225A6008E086
:102E50003B684FF480725A6003E03B6806225A6078
:102E600000BF7B6818683B6859683B681B681A4656
:102E7000FFF753FC7B681B681846FFF760FDC7F837
:102E8000D0007B681B681846FFF76CFDC7F8CC00C4
:102E9000D7F8D030002B40F0C181D7F8CC30002BD0
:102EA00040F0BC813B689B68B3F1004F0FD17B6859
:102EB00018683B681B6800221946FFF75AFC7B68BC
:102EC0001B684FF000411846FFF701FC0EE07B68DD
:102ED00018683B6819683B689B681A46FFF749FC0D
:102EE0007B681B6800211846FFF7F1FB3B685A69B5
:102EF0007B681B68DB68DB0803F003035B0002FAF6
:102F000003F3C7F8C8303B681B69042B0AD07B6801
:102F100018683B6819693B681A68D7F8C830FFF72A
:102F200081FB7BE17B681B6800211846FFF79EFB55
:102F30000346C3F31203002B0AD17B681B680021F0
:102F40001846FFF793FB03469B0E03F01F021EE09B
:102F50007B681B6800211846FFF788FB0346C7F80B
:102F6000BC30D7F8BC3093FAA3F3C7F8B830D7F821
:102F7000B830C7F8C030D7F8C030002B01D12023BB
:102F800004E0D7F8C030B3FA83F3DBB21A463B68EB
:102F90001B68C3F31203002B05D13B681B689B0E13
:102FA00003F01F0318E03B681B68C7F8B030D7F880
:102FB000B03093FAA3F3C7F8AC30D7F8AC30C7F809
:102FC000B430D7F8B430002B01D1202304E0D7F877
:102FD000B430B3FA83F3DBB29A4206D17B681B6844
:102FE000002200211846FFF757FB7B681B68012170
:102FF0001846FFF73BFB0346C3F31203002B0AD12D
:103000007B681B6801211846FFF730FB03469B0EC7
:1030100003F01F021EE07B681B6801211846FFF7C2
:1030200025FB0346C7F8A430D7F8A43093FAA3F3DE
:10303000C7F8A030D7F8A030C7F8A830D7F8A83024
:10304000002B01D1202304E0D7F8A830B3FA83F392
:10305000DBB21A463B681B68C3F31203002B05D191
:103060003B681B689B0E03F01F0318E03B681B685E
:10307000C7F89830D7F8983093FAA3F3C7F894308C
:10308000D7F89430C7F89C30D7F89C30002B01D18A
:10309000202304E0D7F89C30B3FA83F3DBB29A42E2
:1030A00006D17B681B68002201211846FFF7F4FA5D
:1030B0007B681B6802211846FFF7D8FA0346C3F362
:1030C0001203002B0AD17B681B6802211846FFF708
:1030D000CDFA03469B0E03F01F021EE07B681B68BF
:1030E00002211846FFF7C2FA0346C7F88C30D7F81A
:1030F0008C3093FAA3F3C7F88830D7F88830C7F834
:103100009030D7F89030002B01D1202304E0D7F87D
:103110009030B3FA83F3DBB21A463B681B68C3F303
:103120001203002B05D13B681B689B0E03F01F03A5
:1031300016E03B681B68C7F88030D7F8803093FAF8
:10314000A3F3FB67FB6FC7F88430D7F88430002BFC
:1031500001D1202304E0D7F88430B3FA83F3DBB243
:103160009A4206D17B681B68002202211846FFF7AD
:1031700093FA7B681B6803211846FFF777FA03462A
:10318000C3F31203002B0AD17B681B680321184686
:10319000FFF76CFA03469B0E03F01F0217E07B68F3
:1031A0001B6803211846FFF761FA03467B677B6FB4
:1031B00093FAA3F33B673B6FBB67BB6F002B01D157
:1031C000202303E0BB6FB3FA83F3DBB21A463B68FC
:1031D0001B68C3F31203002B05D13B681B689B0ED1
:1031E00003F01F0311E03B681B68BB66BB6E93FADC
:1031F000A3F37B667B6EFB66FB6E002B01D1202365
:1032000003E0FB6EB3FA83F3DBB29A4206D17B682C
:103210001B68002203211846FFF73EFA7B681B68F3
:103220001846FFF765FB0346002B40F03F817B68A3
:1032300018683B6819683B68DB681A46FFF7C4FAF0
:103240003B68DB688E4A934240F030817B681868A7
:103250003B681B68C3F31203002B0BD13B681B6850
:103260009B0E013303F01F03092B94BF012300239E
:10327000DBB219E03B681B68FB65FB6D93FAA3F3B7
:10328000BB65BB6D3B663B6E002B01D1202303E089
:103290003B6EB3FA83F3DBB2013303F01F03092B58
:1032A00094BF01230023DBB2002B79D03B681B685D
:1032B000C3F31203002B07D13B681B689B0E01333D
:1032C0009B0603F0F84215E03B681B683B653B6DCD
:1032D00093FAA3F3FB64FB6C7B657B6D002B01D140
:1032E000202303E07B6DB3FA83F3DBB201339B064B
:1032F00003F0F8423B681B68C3F31203002B09D1AB
:103300003B681B689B0E013303F01F03012101FA88
:1033100003F317E03B681B687B647B6C93FAA3F3B1
:103320003B643B6CBB64BB6C002B01D1202303E0EE
:10333000BB6CB3FA83F3DBB2013303F01F0301214B
:1033400001FA03F342EA03013B681B68C3F312036B
:10335000002B0AD13B681B689B0E013303F01F0250
:1033600013465B0013441B0518E03B681B68BB63F6
:10337000BB6B93FAA3F37B637B6BFB63FB6B002B51
:1033800001D1202303E0FB6BB3FA83F3DBB20133FB
:1033900003F01F0213465B0013441B050B4380E040
:1033A0003B681B68C3F31203002B07D13B681B6803
:1033B0009B0E01339B0603F0F84215E03B681B6847
:1033C000FB62FB6A93FAA3F3BB62BB6A3B633B6B92
:1033D000002B01D1202303E03B6BB3FA83F3DBB274
:1033E00001339B0603F0F8423B681B68C3F31203EA
:1033F000002B09D13B681B689B0E013303F01F03B0
:10340000012101FA03F317E03B681B683B623B6A4A
:1034100093FAA3F3FB61FB697B627B6A002B01D10A
:10342000202303E07B6AB3FA83F3DBB2013303F0BA
:103430001F03012101FA03F342EA03013B681B6801
:10344000C3F31203002B0DD13B681B689B0E0133A5
:1034500003F01F0213465B0013441E3B1B0543F0A1
:1034600000731DE03B681B687B617B6993FAA3F3E3
:103470003B613B69BB61BB69002B03D1202305E0A5
:1034800000007F40BB69B3FA83F3DBB2013303F082
:103490001F0213465B0013441E3B1B0543F00073E1
:1034A0000B433A6892681946FFF763F93B681A685C
:1034B0003D4B1340002B6CD03C48FFF7A5F8C7F8F4
:1034C000C4003B681B683A4A934227D1D7F8C430FE
:1034D00003F40003002B21D17B681B68354A93421B
:1034E00057D1D7F8C43043F4000319462F48FFF7EB
:1034F00078F8314B1B689B09304AA2FB03239B09D8
:103500005A1C13465B0013449B00FB6002E0FB68FF
:10351000013BFB60FB68002BF9D13AE03B681B687C
:10352000274A934213D1D7F8C43003F08073002B9D
:103530000DD17B681B681F4A93422AD1D7F8C4304B
:1035400043F0807319461948FFF74BF821E03B68B8
:103550001B681C4A93421CD1D7F8C43003F4800383
:10356000002B16D17B681B68124A934211D1D7F801
:10357000C43043F4800319460C48FFF732F808E0E2
:103580007B689B6D43F020027B689A65012387F876
:10359000D7307B68002283F8542097F8D73018463C
:1035A000D837BD4680BD00BF00000880000304502E
:1035B000000052C70000045000000020632D3E05AB
:1035C000000084CB0100008080B584B000AF78603B
:1035D0000023BB607B681B681846FFF789F9034628
:1035E000002B69D17B681B689A68364B1340002B0F
:1035F0000DD07B689B6D43F010027B689A657B68F9
:10360000DB6D43F001027B68DA65012355E07B68DE
:103610001B681846FFF758F92B48FEF7F5FF0346DD
:1036200003F40003002B13D0284B1B689B09284A86
:10363000A2FB03239B095A1C13465B0013449B0007
:10364000BB6002E0BB68013BBB60BB68002BF9D1EB
:10365000FEF784FFF86028E07B681B681846FFF7D8
:1036600047F90346002B04D17B681B681846FFF717
:103670002BF9FEF773FF0246FB68D31A022B14D90D
:103680007B681B681B6803F00103012B0DD07B686E
:103690009B6D43F010027B689A657B68DB6D43F09D
:1036A00001027B68DA65012307E07B681B681B6801
:1036B00003F00103012BCFD1002318461037BD467C
:1036C00080BD00BF3F0000800003045000000020C8
:1036D000632D3E0580B584B000AF78607B689B6A3F
:1036E000FB60FB689B6D03F05003002B4BD1FB6824
:1036F0009B6D43F40072FB689A65FB681B681B684E
:1037000003F00803002B21D0FB681B681846FEF766
:10371000F1FF0346002B32D0FB681B68DB6803F423
:103720000053002B2BD1FB689B6D23F48072FB6848
:103730009A65FB689B6D03F48053002B1FD1FB68D7
:103740009B6D43F00102FB689A6518E0FB681B68FB
:10375000DB6803F00203002B11D1FB689B6D23F49F
:103760008072FB689A65FB689B6D03F48053002BA5
:1037700005D1FB689B6D43F00102FB689A65F86810
:10378000FFF70AFB0EE0FB689B6D03F01003002BB4
:1037900003D0F868FFF714FB04E0FB681B6D5B6B5C
:1037A0007868984700BF1037BD4680BD80B584B0AB
:1037B00000AF78607B689B6AFB60F868FFF7F6FAF9
:1037C00000BF1037BD4680BD80B584B000AF7860C3
:1037D0007B689B6AFB60FB689B6D43F04002FB6863
:1037E0009A65FB68DB6D43F00402FB68DA65F868F4
:1037F000FFF7E6FA00BF1037BD4680BD80B483B046
:1038000000AF78607B689B6803F00103012B01D156
:10381000012300E0002318460C37BD465DF8047B09
:10382000704780B483B000AF78607B689B6803F01A
:103830000403042B01D1012300E0002318460C37B8
:10384000BD465DF8047B704790B5A1B000AF7860CD
:103850003960002387F87F307B6893F85430012B60
:1038600001D1022389E07B68012283F854200023E0
:103870007B660023BB667B681B68424A934202D189
:10388000414BFB6001E00023FB60FB68002B0BD188
:103890007B689B6D43F020027B689A657B68002201
:1038A00083F85420012368E0FB681846FFF7B9FF4E
:1038B000B8677B681B681846FFF7B3FF0346002B09
:1038C0004AD1BB6F002B47D1304B7B673B681B68ED
:1038D000002B27D07B6F9B6823F460423B685968BC
:1038E0007B6893F830305B030B431A437B6F9A601D
:1038F0002448FFF783FF04462348FFF77FFF034672
:103900002343002B32D17B6F9B6823F4716323F038
:103910000F033A6811683A6892680A431A437B6F4A
:103920009A6023E07B6F9B6823F460427B6F9A6010
:103930001448FFF763FF04461348FFF75FFF034691
:103940002343002B12D17B6F9B6823F4716323F018
:103950000F037A6F936009E07B689B6D43F0200250
:103960007B689A65012387F87F3000E000BF7B68A1
:10397000002283F8542097F87F3018468437BD46DC
:1039800090BD00BF0000045000010450000304502B
:1039900080B485B000AF78607B6803F00703FB60FC
:1039A0000C4BDB68BB60BA684FF6FF031340BB608B
:1039B000FB681A02BB68134343F0BF6343F4003350
:1039C000BB60044ABB68D36000BF1437BD465DF8D6
:1039D000047B704700ED00E080B400AF044BDB686F
:1039E0001B0A03F007031846BD465DF8047B7047C9
:1039F00000ED00E080B483B000AF0346FB7197F99F
:103A00000730002B0BDBFB7903F01F02074997F906
:103A100007305B09012000FA02F241F8232000BFC1
:103A20000C37BD465DF8047B704700BF00E100E045
:103A300080B483B000AF03463960FB7197F907305B
:103A4000002B0ADB3B68DAB20C4997F90730120108
:103A5000D2B20B4483F800230AE03B68DAB208498B
:103A6000FB7903F00F03043B1201D2B20B441A7628
:103A700000BF0C37BD465DF8047B704700E100E0F5
:103A800000ED00E080B489B000AFF860B9607A6002
:103A9000FB6803F00703FB61FB69C3F10703042B19
:103AA00028BF0423BB61FB690433062B02D9FB69E1
:103AB000033B00E000237B614FF0FF32BB6902FA59
:103AC00003F3DA43BB681A407B699A404FF0FF3139
:103AD0007B6901FA03F3D9437B680B401343184613
:103AE0002437BD465DF8047B7047000080B582B086
:103AF00000AF78607B68013BB3F1807F01D3012385
:103B00000FE00A4A7B68013B53600F214FF0FF3002
:103B1000FFF78EFF054B00229A60044B07221A60C4
:103B2000002318460837BD4680BD00BF10E000E006
:103B300080B582B000AF78607868FFF729FF00BFDA
:103B40000837BD4680BD80B586B000AF0346B9607A
:103B50007A60FB7300237B61FFF73EFF78617A6830
:103B6000B9687869FFF78EFF024697F90F30114662
:103B70001846FFF75DFF00BF1837BD4680BD80B512
:103B800082B000AF0346FB7197F907301846FFF784
:103B900031FF00BF0837BD4680BD80B582B000AFA1
:103BA00078607868FFF7A2FF034618460837BD46DD
:103BB00080BD000080B584B000AF78607B68002BCA
:103BC00001D101238DE07B681B681A46474B9A425E
:103BD0000FD87B681B681A46454B1344454AA2FB25
:103BE00003231B099A007B685A647B68424A1A6463
:103BF0000EE07B681B681A46404B13443D4AA2FB0B
:103C000003231B099A007B685A647B683C4A1A6448
:103C10007B68022283F825207B681B681B68FB6099
:103C2000FB6823F4FF4323F07003FB607B689A6812
:103C30007B68DB681A437B681B691A437B685B6996
:103C40001A437B689B691A437B68DB691A437B686C
:103C50001B6A1343FA681343FB607B681B68FA68AE
:103C60001A60786800F072FA7B689B68B3F5804F41
:103C700002D17B6800225A607B685A687B689B6C23
:103C8000D2B21A607B68DB6C7A68126D5A607B680E
:103C90005B68002B10D07B685B68042B0CD87868BD
:103CA00000F092FA7B685B6D00221A607B689B6D66
:103CB0007A68D26D5A6008E07B6800225A657B689A
:103CC00000229A657B680022DA657B680022DA634D
:103CD0007B68012283F825207B68002283F824205A
:103CE000002318461037BD4680BD00BF07040240C0
:103CF000F8FFFDBFCDCCCCCC00000240F8FBFDBFEF
:103D00000004024080B586B000AFF860B9607A6008
:103D10003B600023FB75FB6893F82430012B01D135
:103D2000022366E0FB68012283F82420FB6893F8F5
:103D30002530DBB2012B55D1FB68022283F8252008
:103D4000FB680022DA63FB681B681A68FB681B6863
:103D500022F001021A603B687A68B968F86800F0DE
:103D6000B6F9FB681B6B002B08D0FB681B681A6850
:103D7000FB681B6842F00E021A600FE0FB681B68CC
:103D80001A68FB681B6822F004021A60FB681B6853
:103D90001A68FB681B6842F00A021A60FB689B6C99
:103DA0001B6803F48033002B07D0FB689B6C1A68F8
:103DB000FB689B6C42F480721A60FB685B6D002BA1
:103DC00007D0FB685B6D1A68FB685B6D42F480721C
:103DD0001A60FB681B681A68FB681B6842F00102E6
:103DE0001A6005E0FB68002283F824200223FB759B
:103DF000FB7D18461837BD4680BD80B485B000AF46
:103E000078600023FB737B6893F82530DBB2022BCC
:103E100008D07B680422DA637B68002283F82420C0
:103E2000012340E07B681B681A687B681B6822F0EE
:103E30000E021A607B689B6C1A687B689B6C22F48C
:103E400080721A607B681B681A687B681B6822F0A6
:103E500001021A607B685B6C03F01C027B681B6CC0
:103E6000012101FA02F25A607B68DB6C7A68126DFC
:103E70005A607B685B6D002B0CD07B685B6D1A68A9
:103E80007B685B6D22F480721A607B689B6D7A6838
:103E9000D26D5A607B68012283F825207B6800225E
:103EA00083F82420FB7B18461437BD465DF8047B5D
:103EB000704780B584B000AF78600023FB737B68E7
:103EC00093F82530DBB2022B05D07B680422DA633D
:103ED0000123FB7347E07B681B681A687B681B68DB
:103EE00022F00E021A607B681B681A687B681B68E8
:103EF00022F001021A607B689B6C1A687B689B6CDD
:103F000022F480721A607B685B6C03F01C027B6891
:103F10001B6C012101FA02F25A607B68DB6C7A6843
:103F2000126D5A607B685B6D002B0CD07B685B6DFB
:103F30001A687B685B6D22F480721A607B689B6DE7
:103F40007A68D26D5A607B68012283F825207B68ED
:103F5000002283F824207B689B6B002B03D07B68B6
:103F60009B6B78689847FB7B18461037BD4680BD31
:103F700080B584B000AF78607B681B6C1B68FB6009
:103F80007B681B681B68BB607B685B6C03F01C0371
:103F900004229A40FB681340002B26D0BB6803F034
:103FA0000403002B21D07B681B681B6803F02003EF
:103FB000002B07D17B681B681A687B681B6822F09E
:103FC00004021A607B685B6C03F01C027B681B6C4C
:103FD000042101FA02F25A607B681B6B002B71D03E
:103FE0007B681B6B786898476CE07B685B6C03F0C0
:103FF0001C0302229A40FB681340002B2ED0BB68A2
:1040000003F00203002B29D07B681B681B6803F0B8
:104010002003002B0BD17B681B681A687B681B6828
:1040200022F00A021A607B68012283F825207B684F
:104030005B6C03F01C027B681B6C022101FA02F22C
:104040005A607B68002283F824207B68DB6A002B9F
:1040500038D07B68DB6A7868984733E07B685B6CB4
:1040600003F01C0308229A40FB681340002B2AD05F
:10407000BB6803F00803002B25D07B681B681A6817
:104080007B681B6822F00E021A607B685B6C03F091
:104090001C027B681B6C012101FA02F25A607B68EA
:1040A0000122DA637B68012283F825207B680022E5
:1040B00083F824207B685B6B002B04D07B685B6BF0
:1040C0007868984700BF00BF1037BD4680BD80B4F8
:1040D00085B000AFF860B9607A603B60FB68DB6C6C
:1040E000FA68126D5A60FB685B6D002B04D0FB68A8
:1040F0009B6DFA68D26D5A60FB685B6C03F01C0222
:10410000FB681B6C012101FA02F25A60FB681B6814
:104110003A685A60FB689B68102B08D1FB681B68E3
:104120007A689A60FB681B68BA68DA6007E0FB6827
:104130001B68BA689A60FB681B687A68DA6000BF1F
:104140001437BD465DF8047B7047000080B485B02D
:1041500000AF78607B681B681A46174B9A420AD8F2
:104160007B685B6C9B089B0003F1804303F5023383
:104170007A68936407E07B685B6C9B089A000F4B3E
:1041800013447A6893647B681B68DBB2083B0C4A73
:10419000A2FB03231B09FB607B680A4ADA64FB6805
:1041A00003F01F0301229A407B681A6500BF143791
:1041B000BD465DF8047B7047070402401C080240BE
:1041C000CDCCCCCC8008024080B485B000AF786004
:1041D0007B685B68DBB2FB60FA680B4B13449B00A7
:1041E0001A467B685A657B68084A9A65FB68013BFA
:1041F00003F0030301229A407B68DA6500BF14379D
:10420000BD465DF8047B70473F82001040090240C4
:1042100080B487B000AF7860396000237B6166E1CD
:104220003B681A6801217B6901FA03F31340FB60C4
:10423000FB68002B00F058813B685B6803F00303C8
:10424000012B05D03B685B6803F00303022B30D1E0
:104250007B689B683B617B695B00032202FA03F386
:10426000DB433A6913403B613B68DA687B695B007A
:1042700002FA03F33A6913433B617B683A699A6037
:104280007B685B683B6101227B6902FA03F3DB43D5
:104290003A6913403B613B685B681B0903F001020C
:1042A0007B6902FA03F33A6913433B617B683A691D
:1042B0005A603B685B6803F00303032B17D07B68ED
:1042C000DB683B617B695B00032202FA03F3DB439B
:1042D0003A6913403B613B689A687B695B0002FA6C
:1042E00003F33A6913433B617B683A69DA603B68E0
:1042F0005B6803F00303022B23D17B69DA087B6838
:10430000083253F822303B617B6903F007039B00BE
:104310000F2202FA03F3DB433A6913403B613B6827
:104320001A697B6903F007039B0002FA03F33A69F9
:1043300013433B617B69DA087B680832396943F8CB
:1043400022107B681B683B617B695B00032202FAD9
:1043500003F3DB433A6913403B613B685B6803F05E
:1043600003027B695B0002FA03F33A6913433B6182
:104370007B683A691A603B685B6803F44033002B42
:1043800000F0B280614B1B6E604A43F0010313667C
:104390005E4B1B6E03F00103BB60BB685C4A7B692C
:1043A0009B08023352F823303B617B6903F003031F
:1043B0009B000F2202FA03F3DB433A6913403B618F
:1043C0007B68B3F1904F2BD07B68524A934225D043
:1043D0007B68514A93421FD07B68504A934219D060
:1043E0007B684F4A934213D07B684E4A93420DD06C
:1043F0007B684D4A934207D07B684C4A934201D177
:1044000007230EE008230CE006230AE0052308E05A
:10441000042306E0032304E0022302E0012300E07A
:1044200000237A6902F00302920093403A69134331
:104430003B6137497B699B0802333A6941F8232085
:104440003B4B9B683B61FB68DB433A6913403B6134
:104450003B685B6803F48013002B03D03A69FB6868
:1044600013433B61324A3B699360314BDB683B61EC
:10447000FB68DB433A6913403B613B685B6803F4CC
:104480000013002B03D03A69FB6813433B61284AB1
:104490003B69D360264B5B683B61FB68DB433A6951
:1044A00013403B613B685B6803F40033002B03D08F
:1044B0003A69FB6813433B611D4A3B6953601C4BDF
:1044C0001B683B61FB68DB433A6913403B613B6817
:1044D0005B6803F48033002B03D03A69FB68134315
:1044E0003B61134A3B6913607B6901337B613B6825
:1044F0001A687B6922FA03F3002B7FF491AE00BFA8
:1045000000BF1C37BD465DF8047B704700100240B9
:10451000000001400004004800080048000C00486A
:10452000001000480014004800180048001C004813
:104530000004014080B483B000AF78600B467B80FC
:1045400013467B707B78002B03D07A887B689A6156
:1045500002E07A887B689A6200BF0C37BD465DF83E
:10456000047B704780B485B000AF78600B467B80D9
:104570007B685B69FB607A88FB6813401A04FB6800
:10458000D9437B880B401A437B689A6100BF14377C
:10459000BD465DF8047B7047F0B58FB00AAF786018
:1045A0007B68002B01D1012316E17B681B68BB608F
:1045B0007B6893F8BD34DBB2002B06D17B68002208
:1045C00083F8BC247868FDF77BFE7B68032283F8C0
:1045D000BD24BB68DB6B03F48073002B02D17B68C6
:1045E00000221A617B681B68184604F04DFC7B684A
:1045F0001B683B607E686D4606F110040FCC0FC54A
:104600000FCC0FC594E8030085E80300331D0ECBE3
:10461000386804F00DFC0346002B05D07B680222AD
:1046200083F8BD240123D7E07B681B68002118466E
:1046300004F03BFC0023FB734AE0FA7B79681346E5
:10464000DB0013449B000B443D3301221A70FA7BBC
:1046500079681346DB0013449B000B443C33FA7B20
:104660001A70FA7BFB7B98B279681346DB0013441F
:104670009B000B44443302461A80FA7B7968134648
:10468000DB0013449B000B44403300221A70FA7B7A
:1046900079681346DB0013449B000B444833002227
:1046A0001A60FA7B79681346DB0013449B000B44C5
:1046B0004C3300221A60FA7B79681346DB001344FE
:1046C0009B000B44543300221A60FB7B0133FB73C5
:1046D000FA7B7B685B689A42AFD30023FB7344E0AC
:1046E000FA7B79681346DB0013449B000B4403F20A
:1046F0007D2300221A70FA7B79681346DB0013448D
:104700009B000B4403F51F73FA7B1A70FA7B7968E0
:104710001346DB0013449B000B4403F52073002277
:104720001A70FA7B79681346DB0013449B000B4434
:1047300003F5227300221A60FA7B79681346DB00C6
:1047400013449B000B4403F5237300221A60FA7B89
:1047500079681346DB0013449B000B4403F5257373
:1047600000221A60FB7B0133FB73FA7B7B685B687A
:104770009A42B5D37B681B683B607E686D4606F144
:1047800010040FCC0FC50FCC0FC594E8030085E8CB
:104790000300331D0ECB386804F0D4FB0346002B16
:1047A00005D07B68022283F8BD24012314E07B68D6
:1047B000002283F838207B68012283F8BD247B68BF
:1047C0005B6A012B02D1786800F00AF87B681B68ED
:1047D000184604F080FD002318461437BD46F0BD8E
:1047E00080B485B000AF78607B681B68FB607B6835
:1047F0000122C3F800257B68002283F8F424FB68BB
:104800009B6943F00062FB689A61FB685B6D43F053
:10481000805343F00303FA685365002318461437A6
:10482000BD465DF8047B704780B400AF0D4B1B683C
:1048300003F4C063B3F5806F02D14FF480630BE0E3
:10484000084BD3F8803003F48073B3F5807F02D136
:104850004FF4007300E000231846BD465DF8047B6A
:10486000704700BF0070004080B485B000AF786032
:104870007B68002B41D14B4B1B6803F4C063B3F53D
:10488000806F31D1474BD3F88030464A23F4807390
:10489000C2F88030434B1B6823F4C063414A43F4A1
:1048A00000731360404B1B68322202FB03F33F4A44
:1048B000A2FB03239B0C0133FB6002E0FB68013B7E
:1048C000FB60384B5B6903F48063B3F5806F02D102
:1048D000FB68002BF2D1334B5B6903F48063B3F5C3
:1048E000806F58D1032357E02E4BD3F880302D4AE8
:1048F00023F48073C2F880304DE07B68B3F5007F0D
:1049000041D1284B1B6803F4C063B3F5806F31D1EC
:10491000244BD3F88030234A43F48073C2F88030AC
:10492000204B1B6823F4C0631E4A43F400731360DA
:104930001D4B1B68322202FB03F31C4AA2FB03231C
:104940009B0C0133FB6002E0FB68013BFB60154BF5
:104950005B6903F48063B3F5806F02D1FB68002BC1
:10496000F2D1104B5B6903F48063B3F5806F12D111
:10497000032311E00B4BD3F880300A4A43F48073D1
:10498000C2F8803007E0074B1B6823F4C063054A78
:1049900043F480631360002318461437BD465DF866
:1049A000047B7047007000400000002083DE1B4342
:1049B00080B400AF054B5B68044A43F480635360E6
:1049C00000BFBD465DF8047B704700BF007000402B
:1049D00080B400AF054B5B68044A43F40073536036
:1049E00000BFBD465DF8047B704700BF007000400B
:1049F00080B58AB000AF78607B68002B02D10123BC
:104A000000F068BC974B9B6803F00C033B62954B2E
:104A1000DB6803F00303FB617B681B6803F0100392
:104A2000002B00F0E6803B6A002B07D03B6A0C2B82
:104A300040F08D80FB69012B40F08980894B1B6819
:104A400003F00203002B06D07B68DB69002B02D148
:104A5000012300F03FBC7B685A6A824B1B6803F05D
:104A60000803002B04D07F4B1B6803F0F00305E024
:104A70007C4BD3F894301B0903F0F003934224D20B
:104A80007B685B6A184600F02DFE0346002B02D0BF
:104A9000012300F01FBC734B1B68724A43F00803EC
:104AA0001360704B1B6823F0F0027B685B6A6D49F2
:104AB00013430B606B4B5B6823F47F427B681B6A7C
:104AC0001B02684913434B6025E0664B1B68654A2F
:104AD00043F008031360634B1B6823F0F0027B680C
:104AE0005B6A604913430B605E4B5B6823F47F4253
:104AF0007B681B6A1B025B4913434B603B6A002BBC
:104B000009D17B685B6A184600F0ECFD0346002B78
:104B100001D00123DEE300F021FD0246514B9B68EA
:104B20001B0903F00F035049CB5C03F01F0322FA6B
:104B300003F34E4A13604E4B1B681846FDF7BEFC4C
:104B40000346FB75FB7D002B52D0FB7DC2E37B68E7
:104B5000DB69002B32D0434B1B68424A43F0010310
:104B60001360FDF7FBFCB86108E0FDF7F7FC0246B7
:104B7000BB69D31A022B01D90323ABE3394B1B6862
:104B800003F00203002BF0D0364B1B68354A43F08C
:104B900008031360334B1B6823F0F0027B685B6AE9
:104BA000304913430B602F4B5B6823F47F427B68D3
:104BB0001B6A1B022B4913434B601AE0294B1B68ED
:104BC000284A23F001031360FDF7C8FCB86108E030
:104BD000FDF7C4FC0246BB69D31A022B01D903239B
:104BE00078E3204B1B6803F00203002BF0D100E0B8
:104BF00000BF7B681B6803F00103002B73D03B6A86
:104C0000082B05D03B6A0C2B0ED1FB69032B0BD173
:104C1000144B1B6803F40033002B63D07B685B6884
:104C2000002B5FD1012355E37B685B68B3F5803FC0
:104C300006D10C4B1B680B4A43F48033136025E00C
:104C40007B685B68B3F5A02F14D1064B1B68054A3F
:104C500043F480231360034B1B68024A43F4803300
:104C6000136013E000100240D4FD00080000002093
:104C7000040000208F4B1B688E4A23F4803313609E
:104C80008C4B1B688B4A23F4802313607B685B6822
:104C9000002B13D0FDF762FCB86108E0FDF75EFC65
:104CA0000246BB69D31A642B01D9032312E3814B5B
:104CB0001B6803F40033002BF0D014E0FDF74EFC2A
:104CC000B86108E0FDF74AFC0246BB69D31A642BC1
:104CD00001D90323FEE2774B1B6803F40033002B5A
:104CE000F0D100E000BF7B681B6803F00203002BDB
:104CF00060D03B6A042B05D03B6A0C2B19D1FB69B1
:104D0000022B16D16B4B1B6803F48063002B05D07C
:104D10007B68DB68002B01D10123DBE2654B5B681C
:104D200023F0FE427B681B691B06624913434B60FC
:104D300040E07B68DB68002B23D05E4B1B685D4A3C
:104D400043F480731360FDF709FCB86108E0FDF7D8
:104D500005FC0246BB69D31A022B01D90323B9E231
:104D6000544B1B6803F48063002BF0D0514B5B68FD
:104D700023F0FE427B681B691B064E4913434B60C0
:104D800018E04C4B1B684B4A23F480731360FDF70B
:104D9000E5FBB86108E0FDF7E1FB0246BB69D31A09
:104DA000022B01D9032395E2424B1B6803F4806375
:104DB000002BF0D17B681B6803F00803002B00F088
:104DC00082807B685B69002B5FD03A4BD3F89430CC
:104DD0003B617B689A693B6903F010039A4237D0C4
:104DE0003B6903F00203002B06D03B6903F001038B
:104DF000002B01D101236DE23B6903F00103002B7D
:104E00001BD02C4BD3F894302A4A23F00103C2F86C
:104E10009430FDF7A3FBB86108E0FDF79FFB024665
:104E2000BB69D31A112B01D9032353E2214BD3F8C9
:104E3000943003F00203002BEFD11E4BD3F89430D3
:104E400023F010027B689B691A491343C1F8943020
:104E5000184BD3F89430174A43F00103C2F894304A
:104E6000FDF77CFBB86108E0FDF778FB0246BB6903
:104E7000D31A112B01D903232CE20E4BD3F8943013
:104E800003F00203002BEFD01DE00A4BD3F894305F
:104E9000084A23F00103C2F89430FDF75FFBB861C4
:104EA0000AE0FDF75BFB0246BB69D31A112B03D95D
:104EB00003230FE200100240834BD3F8943003F039
:104EC0000203002BEDD17B681B6803F00403002B69
:104ED00000F0BD80002387F827307B4B9B6D03F0EB
:104EE0008053002B0ED1784B9B6D774A43F0805353
:104EF0009365754B9B6D03F08053FB60FB6801234A
:104F000087F82730714B1B6803F48073002B18D18E
:104F10006E4B1B686D4A43F480731360FDF71EFBF4
:104F2000B86108E0FDF71AFB0246BB69D31A022BF1
:104F300001D90323CEE1654B1B6803F48073002B7A
:104F4000F0D07B689B6803F00103002B2CD05E4BF4
:104F5000D3F8903023F080027B689B6803F08003D5
:104F600059491343C1F890307B689B6803F00403F0
:104F7000002B10D0544BD3F89030534A43F0040325
:104F8000C2F89030504BD3F890304F4A43F00103B1
:104F9000C2F8903018E04C4BD3F890304A4A43F0B6
:104FA0000103C2F890300FE0474BD3F89030464AE7
:104FB00023F00103C2F89030434BD3F89030424ABB
:104FC00023F00403C2F890307B689B68002B16D056
:104FD000FDF7C4FAB8610AE0FDF7C0FA0246BB6902
:104FE000D31A41F28832934201D9032372E1364B3E
:104FF000D3F8903003F00203002BEDD01DE0FDF755
:10500000ADFAB8610AE0FDF7A9FA0246BB69D31A06
:1050100041F28832934201D903235BE12A4BD3F852
:10502000903003F00203002BEDD1274BD3F89030E2
:10503000254A23F08003C2F8903097F82730012BDF
:1050400005D1214B9B6D204A23F0805393657B68EB
:105050001B6803F02003002B41D07B689B6A002B68
:105060001CD0194BD3F89830174A43F00103C2F80B
:105070009830FDF773FAB86108E0FDF76FFA024661
:10508000BB69D31A022B01D9032323E10E4BD3F8BA
:10509000983003F00203002BEFD020E00A4BD3F846
:1050A0009830094A23F00103C2F89830FDF756FA08
:1050B000B8610DE0FDF752FA0246BB69D31A022B24
:1050C00006D9032306E100BF001002400070004033
:1050D000824BD3F8983003F00203002BEAD17B68AF
:1050E000DB6A002B00F0F5807B68DB6A022B40F066
:1050F000CB807A4BDB68FB61FB6903F003027B68C2
:105100001B6B9A422CD1FB6903F0F0027B685B6B4E
:10511000013B1B019A4223D1FB6903F4FE427B68E9
:105120009B6B1B029A421BD1FB6903F078427B68A0
:10513000DB6BDB069A4213D1FB6903F4C0027B6888
:105140001B6C5B08013B5B059A4209D1FB6903F0CC
:10515000C0627B685B6C5B08013B5B069A426DD06A
:105160003B6A0C2B68D05D4B1B6803F08063002BFF
:1051700005D15A4B1B6803F08053002B01D001234B
:10518000A8E0564B1B68554A23F080731360FDF767
:10519000E5F9B86108E0FDF7E1F90246BB69D31A09
:1051A000022B01D9032395E04C4B1B6803F00073DD
:1051B000002BF0D1494BDA68494B13407A68116BE8
:1051C0007A68526B013A120111437A68926B1202AB
:1051D00011437A68126C5208013A520511437A68F9
:1051E000526C5208013A520611437A68D26BD206C9
:1051F0000A433A491343CB60384B1B68374A43F0A4
:1052000080731360354BDB68344A43F08073D3609E
:10521000FDF7A4F9B86108E0FDF7A0F90246BB6903
:10522000D31A022B01D9032354E02C4B1B6803F043
:105230000073002BF0D04CE001234BE0274B1B68A0
:1052400003F00073002B44D1244B1B68234A43F026
:1052500080731360214BDB68204A43F08073D36076
:10526000FDF77CF9B86108E0FDF778F90246BB6903
:10527000D31A022B01D903232CE0184B1B6803F02F
:105280000073002BF0D024E03B6A0C2B1FD0134B93
:105290001B68124A23F080731360FDF75FF9B86151
:1052A00008E0FDF75BF90246BB69D31A022B01D96E
:1052B00003230FE0094B1B6803F00073002BF0D1B0
:1052C000064BDA680549074B1340CB6001E0012328
:1052D00000E0002318462837BD4680BD001002407C
:1052E0000C809D01FCFFEEFE80B586B000AF7860BB
:1052F000396000237B617B68002B01D101231DE114
:10530000904B1B6803F00F033A689A4210D98D4BFB
:105310001B6823F00F028B493B6813430B60894BDA
:105320001B6803F00F033A689A4201D0012305E19C
:105330007B681B6803F00203002B10D07B689A681F
:10534000814B9B6803F0F0039A4208D97E4B9B681F
:1053500023F0F0027B689B687B4913438B607B687A
:105360001B6803F00103002B79D07B685B68032B7B
:105370001ED1754B1B6803F00073002B01D1012374
:10538000DCE000F009FA0346704A934246D96E4BBE
:105390009B6803F0F003002B40D16B4B9B6823F01C
:1053A000F003694A43F08003936080237B6135E01A
:1053B0007B685B68022B07D1634B1B6803F40033E7
:1053C000002B15D10123B9E07B685B68002B07D166
:1053D0005D4B1B6803F00203002B09D10123ADE0F4
:1053E000594B1B6803F48063002B01D10123A5E016
:1053F00000F0B4F80346554A93420FD9524B9B68CC
:1054000003F0F003002B09D14F4B9B6823F0F0030E
:105410004D4A43F08003936080237B614A4B9B6835
:1054200023F003027B685B68474913438B60FDF7F9
:1054300095F838610AE0FDF791F802463B69D31A06
:1054400041F28832934201D9032377E03E4B9B68B7
:1054500003F00C027B685B689B009A42EBD17B698E
:10546000802B05D1384B9B68374A23F0F0039360BB
:105470007B681B6803F00203002B10D07B689A68DE
:10548000314B9B6803F0F0039A4208D22E4B9B6885
:1054900023F0F0027B689B682B4913438B60294BF8
:1054A0001B6803F00F033A689A4210D2254B1B6821
:1054B00023F00F0223493B6813430B60214B1B6809
:1054C00003F00F033A689A4201D0012336E07B686B
:1054D0001B6803F00403002B08D01B4B9B6823F4CC
:1054E000E0627B68DB68184913438B607B681B684C
:1054F00003F00803002B09D0134B9B6823F4605280
:105500007B681B69DB00104913438B6000F026F8B1
:1055100002460D4B9B681B0903F00F030C49CB5C43
:1055200003F01F0322FA03F30A4A13600A4B1B68B5
:105530001846FCF7C3FF0346FB73FB7B184618377E
:10554000BD4680BD002002400010024000B4C404EB
:10555000D4FD0008000000200400002080B489B0C1
:1055600000AF0023FB610023BB613E4B9B6803F04F
:105570000C033B613B4BDB6803F00303FB603B69BF
:10558000002B05D03B690C2B21D1FB68012B1ED1D0
:10559000344B1B6803F00803002B07D1314BD3F8C1
:1055A00094301B0A03F00F03FB6105E02D4B1B68D1
:1055B0001B0903F00F03FB612B4AFB6952F82330F0
:1055C000FB613B69002B0DD1FB69BB610AE03B69C4
:1055D000042B02D1254BBB6104E03B69082B01D1B0
:1055E000234BBB613B690C2B34D11E4BDB6803F0B2
:1055F0000303BB60BB68022B03D0BB68032B03D043
:1056000005E01A4B7B6105E0194B7B6102E0FB6909
:105610007B6100BF134BDB681B0903F00F030133F1
:105620007B60104BDB681B0A03F07F037A6903FB86
:1056300002F27B68B2FBF3F37B610A4BDB685B0E23
:1056400003F0030301335B003B607A693B68B2FB04
:10565000F3F3BB61BB6918462437BD465DF8047B94
:10566000704700BF00100240ECFD00080024F40069
:10567000808D5B0080B400AF034B1B681846BD46AD
:105680005DF8047B704700BF0000002080B500AFCC
:10569000FFF7F0FF0246064B9B681B0A03F0070367
:1056A0000449CB5C03F01F0322FA03F3184680BDC4
:1056B00000100240E4FD000880B500AFFFF7DAFFFC
:1056C0000246064B9B68DB0A03F007030449CB5CE8
:1056D00003F01F0322FA03F3184680BD00100240B6
:1056E000E4FD000880B586B000AF786000233B6120
:1056F000274B9B6D03F08053002B03D0FFF794F8EA
:10570000786114E0224B9B6D214A43F080539365EE
:105710001F4B9B6D03F08053FB60FB68FFF784F821
:1057200078611B4B9B6D1A4A23F0805393657B690C
:10573000B3F5007F0BD17B68802B13D97B68A02B3E
:1057400002D902233B610DE001233B610AE07B6843
:105750007F2B02D902233B6104E07B68702B01D1CF
:1057600001233B610B4B1B6823F00F0209493B6986
:1057700013430B60074B1B6803F00F033A699A420F
:1057800001D0012300E0002318461837BD4680BD34
:10579000001002400020024080B487B000AF2D4BC3
:1057A000DB6803F00303FB60FB68032B0BD0FB6893
:1057B000032B25D8FB68012B08D0FB68022B1FD1D7
:1057C000254B3B611FE0254B3B611CE0214B1B68D7
:1057D00003F00803002B07D11E4BD3F894301B0AAB
:1057E00003F00F037B6105E01A4B1B681B0903F0F4
:1057F0000F037B611A4A7B6952F823303B6102E058
:1058000000233B6100BF134BDB681B0903F00F0350
:105810000133BB600F4BDB681B0A03F07F033A695F
:1058200003FB02F2BB68B2FBF3F33B61094BDB689D
:105830005B0E03F0030301335B007B603A697B6816
:10584000B2FBF3F33B603B6818461C37BD465DF87E
:10585000047B7047001002400024F400808D5B0040
:10586000ECFD000880B586B000AF78600023FB74C3
:105870000023BB747B681B6803F40063002B40D0DB
:105880007B68DB6E802B2AD0802B25D8602B26D01E
:10589000602B21D8402B06D0402B1DD8002B09D0DF
:1058A000202B10D018E0894BDB68884A43F4803302
:1058B000D36015E07B6804330021184600F03EFBFE
:1058C0000346FB740CE07B6820330021184600F08F
:1058D00029FC0346FB7403E00123FB7400E000BFD6
:1058E000FB7C002B0BD1794BD3F89C3023F0E002EA
:1058F0007B68DB6E75491343C1F89C3001E0FB7C8B
:10590000BB747B681B6803F48053002B47D07B6813
:105910001B6FB3F5806F30D0B3F5806F2AD8B3F525
:10592000407F2AD0B3F5407F24D8B3F5007F08D05C
:10593000B3F5007F1ED8002B0AD0B3F5807F10D0BE
:1059400018E0624BDB68614A43F48033D36015E0B2
:105950007B6804330021184600F0F0FA0346FB741C
:105960000CE07B6820330021184600F0DBFB034687
:10597000FB7403E00123FB7400E000BFFB7C002B01
:105980000BD1524BD3F89C3023F4E0627B681B6F41
:105990004E491343C1F89C3001E0FB7CBB747B682B
:1059A0001B6803F40033002B00F09F8000237B74FE
:1059B000464B9B6D03F08053002B01D1012300E087
:1059C0000023002B0DD0414B9B6D404A43F0805388
:1059D00093653E4B9B6D03F08053BB60BB68012316
:1059E0007B743B4B1B683A4A43F480731360FCF7AB
:1059F000B5FDF86009E0FCF7B1FD0246FB68D31A7B
:105A0000022B02D90323FB7405E0314B1B6803F41E
:105A10008073002BEFD0FB7C002B5BD12B4BD3F89A
:105A2000903003F440737B617B69002B1FD07B684F
:105A3000D3F894307A699A4219D0244BD3F8903035
:105A400023F440737B61214BD3F890301F4A43F419
:105A50008033C2F890301D4BD3F890301B4A23F4AA
:105A60008033C2F89030194A7B69C2F890307B6964
:105A700003F00103002B16D0FCF770FDF8600BE07B
:105A8000FCF76CFD0246FB68D31A41F28832934260
:105A900002D90323FB7406E00C4BD3F8903003F0DB
:105AA0000203002BECD0FB7C002B0CD1074BD3F86E
:105AB000903023F440727B68D3F894300349134349
:105AC000C1F8903008E0FB7CBB7405E00010024098
:105AD00000700040FB7CBB747B7C012B05D1A04B8C
