:020000040800F2
:10000000000005202D590008B5160008B716000895
:10001000B9160008BB160008BD1600080000000055
:10002000000000000000000000000000BF160008F3
:10003000C116000800000000C3160008C51600081D
:100040007D5900087D5900087D5900087D59000838
:100050007D5900087D5900087D5900087D59000828
:100060007D5900087D5900087D590008CD1600080B
:10007000DD1600087D5900087D5900087D590008EB
:100080007D5900087D5900087D5900087D590008F8
:100090007D5900087D5900087D5900087D590008E8
:1000A0007D5900087D5900087D5900087D590008D8
:1000B0007D5900087D5900087D5900087D590008C8
:1000C0007D5900087D5900087D5900087D590008B8
:1000D0007D5900087D5900087D5900087D590008A8
:1000E0007D5900087D590008000000007D59000876
:1000F0007D5900087D5900087D5900087D59000888
:100100007D5900087D5900087D5900087D59000877
:100110007D5900087D5900087D5900087D59000867
:100120007D5900087D5900087D5900087D59000857
:100130007D5900087D5900087D5900080000000025
:100140007D5900087D5900087D5900087D59000837
:100150007D5900087D590008ED1600087D590008FA
:100160007D5900087D5900087D5900087D59000817
:100170007D5900087D5900080000000000000000C3
:100180007D5900087D5900087D5900087D590008F7
:100190007D5900087D5900080000000000000000A3
:1001A00000000000000000007D5900087D59000893
:1001B0007D590008000000007D5900080000000083
:1001C000034613F8012B002AFBD1181A0138704797
:1001D00001F0FF01102A2BDB10F0070F08D010F8F8
:1001E000013B013A8B422DD010F0070F42B3F6D1FC
:1001F000F0B441EA012141EA014122F007047FF015
:1002000000070023F0E80256083C85EA010586EA6B
:10021000010685FA47F5A3FA87F586FA47F6A5FAA7
:1002200087F68EB9EED1F0BC01F0FF0102F00702B3
:1002300032B110F8013B013A83EA010313B1F8D15E
:100240000020704701387047002D06BF354603383F
:10025000073815F0010F07D1013015F4807F02BF78
:10026000013015F4C03F0130F0BC0138704700BFC9
:1002700081F0004102E000BF83F0004330B54FEA57
:1002800041044FEA430594EA050F08BF90EA020FC4
:100290001FBF54EA000C55EA020C7FEA645C7FEA57
:1002A000655C00F0E2804FEA5454D4EB5555B8BF7A
:1002B0006D420CDD2C4480EA020281EA030382EAEB
:1002C000000083EA010180EA020281EA0303362D7D
:1002D00088BF30BD11F0004F4FEA01314FF4801C50
:1002E0004CEA113102D0404261EB410113F0004F62
:1002F0004FEA03334CEA133302D0524263EB430319
:1003000094EA050F00F0A780A4F10104D5F1200EB6
:100310000DDB02FA0EFC22FA05F2801841F1000111
:1003200003FA0EF2801843FA05F359410EE0A5F1E5
:1003300020050EF1200E012A03FA0EFC28BF4CF016
:10034000020C43FA05F3C01851EBE37101F00045CC
:1003500007D54FF0000EDCF1000C7EEB00006EEBD9
:100360000101B1F5801F1BD3B1F5001F0CD3490863
:100370005FEA30004FEA3C0C04F101044FEA4452BA
:1003800012F5800F80F09A80BCF1004F08BF5FEA41
:10039000500C50F1000041EB045141EA050130BD21
:1003A0005FEA4C0C404141EB0101013C28BFB1F533
:1003B000801FE9D291F0000F04BF01460020B1FA7E
:1003C00081F308BF2033A3F10B03B3F120020CDA51
:1003D0000C3208DD02F1140CC2F10C0201FA0CF02F
:1003E00021FA02F10CE002F11402D8BFC2F1200C94
:1003F00001FA02F120FA0CFCDCBF41EA0C0190404A
:10040000E41AA2BF01EB0451294330BD6FEA040492
:100410001F3C1CDA0C340EDC04F11404C4F120027D
:1004200020FA04F001FA02F340EA030021FA04F38F
:1004300045EA030130BDC4F10C04C4F1200220FAE6
:1004400002F001FA04F340EA0300294630BD21FA24
:1004500004F0294630BD94F0000F83F4801306BFEA
:1004600081F480110134013D4EE77FEA645C18BFDE
:100470007FEA655C29D094EA050F08BF90EA020F75
:1004800005D054EA000C04BF1946104630BD91EA6D
:10049000030F1EBF0021002030BD5FEA545C05D170
:1004A0004000494128BF41F0004130BD14F58004AF
:1004B0003CBF01F5801130BD01F0004545F0FE4123
:1004C00041F470014FF0000030BD7FEA645C1ABF58
:1004D000194610467FEA655C1CBF0B46024650EA8F
:1004E000013406BF52EA033591EA030F41F40021BB
:1004F00030BD00BF90F0000F04BF0021704730B541
:100500004FF4806404F132044FF000054FF0000115
:1005100050E700BF90F0000F04BF0021704730B5D6
:100520004FF4806404F1320410F0004548BF4042AB
:100530004FF000013EE700BF42004FEAE2014FEA00
:1005400031014FEA02701FBF12F07F4393F07F4FDB
:1005500081F06051704732F07F4208BF704793F0DE
:100560007F4F04BF41F40021704730B54FF46074F1
:1005700001F0004521F000411CE700BF50EA0102F4
:1005800008BF704730B54FF000050AE050EA01029D
:1005900008BF704730B511F0004502D5404261EB0D
:1005A00041014FF4806404F132045FEA915C3FF44E
:1005B000D8AE4FF003025FEADC0C18BF03325FEAEB
:1005C000DC0C18BF033202EBDC02C2F1200300FA9C
:1005D00003FC20FA02F001FA03FE40EA0E0021FAC1
:1005E00002F11444BDE600BF70B54FF0FF0C4CF4AF
:1005F000E06C1CEA11541DBF1CEA135594EA0C0F61
:1006000095EA0C0F00F0DEF82C4481EA030621EA9B
:100610004C5123EA4C5350EA013518BF52EA0335D6
:1006200041F4801143F4801338D0A0FB02CE4FF088
:100630000005E1FB02E506F00042E0FB03E54FF0B8
:100640000006E1FB03569CF0000F18BF4EF0010EB0
:10065000A4F1FF04B6F5007F64F5407404D25FEAAC
:100660004E0E6D4146EB060642EAC62141EA55515F
:100670004FEAC52040EA5E504FEACE2EB4F1FD0CA1
:1006800088BFBCF5E06F1ED8BEF1004F08BF5FEA1F
:10069000500E50F1000041EB045170BD06F00046D1
:1006A00046EA010140EA020081EA0301B4EB5C047E
:1006B000C2BFD4EB0C0541EA045170BD41F4801176
:1006C0004FF0000E013C00F3AB8014F1360FDEBF9B
:1006D000002001F0004170BDC4F10004203C35DA77
:1006E0000C341BDC04F11404C4F1200500FA05F3FA
:1006F00020FA04F001FA05F240EA020001F000429B
:1007000021F0004110EBD37021FA04F642EB060110
:100710005EEA430E08BF20EAD37070BDC4F10C043A
:10072000C4F1200500FA04F320FA05F001FA04F2FE
:1007300040EA020001F0004110EBD37041F10001EA
:100740005EEA430E08BF20EAD37070BDC4F12005F5
:1007500000FA05F24EEA020E20FA04F301FA05F25D
:1007600043EA020321FA04F001F0004121FA04F205
:1007700020EA020000EBD3705EEA430E08BF20EAD5
:10078000D37070BD94F0000F0FD101F0004640000F
:1007900041EB010111F4801F08BF013CF7D041EA91
:1007A000060195F0000F18BF704703F00046520095
:1007B00043EB030313F4801F08BF013DF7D043EA66
:1007C0000603704794EA0C0F0CEA135518BF95EA1C
:1007D0000C0F0CD050EA410618BF52EA4306D1D1A3
:1007E00081EA030101F000414FF0000070BD50EAC2
:1007F000410606BF1046194652EA430619D094EA4C
:100800000C0F02D150EA013613D195EA0C0F05D135
:1008100052EA03361CBF104619460AD181EA030189
:1008200001F0004141F0FE4141F470014FF0000041
:1008300070BD41F0FE4141F4780170BD70B54FF0DC
:10084000FF0C4CF4E06C1CEA11541DBF1CEA13555C
:1008500094EA0C0F95EA0C0F00F0A7F8A4EB05043E
:1008600081EA030E52EA03354FEA013100F0888035
:100870004FEA03334FF0805545EA131343EA1263FE
:100880004FEA022245EA111545EA10654FEA0026B3
:100890000EF000419D4208BF964244F1FD0404F56C
:1008A000407402D25B084FEA3202B61A65EB0305C8
:1008B0005B084FEA32024FF480104FF4002CB6EB85
:1008C000020E75EB030E22BFB61A754640EA0C0005
:1008D0005B084FEA3202B6EB020E75EB030E22BF45
:1008E000B61A754640EA5C005B084FEA3202B6EB86
:1008F000020E75EB030E22BFB61A754640EA9C0045
:100900005B084FEA3202B6EB020E75EB030E22BF14
:10091000B61A754640EADC0055EA060E18D04FEAD2
:10092000051545EA16754FEA06164FEAC30343EA72
:1009300052734FEAC2025FEA1C1CC0D111F4801F3F
:100940000BD141EA00014FF000004FF0004CB6E738
:1009500011F4801F04BF01430020B4F1FD0C88BFD7
:10096000BCF5E06F3FF6AFAEB5EB030C04BFB6EBE2
:10097000020C5FEA500C50F1000041EB045170BDD5
:100980000EF0004E4EEA113114EB5C04C2BFD4EB02
:100990000C0541EA045170BD41F480114FF0000E86
:1009A000013C90E645EA060E8DE60CEA135594EA02
:1009B0000C0F08BF95EA0C0F3FF43BAF94EA0C0F05
:1009C0000AD150EA01347FF434AF95EA0C0F7FF47A
:1009D00025AF104619462CE795EA0C0F06D152EACE
:1009E00003353FF4FDAE1046194622E750EA4106B2
:1009F00018BF52EA43067FF4C5AE50EA41047FF4C3
:100A00000DAF52EA43057FF4EBAE12E74FF0FF3C27
:100A100006E000BF4FF0010C02E000BF4FF0010CF8
:100A20004DF804CD4FEA410C7FEA6C5C4FEA430C71
:100A300018BF7FEA6C5C1BD001B050EA410C0CBFC0
:100A400052EA430C91EA030F02BF90EA020F002022
:100A5000704710F1000F91EA030F58BF994208BF89
:100A600090422CBFD8176FEAE37040F00100704746
:100A70004FEA410C7FEA6C5C02D150EA013C07D19D
:100A80004FEA430C7FEA6C5CD6D152EA033CD3D0E8
:100A90005DF8040B704700BF8446104662468C46E2
:100AA0001946634600E000BF01B5FFF7B7FF002815
:100AB00048BF10F1000F01BD4DF808EDFFF7F4FF3E
:100AC0000CBF012000205DF808FB00BF4DF808EDC9
:100AD000FFF7EAFF34BF012000205DF808FB00BFEC
:100AE0004DF808EDFFF7E0FF94BF012000205DF80E
:100AF00008FB00BF4DF808EDFFF7CEFF94BF0120C3
:100B000000205DF808FB00BF4DF808EDFFF7C4FFBB
:100B100034BF012000205DF808FB00BF4FEA410C04
:100B20007FEA6C5C02D150EA013C0AD14FEA430CE7
:100B30007FEA6C5C02D152EA033C02D14FF0000024
:100B400070474FF0010070474FEA410212F5001262
:100B500015D211D56FF47873B3EB625212D94FEA04
:100B6000C12343F0004343EA505311F0004F23FAEE
:100B700002F018BF404270474FF00000704750EA43
:100B8000013005D111F0004008BF6FF00040704700
:100B90004FF00000704700BF53B94AB9002908BFA1
:100BA00000281CBF4FF0FF314FF0FF3000F00CB8B1
:100BB000ADF1080C6DE904CE07F004FCDDF804E0AB
:100BC000DDE9022304B07047704700BF10B5054C43
:100BD000237833B9044B13B10448AFF300800123E9
:100BE000237010BDE0010020000000008C8600088A
:100BF00008B5034B1BB103490348AFF3008008BDA0
:100C000000000000E40100208C8600080368002238
:100C10005A6203685B6A8B42FBD3704708B9014B89
:100C2000996370470004004008B9014BD9637047CD
:100C3000000400402DE9F0438DB00024079408948F
:100C400009940A940B94594BDA6C42F01002DA645E
:100C5000DA6C02F010020092009ADA6C42F00402A0
:100C6000DA64DA6C02F004020192019ADA6C42F062
:100C70002002DA64DA6C02F020020292029ADA6C44
:100C800042F08002DA64DA6C02F080020392039A86
:100C9000DA6C42F00102DA64DA6C02F001020492CA
:100CA000049ADA6C42F00202DA64DA6C02F00202B0
:100CB0000592059ADA6C42F04002DA64DB6C03F0CC
:100CC00040030693069B01F06FFFDFF8EC8022469D
:100CD000C821404601F009FE224680214FF0904095
:100CE00001F003FEDFF8D490224644F28301484627
:100CF00001F0FBFD2E4F22464021384601F0F5FD64
:100D00002C4E22464021304601F0EFFD4FF40053B7
:100D100007934FF488130893099407A9304601F00C
:100D2000E5FC012507950894099407A9404601F0C0
:100D3000DDFCC8230793089509940A9407A9404647
:100D400001F0D4FC80230793089509940A9407A91D
:100D50004FF0904001F0CAFC44F2830307930895DA
:100D600009940A9407A9484601F0C0FC2023079380
:100D70000894099407A9384601F0B8FC4FF04008E0
:100D8000CDF81C80089509940A9407A9384601F00B
:100D9000ADFCCDF81C80089509940A9407A930464B
:100DA00001F0A4FC0DB0BDE8F08300BF00100240CC
:100DB00000180048000800480014004800040048DB
:100DC00000B583B0124B9A6C42F004029A649A6C9C
:100DD00002F004020092009A9A6C42F001029A64B6
:100DE0009B6C03F001030193019B002211460B2031
:100DF00001F03AFA0B2001F06FFA002211460C20A4
:100E000001F032FA0C2001F067FA03B05DF804FB40
:100E1000001002402DE9F04104681E48844201D0D0
:100E2000BDE8F0810D461C4B1C881C4B1C806318D0
:100E3000142B23DDC4F11406B6B2194FDFF8648019
:100E400032464146381904F0BFFD144B00221A8087
:100E5000AA1B08EB0601384604F0B6FD143C2C44EE
:100E60000D4B1C800A220F490F4804F09BFB0F4BCF
:100E70001A68136823F004031360D1E70A4609498E
:100E80000748204404F0A0FD044B1B882B44024A71
:100E90001380E7E700800040080A00200A0A0020CB
:100EA000FC0100201002002044030020E402002086
:100EB00072B6FEE708B51748174B03604FF4E133ED
:100EC000436000238360C36003610C22426183613D
:100ED00003624362102282624FF48052C26343660F
:100EE00004F041FA70B900210A4804F011FB58B926
:100EF0000021084804F031FB40B9064804F0E9FA43
:100F000030B908BDFFF7D4FFFFF7D2FFFFF7D0FFDE
:100F1000FFF7CEFF440300200080004008B50B48D7
:100F20004FF0A04303600623436002238361012343
:100F3000C36100220262426283620263C36201F003
:100F4000E2FC00B908BDFFF7B3FF00BFD4030020E7
:100F500000B589B00023049305930693079301938A
:100F6000029303931348144A02607722426083601D
:100F70004FF6FF72C2600361836103F0C5F990B957
:100F80004FF48053049304A90A4803F00DFB60B9A1
:100F900000230193039301A9064803F049FC30B9EB
:100FA00009B05DF804FBFFF783FFFFF781FFFFF750
:100FB0007FFF00BF2C0900200008004008B515483D
:100FC000154B03604FF4E133436000238360C3603B
:100FD00003610C2242618361C361036243628362E5
:100FE00004F0C1F970B900210A4804F091FA58B927
:100FF0000021084804F0B1FA40B9064804F069FA43
:1010000030B908BDFFF754FFFFF752FFFFF750FF5D
:10101000FFF74EFF78090020004C004000B58FB06C
:1010200000230A930B930C930D9307930893099352
:101030000093019302930393049305930693274827
:10104000274A02607722426083606322C2600361A4
:101050008023836103F058F9002830D14FF4805386
:101060000A930AA91D4803F09FFA50BB1B4803F0DE
:101070007BF940BB00230793099307A9174803F0A6
:10108000D7FB10BB602300930022019202920492CE
:101090006946124803F0DEF9C8B9042269460F48D0
:1010A00003F0D8F9A8B9082269460C4803F0D2F930
:1010B00088B90A4800F072FA0FB05DF804FBFFF738
:1010C000F7FEFFF7F5FEFFF7F3FEFFF7F1FEFFF780
:1010D000EFFEFFF7EDFEFFF7EBFE00BFE00800209C
:1010E0000004004000B58BB00023079308930993D8
:1010F0000193029303930493059306932A482B4A82
:10110000026043608360C360012202610421416187
:10111000037642760321C16180F820308362C36286
:1011200080F83020436380F838200C21C1630364C9
:101130004364826400F04AFB00282BD1002307930C
:1011400007A9194800F0F2FF30BB194B01930623A1
:10115000029303937F2304930423059300230693B0
:1011600001A9114800F088FCC0B9124B01930C236F
:10117000029301A90C4800F07FFC88B90E4B019343
:101180001223029301A9084800F076FC50B90BB075
:101190005DF804FBFFF78CFEFFF78AFEFFF788FE81
:1011A000FFF786FEFFF784FE1C02002000000450BB
:1011B0000200300404006008000052C700B599B076
:1011C0004822002106A804F00DFC002001900290A6
:1011D00003900490059001F059FC28BB302306933E
:1011E000012210920D9200230E9360230F9302238D
:1011F0001193129213923C22149215931693179303
:1012000006A801F0B7FD88B90F23019303230293C9
:101210000023039304930593052101A802F030F9FC
:1012200030B919B05DF804FBFFF742FEFFF740FE4E
:10123000FFF73EFE08B500F093FAFFF7BFFFFFF798
:10124000F9FCFFF7BDFDFFF735FEFFF767FEFFF77F
:101250007FFEFFF7B3FEFFF7E1FEFFF743FF204CF1
:101260000021204603F030FA0421204603F02CFA36
:101270000821204603F028FA03221A491A4800F0F0
:10128000D3FE1A4802F098FF0A221949194804F0BF
:1012900089F9194B1A68136823F004031360642159
:1012A0000020FFF7C1FC4FF40051144801F016FB79
:1012B0000128F4D101220821114801F016FB012177
:1012C000104801F017FBC8210848FFF79FFC1E21BA
:1012D0000020FFF7A3FC32210020FFF7A5FCDEE78A
:1012E000E00800200C0A00201C0200202C0900202D
:1012F0001002002044030020E402002000080048FF
:10130000001400480004004882B00A4B1A6E42F0F4
:1013100001021A661A6E02F001020092009A9A6D9A
:1013200042F080529A659B6D03F080530193019BBC
:1013300002B070470010024030B5AFB00446002143
:1013400029912A912B912C912D91982203A804F098
:1013500049FB22682C4B9A4201D02FB030BD4FF48C
:10136000804303934FF08053239301230493059309
:1013700018230693022307930422089209934FF03F
:1013800080730A9303A802F00FFB002835D11F4B8E
:10139000DA6C42F40052DA64DA6C02F40052019220
:1013A000019ADA6C42F00402DA64DB6C03F00403A5
:1013B0000293029B032329930B232A9300252B9549
:1013C00029A9134801F092F91248134B0360052331
:1013D00043608560C560802303614FF400734361FF
:1013E0004FF4006383612023C361056200F0F6FFC0
:1013F00030B9084B23659C62AFE7FFF759FDC6E79C
:10140000FFF756FDF5E700BF000004500010024052
:1014100000080048840200200800024030B5B1B046
:10142000044600212B912C912D912E912F919822E1
:1014300005A804F0D7FA23683F4A934204D03F4AF4
:1014400093424ED031B030BD2023059305A802F061
:10145000ABFA00283FD13A4BDA6D42F00102DA656F
:10146000DA6D02F001020192019ADA6C42F0400258
:10147000DA64DB6C03F040030293029B01F094FBFF
:101480004FF4C0732B9302232C9300252D95032337
:101490002E9308232F932BA92A4801F027F92A48D5
:1014A0002A4B0360232343608560C560802303616A
:1014B00045618561C561056200F090FF70B9224BFE
:1014C000E3679C6200221146462000F0CDFE4620D4
:1014D00000F002FFB6E7FFF7EBFCBCE7FFF7E8FC24
:1014E000EDE70823059305A802F05EFA08BB144B4C
:1014F0009A6D42F400229A659A6D02F400220392DA
:10150000039ADA6C42F00102DA64DB6C03F0010347
:101510000493049B03232B9302222C9200222D92EE
:101520002E9308232F932BA94FF0904001F0DEF863
:1015300088E7FFF7BDFCDAE700800040004C004080
:101540000010024000180048E40200201C00024085
:1015500082B003680E4A934204D00E4A93420CD0E4
:1015600002B070470C4B9A6D42F002029A659B6D77
:1015700003F002030093009BF2E7074B9A6D42F0E1
:1015800004029A659B6D03F004030193019BE7E756
:1015900000040040000800400010024000B587B081
:1015A00000230193029303930493059302680D4B68
:1015B0009A4202D007B05DF804FB03F50333DA6CFE
:1015C00042F01002DA64DB6C03F010030093009B1E
:1015D0003823019302230293059301A9024801F0E5
:1015E00085F8E7E7000400400010004830B5AFB0D0
:1015F0000446002129912A912B912C912D9198221A
:1016000003A804F0EFF92368B3F1A04F01D02FB085
:1016100030BD4FF40053039303A802F0C5F900282E
:1016200040D1234CE36C43F00103E364E36C03F02B
:1016300001030093009B4FF4E853299302232A935C
:1016400000252B9503232C930A232D9329A94FF0D2
:10165000904001F04BF84FF4007329932A952B9595
:1016600029A94FF0904001F041F8E36C43F4805316
:10167000E364E36C03F480530193019BA36D13F0C7
:10168000805F12D1A36D43F08053A365A36D03F077
:1016900080530293029B01F07FFAA36D23F08053E5
:1016A000A365B4E7FFF704FCBBE701F075FAAEE70A
:1016B00000100240FEE7FEE7FEE7FEE7FEE77047A8
:1016C0007047704708B500F05BF808BD08B50248E0
:1016D00000F0A9FF08BD00BF8402002008B5024841
:1016E00000F0A1FF08BD00BFE402002008B50248D9
:1016F00003F07AF908BD00BF44030020034AD2F882
:10170000883043F47003C2F88830704700ED00E081
:10171000104B1B780BB90120704710B504464FF4ED
:101720007A70B0FBF3F30C4A1068B0FBF3F000F0F2
:10173000E1FD68B90F2C01D901200AE00022214601
:101740004FF0FF3000F090FD044B1C60002000E0E3
:10175000012010BD0400002000000020080000202F
:1017600010B5032000F06EFD0020FFF7D1FF10B18F
:101770000124204610BD0446FFF7C6FDF9E700002E
:10178000034B1B78034A11680B441360704700BF7A
:1017900004000020180A0020014B1868704700BFA1
:1017A000180A002038B50446FFF7F6FF0546B4F1E5
:1017B000FF3F02D0044B1B781C44FFF7EDFF401B9A
:1017C000A042FAD338BD00BF0400002030B583B07A
:1017D00000230193002800F0E6800446836D13B3D4
:1017E00023689A6812F0005F05D09A6822F02042C0
:1017F00022F03F029A602268936813F0805F1FD145
:10180000936823F0104323F03F0343F08053936029
:10181000664B1B689B09664AA2FB03239B090133A5
:101820005B00019309E0FFF787FD0023E36584F87F
:101830005430D5E7019B013B0193019B002BF9D16B
:101840002268936813F0805F40F08480A36D43F0BA
:101850001003A365E36D43F00103E3650120936882
:1018600013F0040300D00123A16D11F0100F40F01C
:101870009380002B40F09080A36D23F4817343F09C
:101880000203A365936813F0010F14D1494B9A68C2
:1018900012F0010200D00122474B9B6813F00103B4
:1018A00000D00123134306D1636844498A6822F4B7
:1018B0007C1213438B60627E636B43EA4233E268BF
:1018C0001343A268134394F8202043EA0243012AF9
:1018D00042D0A26A22B102F47072E16A0A43134351
:1018E0002168CD68364A2A401A43CA6021688B684D
:1018F00013F0040300D001238A6812F0080200D01C
:101900000122C3B9BAB9E36C227E43EA823394F868
:10191000302043EA4202CB6823F4804323F00603DD
:101920001343CB6094F83830012B1AD02268136926
:1019300023F0010313612369012B24D02268136B68
:1019400023F00F031363A36D23F0030343F001039C
:10195000A36526E0002082E7626A013A43EA424337
:10196000B7E721680B6923F4FF6323F00403E26BFC
:10197000256C2A43656C2A43A56C2A43134343F024
:1019800001030B61D7E721680B6B23F00F03E269BA
:10199000013A13430B63D6E7A36D43F01003A3652D
:1019A000012003B030BD0120FBE700BF0000002094
:1019B000632D3E0500000450000104500003045054
:1019C00007C0F0FF7047704708B5806AFFF7FBFF5C
:1019D00008BD704708B50346806A826D12F0500F4B
:1019E00030D1836D43F40073836503681A6812F085
:1019F000080F14D0DA6812F4406F20D1DB6813F4BA
:101A0000005F1CD1836D23F480738365836D13F4B1
:101A1000805F14D1836D43F0010383650FE0DB68C1
:101A200013F0020F0BD1836D23F480738365836DF4
:101A300013F4805F03D1836D43F001038365FFF7E7
:101A4000C1FF08BD826D12F0100F04D1026D526B00
:101A500018469047F5E7FFF7BCFFF2E708B5806A44
:101A6000836D43F040038365C36D43F00403C36596
:101A7000FFF7AFFF08BD0000F0B583B00022019270
:101A800090F85420012A00F057820346012280F882
:101A900054200268926812F0040F09D0826D42F05F
:101AA000200282650120002283F8542003B0F0BD9B
:101AB0004A68052A09D8023A032A00F29D80DFE825
:101AC00002F0029194970C224A601D684C683035F0
:101AD000220A920002F00C02A85804F01F0E1F24E4
:101AE00004FA0EF420EA04000C68C4F3846C0CFAC7
:101AF0000EFC40EA0C00A8501C68A26812F0040218
:101B000000D00122A06810F0080000D00120002AB7
:101B100034D1002832D18868B0F1004F6FD00E6800
:101B20001434720E920002F00402A558C6F3045C4D
:101B3000072606FA0CF625EA060500FA0CF02843FB
:101B4000A0501868426922F0004242614C6918684E
:101B5000C268C2F3C102520094400D69042D63D0E3
:101B60000E68603050F82570AC4A3A4006F0F846EE
:101B70003443224342F0004240F82520186882682E
:101B800012F0010F17D10A68CD68D0F8B040C2F347
:101B9000120C24EA0C0405F0180CA14D25FA0CF5E2
:101BA0002A40C2F312022243C0F8B020C8689D4AFE
:101BB000904200F0A1800A689B490A4200F0B88177
:101BC0009A49896801F0E0749948824200F0628184
:101BD0009848824200F085819748824200F09581C2
:101BE000002060E712224A606FE718224A606CE723
:101BF0004FF480724A6068E706224A6065E7086829
:101C00001434420E920002F00402A558C0F30450AE
:101C1000072606FA00F025EA0000A050186842697D
:101C200042F00042426191E7026E046EC4F38464A4
:101C30000A68C2F3120585BBC2F38462944234D0B1
:101C40001C68626E606EC0F384600A68C2F312059D
:101C500085BBC2F38462904234D01C68A26EA06E31
:101C6000C0F384600A68C2F3120585BBC2F38462C4
:101C7000904234D01C68E26EE06EC0F384600A6863
:101C8000C2F3120585BBC2F3846290427FF476AF43
:101C9000E26E22F00042E26670E792FAA2F212B11E
:101CA000B2FA82F2CAE72022C8E7026E22F00042AE
:101CB0000266C5E792FAA2F212B1B2FA82F2CAE75C
:101CC0002022C8E7626E22F000426266C5E792FAFF
:101CD000A2F212B1B2FA82F2CAE72022C8E7A26EDB
:101CE00022F00042A266C5E792FAA2F212B1B2FA5D
:101CF00082F2CAE72022C8E71C680A68C2F312050C
:101D0000002D38D1900E013000F01F0009288CBF43
:101D100000200120002866D0002D3BD1900E01301C
:101D2000800600F0F840002D40D1970E013707F0F3
:101D30001F070126BE403043002D46D1920E0132CE
:101D400002F01F0202EB4202120510438D6804F1FB
:101D5000140E420E920002F004025EF80240C0F33C
:101D600004500726864024EA060C85404CEA050507
:101D70004EF802501FE792FAA2F048B1B0FA80F094
:101D8000013000F01F0009288CBF00200120C1E7AE
:101D90002020F5E792FAA2F030B1B0FA80F00130DD
:101DA000800600F0F840BEE72020F8E792FAA2F69D
:101DB0004EB1B6FA86F6013606F01F064FF0010C5A
:101DC0000CFA06F6B7E72026F5E792FAA2F242B13E
:101DD000B2FA82F2013202F01F0202EB4202120555
:101DE000B3E72022F6E74DBB900E0130800600F0ED
:101DF000F8407DBB970E013707F01F070126BE4054
:101E00003043B5BB920E013202F01F0202EB4202D8
:101E10001E3A120542F00072104397E700F0FF03EC
:101E2000FFFF070000007F4000000880000304500F
:101E3000000052C7000084CB0100008092FAA2F09B
:101E400030B1B0FA80F00130800600F0F840D0E701
:101E50002020F8E792FAA2F64EB1B6FA86F60136DD
:101E600006F01F064FF0010C0CFA06F6C8E7202614
:101E7000F5E792FAA2F25AB1B2FA82F2013202F016
:101E80001F0202EB42021E3A120542F00072C3E743
:101E90002022F3E711F4000F7FF49AAE1968274A65
:101EA000914201D00020FEE544F4000224488168FC
:101EB00021F0E0710A438260224A126892092249A5
:101EC000A1FB02129209013202EB4202920001923E
:101ED00002E0019A013A0192019A002AF9D1002008
:101EE000E1E511F0807F7FF477AE1968134A9142E3
:101EF00001D00020D7E544F080721148816821F0BC
:101F0000E0710A4382600020CDE511F4800F11D109
:101F100019680A4A914201D00020C4E544F48002C5
:101F20000748816821F0E0710A4382600020BAE529
:101F30000020B8E50020B6E50220B7E50000045017
:101F40000003045000000020632D3E0530B583B02F
:101F50000023019303689A6812F0010F58D10446D8
:101F600099682D4A114219D19A6822F0004222F054
:101F70003F0242F001029A60284B9B6813F4000F65
:101F80001CD0274B1B689B09264AA2FB03239B09F5
:101F9000013303EB43039B0001930CE0836D43F09B
:101FA00010038365C36D43F00103C365012030E076
:101FB000019B013B0193019B002BF9D1FFF7ECFB47
:101FC000054623681A6812F0010F1FD19A6812F0B3
:101FD000010F07D19A6822F0004222F03F0242F03E
:101FE00001029A60FFF7D8FB431B022BE9D9236853
:101FF0001B6813F0010FE4D1A36D43F01003A36538
:10200000E36D43F00103E365012002E0002000E0FE
:10201000002003B030BD00BF3F000080000304502B
:1020200000000020632D3E05F8B504463A4B9D683C
:102030000068806810F0040F69D10E46174605F05D
:102040001F0594F85430012B63D0012384F85430D9
:1020500045B1052D06D0092D04D0002384F8543055
:10206000012055E02046FFF771FF00284BD1A36DFA
:1020700023F4706323F0010343F48073A3652368A2
:10208000264A934239D01A46934200D01DB9A36D17
:1020900023F48013A365A36D13F4805F30D0E36D48
:1020A00023F00603E365236D1D4ADA62236D1D4AA2
:1020B0001A63236D1C4A5A6323681C221A6000238A
:1020C00084F854302268536843F010035360226848
:1020D000D36843F00103D36021683B463246403168
:1020E000206D00F0E7F92268936823F0004323F0A5
:1020F0003F0343F0040393600AE0A2F58072C3E754
:102100000023E365CFE7002384F8543000E0022089
:10211000F8BD0220FCE700BF00030450000104509A
:10212000D5190008C91900085D1A000890F8542054
:10213000012A7ED010B49BB00346012280F85420BF
:1021400000221692179200683B4A904238D0002233
:102150000092009A002A37D0926812F0040200D050
:102160000122806810F0040F53D1002A51D10A686F
:10217000002A32D0314CA26822F46042486893F8B9
:1021800030C040EA4C300243A2602B4A906810F005
:10219000010000D001202A4A926812F0010200D00A
:1021A0000122024341D1254CA26822F4716222F03F
:1021B0000F020868896801430A43A26000202DE0ED
:1021C00002F580720092C4E79A6D42F020029A658F
:1021D000002283F85420012023E018498A6822F461
:1021E00060428A60144A916811F0010100D0012117
:1021F000134A926812F0010200D001220A4316D15C
:102200000E498A6822F4716222F00F028A6000206F
:1022100004E09A6D42F020029A650120002283F8C2
:1022200054201BB05DF8044B70470020F6E70020F7
:10223000F4E70220704700BF000004500003045080
:1022400000010450074AD36823F4E0631B041B0C0D
:10225000000200F4E060034343F0BF6343F4003343
:10226000D360704700ED00E000B5194BDB68C3F3A5
:102270000223C3F1070CBCF1040F28BF4FF0040C7C
:1022800003F1040EBEF1060F18D9033B4FF0FF3ED9
:102290000EFA0CFC21EA0C0199400EFA03FE22EA28
:1022A0000E020A4300280BDB1201D2B200F160409B
:1022B00000F5614080F800235DF804FB0023E5E7AA
:1022C00000F00F001201D2B2024B1A54F4E700BF23
:1022D00000ED00E014ED00E0002807DB00F01F0235
:1022E000400901239340024A42F82030704700BF62
:1022F00000E100E00138B0F1807F0BD24FF0E02325
:102300005861054AF02182F82310002098610722C5
:102310001A6170470120704700ED00E030B4C46CD2
:10232000056D6560446D14B1846DC56D6560446C68
:1023300004F01C0C012404FA0CF4056C6C600468B5
:1023400063608368102B05D0036899600368DA60C6
:1023500030BC704703689A600368D960F8E70000F2
:102360000368104A934215D8426C22F0030202F12E
:10237000804202F502328264DBB2083B0A4AA2FBC9
:1023800003230A4AC264C3F30413012202FA03F3CB
:1023900003657047426C22F00301054A0A448264D7
:1023A000EAE700BF07040240CDCCCCCC8008024055
:1023B0001C0802400379074A1A4492004265064A03
:1023C0008265013B03F00303012202FA03F3C365B4
:1023D000704700BF3F8200104009024000285BD0D8
:1023E00010B5044601682D4B99423DD82C4B0B4447
:1023F0002C4AA2FB03231B099B0043642A4B036462
:10240000022384F825300A6822F4FF4222F0700289
:10241000A368E06803432069034360690343A0693C
:102420000343E0690343206A034313430B602046E0
:10243000FFF796FFA368B3F5804F20D0A36C2279F5
:102440001A60E36C226D5A606368013B032B19D953
:1024500000236365A365E3650020E063012384F83E
:10246000253084F8240010BD104B0B440D4AA2FB0C
:1024700003231B099B0043640D4B0364C0E7002347
:102480006360DBE72046FFF795FF636D00221A606B
:10249000A36DE26D5A60DFE7012070470704024038
:1024A000F8FFFDBFCDCCCCCC00000240F8FBFDBF57
:1024B0000004024038B5044690F82400012841D0B9
:1024C000012084F8240094F82500C0B2012804D02B
:1024D000002384F82430022038BD022084F825002F
:1024E0000020E0632568286820F00100286020466D
:1024F000FFF714FF236BD3B12268136843F00E0378
:102500001360A36C1A6812F4803F03D01A6842F477
:1025100080721A60636D1BB11A6842F480721A608F
:102520002268136843F0010313600020D4E7226897
:10253000136823F0040313602268136843F00A034E
:102540001360DEE70220C7E790F82530DBB2022BEC
:1025500006D00423C363002380F824300120704791
:102560000268136823F00E031360826C136823F46F
:10257000807313600268136823F001031360436CD7
:1025800003F01C02016C012393404B60C36C026D8D
:102590005A60436D33B11A6822F480721A60836DF9
:1025A000C26D5A60012380F82530002380F8243062
:1025B0001846704708B590F82530DBB2022B03D0DF
:1025C0000423C363012008BD0268136823F00E03CF
:1025D00013600268136823F001031360826C1368B0
:1025E00023F480731360436C03F01C02016C01231D
:1025F00093404B60C36C026D5A60436D33B11A68EF
:1026000022F480721A60836DC26D5A60012380F8D3
:102610002530002380F82430836B13B198470020C5
:10262000D1E70020CFE738B5036C19680468256846
:10263000436C03F01C0304229A400A4215D015F0A3
:10264000040F12D0236813F0200F03D1236823F066
:1026500004032360436C03F01C02016C04239340C9
:102660004B60036B03B1984738BD02229A400A427F
:102670001CD015F0020F19D0236813F0200F06D1DB
:10268000236823F00A032360012380F82530436C7C
:1026900003F01C02016C022393404B60002380F87E
:1026A0002430C36A002BDFD09847DDE7082202FA06
:1026B00003F30B42D8D015F0080FD5D0236823F0D0
:1026C0000E032360436C03F01C03016C012202FA29
:1026D00003F34B60C26380F82520002380F8243088
:1026E000436B002BC0D09847BEE70000F0B583B025
:1026F000002362E085685E000324B44025EA0405F7
:10270000CC68B4402C438460456825EA0C054C68CD
:10271000C4F300149C402C43446060E0DD0808359D
:1027200050F8254003F0070C4FEA8C0C4FF00F0EC9
:102730000EFA0CFE24EA0E0E0C6904FA0CF444EABC
:102740000E0440F8254061E0072400E0002404FA6C
:102750000EF42C430CF1020C5C4D45F82C405C4C03
:10276000A568D44325EA02064F6817F4801F01D0FC
:1027700042EA0506564DAE60ED6804EA05064F686C
:1027800017F4001F01D042EA0506514DEE606D6856
:1027900004EA05064F6817F4003F01D042EA050637
:1027A0004B4D6E602D682C404E6816F4803F01D072
:1027B00042EA0504464A146001330A6832FA03F417
:1027C00000F081804FF0010C0CFA03FC1CEA0202BD
:1027D000F2D04C6804F00304013C012C8AD94C6807
:1027E00004F00304032C0CD0C4685D004FF0030C0C
:1027F0000CFA05FC24EA0C0C8C68AC4044EA0C048E
:10280000C4604C6804F00304022C87D004684FEACB
:10281000430E4FF0030C0CFA0EFC24EA0C0C4C682F
:1028200004F0030404FA0EF444EA0C0404604C6857
:1028300014F4403FC0D0274C256E45F001052566B5
:10284000246E04F001040194019C4FEA930C0CF1F6
:1028500002051E4C54F8255003F0030E4FEA8E0E6D
:102860000F2404FA0EF425EA0405B0F1904F3FF46A
:102870006DAF194CA0421AD004F58064A04218D064
:1028800004F58064A04216D004F58064A04214D000
:1028900004F58064A04212D004F58064A04210D0F8
:1028A00004F58064A0423FF44FAF08244FE70124B1
:1028B0004DE702244BE7032449E7042447E70524B6
:1028C00045E7062443E703B0F0BD00BF0000014028
:1028D000000401400010024000040048036919424E
:1028E00001D001207047002070470AB18161704714
:1028F00081627047436901EA030221EA030141EA68
:1029000002418161704770B58AB0002800F097805D
:102910000546046890F8BD343BB3032385F8BD3405
:10292000E36B13F4807F01D100232B61286802F050
:10293000ABFE2C4654F8106BEC460FCCACE80F0005
:102940000FCCACE80F0094E803008CE803002B1DCB
:102950000ECB304602F07CFE044658B1022385F8C7
:10296000BD34012420460AB070BD80F8BC34FEF7A7
:102970003DFED2E70021286802F0A6FF234616E0BC
:1029800003EBC30205EB8202012182F83D1082F8BD
:102990003C30A2F84430002182F840109164D164A8
:1029A00003EBC30205EB820251650133DBB26968B8
:1029B0008B42E5D316E004EBC40305EB830300224E
:1029C00083F87D2283F87C4283F88022C3F8882232
:1029D000C3F88C2204EBC40305EB8303C3F89422F1
:1029E0000134E4B2A142E6D82C4654F8106BEC4610
:1029F0000FCCACE80F000FCCACE80F0094E803005C
:102A00008CE803002B1D0ECB304602F099FE0446E5
:102A100060B9002385F83830012385F8BD346B6A2E
:102A2000012B08D0286802F03DFF9BE7022385F8C0
:102A3000BD34012496E7284600F003F8F2E70124AC
:102A400090E7034602680121C0F80015002083F8D2
:102A5000F404936943F000639361536D43F0805332
:102A600043F0030353657047074B186800F4C060D8
:102A7000B0F5806F04D0D3F8800010F4807000D1DE
:102A800070474FF40070FBE700700040002836D11B
:102A90003E4B1B6803F4C063B3F5806F08D03B4A1C
:102AA000D2F8803023F48073C2F880300020704761
:102AB000364AD2F8803023F48073C2F8803013682D
:102AC00023F4C06343F400731360314B1B6832225C
:102AD00002FB03F32F4AA2FB03239B0C013300E00C
:102AE000013B2A4A526912F4806F01D0002BF7D1C2
:102AF000264B5B6913F4806F44D100207047B0F51A
:102B0000007F08D0214A136823F4C06343F4806334
:102B10001360002070471D4B1B6803F4C063B3F5BE
:102B2000806F08D0194AD2F8803043F48073C2F81D
:102B3000803000207047154AD2F8803043F480730B
:102B4000C2F88030136823F4C06343F40073136049
:102B50000F4B1B68322202FB03F30E4AA2FB032336
:102B60009B0C013300E0013B084A526912F4806F6C
:102B700001D0002BF7D1054B5B6913F4806F03D1B3
:102B8000002070470320704703207047007000400A
:102B90000000002083DE1B43024A536843F4806335
:102BA0005360704700700040024A536843F400735A
:102BB00053607047007000401A4BDB6803F003035A
:102BC000022B2BD0032B2BD0012B14D00021154A24
:102BD000D368C3F303130133D068C0F3062001FBAD
:102BE00000F0B0FBF3F0D368C3F3416301335B0043
:102BF000B0FBF3F070470B4B1B6813F0080F08D1C4
:102C0000084BD3F89430C3F30323074A52F8231038
:102C1000DDE7044B1B68C3F30313F6E70349D6E76C
:102C20000349D4E700100240C08600080024F400E5
:102C3000808D5B0030B583B004461F4B9B6D13F055
:102C4000805F0AD0FFF710FFB0F5007F16D07F2C11
:102C50001ED8702C2BD000211BE0174DAB6D43F01C
:102C60008053AB65AB6D03F080530193019BFFF77D
:102C7000FBFEAB6D23F08053AB65E5E7802C03D9F9
:102C8000A02C03D9022104E0002102E0012100E090
:102C900002210A4A136823F00F030B4313601368E1
:102CA00003F00F038B4204D1002003B030BD01219B
:102CB000EFE70120F9E700BF0010024000200240CA
:102CC000284A9368D26802F0030213F00C030AD07A
:102CD0000C2B06D0042B1FD0082B20D0002002463E
:102CE00010E0012AF6D11F4A126812F0080F0CD129
:102CF0001C4AD2F89420C2F303221B4951F8222027
:102D000043B100200C2B0DD07047164A1268C2F355
:102D10000312F2E71046F5E714480022F2E71448E0
:102D20000022EFE70F4BDB6803F00303022B16D002
:102D3000032B00D10E4A0B49CB68C3F303130133B5
:102D4000C868C0F3062002FB00F0B0FBF3F0CB68CC
:102D5000C3F3416301335B00B0FBF3F0D4E7034AF4
:102D6000E9E700BF00100240C08600080024F4001C
:102D7000808D5B00002800F06783F0B583B00446C7
:102D8000964B9D6805F00C05DE6806F003060368A7
:102D900013F0100F5AD0E5B10C2D18D0E369002BB9
:102DA00000F0BB808D4A136843F001031360FEF707
:102DB000F3FC0746894B1B6813F0020F40F09A8022
:102DC000FEF7EAFCC01B0228F4D9032049E3012ED8
:102DD000E4D1824B1B6813F0020F03D0E369002B90
:102DE00000F03483606A7D4B1B6813F0080F5BD0E2
:102DF0007A4B1B6803F0F00398425CD8774B1A6853
:102E000042F008021A601A6822F0F002616A0A436E
:102E10001A605A6822F47F42216A42EA01225A600B
:102E2000002D60D0FFF74CFF6C4B9B68C3F303137E
:102E30006B4AD35C03F01F03D8406A4B18606A4B9F
:102E40001868FEF765FC002840F00B83236813F038
:102E5000010F00F08180082D75D00C2D71D06368B2
:102E6000B3F5803F00F09880B3F5A02F00F09A8072
:102E70005A4B1A6822F480321A601A6822F48022AF
:102E80001A606368002B00F09A80FEF785FC074605
:102E9000524B1B6813F4003F5ED1FEF77DFCC01B54
:102EA0006428F5D90320DCE24C4BD3F894301B099D
:102EB00003F0F003A0E7FFF7BDFE002840F0C88252
:102EC000464B1A6842F008021A601A6822F0F002B3
:102ED000616A0A431A605A6822F47F42216A42EA10
:102EE00001225A609EE7606AFFF7A4FE002899D08D
:102EF0000120B6E2394B1A6842F008021A601A68DB
:102F000022F0F002616A0A431A605A6822F47F4292
:102F1000216A42EA01225A6098E7304A136823F096
:102F200001031360FEF738FC07462C4B1B6813F0B7
:102F3000020F8BD0FEF730FCC01B0228F5D903200E
:102F40008FE2032E8BD1254B1B6813F4003F03D077
:102F50006368002B00F07E82236813F0020F58D0C4
:102F6000042D45D00C2D41D0E368002B00F091805A
:102F70001A4A136843F480731360FEF70DFC06468B
:102F8000164B1B6813F4806F7AD1FEF705FC801B8B
:102F90000228F5D9032064E2104A136843F4803311
:102FA00013606EE703F18043A3F53C331A6842F4E3
:102FB00080221A601A6842F480321A6061E7FEF7D4
:102FC000EBFB0746054B1B6813F4003FC4D0FEF72C
:102FD000E3FBC01B6428F5D9032042E20010024045
:102FE000A88600080000002008000020022EBBD1A7
:102FF000AF4B1B6813F4806F03D0E368002B00F025
:103000002B82AB4A536823F0FE43216943EA0163F4
:103010005360236813F0080F7DD06369002B63D0E1
:10302000A34BD3F89430A16903F01002914210D061
:1030300003F00302022A00F0118213F0010F3CD1C9
:103040009B4AD2F8943023F01003A1690B43C2F8D5
:103050009430974AD2F8943043F00103C2F8943088
:10306000FEF79AFB0646924BD3F8943013F0020F0A
:1030700051D1FEF791FB801B1128F4D90320F0E118
:103080008B4A536823F0FE43216943EA016353608E
:10309000BFE7874A136823F480731360FEF77CFB55
:1030A0000646834B1B6813F4806FB2D0FEF774FBA7
:1030B000801B0228F5D90320D3E17D4AD2F8943051
:1030C00023F00103C2F89430FEF766FB0646784B06
:1030D000D3F8943013F0020FB2D0FEF75DFB801BE3
:1030E0001128F4D90320BCE1714AD2F8943023F0BE
:1030F0000103C2F89430FEF74FFB06466C4BD3F841
:10310000943013F0020F06D0FEF746FB801B112807
:10311000F4D90320A5E1236813F0040F00F08D809B
:10312000634B9B6D13F0805F2ED1614B9A6D42F023
:1031300080529A659B6D03F080530193019B012699
:103140005C4B1B6813F4807F20D0A36813F0010F41
:1031500038D05749D1F8902022F0800203F0800344
:103160001343C1F89030A36813F0040F22D0D1F8B4
:10317000902042F00402C1F89020D1F8902042F053
:103180000102C1F890202AE00026D9E7494A1368D5
:1031900043F480731360FEF7FFFA0746454B1B6844
:1031A00013F4807FD1D1FEF7F7FAC01B0228F5D9BE
:1031B000032056E13E4AD2F8903043F00103C2F8B2
:1031C00090300CE03A4BD3F8902022F00102C3F883
:1031D0009020D3F8902022F00402C3F89020A36836
:1031E0008BB1FEF7D9FA0746314BD3F8903013F084
:1031F000020F21D1FEF7D0FAC01B41F2883398426A
:10320000F2D903202DE1FEF7C7FA0746284BD3F881
:10321000903013F0020F08D0FEF7BEFAC01B41F247
:1032200088339842F2D903201BE1214AD2F890302A
:1032300023F08003C2F89030E6B9236813F0200F22
:103240003AD0A36AE3B11A4AD2F8983043F00103A6
:10325000C2F89830FEF7A0FA0646154BD3F898301E
:1032600013F0020F28D1FEF797FA801B0228F4D939
:103270000320F6E00E4A936D23F080539365DCE75C
:103280000B4AD2F8983023F00103C2F89830FEF7C9
:1032900083FA0646064BD3F8983013F0020F0BD092
:1032A000FEF77AFA801B0228F4D90320D9E000BF88
:1032B0000010024000700040E36A002B00F0D08054
:1032C000022B17D00C2D00F0D2806A4A136823F02D
:1032D00080731360FEF760FA0446664B1B6813F0B8
:1032E000007F00F0AA80FEF757FA001B0228F4D9ED
:1032F0000320B6E05F4BDB6803F00301226B9142D1
:103300000FD00C2D00F0AF805A4B1B6813F0806F6C
:1033100040F0AB80574B1B6813F0805F2BD001202F
:103320009FE003F0F002616B0139B2EB011FE8D1BD
:1033300003F4FE42A16BB2EB012FE2D103F078421D
:10334000E16BB2EBC16FDCD103F4C001226C520817
:10335000013AB1EB425FD4D103F0C063626C520812
:10336000013AB3EB426FCCD1424B1B6813F0007FA4
:1033700049D0002075E03F4A136823F08073136042
:10338000FEF70AFA05463B4B1B6813F0007F06D098
:10339000FEF702FA401B0228F5D9032061E0354A06
:1033A000D36835491940236B606B013843EA001339
:1033B000A06B43EA0023206C4008013843EA4053E5
:1033C000606C4008013843EA4063E06B43EAC06345
:1033D0001943D160136843F080731360D36843F0DE
:1033E0008073D360FEF7D8F90446224B1B6813F0B4
:1033F000007F06D1FEF7D0F9001B0228F5D9032083
:103400002FE000202DE01B4B1A6842F080721A60FA
:10341000DA6842F08072DA60FEF7BEF90446154BB6
:103420001B6813F0007F06D1FEF7B6F9031B022BD1
:10343000F5D9032015E0002013E00E4AD1680F4BA8
:103440000B40D36000200CE001207047012008E011
:10345000012006E0012004E0012002E0012000E05C
:10346000002003B0F0BD0120FBE70120F9E70120B7
:10347000F7E700BF001002400C809D01FCFFEEFE4C
:10348000002800F0EA80F8B50D460446774B1B682B
:1034900003F00F038B420BD2744A136823F00F031F
:1034A0000B431360136803F00F038B4240F0D78087
:1034B000236813F0020F0CD0A2686D4B9B6803F0D9
:1034C000F0039A4205D96A498B6823F0F0031A4346
:1034D0008A60236813F0010F6ED06368032B0DD050
:1034E000022B25D0002B3CD103F1804303F504339C
:1034F0001B6813F0020F21D10120A7E05C4B1B6871
:1035000013F0007F01D10120A0E0FFF755FB594BDC
:1035100098422DD9564B9B6813F0F00F2AD1544A8C
:10352000936823F0F00343F080039360802724E046
:103530004F4B1B6813F4003F00F09380FFF7C0FB74
:103540004C4B984218D94A4B9B6813F0F00F2FD17F
:10355000474A936823F0F00343F080039360802789
:103560000BE0434B1B6813F4806FE7D101206DE043
:10357000002702E0002700E000273D4A936823F07F
:10358000030361680B439360FEF706F90646384B68
:103590009B6803F00C036268B3EB820F0AD0FEF75E
:1035A000FBF8801B41F288339842F0D903204DE0AC
:1035B0000027E2E7002F4AD1236813F0020F0CD056
:1035C000A2682B4B9B6803F0F0039A4205D228496E
:1035D0008B6823F0F0031A438A60244B1B6803F0C6
:1035E0000F03AB420AD9214A136823F00F032B4380
:1035F0001360136803F00F03AB4234D1236813F058
:10360000040F06D01A4A936823F4E063E1680B4381
:103610009360236813F0080F07D0154A936823F4CA
:103620006053216943EAC1039360FFF749FB104BE4
:103630009B68C3F30313104AD35C03F01F03D84005
:103640000E4B18600E4B1868FEF762F8F8BD084A7A
:10365000936823F0F0039360AEE7012070470120E8
:10366000F4E70120F2E70120F0E700BF002002406C
:103670000010024000B4C404A88600080000002026
:1036800008000020014B1868704700BF00000020B0
:1036900008B5FFF7F7FF054B9B68C3F30223044A05
:1036A000D35C03F01F03D84008BD00BF00100240E8
:1036B000B886000808B5FFF7E5FF054B9B68C3F324
:1036C000C223044AD35C03F01F03D84008BD00BFE7
:1036D00000100240B8860008F8B504460F46544B67
:1036E000DB6813F0030F0ED0514BDB6803F00303CC
:1036F0000268934202D001252846F8BD002A00F056
:103700009580002509E00368022B54D0032B59D083
:10371000012B43D00125002DEED1454A136823F03B
:1037200080631360FEF738F80646414B1B6813F0C0
:10373000006F05D0FEF730F8831B022BF5D9032567
:10374000002DD9D1002F4BD139480369394A1A408D
:10375000A168E368DB0643EA01236168013943EAB3
:1037600001131A430261324A136843F08063136005
:10377000FEF712F806462E4B1B6813F0006F05D1BA
:10378000FEF70AF8831B022BF5D90325002DB3D1D0
:10379000274A1369A1690B431361ADE7244A1268F4
:1037A00012F0020F1AD02249CA6822F00302134312
:1037B000CB600025AFE71E4A126812F4806FF2D189
:1037C0000125A8E71A4A126812F4003FEBD1184A03
:1037D000126812F4802FE6D101259CE701259AE7B3
:1037E000012F11D012480369134A1A40A168636976
:1037F0005B08013B5B0643EA01236168013943EA48
:1038000001131A430261AEE7094803690B4A1A40E3
:10381000A16823695B08013B5B0543EA01236168FA
:10382000013943EA01131A4302619CE7012563E76A
:10383000001002400F80FF070F80FFF90F809FFFED
:10384000F8B504460F46544BDB6813F0030F0ED057
:10385000514BDB6803F003030268934202D0012559
:103860002846F8BD002A00F09580002509E003688D
:10387000022B54D0032B59D0012B43D00125002D0E
:10388000EED1454A136823F080531360FDF784FF9F
:103890000646414B1B6813F0005F05D0FDF77CFF27
:1038A000831B022BF5D90325002DD9D1002F4BD135
:1038B00039484369394A1A40A168E368DB0643EA9C
:1038C00001236168013943EA01131A434261324A14
:1038D000136843F080531360FDF75EFF06462E4BDE
:1038E0001B6813F0005F05D1FDF756FF831B022B09
:1038F000F5D90325002DB3D1274A5369A1690B439C
:103900005361ADE7244A126812F0020F1AD022491F
:10391000CA6822F003021343CB600025AFE71E4ABA
:10392000126812F4806FF2D10125A8E71A4A1268D2
:1039300012F4003FEBD1184A126812F4802FE6D13E
:1039400001259CE701259AE7012F11D01248436910
:10395000134A1A40A16863695B08013B5B0643EAAE
:1039600001236168013943EA01131A434261AEE75A
:10397000094843690B4A1A40A16823695B08013B67
:103980005B0543EA01236168013943EA01131A43E5
:1039900042619CE7012563E7001002400F80FF07AA
:1039A0000F80FFF90F809FFF2DE9F04182B00446A0
:1039B000036813F4006F34D0C36E402B1FD00BD8B4
:1039C00023B3202B05D100212030FFF739FF054616
:1039D00021E00126354626E0602B20D0802B0BD13C
:1039E0000025634AD2F89C3023F0E003E16E0B43DC
:1039F000C2F89C30002616E00126354613E05C4AEA
:103A0000D36843F48033D3600025EAE70021043013
:103A1000FFF762FE0546002DE3D02E4603E00025A9
:103A2000DFE700263546236813F4805F33D0236F29
:103A3000B3F5007F22D00DD833B3B3F5807F06D124
:103A4000002104F12000FFF7FBFE054608E00126F7
:103A5000354620E0B3F5407F02D0B3F5806F0AD140
:103A6000C5B9434AD2F89C3023F4E063216F0B437D
:103A7000C2F89C300FE0012635460CE03C4AD36882
:103A800043F48033D360EBE70021201DFFF724FED1
:103A90000546E5E72E46236813F4003F71D0344B0A
:103AA0009B6D13F0805F4ED1314B9A6D42F0805286
:103AB0009A659B6D03F080530193019B4FF00108C1
:103AC0002C4A136843F480731360FDF765FE0746C4
:103AD000284B1B6813F4807F05D1FDF75DFEC01BEA
:103AE0000228F5D90325002D46D1214BD3F890307B
:103AF00013F4407316D0D4F894209A4212D01C4A82
:103B0000D2F8903023F44073D2F8901041F4803111
:103B1000C2F89010D2F8901021F48031C2F89010C1
:103B2000C2F8903013F0010F10D1002D40F06081E9
:103B30000F4AD2F8903023F44073D4F894100B431A
:103B4000C2F8903019E04FF00008B9E7FDF724FE05
:103B50000746074BD3F8903013F0020FE5D1FDF77D
:103B60001BFEC01B41F288339842F2D90325DCE7E3
:103B700000100240007000402E46B8F1000F40F0E7
:103B80003981236813F0010F08D0B64AD2F8883083
:103B900023F00303E16B0B43C2F88830236813F072
:103BA000020F08D0AF4AD2F8883023F00C03216C02
:103BB0000B43C2F88830236813F0040F08D0A94AD9
:103BC000D2F8883023F03003616C0B43C2F88830A0
:103BD000236813F0080F08D0A24AD2F8883023F0E7
:103BE000C003A16C0B43C2F88830236813F0100F98
:103BF00008D09C4AD2F8883023F44073E16C0B4320
:103C0000C2F88830236813F0200F08D0954AD2F804
:103C1000883023F44063216D0B43C2F88830236859
:103C200013F4007F08D08F4AD2F8883023F4402361
:103C3000616E0B43C2F88830236813F4806F08D09C
:103C4000884AD2F8883023F44013A16E0B43C2F89F
:103C50008830236813F0400F08D0824AD2F88830A9
:103C600023F44053616D0B43C2F88830236813F08E
:103C7000800F08D07B4AD2F8883023F44043A16DEE
:103C80000B43C2F88830236813F4807F08D0754A4C
:103C9000D2F8883023F44033E16D0B43C2F888300A
:103CA000236813F4801F08D06E4AD2F89C3023F0AA
:103CB0000303216E0B43C2F89C30236813F4005FAA
:103CC00011D0684AD2F8883023F04063616F0B430B
:103CD000C2F88830636FB3F1006F00F09180B3F1E8
:103CE000806F00F09280236813F4002F20D0A36F20
:103CF000B3F5804F00F093805A4AD2F89C3023F4F9
:103D00008043C2F89C30D2F8883023F04063A16F22
:103D10000B43C2F88830A36FB3F1006F00F08780C7
:103D2000B3F5804F00F08980B3F1806F00F08B8095
:103D3000236813F4802F11D04A4AD2F8883023F038
:103D40004063E16F0B43C2F88830E36FB3F1006F5B
:103D500000F08380B3F1806F00F08680236813F455
:103D6000804F0ED03F4AD2F8883023F04053D4F829
:103D700080100B43C2F88830D4F88030B3F1805FF4
:103D80007CD0236813F4803F09D0364AD2F89C30A7
:103D900023F00403D4F884100B43C2F89C3023684A
:103DA00013F4001F09D02F4AD2F89C3023F01803D7
:103DB000D4F888100B43C2F89C30236813F4800FAA
:103DC00066D1236813F0807F0ED0264AD2F89C304B
:103DD00023F44013D4F890100B43C2F89C30D4F86D
:103DE0009030B3F5001F7CD0304602B0BDE8F081C2
:103DF0002E46C2E61B4A936D23F080539365C0E6BE
:103E0000D36843F48013D3606DE70121201DFFF7D1
:103E100063FC054600283FF466AF064663E7114A97
:103E2000D2F89C3043F48043C2F89C3073E70D4ACB
:103E3000D36843F48013D3607AE70A4AD36843F423
:103E40008033D36074E70121201DFFF745FC054650
:103E500000283FF46DAF06466AE7D36843F4801349
:103E6000D3607BE7001002400121201DFFF734FCE6
:103E7000054600283FF472AF06466FE70221201D79
:103E8000FFF72AFC054600283FF47BAF064678E79B
:103E9000164A136823F080531360FDF77DFC074634
:103EA000124B1B6813F0005F05D0FDF775FCC31BB8
:103EB000022BF5D903251DB1002D82D02E4680E7B7
:103EC0000A4AD2F89C3023F44033D4F88C100B43C8
:103ED000C2F89C30022104F12000FFF7B1FC054636
:103EE000EAE7D36843F48013D3607DE70010024013
:103EF00030B4036A23F001030362026A44688369F1
:103F000023F4803323F073030D681D4322F0020273
:103F10008B6813431C4A90420FD002F50062904216
:103F20000BD002F54062904207D002F580629042C9
:103F300003D002F58062904205D123F00803CA68DD
:103F40001A4322F00403104A90420FD002F5006297
:103F500090420BD002F54062904207D002F5806299
:103F6000904203D002F58062904205D124F440745F
:103F70004A6922438C691443446085614A684263FC
:103F8000036230BC704700BF002C014030B4036AAC
:103F900023F480730362036A4468C26922F48032A6
:103FA00022F073020D68154323F400738A6843EA14
:103FB0000223184A904203D002F50062904206D1D3
:103FC00023F40063CA6843EA022323F48063114A9E
:103FD00090420FD002F5006290420BD002F5406291
:103FE000904207D002F58062904203D002F58062D1
:103FF000904207D124F440524C6942EA04128C6981
:1040000042EA04144460C5614A68C263036230BC7A
:10401000704700BF002C014030B4036A23F4805382
:104020000362036A4468C26922F0807222F4E642A5
:104030000D6842EA052223F400538D6843EA0533F4
:104040000F4DA8420FD005F50065A8420BD005F52D
:104050004065A84207D005F58065A84203D005F564
:104060008065A84204D124F480444D6944EA851453
:104070004460C2614A680264036230BC704700BF9A
:10408000002C014030B4036A23F480330362036AD6
:104090004468426D22F4803222F070020D681543AC
:1040A00023F400338A6843EA02430F4A90420FD058
:1040B00002F5006290420BD002F54062904207D0B8
:1040C00002F58062904203D002F58062904204D1F2
:1040D00024F480344A6944EA0224446045654A680D
:1040E0008265036230BC7047002C014030B4036A23
:1040F00023F480130362036A4468426D22F08072E5
:1041000022F4E0420D6842EA052223F400138D6890
:1041100043EA05530F4DA8420FD005F50065A842AC
:104120000BD005F54065A84207D005F58065A8428B
:1041300003D005F58065A84204D124F480244D699C
:1041400044EA8524446042654A68C265036230BC23
:10415000704700BF002C014010B4036A046A24F0C9
:1041600001040462846924F0F00C4CEA021223F08A
:104170000A030B43826103625DF8044B704710B47D
:10418000036A23F0100303628469036A24F4704C09
:104190004CEA023223F0A00343EA01138261036276
:1041A0005DF8044B7047836823F070030B4343F0C2
:1041B000070383607047000090F83D30DBB2012BAD
:1041C00031D1022380F83D3003681A4A93421CD053
:1041D000B3F1804F19D0A2F59432934215D002F575
:1041E0008062934211D002F5806293420DD002F5B5
:1041F0009432934209D002F54062934205D01A6886
:1042000042F001021A600020704799680A4A0A4089
:10421000062A0AD0B2F5803F09D01A6842F001029E
:104220001A6000207047012070470020704700206E
:10423000704700BF002C01400700010070470000DC
:104240000368304A904212D0B0F1804F0FD0A2F5EF
:10425000943290420BD002F58062904207D002F572
:104260008062904203D002F59432904203D123F051
:1042700070034A681343234A90421ED0B0F1804F26
:104280001BD0A2F59432904217D002F58062904282
:1042900013D002F5806290420FD002F59432904222
:1042A0000BD002F54062904207D002F58062904246
:1042B00003D002F58062904203D123F44073CA68B0
:1042C000134323F080034A69134303608B68C3627E
:1042D0000B6883620B4B98420FD003F50063984242
:1042E0000BD003F54063984207D003F580639842F2
:1042F00003D003F58063984201D10B690363012366
:1043000043617047002C014060B310B5044690F83B
:104310003D3013B3022384F83D30214651F8040B9D
:10432000FFF78EFF012384F8483084F83E3084F88C
:104330003F3084F8403084F8413084F8423084F8CB
:10434000433084F8443084F8453084F8463084F8AB
:10435000473084F83D30002010BD80F83C30FDF738
:10436000F7F8D7E70120704760B310B5044690F81E
:104370003D3013B3022384F83D30214651F8040B3D
:10438000FFF75EFF012384F8483084F83E3084F85C
:104390003F3084F8403084F8413084F8423084F86B
:1043A000433084F8443084F8453084F8463084F84B
:1043B000473084F83D30002010BD80F83C30FFF7D6
:1043C0003DFFD7E70120704730B4036A23F01003A4
:1043D0000362036A4468826922F0807222F4E64232
:1043E0000D6842EA052223F020038D6843EA051395
:1043F000174DA84203D005F50065A84206D123F069
:104400008003CD6843EA051323F04003104DA84212
:104410000FD005F50065A8420BD005F54065A84210
:1044200007D005F58065A84203D005F58065A84250
:1044300007D124F4406C4C694CEA840C8C694CEA3A
:104440008404446082614A688263036230BC7047BE
:10445000002C014038B590F83C30012B00F09580DD
:1044600004460D46012380F83C30142A00F288806F
:10447000DFE802F00B8686861F868686348686866F
:10448000488686865D86868671000068FFF730FD67
:104490002268936943F0080393612268936923F0CB
:1044A000040393612268936929690B439361002097
:1044B00067E00068FFF788FF2268936943F40063B0
:1044C00093612268936923F48063936122689369FE
:1044D000296943EA01239361002052E00068FFF755
:1044E00055FD2268D36943F00803D3612268D3697C
:1044F00023F00403D3612268D36929690B43D36194
:1045000000203EE00068FFF787FD2268D36943F48E
:104510000063D3612268D36923F48063D361226886
:10452000D369296943EA0123D361002029E00068A7
:10453000FFF7A8FD2268536D43F008035365226816
:10454000536D23F0040353652268536D29690B43AF
:104550005365002015E00068FFF7C8FD2268536D21
:1045600043F4006353652268536D23F480635365FD
:104570002268536D296943EA01235365002000E056
:104580000120002384F83C3038BD0220FCE710B441
:10459000846824F47F4C42EA03220A4342EA0C0274
:1045A00082605DF8044B704790F83C30012B76D068
:1045B00010B50446012380F83C30022380F83D30DA
:1045C00002689068374B034093600B68602B4CD0B7
:1045D00029D8402B54D00CD9502B22D1CA68496815
:1045E0002068FFF7B9FD50212068FFF7DCFD0020AF
:1045F00005E0202B0DD009D9302B0AD00120012352
:1046000084F83D30002384F83C3010BD0BB1102BF2
:1046100005D119462068FFF7C6FD0020EFE701200D
:10462000EDE70120EBE7B3F5805F34D0B3F5005F31
:104630000CD1CB684A6889682068FFF7A8FF226818
:10464000936843F4804393600020D8E7702B24D113
:10465000CB684A6889682068FFF799FF22689368E9
:1046600043F0770393600020C9E7CA68496820686F
:10467000FFF785FD60212068FFF795FD0020BEE76C
:10468000CA6849682068FFF767FD40212068FFF786
:104690008AFD0020B3E70020B1E70120AFE7022048
:1046A000704700BF8800FEFF01F01F014FF0010CB2
:1046B0000CFA01FC036A23EA0C030362036A8A40D2
:1046C000134303627047000010B5044610293CD81C
:1046D000DFE801F0093B3B3B1F3B3B3B263B3B3BC1
:1046E0002D3B3B3B340090F83E30DBB2013B18BF22
:1046F0000123002B40F0928010297DD8DFE801F0E3
:104700002C7C7C7C6C7C7C7C707C7C7C747C7C7C5D
:10471000780090F83F30DBB2013B18BF0123E8E797
:1047200090F84030DBB2013B18BF0123E1E790F87D
:104730004130DBB2013B18BF0123DAE790F8423089
:10474000DBB2013B18BF0123D3E790F84330DBB263
:10475000013B18BF0123CCE7022384F83E3001223D
:104760002068FFF7A1FF23682F4A93420FD002F57C
:10477000006293420BD002F54062934207D002F5EB
:104780008062934203D002F58062934203D15A6C57
:1047900042F400425A642368234A934230D0B3F172
:1047A000804F2DD0A2F59432934229D002F5806239
:1047B000934225D002F58062934221D002F59432D3
:1047C00093421DD002F54062934219D01A6842F01C
:1047D00001021A60002022E0022384F83F30BEE785
:1047E000022384F84030BAE7022384F84130B6E768
:1047F000022384F84230B2E7022384F84330AEE764
:1048000099680A4A0A40062A0AD0B2F5803F09D0C0
:104810001A6842F001021A60002000E0012010BD79
:104820000020FCE70020FAE7002C0140070001000F
:1048300090F83C20012A42D030B40346012280F88F
:104840003C20022280F83D200068426884681D4DAB
:10485000A84203D005F50065A84203D122F47002F6
:104860004D682A4322F070020D682A4342601A689C
:104870001448824216D0B2F1804F13D0A0F5943084
:1048800082420FD000F5806082420BD000F580603C
:10489000824207D000F59430824203D000F5406098
:1048A000824204D124F0800489682143916001226E
:1048B00083F83D20002083F83C0030BC7047022084
:1048C000704700BF002C0140026852E8003F23F00F
:1048D000C00342E800310029F6D1026802F1080362
:1048E00053E8003F23F40003083242E80031002976
:1048F000F3D12023C0F884307047026852E8003FAB
:1049000023F4907342E800310029F6D1026802F1E5
:10491000080353E8003F23F0805323F001030832DB
:1049200042E800310029F1D1C36E012B06D02023CB
:10493000C0F888300023C36603677047026852E8F6
:10494000003F23F0100342E800310029F6D1EEE7E2
:10495000704708B5026852E8003F23F0400342E880
:1049600000310029F6D12023C0F8843000234367AA
:10497000FFF7EEFF08BD70477047704738B5846A8F
:10498000D4F88420D4F8885023689B6813F0800FF3
:1049900001D0212A10D023689B6813F0400F01D06A
:1049A000222D10D0D4F88C3043F01003C4F88C3092
:1049B0002046FFF7E2FF38BD0023A4F8563020461A
:1049C000FFF782FFE7E70023A4F85E302046FFF7F9
:1049D00094FFE7E708B5806A0023A0F85E30A0F8EE
:1049E0005630FFF7CAFF08BD70B504460168CB69B1
:1049F00008688D6840F60F021A4008D113F0200FA6
:104A000005D010F0200F34D115F0805F31D12AB1DC
:104A1000954A2A4033D1954E304230D1E26E012A78
:104A200000F0C38013F4801F03D015F4800F40F012
:104A30005B8113F0800F07D010F0800F40F05B8196
:104A400015F4000F40F0578113F0400F03D010F021
:104A5000400F40F0578113F4000F03D010F0804F47
:104A600040F0548113F0807F02D00028C0F25281C0
:104A700070BD236F002BFBD020469847F8E713F05A
:104A8000010F09D010F4807F06D001260E62D4F801
:104A90008C103143C4F88C1013F0020F0BD015F0BA
:104AA000010F08D0216802260E62D4F88C1041F064
:104AB0000401C4F88C1013F0040F0BD015F0010F93
:104AC00008D0216804260E62D4F88C1041F002014F
:104AD000C4F88C1013F0080F0BD010F0200F00D189
:104AE0003AB1226808211162D4F88C200A43C4F834
:104AF0008C2013F4006F0CD010F0806F09D0226866
:104B00004FF400611162D4F88C2042F02002C4F806
:104B10008C20D4F88C20002AAAD013F0200F09D0C2
:104B200010F0200F02D115F0805F03D0236F0BB17E
:104B300020469847D4F88C2023689B6813F0400FD8
:104B400002D112F0280F29D02046FFF7D6FE2368A5
:104B50009B6813F0400F1DD0226802F1080353E850
:104B6000003F23F04003083242E800310029F3D12E
:104B7000E36F5BB13E4A9A63E06FFDF71BFD0028CF
:104B80003FF476AFE06F836B984771E72046FFF7FD
:104B9000F4FE6DE72046FFF7F0FE69E72046FFF7D9
:104BA000ECFE0023C4F88C3062E713F0100F3FF4E2
:104BB00039AF10F0100F3FF435AF10230B622368AC
:104BC0009B6813F0400F55D0E26F13685B689BB28F
:104BD000002B3FF44DAFB4F85C1099427FF648AF1C
:104BE000A4F85E3013681B6813F0200F31D12268DF
:104BF00052E8003F23F4807342E800310029F6D1E7
:104C0000226802F1080353E8003F23F00103083251
:104C100042E800310029F3D1226802F1080353E889
:104C2000003F23F04003083242E800310029F3D16D
:104C30002023C4F888300023E366226852E8003F4E
:104C400023F0100342E800310029F6D1E06FFDF7B0
:104C50007BFCB4F85C10B4F85E309BB2C91A89B220
:104C60002046FCF7D7F803E70100001020010004FC
:104C7000D5490008B4F85C10B4F85E309BB2C91A8C
:104C800089B2B4F85E309BB2002B3FF4F1AE00293C
:104C90003FF4EEAE226852E8003F23F4907342E8FE
:104CA00000300028F6D1226802F1080353E8003FE3
:104CB00023F0805323F00103083242E8003000283B
:104CC000F1D12023C4F888300023E36623672268EB
:104CD00052E8003F23F0100342E800300028F6D1EC
:104CE0002046FCF797F8C3E64FF480130B6220468A
:104CF00000F0ECFBBCE6636F002B3FF4B9AE20463E
:104D00009847B5E62046FFF724FEB1E6204600F0BE
:104D1000DFFBADE6204600F0DAFBA9E608B5806AC5
:104D2000C36E012B02D0FFF727FE08BDB0F85C1060
:104D30004908FCF76FF8F8E708B50346806A1B6876
:104D40001B6813F0200F29D10023A0F85E30026801
:104D500052E8003F23F4807342E800310029F6D185
:104D6000026802F1080353E8003F23F00103083210
:104D700042E800310029F3D1026802F1080353E848
:104D8000003F23F04003083242E800310029F3D10C
:104D90002023C0F88830C36E012B05D0C36E012BD1
:104DA0000CD0FFF7E8FD08BD026852E8003F23F091
:104DB000100342E800310029F6D1EFE7B0F85C10AB
:104DC000FCF728F8EFE7000070B504460168836837
:104DD0000269134342691343C26913430868964A40
:104DE00002401A430A602268536823F44053E16882
:104DF0000B435360A1692268904B9A4201D0236A09
:104E00001943936823F06E4323F430630B4393609C
:104E10002268D36A23F00F03616A0B43D3622368CD
:104E2000874A934210D0874A934221D0864A9342C0
:104E300037D0864A93425CD0854A93426BD07F4AF2
:104E400093427DD010223AE002F55842D2F88820F1
:104E500002F00302032A09D8DFE802F00204870601
:104E600001222CE004222AE0082228E0102226E079
:104E700002F5E632D2F8882002F00C020C2A0ED895
:104E8000DFE802F0070D0D0D090D0D0D750D0D0D6F
:104E90000B00002213E0042211E008220FE0102290
:104EA0000DE002F5E432D2F8882002F03002202A28
:104EB0005FD01AD8002A5ED0102A5ED104225F4942
:104EC0008B4276D0E069B0F5004F00F0C980082A27
:104ED00000F23481DFE812F0F7001901F500320129
:104EE0001C013201320132011F01302A47D1082250
:104EF000E5E702F5E232D2F8882002F0C002802A0B
:104F00003FD004D8FAB3402A3FD10422D7E7C02AC1
:104F10003DD10822D3E702F5E032D2F8882002F42E
:104F20004072B2F5007F34D005D8A2B3B2F5807FCD
:104F300033D10422C3E7B2F5407F30D10822BEE767
:104F400002F5C832D2F8882002F44062B2F5006F50
:104F500027D005D83AB3B2F5806F26D10422AEE748
:104F6000B2F5406F23D10822A9E70222A7E7022267
:104F7000A5E70222A3E70022A1E710229FE7102263
:104F80009DE702229BE7002299E7102297E7102273
:104F900095E7022293E7002291E710228FE7102283
:104FA0008DE702228BE7002289E7102287E7102293
:104FB00085E7082A00F2B280DFE802F008B03BB0D3
:104FC00038B0B0B005004FF4004004E0FEF760FBDD
:104FD000002800F0A580626A1E4B33F81220B0FB57
:104FE000F2F3656805EB4501994200F29B80B3EB53
:104FF000053F00F29980002633463146FBF7CCFD91
:10500000090241EA106100026B08C0182A463346C3
:1050100041F10001FBF7C0FDA0F540720E4B9A4232
:1050200000F284802368D860304665E0FDF748FED2
:10503000CEE70A48CFE700BFF369FFCF008000400A
:10504000003801400044004000480040004C00404F
:1050500000500040F0860008FFFC0F000024F40020
:10506000082A65D8DFE802F0072705642A6464642B
:105070000B00354803E0FEF70BFB00285AD0626AAC
:10508000324B33F81230B0FBF3F06268530803EB95
:105090004003B3FBF2F3A3F110014FF6EF7291421C
:1050A0004AD89AB222F00F02C3F342031343226894
:1050B000D360002020E0FEF7FDFADEE7FDF700FEFA
:1050C000DBE7214803E0FEF7E3FA002838D0626A04
:1050D0001E4B33F81230B0FBF3F0636800EB530063
:1050E000B0FBF3F0A0F110024FF6EF739A4229D80B
:1050F000236880B2D86000200123A4F86A30A4F8A5
:10510000683000232367636770BDFEF7D3FADCE7DE
:10511000FDF7D6FDD9E74FF40040D8E70120EBE7D3
:105120000020E9E70120E7E70120E5E70120E3E7C8
:105130000120E1E70020DFE70120DDE70120DBE7D8
:105140000020D9E70120D7E70024F400F08600080A
:10515000836A13F0010F06D00268536823F400330A
:10516000C16A0B435360836A13F0020F06D00268D2
:10517000536823F48033016B0B435360836A13F04D
:10518000040F06D00268536823F48023416B0B435D
:105190005360836A13F0080F06D00268536823F443
:1051A0000043816B0B435360836A13F0100F06D0EA
:1051B0000268936823F48053C16B0B439360836A46
:1051C00013F0200F06D00268936823F40053016C9B
:1051D0000B439360836A13F0400F0AD00268536850
:1051E00023F48013416C0B435360436CB3F5801F71
:1051F0000BD0836A13F0800F06D00268536823F443
:105200000023C16C0B43536070470268536823F45A
:10521000C003816C0B435360EBE72DE9F84305466F
:105220000F4616469946DDF820802B68DC6937EA80
:1052300004040CBF01240024B44257D1B8F1FF3F4D
:10524000F3D0FCF7A9FAA0EB090040452FD8B8F13C
:10525000000F2CD02B681A6812F0040FE5D0DA6921
:1052600012F4006FE1D04FF400621A622A6852E82B
:10527000003F23F4D07342E800310029F6D12A68B8
:1052800002F1080353E8003F23F00103083242E82B
:1052900000310029F3D12023C5F88430C5F88830C7
:1052A000C5F88C30002385F8803003201FE02A6881
:1052B00052E8003F23F4D07342E800310029F6D1D0
:1052C0002A6802F1080353E8003F23F00103083283
:1052D00042E800310029F3D12023C5F88430C5F815
:1052E0008830002385F88030032000E00020BDE8EE
:1052F000F88330B583B004460023C0F88C30FCF747
:105300004BFA05462268126812F0080F0FD1236885
:105310001B6813F0040F18D12023C4F88430C4F89C
:1053200088300020E06684F8800003B030BD6FF064
:105330007E430093034600224FF400112046FFF7FE
:105340006CFF0028E3D00320EFE76FF07E4300936B
:105350002B4600224FF480012046FFF75EFF002815
:10536000DAD00320E1E778B310B50446D0F88430F2
:105370000BB32423C4F884302268136823F001039C
:1053800013602046FFF720FD012813D0A36ABBB9A4
:105390002268536823F4904353602268936823F093
:1053A0002A0393602268136843F0010313602046C8
:1053B000FFF79FFF10BD80F88030FCF72FF8D8E78B
:1053C0002046FFF7C5FEE3E70120704710B504460D
:1053D00013468165A0F85C200022C0F88C202222B0
:1053E000C0F88820C26F8AB12249D162C26F2249B7
:1053F0001163C26F21495163C26F0021916301683B
:10540000826D2431C06FFDF755F838BB002384F856
:105410008030236943B1226852E8003F43F480732F
:1054200042E800310029F6D1226802F1080353E86E
:10543000003F43F00103083242E800310029F3D174
:10544000226802F1080353E8003F43F040030832AA
:1054500042E800310029F3D1002010BD1023C4F828
:105460008C30002384F880302023C4F88830012059
:10547000F3E700BF394D00081D4D00087D490008C5
:10548000436E2BB90123A0F86A30A0F8683070474A
:1054900030B403689A68C2F342629968490F094DB3
:1054A0006B5CDB00084C615C93FBF1F3A0F86A30A5
:1054B000AB5CDB00A25C93FBF2F3A0F8683030BC7D
:1054C000704700BF108700080887000870477047C2
:1054D000704790F88030012B18D0012380F880307D
:1054E0002423C0F8843003681A68196821F0010188
:1054F000196022F000520023436601680A602022EE
:10550000C0F8842080F88030184670470220704729
:1055100038B590F88030012B1DD00446012380F867
:1055200080302423C0F8843003681D681A6822F094
:1055300001021A600268936823F060431943916086
:10554000FFF79EFF23681D602023C4F884300020ED
:1055500084F8800038BD0220FCE738B590F8803030
:10556000012B1DD00446012380F880302423C0F88D
:10557000843003681D681A6822F001021A6002680C
:10558000936823F0606319439160FFF779FF236804
:105590001D602023C4F88430002084F8800038BDCA
:1055A0000220FCE7D0F88830202B20D110B504462B
:1055B000F9B102B390F88030012B1ED0012380F89E
:1055C0008030C366FFF702FFB0B9E36E012B01D054
:1055D000012011E0236810221A62226852E8003F7D
:1055E00043F0100342E800310029F6D104E0022024
:1055F0007047012000E0012010BD0220FCE7000000
:1056000082B000230193019B01330193019A0F4B58
:105610009A4215D80369002BF5DA00230193036938
:1056200043F001030361019B01330193019A074B8E
:105630009A4208D8036913F0010FF4D1002000E06A
:10564000032002B070470320FBE700BF400D0300BA
:1056500084B010B504460DF10C0C8CE80E00C36844
:1056600043F04003C360FFF7CBFF0C9B3BB9A36B38
:1056700043F48033A363BDE8104004B07047A36BCC
:1056800023F48033A363F6E7836823F00103836088
:105690000020704782B000230193019B01330193E6
:1056A000019A0F4B9A4215D80369002BF5DA0023B3
:1056B0000193890141F020010161019B01330193B4
:1056C000019A074B9A4208D8036913F0200FF4D1CE
:1056D000002000E0032002B070470320FBE700BF7A
:1056E000400D030082B000230193019B013301931D
:1056F000019A0E4B9A4213D80369002BF5DA002366
:10570000019310230361019B01330193019A074B1D
:105710009A4208D8036913F0100FF4D1002000E07A
:10572000032002B070470320FBE700BF400D0300D9
:10573000D0F800381943C0F8001800207047000066
:1057400084B02DE9F041044607A880E80E0000234C
:1057500006E003F1400204EB8202002151600133B4
:105760000E2BF6D9119F8FBBD4F8043843F00203F7
:10577000C4F80438A36B23F40013A363236843F035
:1057800040032360236843F0800323600023C4F8B0
:10579000003E04F50065D4F80038C4F80038032151
:1057A0002046FFF7C5FF10212046FFF773FF804614
:1057B00008B14FF001082046FFF794FF08B14FF001
:1057C000010800232B616B61EB610FE0A36B43F4D5
:1057D0000013A363DAE7C3B94FF00060C2F8000911
:1057E00000220A614FF67F328A600133079999429D
:1057F00010D904EB431202F51061D2F80009002819
:10580000E9DB0020C2F80009EAE74FF09040C2F857
:105810000009E5E700230AE0C3B14FF0904CC2F85D
:1058200000CB002202614FF67F3282600133994241
:1058300011D904EB431202F53060D2F8006B002E50
:10584000EADB4FF0000CC2F800CBEAE74FF0006C47
:10585000C2F800CBE5E72B6923F480732B610023AA
:10586000A3616FF080436361A36943F01003A361F8
:10587000A2690B4B1343A3610D9B1BB1A36943F0BA
:105880000803A361012F04D04046BDE8F04104B0F5
:105890007047A36943F0804343F00403A361F3E737
:1058A00000383C80D0F8003E23F00303C0F8003EEF
:1058B000D0F8043843F00203C0F8043800207047E1
:1058C000406900F00100704738B50546C36823F011
:1058D000C043C360012913D019BBC36843F08043A0
:1058E000C36000240120FBF75DFF01342846FFF769
:1058F000E7FF08B1312CF5D9322C14D0002038BD87
:10590000C36843F00053C36000240120FBF74AFF43
:1059100001342846FFF7D4FF0128EDD0312CF4D90B
:10592000EAE70120EBE70120E9E70000DFF834D0E7
:10593000FBF7E4FE0C480D490D4A002302E0D45861
:10594000C4500433C4188C42F9D30A4A0A4C0023C9
:1059500001E013600432A242FBD300F011F8FBF720
:1059600069FCFEE70000052000000020E0010020A7
:10597000308B0008E00100202C0A0020FEE7000028
:1059800070B50D4D0D4C641BA4100026A64209D124
:105990000B4D0C4C02F07AFE641BA4100026A642AC
:1059A00005D170BD55F8043B98470136EEE755F830
:1059B000043B98470136F2E7208B0008208B000853
:1059C000208B0008248B00080A44914200F1FF3329
:1059D00000D1704710B511F8014B03F8014F914207
:1059E000F9D110BD02440346934200D1704703F839
:1059F000011BF9E72DE9FF4755EC104B002D0E4632
:105A000019462B46BBBF05F100431D4600232D233D
:105A10000B700D9BDDF830A0914623F02008BCBF31
:105A200022461446B8F1460F05D0B8F1450F00D113
:105A30000136022100E0032103AB019302AB009386
:105A400045EC104B5346324600F0C2FCB8F1470F0C
:105A5000074602D119F0010F22D0B8F1460F07EB2B
:105A6000060910D13B78302B0AD1002200232046B2
:105A70002946FBF721F818B9C6F10106CAF80060FB
:105A8000DAF8003099440022002320462946FBF72B
:105A900013F808B1CDF80C903022039B4B4507D387
:105AA000039B0E9ADB1B3846136004B0BDE8F087F9
:105AB000591C03911A70F0E7F7B503460029B8BFE7
:105AC000494203F8022BB4BF2D222B220929427030
:105AD0002ADD0DF1070217460A26944691FBF6F5DA
