:020000040800F2
:1000000000000520453F0108393B00083F3B000840
:10001000453B00084B3B0008513B00080000000036
:10002000000000000000000000000000573B000836
:10003000653B000800000000733B0008813B00089E
:10004000953F0108953F0108953F0108953F01083C
:10005000953F0108953F0108953F0108953F01082C
:10006000953F0108953F0108953F01088D3B000829
:10007000A13B0008953F0108953F0108953F010805
:10008000953F0108953F0108953F0108953F0108FC
:10009000953F0108953F0108953F0108953F0108EC
:1000A000953F0108953F0108953F0108953F0108DC
:1000B000953F0108953F0108953F0108953F0108CC
:1000C000953F0108953F0108953F0108953F0108BC
:1000D000953F0108953F0108953F0108953F0108AC
:1000E000953F0108953F010800000000953F010879
:1000F000953F0108953F0108953F0108953F01088C
:10010000953F0108953F0108953F0108953F01087B
:10011000953F0108953F0108953F0108953F01086B
:10012000953F0108953F0108953F0108953F01085B
:10013000953F0108953F0108953F01080000000028
:10014000953F0108953F0108953F0108953F01083B
:10015000953F0108953F0108B53B0008953F010810
:10016000953F0108953F0108953F0108953F01081B
:10017000953F0108953F01080000000000000000C5
:10018000953F0108953F0108953F0108953F0108FB
:10019000953F0108953F01080000000000000000A5
:1001A0000000000000000000953F0108953F010895
:1001B000953F010800000000953F01080000000085
:1001C000034613F8012B002AFBD1181A0138704797
:1001D00001F0FF01102A2BDB10F0070F08D010F8F8
:1001E000013B013A8B422DD010F0070F42B3F6D1FC
:1001F000F0B441EA012141EA014122F007047FF015
:1002000000070023F0E80256083C85EA010586EA6B
:10021000010685FA47F5A3FA87F586FA47F6A5FAA7
:1002200087F68EB9EED1F0BC01F0FF0102F00702B3
:1002300032B110F8013B013A83EA010313B1F8D15E
:100240000020704701387047002D06BF354603383F
:10025000073815F0010F07D1013015F4807F02BF78
:10026000013015F4C03F0130F0BC0138704700BFC9
:1002700081F0004102E000BF83F0004330B54FEA57
:1002800041044FEA430594EA050F08BF90EA020FC4
:100290001FBF54EA000C55EA020C7FEA645C7FEA57
:1002A000655C00F0E2804FEA5454D4EB5555B8BF7A
:1002B0006D420CDD2C4480EA020281EA030382EAEB
:1002C000000083EA010180EA020281EA0303362D7D
:1002D00088BF30BD11F0004F4FEA01314FF4801C50
:1002E0004CEA113102D0404261EB410113F0004F62
:1002F0004FEA03334CEA133302D0524263EB430319
:1003000094EA050F00F0A780A4F10104D5F1200EB6
:100310000DDB02FA0EFC22FA05F2801841F1000111
:1003200003FA0EF2801843FA05F359410EE0A5F1E5
:1003300020050EF1200E012A03FA0EFC28BF4CF016
:10034000020C43FA05F3C01851EBE37101F00045CC
:1003500007D54FF0000EDCF1000C7EEB00006EEBD9
:100360000101B1F5801F1BD3B1F5001F0CD3490863
:100370005FEA30004FEA3C0C04F101044FEA4452BA
:1003800012F5800F80F09A80BCF1004F08BF5FEA41
:10039000500C50F1000041EB045141EA050130BD21
:1003A0005FEA4C0C404141EB0101013C28BFB1F533
:1003B000801FE9D291F0000F04BF01460020B1FA7E
:1003C00081F308BF2033A3F10B03B3F120020CDA51
:1003D0000C3208DD02F1140CC2F10C0201FA0CF02F
:1003E00021FA02F10CE002F11402D8BFC2F1200C94
:1003F00001FA02F120FA0CFCDCBF41EA0C0190404A
:10040000E41AA2BF01EB0451294330BD6FEA040492
:100410001F3C1CDA0C340EDC04F11404C4F120027D
:1004200020FA04F001FA02F340EA030021FA04F38F
:1004300045EA030130BDC4F10C04C4F1200220FAE6
:1004400002F001FA04F340EA0300294630BD21FA24
:1004500004F0294630BD94F0000F83F4801306BFEA
:1004600081F480110134013D4EE77FEA645C18BFDE
:100470007FEA655C29D094EA050F08BF90EA020F75
:1004800005D054EA000C04BF1946104630BD91EA6D
:10049000030F1EBF0021002030BD5FEA545C05D170
:1004A0004000494128BF41F0004130BD14F58004AF
:1004B0003CBF01F5801130BD01F0004545F0FE4123
:1004C00041F470014FF0000030BD7FEA645C1ABF58
:1004D000194610467FEA655C1CBF0B46024650EA8F
:1004E000013406BF52EA033591EA030F41F40021BB
:1004F00030BD00BF90F0000F04BF0021704730B541
:100500004FF4806404F132044FF000054FF0000115
:1005100050E700BF90F0000F04BF0021704730B5D6
:100520004FF4806404F1320410F0004548BF4042AB
:100530004FF000013EE700BF42004FEAE2014FEA00
:1005400031014FEA02701FBF12F07F4393F07F4FDB
:1005500081F06051704732F07F4208BF704793F0DE
:100560007F4F04BF41F40021704730B54FF46074F1
:1005700001F0004521F000411CE700BF50EA0102F4
:1005800008BF704730B54FF000050AE050EA01029D
:1005900008BF704730B511F0004502D5404261EB0D
:1005A00041014FF4806404F132045FEA915C3FF44E
:1005B000D8AE4FF003025FEADC0C18BF03325FEAEB
:1005C000DC0C18BF033202EBDC02C2F1200300FA9C
:1005D00003FC20FA02F001FA03FE40EA0E0021FAC1
:1005E00002F11444BDE600BF70B54FF0FF0C4CF4AF
:1005F000E06C1CEA11541DBF1CEA135594EA0C0F61
:1006000095EA0C0F00F0DEF82C4481EA030621EA9B
:100610004C5123EA4C5350EA013518BF52EA0335D6
:1006200041F4801143F4801338D0A0FB02CE4FF088
:100630000005E1FB02E506F00042E0FB03E54FF0B8
:100640000006E1FB03569CF0000F18BF4EF0010EB0
:10065000A4F1FF04B6F5007F64F5407404D25FEAAC
:100660004E0E6D4146EB060642EAC62141EA55515F
:100670004FEAC52040EA5E504FEACE2EB4F1FD0CA1
:1006800088BFBCF5E06F1ED8BEF1004F08BF5FEA1F
:10069000500E50F1000041EB045170BD06F00046D1
:1006A00046EA010140EA020081EA0301B4EB5C047E
:1006B000C2BFD4EB0C0541EA045170BD41F4801176
:1006C0004FF0000E013C00F3AB8014F1360FDEBF9B
:1006D000002001F0004170BDC4F10004203C35DA77
:1006E0000C341BDC04F11404C4F1200500FA05F3FA
:1006F00020FA04F001FA05F240EA020001F000429B
:1007000021F0004110EBD37021FA04F642EB060110
:100710005EEA430E08BF20EAD37070BDC4F10C043A
:10072000C4F1200500FA04F320FA05F001FA04F2FE
:1007300040EA020001F0004110EBD37041F10001EA
:100740005EEA430E08BF20EAD37070BDC4F12005F5
:1007500000FA05F24EEA020E20FA04F301FA05F25D
:1007600043EA020321FA04F001F0004121FA04F205
:1007700020EA020000EBD3705EEA430E08BF20EAD5
:10078000D37070BD94F0000F0FD101F0004640000F
:1007900041EB010111F4801F08BF013CF7D041EA91
:1007A000060195F0000F18BF704703F00046520095
:1007B00043EB030313F4801F08BF013DF7D043EA66
:1007C0000603704794EA0C0F0CEA135518BF95EA1C
:1007D0000C0F0CD050EA410618BF52EA4306D1D1A3
:1007E00081EA030101F000414FF0000070BD50EAC2
:1007F000410606BF1046194652EA430619D094EA4C
:100800000C0F02D150EA013613D195EA0C0F05D135
:1008100052EA03361CBF104619460AD181EA030189
:1008200001F0004141F0FE4141F470014FF0000041
:1008300070BD41F0FE4141F4780170BD70B54FF0DC
:10084000FF0C4CF4E06C1CEA11541DBF1CEA13555C
:1008500094EA0C0F95EA0C0F00F0A7F8A4EB05043E
:1008600081EA030E52EA03354FEA013100F0888035
:100870004FEA03334FF0805545EA131343EA1263FE
:100880004FEA022245EA111545EA10654FEA0026B3
:100890000EF000419D4208BF964244F1FD0404F56C
:1008A000407402D25B084FEA3202B61A65EB0305C8
:1008B0005B084FEA32024FF480104FF4002CB6EB85
:1008C000020E75EB030E22BFB61A754640EA0C0005
:1008D0005B084FEA3202B6EB020E75EB030E22BF45
:1008E000B61A754640EA5C005B084FEA3202B6EB86
:1008F000020E75EB030E22BFB61A754640EA9C0045
:100900005B084FEA3202B6EB020E75EB030E22BF14
:10091000B61A754640EADC0055EA060E18D04FEAD2
:10092000051545EA16754FEA06164FEAC30343EA72
:1009300052734FEAC2025FEA1C1CC0D111F4801F3F
:100940000BD141EA00014FF000004FF0004CB6E738
:1009500011F4801F04BF01430020B4F1FD0C88BFD7
:10096000BCF5E06F3FF6AFAEB5EB030C04BFB6EBE2
:10097000020C5FEA500C50F1000041EB045170BDD5
:100980000EF0004E4EEA113114EB5C04C2BFD4EB02
:100990000C0541EA045170BD41F480114FF0000E86
:1009A000013C90E645EA060E8DE60CEA135594EA02
:1009B0000C0F08BF95EA0C0F3FF43BAF94EA0C0F05
:1009C0000AD150EA01347FF434AF95EA0C0F7FF47A
:1009D00025AF104619462CE795EA0C0F06D152EACE
:1009E00003353FF4FDAE1046194622E750EA4106B2
:1009F00018BF52EA43067FF4C5AE50EA41047FF4C3
:100A00000DAF52EA43057FF4EBAE12E74FF0FF3C27
:100A100006E000BF4FF0010C02E000BF4FF0010CF8
:100A20004DF804CD4FEA410C7FEA6C5C4FEA430C71
:100A300018BF7FEA6C5C1BD001B050EA410C0CBFC0
:100A400052EA430C91EA030F02BF90EA020F002022
:100A5000704710F1000F91EA030F58BF994208BF89
:100A600090422CBFD8176FEAE37040F00100704746
:100A70004FEA410C7FEA6C5C02D150EA013C07D19D
:100A80004FEA430C7FEA6C5CD6D152EA033CD3D0E8
:100A90005DF8040B704700BF8446104662468C46E2
:100AA0001946634600E000BF01B5FFF7B7FF002815
:100AB00048BF10F1000F01BD4DF808EDFFF7F4FF3E
:100AC0000CBF012000205DF808FB00BF4DF808EDC9
:100AD000FFF7EAFF34BF012000205DF808FB00BFEC
:100AE0004DF808EDFFF7E0FF94BF012000205DF80E
:100AF00008FB00BF4DF808EDFFF7CEFF94BF0120C3
:100B000000205DF808FB00BF4DF808EDFFF7C4FFBB
:100B100034BF012000205DF808FB00BF4FEA410C04
:100B20007FEA6C5C02D150EA013C0AD14FEA430CE7
:100B30007FEA6C5C02D152EA033C02D14FF0000024
:100B400070474FF0010070474FEA410212F5001262
:100B500015D211D56FF47873B3EB625212D94FEA04
:100B6000C12343F0004343EA505311F0004F23FAEE
:100B700002F018BF404270474FF00000704750EA43
:100B8000013005D111F0004008BF6FF00040704700
:100B90004FF00000704700BF4A0011D212F500125A
:100BA00011D20DD56FF47873B3EB62520ED44FEAC5
:100BB000C12343F0004343EA505323FA02F0704745
:100BC0004FF00000704750EA013002D14FF0FF3083
:100BD00070474FF00000704753B94AB9002908BF69
:100BE00000281CBF4FF0FF314FF0FF3000F0E2B89B
:100BF000ADF1080C6DE904CE18F056FFDDF804E005
:100C0000DDE9022304B0704700F1340191E83800B7
:100C10009C46A6464CF8045D90E8FF0FE54600BDF3
:100C200090EC210B704700BF80EC210B704700BF98
:100C300090EC200B704700BF80EC200B704700BF8A
:100C4000D0EC200B704700BFC0EC200B704700BFFA
:100C5000F0EC0201F0EC0211F0EC0221F0EC0231B8
:100C6000F0EC0241F0EC0251F0EC0261F0EC0271A8
:100C7000F0EC0281F0EC0291F0EC02A1F0EC02B198
:100C8000F0EC02C1F0EC02D1F0EC02E1F0EC02F188
:100C9000704700BFE0EC0201E0EC0211E0EC022141
:100CA000E0EC0231E0EC0241E0EC0251E0EC0261E8
:100CB000E0EC0271E0EC0281E0EC0291E0EC02A1D8
:100CC000E0EC02B1E0EC02C1E0EC02D1E0EC02E1C8
:100CD000E0EC02F1704700BFB0FC0181B0FC019173
:100CE000B0FC01A1B0FC01B1704700BFA0FC0181C4
:100CF000A0FC0191A0FC01A1A0FC01B1704700BFC4
:100D0000EC4600B52DE900502DE9FF1F4FF0000320
:100D10002DE90C0001A919F07BF9DDF840E012B0D3
:100D2000704700BFEC4600B52DE900502DE9FF1FCC
:100D30004FF000032DE90C0001A919F0A5F9DDF829
:100D400040E012B0704700BFEC4600B52DE90050FE
:100D50002DE9FF1F4FF000032DE90C0001A919F048
:100D6000B5F9DDF840E012B0704700BFEC4600B5C1
:100D70002DE900502DE9FF1F4FF000032DE90C0075
:100D800001AB19F079F9DDF840E012B0704700BF0F
:100D9000EC4600B52DE900502DE9FF1F4FF0000390
:100DA0002DE90C0001AA19F0E5F9DDF840E012B0D8
:100DB000704700BF704700BF10B5054C237833B9AA
:100DC000044B13B10448AFF300800123237010BD1E
:100DD000C0040020000000002CAA010808B5034B45
:100DE0001BB103490348AFF3008008BD00000000B9
:100DF000C40400202CAA0108B0B586B000AF034699
:100E00000A46FB801346BB80FB88012B02D0022BD5
:100E10006FD093E0BB881846FFF77CFB50A3D3E963
:100E20000023FFF7E1FB02460B46C7E90423D7E99D
:100E3000042353A1D1E90001FFF71EFA02460B4635
:100E40001046194650A3D3E90023FFF7F7FC0246EA
:100E50000B46D7E90401FFF7F1FC02460B46C7E950
:100E6000022397ED020B17F03FFB51EC100B48A348
:100E7000D3E90023FFF7B8FB02460B46104619469C
:100E800045A3D3E90023FFF7F9F902460B461446C0
:100E90001D4697ED020B17F027FBB0EE407AF0EEFF
:100EA000607A9FED2B1BB0EE470AF0EE670A17F051
:100EB0005FFB51EC100B3AA3D3E90023FFF794FB3F
:100EC00002460B4620462946FFF7D8F902460B4654
:100ED0004FF000002849FFF7B1FC02460B461046D0
:100EE00019461DA3D3E90023FFF7C6F902460B46B6
:100EF00025E0BB881846FFF70DFB19A3D3E90023B3
:100F0000FFF772FB02460B4617A1D1E90001FFF77C
:100F1000B3F902460B461046194615A3D3E9002340
:100F2000FFF78CFC02460B46104619464FF00002B4
:100F3000124BFFF7A3F902460B4600E001E043EC39
:100F4000172BB0EE470AF0EE670A1837BD46B0BD62
:100F50000000000000000840666666666612714088
:100F60006666666666660A3F52B81E85EB51E83FC4
:100F70007B14AE47E17A643F0000F03F00003E4042
:100F80006666666666660A40000000000088C34028
:100F90000395F1EF332E2C3FD7F7E12021CA473FCD
:100FA000B905B0A0E7517C3E80B483B000AF0346E2
:100FB0000A46FB801346BB80FB88002B02D0012B26
:100FC00004D007E0064ABB88936303E0044ABB8869
:100FD000536300BF00BF0C37BD465DF8047B70470C
:100FE0000004004080B483B000AF03460A46FB8093
:100FF0001346BB80FB88002B03D1054ABB88D36313
:1010000000BF00BF0C37BD465DF8047B704700BFD2
:10101000000400400000000080B584B000AF87ED00
:10102000020B78600B467B8013463B80CAA3D3E952
:101030000023D7E90201FFF75DFD0346002B0AD12B
:10104000C7A3D3E90023D7E90201FFF749FD03460F
:10105000002B00F0518101F04DF903461A467B68E0
:10106000D21A3B889A42C0F04B813B88002B00F09B
:101070004781AD4B01221A704FF000024FF0000380
:10108000D7E90201FFF722FD0346002B00F099800B
:101090007B88032B00F22C8101A252F823F000BFC1
:1010A0002711000875110008B1100008EB100008A6
:1010B000012208219D4804F005FE9D4BD3E9000163
:1010C00093A3D3E90023FFF7D7F802460B469849CC
:1010D000C1E900230121974804F00CFE01F00AF950
:1010E00003461A46944B1A6005E100224FF48071C2
:1010F0008E4804F0E7FD914BD3E9000186A3D3E9C4
:101100000023FFF7B9F802460B468C49C1E90023DA
:101110000221884804F0EEFD01F0ECF803461A467F
:10112000874B1A60E7E000220221804804F0CAFDE4
:10113000002204217D4804F0C5FD824BD3E9000163
:1011400077A3D3E90023FFF797F802460B467D49C2
:10115000C1E9002340217C4804F0CCFD80214FF000
:10116000904004F0C7FD01F0C5F803461A46774BDE
:101170001A60C0E0002202216C4804F0A3FD0122A5
:1011800004216A4804F09EFD714BD3E9000164A379
:10119000D3E90023FFF770F802460B466C49C1E91A
:1011A00000234021684804F0A5FD80214FF09040C5
:1011B00004F0A0FD01F09EF803461A46654B1A6044
:1011C00099E07B88032B00F2958001A252F823F06E
:1011D00055120008A3120008E11100081B120008B4
:1011E00000220821514804F06DFD514BD3E9000164
:1011F00047A3D3E90023FFF741F802460B464C49C9
:10120000C1E9002301214B4804F074FD01F072F89C
:1012100003461A46484B1A606DE001224FF4807174
:10122000424804F04FFD454BD3E900013AA3D3E90E
:101230000023FFF723F802460B464049C1E900238B
:1012400002213C4804F056FD01F054F803461A46CA
:101250003B4B1A6001220221344804F033FD012285
:101260000421324804F02EFD364BD3E900012CA3B3
:10127000D3E90023FFF702F802460B463149C1E9E2
:1012800000234021304804F035FD80214FF090408C
:1012900004F030FD01F02EF803461A462B4B1A607D
:1012A00029E001220221214804F00CFD0022042142
:1012B0001E4804F007FD264BD3E9000118A3D3E92B
:1012C0000023FEF7DBFF02460B462149C1E900235C
:1012D00040211D4804F00EFD80214FF0904004F0A5
:1012E00009FD01F007F803461A461A4B1A6002E09E
:1012F00000BF05E000BF03E00B4B00221A7000E0C6
:1013000000BF00BF1037BD4680BD00BFAFF30080F7
:10131000000000A0D091533F000000402D3A3B3F19
:1013200000000060CBC6853F000500200014004887
:10133000E00400200004004804050020F804002018
:1013400010050020E80400200008004808050020DF
:10135000F00400200C050020FA7E6ABC7493883FDC
:10136000FA7E6ABC749388BFB0B59AB000AF87EDBF
:101370000C0B87ED0A1BD7E90A23D7E90C01FEF70E
:101380007DFF02460B46C7E91823D7E90A23D7E9B0
:101390000C01FEF771FF02460B46C7E916233B6EB0
:1013A0003B627B6E23F000437B623C6E7B6E23F0DE
:1013B0000045BB6DBB61FB6D23F00043FB61D7E9CA
:1013C000062320462946FEF759FF02460B46D7E979
:1013D0000801FFF733FA02460B46C7E91423BB6D39
:1013E0003B61FB6D23F000437B613B6EBB607B6E1A
:1013F00023F00043FB60BB6D3B60FB6D23F00043BB
:101400007B60D7E90023D7E90201FEF737FF0246E8
:101410000B46D7E90401FFF711FA02460B46C7E96C
:101420001223A74B1B881846FFF764F802460B46A9
:101430004FF00000A349FFF701FA02460B461046A1
:1014400019464FF00002A04BFFF7CEF802460B46BC
:101450001046194694A3D3E90023FFF7C5F80246C6
:101460000B461046194692A3D3E90023FFF7E6F98D
:1014700002460B46104619468FA3D3E90023FFF717
:10148000B3F802460B4610461946D7E91423FFF776
:10149000D5F902460B4610461946FFF77DFB034679
:1014A0007B64874B1B881846FFF724F802460B46DF
:1014B0004FF000008349FFF7C1F902460B46104682
:1014C00019464FF00002804BFFF78EF802460B469C
:1014D0001046194674A3D3E90023FFF785F80246A6
:1014E0000B461046194672A3D3E90023FFF7A6F96D
:1014F00002460B46104619466FA3D3E90023FFF7B7
:1015000073F802460B4610461946D7E91223FFF737
:1015100095F902460B4610461946FFF73DFB034678
:101520003B6461A3D3E90023D7E91801FFF786F9EB
:1015300002460B46104619465DA3D3E90023FFF788
:1015400053F802460B4610461946FFF7FDFA0346CC
:10155000002BB8BF5B42FB8753A3D3E90023D7E935
:101560001601FFF76BF902460B461046194650A3C9
:10157000D3E90023FFF738F802460B461046194618
:10158000FFF7E2FA0346002BB8BF5B42BB874F4B25
:101590001B88FA8F9A422FD300F0ACFE03461A46FE
:1015A0004B4B1B68D31A7A6C9A4225D84FF0000235
:1015B0004FF00003D7E91801FFF788FA0346002B24
:1015C00005D001220221434804F07CFB04E0002204
:1015D0000221404804F076FB40213F4804F08AFB9A
:1015E00000F088FE03461A46394B1A60374B1B88B9
:1015F00001339AB2354B1A80384B1B88BA8F9A4206
:1016000030D300F077FE03461A46354B1B68D31AD9
:101610003A6C9A4226D84FF000024FF00003D7E907
:101620001601FFF753FA0346002B05D001220421CF
:10163000284804F047FB04E000220421254804F078
:1016400041FB80214FF0904004F054FB00F052FE2B
:1016500003461A46224B1A60204B1B8801339AB26C
:101660001E4B1A80BA8F1D4B1B88013B9A4214D126
:10167000FA8F164B1B88013B9A420ED1194BD3E9C6
:1016800000231949C1E90023184BD3E90023184965
:10169000C1E90023174B00221A7000BF6837BD460E
:1016A000B0BD00BFAFF30080000000205C47514098
:1016B000000000000064B9400000000080842E415A
:1016C000240500200000F03F00004E4000000020F4
:1016D0001405002000140048000800480200002003
:1016E0001805002030050020E804002038050020FF
:1016F000F00400200005002080B582B000AF034652
:101700000A46FB801346BB8000F000FE00BF08378E
:10171000BD4680BD80B483B000AF0346FB80FB882C
:101720001A465201D21A92001344DB009BB21846AB
:101730000C37BD465DF8047B7047000000000000D8
:101740002DE9B04394B000AF794B01221A70794B68
:10175000D3E90001784BD3E90023FEF78DFD024663
:101760000B46C7E91223754BD3E90001744BD3E94B
:101770000023FEF781FD02460B46C7E91023714B9B
:10178000D3E90001704BD3E90023FEF775FD024653
:101790000B46C7E90E236D4BD3E900016C4BD3E92F
:1017A0000023FEF769FD02460B46C7E90C23D7E983
:1017B0000E23D7E90E01FEF717FF02460B469046AF
:1017C0009946D7E90C23D7E90C01FEF70DFF024635
:1017D0000B4640464946FEF751FD02460B4643EC98
:1017E000172BB0EE470AF0EE670A16F039FF87EDC7
:1017F0000A0BD7E90A23D7E90E01FFF71FF80246C3
:101800000B46C7E90823D7E90A23D7E90C01FFF7FC
:1018100015F802460B46C7E906234E4B1B881846AF
:10182000FEF768FE02460B464FF000004A49FFF7FC
:1018300005F802460B46104619464FF00002474B8A
:10184000FEF7D2FE02460B46104619464FF0000244
:10185000434BFEF7C9FE02460B46104619462EA31F
:10186000D3E90023FEF7EAFF02460B46104619466D
:101870002BA3D3E90023FEF7B7FE02460B46104622
:101880001946FFF789F903467B61364B1B687A6975
:1018900092B20321184697ED100BFFF7BDFB324BB8
:1018A0001B687A6992B20221184697ED120BFFF776
:1018B000B3FBBB6BBB60FB6B23F00043FB601AA365
:1018C000D3E90023D7E90201FFF71EF90346002BF5
:1018D0000ED13C6B7B6B23F0004513A3D3E90023AF
:1018E00020462946FFF710F90346002B00D10BE0F4
:1018F0003B6B3B607B6B83F000437B6097ED001B91
:1019000097ED0E0BFFF730FD00BF5037BD46BDE829
:10191000B08300BFAFF300800000000000CED240D3
:101920000000000080842E41FA7E6ABC7493883FD8
:101930000005002028050020E004002040050020CC
:10194000F804002030050020E804002038050020BD
:10195000F0040020240500200000F03F00004E406D
:1019600000003740100500200405002000000000A2
:10197000B0B582B000AF284B5B689BB2194601201E
:10198000FFF73AFA53EC102B10461946FFF704F90B
:101990000346FB80214B1B88FA889A422DD8FB888E
:1019A0001846FEF7A7FD1AA3D3E90023FEF71CFE95
:1019B00002460B4614461D46184B1B881846FEF778
:1019C00099FD02460B4620462946FEF757FC024683
:1019D0000B46104619464FF00002114BFEF74EFC25
:1019E00002460B4610461946FFF7D6F803469BB24F
:1019F00019460020FFF7D8FA03E000210020FFF786
:101A0000D3FA00BF0837BD46B0BD00BFAFF30080BA
:101A1000000000C0CCCCECBF480F002048050020DF
:101A20000000594080B582B000AF0346FB80FB88C0
:101A300019460020FFF7D6FA00BF0837BD4680BD23
:101A4000B0B582B000AF284B1B689BB2194600208E
:101A5000FFF7D2F953EC102B10461946FFF79CF80C
:101A60000346FB80214B1B88FA889A422DD8FB88BD
:101A70001846FEF73FFD1AA3D3E90023FEF7B4FD95
:101A800002460B4614461D46184B1B881846FEF7A7
:101A900031FD02460B4620462946FEF7EFFB024683
:101AA0000B46104619464FF00002114BFEF7E6FBBD
:101AB00002460B4610461946FFF76EF803469BB2E6
:101AC00019460120FFF770FA03E000210120FFF71B
:101AD0006BFA00BF0837BD46B0BD00BFAFF3008052
:101AE000000000C0CCCCECBF480F00204A0500200D
:101AF0000000594080B400AF1A4B01221A701A49F5
:101B00004FF000024FF00003C1E9002317494FF0E6
:101B100000024FF00003C1E9002315494FF0000215
:101B20004FF00003C1E9002312494FF000024FF0CB
:101B30000003C1E9002310494FF000024FF00003F9
:101B4000C1E900230D494FF000024FF00003C1E945
:101B50000023044B00221A7000BFBD465DF8047BD1
:101B6000704700BF00050020E00400202805002089
:101B7000E804002030050020F00400203805002093
:101B800080B500AF00224FF48051024804F09AF86B
:101B900000BF80BD0018004880B582B000AF03468A
:101BA000FB71FB7901220121184600F0DBFB00BF2D
:101BB0000837BD4680BD000080B582B000AF034647
:101BC000FB7100224FF480510B4804F07BF8002297
:101BD0004FF40051084804F075F8FB791846FFF7F8
:101BE000DBFF01224FF48051034804F06BF800BF83
:101BF0000837BD4680BD00BF0018004880B582B0E0
:101C000000AF0346FB7101224FF400510B4804F072
:101C100059F800224FF48051084804F053F8FB793A
:101C20001846FFF7B9FF01224FF48051034804F032
:101C300049F800BF0837BD4680BD00BF0018004806
:101C400080B500AF01224FF480410B4804F03AF810
:101C5000C82002F03FF800224FF48051064804F0FB
:101C600031F8C82002F036F801224FF480410248D2
:101C700004F028F800BF80BD0018004880B584B08B
:101C800000AF0346FB71FB79FB733620FFF794FF2F
:101C9000012002F01FF8FB7B032B37D801A252F87A
:101CA00023F000BFB51C0008CB1C0008E11C000895
:101CB000F71C00084820FFF7A1FF174BF0221A80FD
:101CC000164B4FF4A0721A8021E02820FFF796FFF0
:101CD000114B4FF4A0721A80104BF0221A8016E0BC
:101CE0008820FFF78BFF0C4BF0221A800B4B4FF430
:101CF000A0721A800BE0E820FFF780FF064B4FF43C
:101D0000A0721A80054BF0221A8000E000BF00BFCD
:101D10001037BD4680BD00BF060000200400002033
:101D200080B500AF01224FF48041024803F0CAFFA2
:101D300000BF80BD0018004880B500AFFFF7F0FF7E
:101D4000FFF71EFFFFF77CFF0120FFF735FF4FF481
:101D50007A7001F0BFFFCB20FFF72EFF3920FFF78D
:101D60004DFF2C20FFF74AFF0020FFF747FF3420EC
:101D7000FFF744FF0220FFF741FFCF20FFF71CFFD2
:101D80000020FFF73BFFC120FFF738FF3020FFF7AF
:101D900035FFE820FFF710FF8520FFF72FFF002019
:101DA000FFF72CFF7820FFF729FFEA20FFF704FF59
:101DB0000020FFF723FF0020FFF720FFED20FFF7B3
:101DC000FBFE6420FFF71AFF0320FFF717FF122026
:101DD000FFF714FF8120FFF711FFF720FFF7ECFE5C
:101DE0002020FFF70BFFC020FFF7E6FE2320FFF7C0
:101DF00005FFC120FFF7E0FE1020FFF7FFFEC52022
:101E0000FFF7DAFE3E20FFF7F9FE2820FFF7F6FE87
:101E1000C720FFF7D1FE8620FFF7F0FE3620FFF740
:101E2000CBFE4820FFF7EAFE3A20FFF7C5FE55201B
:101E3000FFF7E4FEB120FFF7BFFE0020FFF7DEFE54
:101E40001820FFF7DBFEB620FFF7B6FE0820FFF7ED
:101E5000D5FE8220FFF7D2FE2720FFF7CFFEF2202B
:101E6000FFF7AAFE0020FFF7C9FE2620FFF7A4FE19
:101E70000120FFF7C3FEE020FFF79EFE0F20FFF7D3
:101E8000BDFE3120FFF7BAFE2B20FFF7B7FE0C2076
:101E9000FFF7B4FE0E20FFF7B1FE0820FFF7AEFEFD
:101EA0004E20FFF7ABFEF120FFF7A8FE3720FFF72B
:101EB000A5FE0720FFF7A2FE1020FFF79FFE0320DC
:101EC000FFF79CFE0E20FFF799FE0920FFF796FE14
:101ED0000020FFF793FEE120FFF76EFE0020FFF7E2
:101EE0008DFE0E20FFF78AFE1420FFF787FE0320E9
:101EF000FFF784FE1120FFF781FE0720FFF77EFE2B
:101F00003120FFF77BFEC120FFF778FE4820FFF766
:101F100075FE0820FFF772FE0F20FFF76FFE0C2002
:101F2000FFF76CFE3120FFF769FE3620FFF766FEF3
:101F30000F20FFF763FE1120FFF73EFE782001F02F
:101F4000C9FE2920FFF738FE0020FFF797FE00BFEB
:101F500080BD000080B400AF074B4FF6FF721A80BF
:101F6000064B00221A80064B00221A8000BFBD4695
:101F70005DF8047B704700BF1C0500201E05002093
:101F80002005002080B584B000AF78603D4BFB6039
:101F9000786800F089F8F968786813F0E5FAB860B5
:101FA000BB681B78472B42D04D2B5FD1012001F03D
:101FB00091FE7B680133184611F0F0FF03469B2B1E
:101FC0002AD09B2B51DC8C2B1FD08C2B4DDC6A2B09
:101FD00015D06A2B49DC682B0AD0692B45D12A4BD6
:101FE0001B882A4A128811461846FFF785FB1DE018
:101FF000274B1A88274B1A80FFF7BAFC16E0244BB0
:102000001B881846FFF70EFD10E0214B1A88224B63
:102010001A80FFF715FD09E01D4B1B881846FFF7D6
:1020200079FB03461A461D4B1A8000BF1DE00120B4
:1020300001F050FE7B680133184611F0AFFF0346F4
:10204000012B02DC002B03DA10E01C2B09D00DE081
:10205000134B01221A80134B01221A80FFF770FBE9
:1020600002E0FFF747FD00BF00E000BFFFF772FF8F
:1020700004220021B86811F0C7FF00BF1037BD4629
:1020800080BD00BF48AA01081C0500201E050020D5
:1020900020050020480500204A05002022050020D8
:1020A000000000200200002080B584B000AF7860FE
:1020B000012001F00FFE5449786813F055FAF860DA
:1020C00098E0FB681B78453B152B00F28B8001A242
:1020D00052F823F0CB21000869210008E52100080F
:1020E000E5210008E5210008E5210008E5210008B8
:1020F000E5210008E5210008E5210008E5210008A8
:10210000E5210008E52100082D21000855210008DF
:1021100041210008E5210008E5210008E52100082B
:102120007D21000897210008B1210008FB680133D8
:10213000184611F033FF03469AB2344B1A8051E02F
:10214000FB680133184611F029FF03469AB2304B61
:102150001A8047E0FB680133184611F01FFF034661
:102160009AB22C4B1A803DE0FB680133184611F0FF
:1021700015FF03469AB2284B1A8033E0FB680133FF
:10218000184611F008FFB0EE407AF0EE607A234B6B
:1021900083ED007B26E0FB680133184611F0FBFE5F
:1021A000B0EE407AF0EE607A1D4B83ED007B19E0D3
:1021B000FB680133184611F0EEFEB0EE407AF0EE07
:1021C000607A184B83ED007B0CE0FB680133184606
:1021D00011F0E1FEB0EE407AF0EE607A124B83ED42
:1021E000007B00BF012001F075FD0749002013F0BE
:1021F000BBF9F860FB68002B7FF463AF00BF00BF42
:102200001037BD4680BD00BF48AA01081C0500204C
:102210001E05002020050020240500203005002098
:102220003805002040050020280500200FB480B5A7
:1022300082B000AF07F114033B603B683A694FF48A
:1022400080710B4813F0A4FA0948FDF7B9FF034663
:102250007B607B689AB24FF0FF330549054808F070
:10226000E7F800BF0837BD46BDE8804004B07047BE
:10227000E4100020B006002080B582B000AF786086
:102280000B467B807B681B68094A93420CD128224D
:102290000849094809F0A6FC084B1B681A68074B57
:1022A0001B6822F004021A6000BF0837BD4680BDDB
:1022B000008000406C050020B0060020D007002000
:1022C00080B483B000AF0346FB80094B1B6800223B
:1022D0005A6200BF064B1B685A6AFB889A42F9D3C0
:1022E00000BF00BF0C37BD465DF8047B704700BFE0
:1022F000A409002080B400AF034B1B685B6A18463A
:10230000BD465DF8047B7047F009002080B582B0BF
:1023100002AF104B5B689BB219460120FEF76CFDC3
:1023200051EC100B0B4B5B68009302460B460A49BD
:102330000A4812F0D7FA0948FDF742FF03469AB25D
:102340004FF0FF330549064808F072F800BFBD465C
:1023500080BD00BF480F00204CAA01084C0500209A
:10236000B006002080B584B000AFF8600B467A60FC
:102370007B817A8907F10C017B68034806F065FAD6
:1023800000BF1037BD4680BD4408002080B5ADF5C4
:10239000966D00AF01F02AFC00F00AFA00F07CFE16
:1023A00000F048FE00F03AFB00F01AFE00F07CFD61
:1023B00000F084FB00F0E0FC00F04EFA00F0C2FDFB
:1023C00000F05AFC00F0DCFB00F0C4FB00F0E6FA81
:1023D00000F014FC0EF05EFF0021BA4807F03CF854
:1023E0000421B84807F038F80821B64807F034F857
:1023F0000322B549B54801F0CBFFB54806F062FFAE
:10240000B44806F05FFF2822B349B44809F0EAFB5C
:10241000B34B1B681A68B24B1B6822F004021A60A7
:1024200028220021AC4811F0EFFDFFF793FD0023B7
:10243000C7F8AC340023C7F8A0340023C7F8A83489
:10244000FFF77AFCA74B1B68A74AC3F85C21A54B92
:102450001B68522283F8602100224FF48061A34858
:1024600003F030FC142001F035FC01224FF48061B0
:102470009E4803F027FC142001F02CFC994B1B68AC
:1024800018460AF009FA974B1B68184609F01EFF18
:10249000944B1B6818460AF07DF8924B1B6807F2B4
:1024A0008D4207F28E4118460AF014FF8D4B1B68CF
:1024B00007F28F4207F5926118460BF097FB894BA4
:1024C0001B68002118460AF085FA864B1B6801221A
:1024D000002118460AF0F8FC824B1B6801220121FA
:1024E00018460AF0F1FC7F4B1B6841F69912012156
:1024F00018460AF099FD7B4B1B684FF470120021BF
:1025000018460AF091FD774B1B68794918460AF086
:10251000BFFA744B1B681222002118460AF0DEFA3B
:10252000704B1B680E22012118460AF0D7FA07F5F6
:10253000177301226F49184611F072F8034687F8A5
:10254000A73413E097F8A73419466B48FFF76EFEDF
:102550004FF4FA7001F0BEFB07F5177301226549CD
:10256000184611F05DF8034687F8A73497F8A734AA
:10257000002BE7D107F1240207F1280319465D4833
:1025800011F091FB034687F8A73414E097F8A734BD
:1025900019465A48FFF74AFE4FF4FA7001F09AFBC9
:1025A00007F1240207F128031946524811F07BFB7A
:1025B000034687F8A73497F8A734002BE6D107F530
:1025C0009663A3F28C431B685B69023B07F5966236
:1025D000A2F28C421268528902FB03F3C7F89C34C2
:1025E00007F59663A3F28C431B685B891A4607F5CF
:1025F0009663A3F591631B6802FB03F3C7F8983455
:10260000D7F89C345908D7F898345B081A463C48E8
:10261000FFF70CFE07F12C0301223A49184611F08E
:1026200045F8034687F8A73410E03748FFF7FEFD6A
:102630004FF4FA7001F04EFB07F12C0301223149EF
:10264000184611F033F8034687F8A73497F8A734F3
:10265000002BEAD12D48FFF7E9FD1F4B1B78002B1B
:102660000ED02B4B1B7883F00103DBB2002B07D07D
:102670001948FFF787FC28220021174811F0C4FCF5
:10268000234B1B7883F00103DBB2002B4AD007F108
:102690002C023B1D1E21184611F0BAFBC7F894040A
:1026A000D7F89434002B37D03B1D19461948FFF753
:1026B000BDFD3B1D1846FFF765FC4FF4FA7001F0B5
:1026C00009FB2FE058090020480F00209405002046
:1026D000A4090020F00900206C050020B0060020AD
:1026E000D0070020080000205C06002000140048ED
:1026F00080841E0064AA010868AA010880AA010853
:1027000098AA0108E0AA0108F0AA010804AB010890
:102710000005002038AB010897F8A7341946204877
:10272000FFF784FDFFF70CF8FFF722F9FFF788F9B0
:10273000D7F8AC3441F66412934212DC01224FF414
:102740008071184803F0BEFA0221174803F0D2FA4C
:102750004FF41670FFF7B4FDD7F8AC340133C7F867
:10276000AC344FF40051114803F094FA0346012BA6
:102770007FF473AFFFF7BEFD03461A46D7F8A834BF
:10278000D31AB3F5FA6FFFF468AF80214FF0904091
:1027900003F0B0FAFFF7AEFD0346C7F8A8345CE7D4
:1027A0003CAB010800140048000400480008004841
:1027B00080B598B000AF07F11803482200211846F1
:1027C00011F022FC3B1D00221A605A609A60DA6008
:1027D0001A61002004F09AF90346002B01D000F0A2
:1027E00067FD3023BB6101233B6401237B6300232E
:1027F000BB636023FB6302237B640123BB6401236F
:10280000FB643C233B6502237B650223BB650223FB
:10281000FB6507F11803184604F03CFA0346002B49
:1028200001D000F045FD0F237B600323BB60002334
:10283000FB6000233B6100237B613B1D05211846A3
:1028400004F0A4FE0346002B01D000F031FD00BFD0
:102850006037BD4680BD000080B58AB000AF07F18B
:102860001C0300221A605A609A603B1D00221A6005
:102870005A609A60DA601A615A61434B434A1A609F
:10288000414B00225A60404B00229A603E4B00228E
:10289000DA603D4B01221A613B4B04225A613A4BEC
:1028A00000221A76384B01225A76374B0322DA611E
:1028B000354B002283F82020334B00229A62324BA2
:1028C0000022DA62304B012283F830202E4B0022A6
:1028D0005A632D4B012283F838202B4B0C22DA63EC
:1028E000294B00221A64284B00225A64264B0122ED
:1028F0009A64254801F0FAFB0346002B01D000F052
:10290000D7FC0023FB6107F11C0319461E4802F0A7
:102910004BFB0346002B01D000F0CAFC1C4B7B6034
:102920000623BB600623FB607F233B6104237B619E
:102930000023BB613B1D1946134801F0FBFD034614
:10294000002B01D000F0B4FC124B7B600C23BB6069
:102950003B1D19460C4801F0EDFD0346002B01D04C
:1029600000F0A6FC0C4B7B601223BB603B1D19469C
:10297000054801F0DFFD0346002B01D000F098FC74
:1029800000BF2837BD4680BD9405002000000450DC
:102990000200300404006008000052C780B500AF98
:1029A0001B4B1C4A1A601A4B1B4A5A60184B0022D8
:1029B0009A60174B0122DA60154B00221A61144B02
:1029C00000225A61124B00229A61114B0022DA61F7
:1029D0000F4B00221A620E4803F0A6F90346002BA3
:1029E00001D000F065FC0021094803F08FFE03468A
:1029F000002B01D000F05CFC0021054803F0D1FE63
:102A00000346002B01D000F053FC00BF80BD00BF87
:102A10005C06002000540040DB3FB00080B500AFF2
:102A2000244B254A1A60234B4FF4E1325A60214B64
:102A300000229A601F4B0022DA601E4B00221A61AE
:102A40001C4B0C225A611B4B00229A61194B00222D
:102A50001A62184B00225A62164B10229A62154BCA
:102A60004FF48052DA63134B00225A66114807F084
:102A70008FFC0346002B01D000F01AFC00210D480A
:102A800009F034F80346002B01D000F011FC0021BE
:102A9000084809F069F80346002B01D000F008FC53
:102AA000044808F0EAFF0346002B01D000F000FCC8
:102AB00000BF80BDB00600200080004080B500AFA0
:102AC000224B234A1A60214B4FF4E1325A601F4BCC
:102AD00000229A601D4B0022DA601C4B00221A6112
:102AE0001A4B0C225A61194B00229A61174B002293
:102AF000DA61164B00221A62144B00225A62134B01
:102B000000229A62114807F043FC0346002B01D0D3
:102B100000F0CEFB00210D4808F0E8FF0346002B33
:102B200001D000F0C5FB0021084809F01DF803465C
:102B3000002B01D000F0BCFB044808F09EFF0346C8
:102B4000002B01D000F0B4FB00BF80BD4007002087
:102B5000004C004080B500AF074B084A1A60064B96
:102B600000225A60044805F023FD0346002B01D0E3
:102B700000F09EFB00BF80BD30080020000806501A
:102B800080B500AF1B4B1C4A1A601A4B4FF482727F
:102B90005A60184B00229A60164B4FF4E062DA60DC
:102BA000144B00221A61134B00225A61114B4FF44F
:102BB00000729A610F4B0822DA610E4B00221A62F2
:102BC0000C4B00225A620B4B00229A62094B0722DF
:102BD000DA62084B00221A63064B08225A63054842
:102BE00005F090FD0346002B01D000F061FB00BF13
:102BF00080BD00BF440800200030014080B500AF18
:102C00001B4B1C4A1A601A4B4FF482725A60184BC5
:102C100000229A60164B4FF4E062DA60144B0022F7
:102C20001A61134B00225A61114B4FF400729A61E2
:102C30000F4B3822DA610E4B00221A620C4B002235
:102C40005A620B4B00229A62094B0722DA62084B48
:102C500000221A63064B08225A63054805F052FD0C
:102C60000346002B01D000F023FB00BF80BD00BF56
:102C7000A80800200038004080B58EB000AF07F1F2
:102C8000280300221A605A609A60DA6007F11C0378
:102C900000221A605A609A603B4600221A605A600D
:102CA0009A60DA601A615A619A61324B4FF0804241
:102CB0001A60304B77225A602E4B00229A602D4BBF
:102CC000FF22DA602B4B00221A612A4B00229A6104
:102CD000284806F09FFA0346002B01D000F0E8FADE
:102CE0004FF48053BB6207F128031946214806F0D0
:102CF000CDFD0346002B01D000F0DAFA1D4806F0A6
:102D000049FB0346002B01D000F0D2FA0023FB61FF
:102D100000237B6207F11C031946164807F0B0FA3E
:102D20000346002B01D000F0C3FA60233B60002370
:102D30007B600023BB6000233B613B4600221946B9
:102D40000C4806F08FFC0346002B01D000F0B0FACF
:102D50003B4604221946074806F084FC0346002B34
:102D600001D000F0A5FA034800F000FE00BF38379C
:102D7000BD4680BD0C09002080B58EB000AF07F1C4
:102D8000280300221A605A609A60DA6007F11C0377
:102D900000221A605A609A603B4600221A605A600C
:102DA0009A60DA601A615A619A613D4B3D4A1A6035
:102DB0003B4B77225A603A4B00229A60384BFF22F5
:102DC000DA60374B00221A61354B80229A61344811
:102DD00006F020FA0346002B01D000F069FA4FF408
:102DE0008053BB6207F1280319462D4806F04EFDBB
:102DF0000346002B01D000F05BFA294806F0CAFA1E
:102E00000346002B01D000F053FA0023FB6100239E
:102E10007B6207F11C031946214807F031FA03468B
:102E2000002B01D000F044FA60233B6000237B605C
:102E30000023BB6000233B613B4600221946184833
:102E400006F010FC0346002B01D000F031FA3B469F
:102E500004221946124806F005FC0346002B01D057
:102E600000F026FA3B46082219460D4806F0FAFB08
:102E70000346002B01D000F01BFA3B460C221946FA
:102E8000074806F0EFFB0346002B01D000F010FAD4
:102E9000034800F06BFD00BF3837BD4680BD00BF62
:102EA000580900200004004080B588B000AF07F149
:102EB000100300221A605A609A60DA603B1D0022FB
:102EC0001A605A609A601D4B1D4A1A601B4B77228C
:102ED0005A601A4B00229A60184B4FF6FF72DA6064
:102EE000164B00221A61154B00229A61134806F016
:102EF00091F90346002B01D000F0DAF94FF480532A
:102F00003B6107F1100319460C4806F0BFFC03466D
:102F1000002B01D000F0CCF900237B600023FB6084
:102F20003B1D1946054807F0ABF90346002B01D0BD
:102F300000F0BEF900BF2037BD4680BDA4090020C7
:102F40000008004080B588B000AF07F110030022F0
:102F50001A605A609A60DA603B1D00221A605A605B
:102F60009A601D4B1D4A1A601B4B77225A601A4B00
:102F700000229A60184B4FF0FF32DA60164B0022A5
:102F80001A61154B00229A61134806F043F9034673
:102F9000002B01D000F08CF94FF480533B6107F116
:102FA000100319460C4806F071FC0346002B01D0B3
:102FB00000F07EF900237B600023FB603B1D194677
:102FC000054807F05DF90346002B01D000F070F9C9
:102FD00000BF2037BD4680BDF0090020000C004036
:102FE00080B500AF124B4FF0A0421A60104B062282
:102FF0005A600F4B02229A610D4B0122DA610C4B91
:1030000000221A620A4B00225A62094B01229A627C
:10301000074B00221A63064B0122DA62044803F0D0
:103020000CFC0346002B01D000F042F900BF80BD2C
:103030003C0A002080B582B000AF164B9B6C154A4D
:1030400043F004039364134B9B6C03F004037B6015
:103050007B68104B9B6C0F4A43F0010393640D4B4C
:103060009B6C03F001033B603B68002200210B20B6
:1030700002F019F90B2002F032F9002200210C2095
:1030800002F011F90C2002F02AF900BF0837BD4602
:1030900080BD00BF0010024080B58CB000AF07F1CA
:1030A0001C0300221A605A609A60DA601A617B4B36
:1030B000DB6C7A4A43F01003D364784BDB6C03F08B
:1030C0001003BB61BB69754BDB6C744A43F00403AE
:1030D000D364724BDB6C03F004037B617B696F4B41
:1030E000DB6C6E4A43F02003D3646C4BDB6C03F063
:1030F00020033B613B69694BDB6C684A43F080030A
:10310000D364664BDB6C03F08003FB60FB68634BAE
:10311000DB6C624A43F00103D364604BDB6C03F069
:103120000103BB60BB685D4BDB6C5C4A43F0020390
:10313000D3645A4BDB6C03F002037B607B68574B14
:10314000DB6C564A43F04003D364544BDB6C03F012
:1031500040033B603B6803F08DFD002240F2CE51FE
:103160004F4802F0AFFD002280214FF0904002F066
:10317000A9FD002244F283014A4802F0A3FD002287
:1031800047F24041484802F09DFD00224021474857
:1031900002F098FD4FF40053FB614FF488133B623B
:1031A00000237B6207F11C031946404802F0E0FB54
:1031B00040F23123FB6100233B6200237B6207F175
:1031C0001C031946364802F0D3FB40F2CE53FB6194
:1031D00001233B6200237B620023BB6207F11C03D7
:1031E00019462F4802F0C4FB8023FB6101233B6298
:1031F00000237B620023BB6207F11C0319464FF0DA
:10320000904002F0B5FB44F28303FB6101233B6273
:1032100000237B620023BB6207F11C03194621488F
:1032200002F0A6FB2023FB6100233B6200237B62AC
:1032300007F11C0319461C4802F09AFB4FF48863FF
:10324000FB6101233B6200237B620023BB6207F129
:103250001C031946144802F08BFB4023FB61012339
:103260003B6200237B620023BB6207F11C0319460B
:103270000E4802F07DFB4FF4E043FB6101233B620B
:1032800000237B620323BB6207F11C031946064837
:1032900002F06EFB00BF3037BD4680BD001002401B
:1032A00000140048000400480018004800080048C6
:1032B00080B400AF72B600BFFEE7000080B483B0F8
:1032C00000AF0F4B1B6E0E4A43F0010313660C4B0D
:1032D0001B6E03F001037B607B68094B9B6D084A02
:1032E00043F080539365064B9B6D03F080533B6026
:1032F0003B6800BF0C37BD465DF8047B704700BFDC
:103300000010024080B5B0B000AF786007F1AC03A8
:1033100000221A605A609A60DA601A6107F1140399
:1033200098220021184610F06FFE7B681B683C4A0B
:10333000934271D14FF480437B614FF08053C7F8C3
:1033400094300123BB610123FB6118233B620223FC
:103350007B620423BB620223FB624FF080733B63FA
:1033600007F11403184604F0CFFB0346002B01D0ED
:10337000FFF79EFF2B4BDB6C2A4A43F40053D364C8
:10338000284BDB6C03F400533B613B69254BDB6C42
:10339000244A43F00403D364224BDB6C03F00403A0
:1033A000FB60FB680323C7F8AC300B23C7F8B030D1
:1033B0000023C7F8B43007F1AC0319461A4802F0ED
:1033C000D7FA1A4B1A4A1A60184B05225A60174B43
:1033D00000229A60154B0022DA60144B80221A6199
:1033E000124B4FF400725A61104B4FF400629A6115
:1033F0000E4B2022DA610D4B00221A620B4801F0BD
:1034000089FF0346002B01D0FFF752FF7B68074A74
:103410001A65064A7B68936200BFC037BD4680BD0F
:10342000000004500010024000080048FC05002085
:103430000800024080B5B0B000AF786007F1AC037F
:1034400000221A605A609A60DA601A6107F1140368
:1034500098220021184610F0D7FD7B681B68214A8E
:1034600093423BD140237B610023BB6607F11403E9
:10347000184604F049FB0346002B01D0FFF718FF64
:10348000194BDB6C184A43F00203D364164BDB6C18
:1034900003F002033B613B694FF41073C7F8AC3093
:1034A0001223C7F8B0300023C7F8B4300323C7F89D
:1034B000B8300423C7F8BC3007F1AC0319460B48F9
:1034C00002F056FA084B9B6D074A43F400139365CC
:1034D000054B9B6D03F40013FB60FB6800BFC03716
:1034E000BD4680BD0054004000100240000400486A
:1034F00080B5B2B000AF786007F1B40300221A6063
:103500005A609A60DA601A6107F11C039822002160
:10351000184610F079FD7B681B686D4A93426FD1A5
:103520002023FB610023FB6607F11C03184604F00F
:10353000EBFA0346002B01D0FFF7BAFE654BDB6DBB
:10354000644A43F00103D365624BDB6D03F0010372
:10355000BB61BB695F4BDB6C5E4A43F04003D364E5
:103560005C4BDB6C03F040037B617B6903F082FB07
:103570004FF4C073C7F8B4300223C7F8B830002343
:10358000C7F8BC300323C7F8C0300823C7F8C430DD
:1035900007F1B4031946504802F0EAF94F4B504A7C
:1035A0001A604E4B23225A604C4B00229A604B4BC0
:1035B0000022DA60494B80221A61484B00225A618E
:1035C000464B00229A61454B0022DA61434B0022B0
:1035D0001A62424801F09EFE0346002B01D0FFF71D
:1035E00067FE7B683D4ADA673C4A7B68936200224B
:1035F0000021462001F057FE462001F070FE62E0F7
:103600007B681B68374A93425DD10823FB61002326
:103610007B6607F11C03184604F076FA0346002B7C
:1036200001D0FFF745FE2B4B9B6D2A4A43F4002344
:103630009365284B9B6D03F400233B613B69254B4D
:10364000DB6C244A43F00103D364224BDB6C03F0B0
:103650000103FB60FB681F4BDB6C1E4A43F0040355
:10366000D3641C4BDB6C03F00403BB60BB68012319
:10367000C7F8B4300223C7F8B8300023C7F8BC300D
:103680000323C7F8C0300823C7F8C43007F1B403D8
:1036900019464FF0904002F06BF94FF40063C7F801
:1036A000B4300223C7F8B8300023C7F8BC30032376
:1036B000C7F8C0300823C7F8C43007F1B40319466F
:1036C000094802F055F900BFC837BD4680BD00BFAC
:1036D000008000400010024000180048D007002081
:1036E0001C000240004C00400008004880B5AAB011
:1036F00000AF786007F1100398220021184610F0FF
:1037000083FC7B681B68114A93421BD14FF48023D2
:103710003B610023C7F88C3007F11003184604F012
:10372000F3F90346002B01D0FFF7C2FD084BDB6C19
:10373000074A43F48023D364054BDB6C03F48023F6
:10374000FB60FB6800BFA837BD4680BD000806507F
:103750000010024080B58EB000AF786007F12403FE
:1037600000221A605A609A60DA601A617B681B68EE
:103770004B4A934246D14B4B1B6E4A4A43F480530B
:103780001366484B1B6E03F480533B623B6A454B08
:10379000DB6C444A43F00103D364424BDB6C03F01F
:1037A0000103FB61FB693F4BDB6C3E4A43F01003B6
:1037B000D3643C4BDB6C03F01003BB61BB6940235B
:1037C0007B620223BB620023FB6203233B6305236E
:1037D0007B6307F1240319464FF0904002F0C8F8CC
:1037E0004FF420437B620223BB620023FB6203236E
:1037F0003B6305237B6307F1240319462A4802F043
:10380000B7F849E07B681B68284A934244D1254BAE
:103810009B6D244A43F480439365224B9B6D03F4D4
:1038200080437B617B691F4BDB6C1E4A43F00403C2
:10383000D3641C4BDB6C03F004033B613B69194B05
:10384000DB6C184A43F00203D364164BDB6C03F0C5
:103850000203FB60FB680C237B620223BB62002334
:10386000FB6203233B6305237B6307F124031946B3
:103870000F4802F07DF84FF480637B620223BB6245
:103880000023FB6203233B6305237B6307F12403CF
:103890001946084802F06CF800BF3837BD4680BDB5
:1038A0000030014000100240001000480038004085
:1038B000000800480004004880B487B000AF78607A
:1038C0007B681B68B3F1804F0CD1244B9B6D234A5E
:1038D00043F001039365214B9B6D03F001037B6172
:1038E0007B6934E07B681B681D4A93420CD11B4BFB
:1038F0009B6D1A4A43F002039365184B9B6D03F0CE
:1039000002033B613B6922E07B681B68154A9342D6
:103910000CD1124B9B6D114A43F0040393650F4B7E
:103920009B6D03F00403FB60FB6810E07B681B6881
:103930000D4A93420BD1094B9B6D084A43F0080393
:103940009365064B9B6D03F00803BB60BB6800BF2B
:103950001C37BD465DF8047B704700BF0010024075
:103960000004004000080040000C004080B58AB010
:1039700000AF786007F1140300221A605A609A6061
:10398000DA601A617B681B68B3F1804F1DD1214B4F
:10399000DB6C204A43F00103D3641E4BDB6C03F065
:1039A00001033B613B6922237B610223BB6100234E
:1039B000FB6100233B6201237B6207F1140319467C
:1039C0004FF0904001F0D4FF20E07B681B68124A62
:1039D00093421BD10F4BDB6C0E4A43F01003D364B0
:1039E0000C4BDB6C03F01003FB60FB6878237B61FE
:1039F0000223BB610023FB6100233B6202237B6245
:103A000007F114031946054801F0B2FF00BF28373B
:103A1000BD4680BD00100240000400400010004878
:103A200080B5B0B000AF786007F1AC0300221A6037
:103A30005A609A60DA601A6107F114039822002133
:103A4000184610F0E1FA7B681B68B3F1A04F6CD107
:103A50004FF400537B610023C7F8883007F114034B
:103A6000184604F051F80346002B01D0FFF720FC64
:103A7000304BDB6C2F4A43F00103D3642D4BDB6CDE
:103A800003F001033B613B694FF4E853C7F8AC30E6
:103A90000223C7F8B0300023C7F8B4300323C7F8B7
:103AA000B8300A23C7F8BC3007F1AC0319464FF011
:103AB000904001F05DFF4FF40073C7F8AC30002375
:103AC000C7F8B0300023C7F8B43007F1AC0319468B
:103AD0004FF0904001F04CFF164BDB6C154A43F45D
:103AE0008053D364134BDB6C03F48053FB60FB689F
:103AF000104B9B6D03F08053002B14D10D4B9B6D2D
:103B00000C4A43F0805393650A4B9B6D03F080533E
:103B1000BB60BB6803F09EF8064B9B6D054A23F023
:103B20008053936501E003F095F800BFC037BD46B0
:103B300080BD00BF0010024080B400AFFEE780B43B
:103B400000AFFEE780B400AFFEE780B400AFFEE751
:103B500080B400AFFEE780B400AF00BFBD465DF8A3
:103B6000047B704780B400AF00BFBD465DF8047BA6
:103B7000704780B400AF00BFBD465DF8047B70475E
:103B800080B500AF00F086F800BF80BD80B500AF03
:103B9000024801F09DFD00BF80BD00BFFC05002074
:103BA00080B500AF024801F093FD00BF80BD00BFAB
:103BB000D007002080B500AF024806F0CFFC00BF60
:103BC00080BD00BFB006002080B400AF064BD3F824
:103BD0008830054A43F47003C2F8883000BFBD4600
:103BE0005DF8047B704700BF00ED00E080B582B057
:103BF00000AF0023FB71032001F04AFB002000F01E
:103C00000DF80346002B02D00123FB7101E0FFF702
:103C100055FBFB7918460837BD4680BD80B584B09A
:103C200000AF78600023FB73174B1B78002B23D069
:103C3000164B1A68144B1B7819464FF47A73B3FB72
:103C4000F1F3B2FBF3F3184601F057FB0346002BE8
:103C50000FD17B680F2B09D8002279684FF0FF3015
:103C600001F021FB0A4A7B68136007E00123FB7324
:103C700004E00123FB7301E00123FB73FB7B184687
:103C80001037BD4680BD00BF140000200C0000208E
:103C90001000002080B400AF064B1B781A46064B7C
:103CA0001B681344044A136000BFBD465DF8047BE3
:103CB000704700BF14000020E411002080B400AF62
:103CC000034B1B681846BD465DF8047B704700BF78
:103CD000E411002080B584B000AF7860FFF7EEFFFC
:103CE000B8607B68FB60FB68B3F1FF3F05D00A4B0F
:103CF0001B781A46FB681344FB6000BFFFF7DEFF2A
:103D00000246BB68D31AFA689A42F7D800BF00BFD0
:103D10001037BD4680BD00BF1400002080B483B0C2
:103D200000AF786039607B689B6823F47C123B6845
:103D30001A437B689A6000BF0C37BD465DF8047B70
:103D4000704780B483B000AF786039607B689B684F
:103D500023F0E0723B681A437B689A6000BF0C371F
:103D6000BD465DF8047B704780B483B000AF7860D7
:103D70007B689B6803F0E07318460C37BD465DF81E
:103D8000047B704780B487B000AFF860B9607A6098
:103D90003B60FB6860331A46BB689B0013447B6141
:103DA0007B691A68084B13407A6802F0F8413A6858
:103DB0000A43134343F000427B691A6000BF1C377B
:103DC000BD465DF8047B704700F0FF0380B485B00A
:103DD00000AF786039607B6860331A463B689B00AF
:103DE0001344FB60FB681B6803F0F8431846143764
:103DF000BD465DF8047B704780B487B000AFF860C3
:103E0000B9607A60FB6860331A46BB689B00134454
:103E10007B617B691B6823F000427B681A437B69E6
:103E20001A6000BF1C37BD465DF8047B704780B444
:103E300083B000AF786039607B685B6923F0004233
:103E40003B681A437B685A6100BF0C37BD465DF87A
:103E5000047B704780B483B000AF78607B68DB6818
:103E600003F44063002B01D1012300E00023184636
:103E70000C37BD465DF8047B704780B487B000AF57
:103E8000F860B9607A60FB6830331A46BB681B0A79
:103E90009B0003F00C0313447B617B691A68BB68C9
:103EA00003F01F031F2101FA03F3DB431A407B6871
:103EB0009B0E03F01F01BB6803F01F0301FA03F31D
:103EC0001A437B691A6000BF1C37BD465DF8047B4E
:103ED000704780B487B000AFF860B9607A60FB6863
:103EE00014331A46BB685B0E9B0003F004031344B3
:103EF0007B617B691A68BB681B0D03F01F030721F8
:103F000001FA03F3DB431A40BB681B0D03F01F03E8
:103F1000796801FA03F31A437B691A6000BF1C3702
:103F2000BD465DF8047B704780B485B000AFF86093
:103F3000B9607A60FB68D3F8B020BB68C3F31203A2
:103F4000DB431A407B6803F018030849D940BB687B
:103F50000B40C3F312031A43FB68C3F8B02000BF41
:103F60001437BD465DF8047B704700BFFFFF0700B4
:103F700080B483B000AF78607B689B6803F01F0358
:103F800018460C37BD465DF8047B704780B483B09B
:103F900000AF78607B689B6823F0204323F03F03E9
:103FA0007A68936000BF0C37BD465DF8047B7047AC
:103FB00080B483B000AF78607B689B6803F00053E7
:103FC000B3F1005F01D1012300E0002318460C3754
:103FD000BD465DF8047B704780B483B000AF786065
:103FE0007B689B6823F0104323F03F0343F080522B
:103FF0007B689A6000BF0C37BD465DF8047B704754
:1040000080B483B000AF78607B689B6803F0805316
:10401000B3F1805F01D1012300E0002318460C3783
:10402000BD465DF8047B704780B483B000AF786014
:104030007B689B6823F0004323F03F0343F00102B9
:104040007B689A6000BF0C37BD465DF8047B704703
:1040500080B483B000AF78607B689B6803F0010395
:10406000012B01D1012300E0002318460C37BD4687
:104070005DF8047B704780B483B000AF78607B68E4
:104080009B6823F0004323F03F0343F004027B6866
:104090009A6000BF0C37BD465DF8047B704780B462
:1040A00083B000AF78607B689B6803F00403042B47
:1040B00001D1012300E0002318460C37BD465DF80E
:1040C000047B704780B483B000AF78607B689B68E6
:1040D00003F00803082B01D1012300E00023184658
:1040E0000C37BD465DF8047B7047000090B589B081
:1040F00000AF78600023FB770023BB607B68002B58
:1041000001D1012334E17B681B69002B7B689B6D27
:10411000002B09D17868FFF7F5F87B680022DA6593
:104120007B68002283F854207B681B681846FFF7E1
:104130003FFF0346002B04D07B681B681846FFF73F
:1041400025FF7B681B681846FFF75AFF0346002BC4
:1041500015D17B681B681846FFF73EFF864B1B682E
:104160009B09864AA2FB03239B0901335B00BB60CA
:1041700002E0BB68013BBB60BB68002BF9D17B68E8
:104180001B681846FFF73CFF0346002B0DD17B68E8
:104190009B6D43F010027B689A657B68DB6D43F092
:1041A00001027B68DA650123FB777B681B68184690
:1041B000FFF775FF78617B689B6D03F01003002BA0
:1041C00040F0CD807B69002B40F0C9807B689B6DFF
:1041D00023F4817343F002027B689A657B681B6855
:1041E0001846FFF735FF0346002B10D16448FFF750
:1041F0002FFF04466348FFF72BFF03462343002BA2
:1042000005D17B685B6819465F48FFF787FD7B68CF
:104210005B7E5A037B685B6B1A437B68DB681A43DF
:104220007B689B681A437B6893F820301B04134318
:10423000BB617B6893F82030012B06D17B685B6AF9
:10424000013B5B04BA691343BB617B689B6A002B2B
:1042500009D07B689B6A03F470727B68DB6A134346
:10426000BA691343BB617B681B68DA68474B13402C
:104270007A681268B9690B43D3607B681B6818467B
:10428000FFF70DFF38617B681B681846FFF71AFFC0
:10429000F8603B69002B40D1FB68002B3DD17B6867
:1042A000DA6C7B681B7E9B031A437B6893F8303083
:1042B0005B001343BB617B681B68DB6823F48043AE
:1042C00023F006037A681268B9690B43D3607B68F0
:1042D00093F83830012B18D17B681B681B6923F4D5
:1042E000FF6323F004037A68D16B7A68126C114380
:1042F0007A68526C11437A68926C0A431A437B685D
:104300001B6842F001021A6107E07B681B681A69AA
:104310007B681B6822F001021A617B681B69012B14
:104320000CD17B681B681B6B23F00F017B68DB697A
:104330005A1E7B681B680A431A6307E07B681B6888
:104340001A6B7B681B6822F00F021A637B689B6DF7
:1043500023F0030343F001027B689A6507E07B6862
:104360009B6D43F010027B689A650123FB77FB7F0E
:1043700018462437BD4690BD0C000020632D3E0535
:1043800000000450000104500003045007C0F0FF77
:1043900080B586B000AFF860B9607A605048FFF72A
:1043A000E7FD3861FB681B681846FFF778FE034697
:1043B000002B40F08E80FB6893F85430012B01D124
:1043C000022389E0FB68012283F854203B69002B1B
:1043D00005D03B69052B02D03B69092B72D1F868E7
:1043E00000F0A2FC0346FB75FB7D002B65D1FB684A
:1043F0009B6D23F4706323F0010343F48072FB6828
:104400009A65FB681B68374A934202D0FB681B68B9
:1044100000E0354BFA681268934202D03B69002BEA
:1044200005D1FB689B6D23F48012FB689A65FB68DD
:104430009B6D03F48053002B06D0FB68DB6D23F0EB
:104440000602FB68DA6502E0FB680022DA65FB68B9
:104450001B6D264ADA62FB681B6D254A1A63FB68EE
:104460001B6D244A5A63FB681B681C221A60FB6898
:10447000002283F85420FB681B685A68FB681B689D
:1044800042F010025A60FB681B68DA68FB681B6820
:1044900042F00102DA60FB68186DFB681B6840336C
:1044A0001946BA687B6800F0DDFF0346FB75FB68C0
:1044B0001B681846FFF7DFFD0DE0FB68002283F85C
:1044C000542008E00123FB75FB68002283F8542088
:1044D00001E00223FB75FB7D18461837BD4680BD01
:1044E000000304500001045000000450354E000841
:1044F0000D4F0008294F000880B483B000AF7860EA
:1045000000BF0C37BD465DF8047B704780B483B0B4
:1045100000AF786000BF0C37BD465DF8047B704784
:1045200080B483B000AF786000BF0C37BD465DF843
:10453000047B704780B5B6B000AF78603960002367
:1045400087F8D7300023FB607B6893F85430012B49
:1045500001D10223D3E37B68012283F854207B68D6
:104560001B681846FFF79BFD0346002B40F0B883FD
:104570003B685B68052B24D83B685B68023B032BD8
:104580001BD801A252F823F099450008A145000864
:10459000A9450008B14500083B680C225A6010E0AC
:1045A0003B6812225A600CE03B6818225A6008E00F
:1045B0003B684FF480725A6003E03B6806225A6001
:1045C00000BF7B6818683B6859683B681B681A46DF
:1045D000FFF753FC7B681B681846FFF760FDC7F8C0
:1045E000D0007B681B681846FFF76CFDC7F8CC004D
:1045F000D7F8D030002B40F0C181D7F8CC30002B59
:1046000040F0BC813B689B68B3F1004F0FD17B68E1
:1046100018683B681B6800221946FFF75AFC7B6844
:104620001B684FF000411846FFF701FC0EE07B6865
:1046300018683B6819683B689B681A46FFF749FC95
:104640007B681B6800211846FFF7F1FB3B685A693D
:104650007B681B68DB68DB0803F003035B0002FA7E
:1046600003F3C7F8C8303B681B69042B0AD07B688A
:1046700018683B6819693B681A68D7F8C830FFF7B3
:1046800081FB7BE17B681B6800211846FFF79EFBDE
:104690000346C3F31203002B0AD17B681B68002179
:1046A0001846FFF793FB03469B0E03F01F021EE024
:1046B0007B681B6800211846FFF788FB0346C7F894
:1046C000BC30D7F8BC3093FAA3F3C7F8B830D7F8AA
:1046D000B830C7F8C030D7F8C030002B01D1202344
:1046E00004E0D7F8C030B3FA83F3DBB21A463B6874
:1046F0001B68C3F31203002B05D13B681B689B0E9C
:1047000003F01F0318E03B681B68C7F8B030D7F808
:10471000B03093FAA3F3C7F8AC30D7F8AC30C7F891
:10472000B430D7F8B430002B01D1202304E0D7F8FF
:10473000B430B3FA83F3DBB29A4206D17B681B68CC
:10474000002200211846FFF757FB7B681B680121F8
:104750001846FFF73BFB0346C3F31203002B0AD1B5
:104760007B681B6801211846FFF730FB03469B0E50
:1047700003F01F021EE07B681B6801211846FFF74B
:1047800025FB0346C7F8A430D7F8A43093FAA3F367
:10479000C7F8A030D7F8A030C7F8A830D7F8A830AD
:1047A000002B01D1202304E0D7F8A830B3FA83F31B
:1047B000DBB21A463B681B68C3F31203002B05D11A
:1047C0003B681B689B0E03F01F0318E03B681B68E7
:1047D000C7F89830D7F8983093FAA3F3C7F8943015
:1047E000D7F89430C7F89C30D7F89C30002B01D113
:1047F000202304E0D7F89C30B3FA83F3DBB29A426B
:1048000006D17B681B68002201211846FFF7F4FAE5
:104810007B681B6802211846FFF7D8FA0346C3F3EA
:104820001203002B0AD17B681B6802211846FFF790
:10483000CDFA03469B0E03F01F021EE07B681B6847
:1048400002211846FFF7C2FA0346C7F88C30D7F8A2
:104850008C3093FAA3F3C7F88830D7F88830C7F8BC
:104860009030D7F89030002B01D1202304E0D7F806
:104870009030B3FA83F3DBB21A463B681B68C3F38C
:104880001203002B05D13B681B689B0E03F01F032E
:1048900016E03B681B68C7F88030D7F8803093FA81
:1048A000A3F3FB67FB6FC7F88430D7F88430002B85
:1048B00001D1202304E0D7F88430B3FA83F3DBB2CC
:1048C0009A4206D17B681B68002202211846FFF736
:1048D00093FA7B681B6803211846FFF777FA0346B3
:1048E000C3F31203002B0AD17B681B68032118460F
:1048F000FFF76CFA03469B0E03F01F0217E07B687C
:104900001B6803211846FFF761FA03467B677B6F3C
:1049100093FAA3F33B673B6FBB67BB6F002B01D1DF
:10492000202303E0BB6FB3FA83F3DBB21A463B6884
:104930001B68C3F31203002B05D13B681B689B0E59
:1049400003F01F0311E03B681B68BB66BB6E93FA64
:10495000A3F37B667B6EFB66FB6E002B01D12023ED
:1049600003E0FB6EB3FA83F3DBB29A4206D17B68B5
:104970001B68002203211846FFF73EFA7B681B687C
:104980001846FFF765FB0346002B40F03F817B682C
:1049900018683B6819683B68DB681A46FFF7C4FA79
:1049A0003B68DB688E4A934240F030817B68186830
:1049B0003B681B68C3F31203002B0BD13B681B68D9
:1049C0009B0E013303F01F03092B94BF0123002327
:1049D000DBB219E03B681B68FB65FB6D93FAA3F340
:1049E000BB65BB6D3B663B6E002B01D1202303E012
:1049F0003B6EB3FA83F3DBB2013303F01F03092BE1
:104A000094BF01230023DBB2002B79D03B681B68E5
:104A1000C3F31203002B07D13B681B689B0E0133C5
:104A20009B0603F0F84215E03B681B683B653B6D55
:104A300093FAA3F3FB64FB6C7B657B6D002B01D1C8
:104A4000202303E07B6DB3FA83F3DBB201339B06D3
:104A500003F0F8423B681B68C3F31203002B09D133
:104A60003B681B689B0E013303F01F03012101FA11
:104A700003F317E03B681B687B647B6C93FAA3F33A
:104A80003B643B6CBB64BB6C002B01D1202303E077
:104A9000BB6CB3FA83F3DBB2013303F01F030121D4
:104AA00001FA03F342EA03013B681B68C3F31203F4
:104AB000002B0AD13B681B689B0E013303F01F02D9
:104AC00013465B0013441B0518E03B681B68BB637F
:104AD000BB6B93FAA3F37B637B6BFB63FB6B002BDA
:104AE00001D1202303E0FB6BB3FA83F3DBB2013384
:104AF00003F01F0213465B0013441B050B4380E0C9
:104B00003B681B68C3F31203002B07D13B681B688B
:104B10009B0E01339B0603F0F84215E03B681B68CF
:104B2000FB62FB6A93FAA3F3BB62BB6A3B633B6B1A
:104B3000002B01D1202303E03B6BB3FA83F3DBB2FC
:104B400001339B0603F0F8423B681B68C3F3120372
:104B5000002B09D13B681B689B0E013303F01F0338
:104B6000012101FA03F317E03B681B683B623B6AD3
:104B700093FAA3F3FB61FB697B627B6A002B01D193
:104B8000202303E07B6AB3FA83F3DBB2013303F043
:104B90001F03012101FA03F342EA03013B681B688A
:104BA000C3F31203002B0DD13B681B689B0E01332E
:104BB00003F01F0213465B0013441E3B1B0543F02A
:104BC00000731DE03B681B687B617B6993FAA3F36C
:104BD0003B613B69BB61BB69002B03D1202305E02E
:104BE00000007F40BB69B3FA83F3DBB2013303F00B
:104BF0001F0213465B0013441E3B1B0543F000736A
:104C00000B433A6892681946FFF763F93B681A68E4
:104C10003D4B1340002B6CD03C48FFF7A5F8C7F87C
:104C2000C4003B681B683A4A934227D1D7F8C43086
:104C300003F40003002B21D17B681B68354A9342A3
:104C400057D1D7F8C43043F4000319462F48FFF773
:104C500078F8314B1B689B09304AA2FB03239B0960
:104C60005A1C13465B0013449B00FB6002E0FB6888
:104C7000013BFB60FB68002BF9D13AE03B681B6805
:104C8000274A934213D1D7F8C43003F08073002B26
:104C90000DD17B681B681F4A93422AD1D7F8C430D4
:104CA00043F0807319461948FFF74BF821E03B6841
:104CB0001B681C4A93421CD1D7F8C43003F480030C
:104CC000002B16D17B681B68124A934211D1D7F88A
:104CD000C43043F4800319460C48FFF732F808E06B
:104CE0007B689B6D43F020027B689A65012387F8FF
:104CF000D7307B68002283F8542097F8D7301846C5
:104D0000D837BD4680BD00BF0000088000030450B6
:104D1000000052C7000004500C000020632D3E0527
:104D2000000084CB0100008080B584B000AF7860C3
:104D30000023BB607B681B681846FFF789F90346B0
:104D4000002B69D17B681B689A68364B1340002B97
:104D50000DD07B689B6D43F010027B689A657B6881
:104D6000DB6D43F001027B68DA65012355E07B6867
:104D70001B681846FFF758F92B48FEF7F5FF034666
:104D800003F40003002B13D0284B1B689B09284A0F
:104D9000A2FB03239B095A1C13465B0013449B0090
:104DA000BB6002E0BB68013BBB60BB68002BF9D174
:104DB000FEF784FFF86028E07B681B681846FFF761
:104DC00047F90346002B04D17B681B681846FFF7A0
:104DD0002BF9FEF773FF0246FB68D31A022B14D996
:104DE0007B681B681B6803F00103012B0DD07B68F7
:104DF0009B6D43F010027B689A657B68DB6D43F026
:104E000001027B68DA65012307E07B681B681B6889
:104E100003F00103012BCFD1002318461037BD4604
:104E200080BD00BF3F000080000304500C00002044
:104E3000632D3E0580B584B000AF78607B689B6AC7
:104E4000FB60FB689B6D03F05003002B4BD1FB68AC
:104E50009B6D43F40072FB689A65FB681B681B68D6
:104E600003F00803002B21D0FB681B681846FEF7EF
:104E7000F1FF0346002B32D0FB681B68DB6803F4AC
:104E80000053002B2BD1FB689B6D23F48072FB68D1
:104E90009A65FB689B6D03F48053002B1FD1FB6860
:104EA0009B6D43F00102FB689A6518E0FB681B6884
:104EB000DB6803F00203002B11D1FB689B6D23F428
:104EC0008072FB689A65FB689B6D03F48053002B2E
:104ED00005D1FB689B6D43F00102FB689A65F86899
:104EE000FFF70AFB0EE0FB689B6D03F01003002B3D
:104EF00003D0F868FFF714FB04E0FB681B6D5B6BE5
:104F00007868984700BF1037BD4680BD80B584B033
:104F100000AF78607B689B6AFB60F868FFF7F6FA81
:104F200000BF1037BD4680BD80B584B000AF78604B
:104F30007B689B6AFB60FB689B6D43F04002FB68EB
:104F40009A65FB68DB6D43F00402FB68DA65F8687C
:104F5000FFF7E6FA00BF1037BD4680BD80B483B0CE
:104F600000AF78607B689B6803F00103012B01D1DF
:104F7000012300E0002318460C37BD465DF8047B92
:104F8000704780B483B000AF78607B689B6803F0A3
:104F90000403042B01D1012300E0002318460C3741
:104FA000BD465DF8047B704790B5A1B000AF786056
:104FB0003960002387F87F307B6893F85430012BE9
:104FC00001D1022389E07B68012283F85420002369
:104FD0007B660023BB667B681B68424A934202D112
:104FE000414BFB6001E00023FB60FB68002B0BD111
:104FF0007B689B6D43F020027B689A657B6800228A
:1050000083F85420012368E0FB681846FFF7B9FFD6
:10501000B8677B681B681846FFF7B3FF0346002B91
:105020004AD1BB6F002B47D1304B7B673B681B6875
:10503000002B27D07B6F9B6823F460423B68596844
:105040007B6893F830305B030B431A437B6F9A60A5
:105050002448FFF783FF04462348FFF77FFF0346FA
:105060002343002B32D17B6F9B6823F4716323F0C1
:105070000F033A6811683A6892680A431A437B6FD3
:105080009A6023E07B6F9B6823F460427B6F9A6099
:105090001448FFF763FF04461348FFF75FFF03461A
:1050A0002343002B12D17B6F9B6823F4716323F0A1
:1050B0000F037A6F936009E07B689B6D43F02002D9
:1050C0007B689A65012387F87F3000E000BF7B682A
:1050D000002283F8542097F87F3018468437BD4665
:1050E00090BD00BF000004500001045000030450B4
:1050F00080B485B000AF78607B6803F00703FB6085
:105100000C4BDB68BB60BA684FF6FF031340BB6013
:10511000FB681A02BB68134343F0BF6343F40033D8
:10512000BB60044ABB68D36000BF1437BD465DF85E
:10513000047B704700ED00E080B400AF044BDB68F7
:105140001B0A03F007031846BD465DF8047B704751
:1051500000ED00E080B483B000AF0346FB7197F927
:105160000730002B0BDBFB7903F01F02074997F98F
:1051700007305B09012000FA02F241F8232000BF4A
:105180000C37BD465DF8047B704700BF00E100E0CE
:1051900080B483B000AF03463960FB7197F90730E4
:1051A000002B0ADB3B68DAB20C4997F90730120191
:1051B000D2B20B4483F800230AE03B68DAB2084914
:1051C000FB7903F00F03043B1201D2B20B441A76B1
:1051D00000BF0C37BD465DF8047B704700E100E07E
:1051E00000ED00E080B489B000AFF860B9607A608B
:1051F000FB6803F00703FB61FB69C3F10703042BA2
:1052000028BF0423BB61FB690433062B02D9FB6969
:10521000033B00E000237B614FF0FF32BB6902FAE1
:1052200003F3DA43BB681A407B699A404FF0FF31C1
:105230007B6901FA03F3D9437B680B40134318469B
:105240002437BD465DF8047B7047000080B582B00E
:1052500000AF78607B68013BB3F1807F01D301230D
:105260000FE00A4A7B68013B53600F214FF0FF308B
:10527000FFF78EFF054B00229A60044B07221A604D
:10528000002318460837BD4680BD00BF10E000E08F
:1052900080B582B000AF78607868FFF729FF00BF63
:1052A0000837BD4680BD80B586B000AF0346B96003
:1052B0007A60FB7300237B61FFF73EFF78617A68B9
:1052C000B9687869FFF78EFF024697F90F301146EB
:1052D0001846FFF75DFF00BF1837BD4680BD80B59B
:1052E00082B000AF0346FB7197F907301846FFF70D
:1052F00031FF00BF0837BD4680BD80B582B000AF2A
:1053000078607868FFF7A2FF034618460837BD4665
:1053100080BD000080B584B000AF78607B68002B52
:1053200001D101238DE07B681B681A46474B9A42E6
:105330000FD87B681B681A46454B1344454AA2FBAD
:1053400003231B099A007B685A647B68424A1A64EB
:105350000EE07B681B681A46404B13443D4AA2FB93
:1053600003231B099A007B685A647B683C4A1A64D1
:105370007B68022283F825207B681B681B68FB6022
:10538000FB6823F4FF4323F07003FB607B689A689B
:105390007B68DB681A437B681B691A437B685B691F
:1053A0001A437B689B691A437B68DB691A437B68F5
:1053B0001B6A1343FA681343FB607B681B68FA6837
:1053C0001A60786800F072FA7B689B68B3F5804FCA
:1053D00002D17B6800225A607B685A687B689B6CAC
:1053E000D2B21A607B68DB6C7A68126D5A607B6897
:1053F0005B68002B10D07B685B68042B0CD8786846
:1054000000F092FA7B685B6D00221A607B689B6DEE
:105410007A68D26D5A6008E07B6800225A657B6822
:1054200000229A657B680022DA657B680022DA63D5
:105430007B68012283F825207B68002283F82420E2
:10544000002318461037BD4680BD00BF0704024048
:10545000F8FFFDBFCDCCCCCC00000240F8FBFDBF77
:105460000004024080B586B000AFF860B9607A6091
:105470003B600023FB75FB6893F82430012B01D1BE
:10548000022366E0FB68012283F82420FB6893F87E
:105490002530DBB2012B55D1FB68022283F8252091
:1054A000FB680022DA63FB681B681A68FB681B68EC
:1054B00022F001021A603B687A68B968F86800F067
:1054C000B6F9FB681B6B002B08D0FB681B681A68D9
:1054D000FB681B6842F00E021A600FE0FB681B6855
:1054E0001A68FB681B6822F004021A60FB681B68DC
:1054F0001A68FB681B6842F00A021A60FB689B6C22
:105500001B6803F48033002B07D0FB689B6C1A6880
:10551000FB689B6C42F480721A60FB685B6D002B29
:1055200007D0FB685B6D1A68FB685B6D42F48072A4
:105530001A60FB681B681A68FB681B6842F001026E
:105540001A6005E0FB68002283F824200223FB7523
:10555000FB7D18461837BD4680BD80B485B000AFCE
:1055600078600023FB737B6893F82530DBB2022B55
:1055700008D07B680422DA637B68002283F8242049
:10558000012340E07B681B681A687B681B6822F077
:105590000E021A607B689B6C1A687B689B6C22F415
:1055A00080721A607B681B681A687B681B6822F02F
:1055B00001021A607B685B6C03F01C027B681B6C49
:1055C000012101FA02F25A607B68DB6C7A68126D85
:1055D0005A607B685B6D002B0CD07B685B6D1A6832
:1055E0007B685B6D22F480721A607B689B6D7A68C1
:1055F000D26D5A607B68012283F825207B680022E7
:1056000083F82420FB7B18461437BD465DF8047BE5
:10561000704780B584B000AF78600023FB737B686F
:1056200093F82530DBB2022B05D07B680422DA63C5
:105630000123FB7347E07B681B681A687B681B6863
:1056400022F00E021A607B681B681A687B681B6870
:1056500022F001021A607B689B6C1A687B689B6C65
:1056600022F480721A607B685B6C03F01C027B681A
:105670001B6C012101FA02F25A607B68DB6C7A68CC
:10568000126D5A607B685B6D002B0CD07B685B6D84
:105690001A687B685B6D22F480721A607B689B6D70
:1056A0007A68D26D5A607B68012283F825207B6876
:1056B000002283F824207B689B6B002B03D07B683F
:1056C0009B6B78689847FB7B18461037BD4680BDBA
:1056D00080B584B000AF78607B681B6C1B68FB6092
:1056E0007B681B681B68BB607B685B6C03F01C03FA
:1056F00004229A40FB681340002B26D0BB6803F0BD
:105700000403002B21D07B681B681B6803F0200377
:10571000002B07D17B681B681A687B681B6822F026
:1057200004021A607B685B6C03F01C027B681B6CD4
:10573000042101FA02F25A607B681B6B002B71D0C6
:105740007B681B6B786898476CE07B685B6C03F048
:105750001C0302229A40FB681340002B2ED0BB682A
:1057600003F00203002B29D07B681B681B6803F041
:105770002003002B0BD17B681B681A687B681B68B1
:1057800022F00A021A607B68012283F825207B68D8
:105790005B6C03F01C027B681B6C022101FA02F2B5
:1057A0005A607B68002283F824207B68DB6A002B28
:1057B00038D07B68DB6A7868984733E07B685B6C3D
:1057C00003F01C0308229A40FB681340002B2AD0E8
:1057D000BB6803F00803002B25D07B681B681A68A0
:1057E0007B681B6822F00E021A607B685B6C03F01A
:1057F0001C027B681B6C012101FA02F25A607B6873
:105800000122DA637B68012283F825207B6800226D
:1058100083F824207B685B6B002B04D07B685B6B78
:105820007868984700BF00BF1037BD4680BD80B480
:1058300085B000AFF860B9607A603B60FB68DB6CF4
:10584000FA68126D5A60FB685B6D002B04D0FB6830
:105850009B6DFA68D26D5A60FB685B6C03F01C02AA
:10586000FB681B6C012101FA02F25A60FB681B689D
:105870003A685A60FB689B68102B08D1FB681B686C
:105880007A689A60FB681B68BA68DA6007E0FB68B0
:105890001B68BA689A60FB681B687A68DA6000BFA8
:1058A0001437BD465DF8047B7047000080B485B0B6
:1058B00000AF78607B681B681A46174B9A420AD87B
:1058C0007B685B6C9B089B0003F1804303F502330C
:1058D0007A68936407E07B685B6C9B089A000F4BC7
:1058E00013447A6893647B681B68DBB2083B0C4AFC
:1058F000A2FB03231B09FB607B680A4ADA64FB688E
:1059000003F01F0301229A407B681A6500BF143719
:10591000BD465DF8047B7047070402401C08024046
:10592000CDCCCCCC8008024080B485B000AF78608C
:105930007B685B68DBB2FB60FA680B4B13449B002F
:105940001A467B685A657B68084A9A65FB68013B82
:1059500003F0030301229A407B68DA6500BF143725
:10596000BD465DF8047B70473F820010400902404D
:1059700080B487B000AF7860396000237B6166E156
:105980003B681A6801217B6901FA03F31340FB604D
:10599000FB68002B00F058813B685B6803F0030351
:1059A000012B05D03B685B6803F00303022B30D169
:1059B0007B689B683B617B695B00032202FA03F30F
:1059C000DB433A6913403B613B68DA687B695B0003
:1059D00002FA03F33A6913433B617B683A699A60C0
:1059E0007B685B683B6101227B6902FA03F3DB435E
:1059F0003A6913403B613B685B681B0903F0010295
:105A00007B6902FA03F33A6913433B617B683A69A5
:105A10005A603B685B6803F00303032B17D07B6875
:105A2000DB683B617B695B00032202FA03F3DB4323
:105A30003A6913403B613B689A687B695B0002FAF4
:105A400003F33A6913433B617B683A69DA603B6868
:105A50005B6803F00303022B23D17B69DA087B68C0
:105A6000083253F822303B617B6903F007039B0047
:105A70000F2202FA03F3DB433A6913403B613B68B0
:105A80001A697B6903F007039B0002FA03F33A6982
:105A900013433B617B69DA087B680832396943F854
:105AA00022107B681B683B617B695B00032202FA62
:105AB00003F3DB433A6913403B613B685B6803F0E7
:105AC00003027B695B0002FA03F33A6913433B610B
:105AD0007B683A691A603B685B6803F44033002BCB
