:020000040800F2
:1000000000000520D1AB0008C9340008CF34000837
:10001000D5340008DB340008E1340008000000009B
:10002000000000000000000000000000E7340008AD
:10003000F534000800000000033500081135000801
:1000400021AC000821AC000821AC000821AC00085C
:1000500021AC000821AC000821AC000821AC00084C
:1000600021AC000821AC000821AC00081D350008B7
:100070003135000821AC000821AC000821AC000893
:1000800021AC000821AC000821AC000821AC00081C
:1000900021AC000821AC000821AC000821AC00080C
:1000A00021AC000821AC000821AC000821AC0008FC
:1000B00021AC000821AC000821AC000821AC0008EC
:1000C00021AC000821AC000821AC000821AC0008DC
:1000D00021AC000821AC000821AC000821AC0008CC
:1000E00021AC000821AC00080000000021AC000891
:1000F00021AC000821AC000821AC000821AC0008AC
:1001000021AC000821AC000821AC000821AC00089B
:1001100021AC000821AC000821AC000821AC00088B
:1001200021AC000821AC000821AC000821AC00087B
:1001300021AC000821AC000821AC00080000000040
:1001400021AC000821AC000821AC000821AC00085B
:1001500021AC000821AC00084535000821AC00089E
:1001600021AC000821AC000821AC000821AC00083B
:1001700021AC000821AC00080000000000000000D5
:1001800021AC000821AC000821AC000821AC00081B
:1001900021AC000821AC00080000000000000000B5
:1001A000000000000000000021AC000821AC0008A5
:1001B00021AC00080000000021AC00080000000095
:1001C000034613F8012B002AFBD1181A0138704797
:1001D00001F0FF01102A2BDB10F0070F08D010F8F8
:1001E000013B013A8B422DD010F0070F42B3F6D1FC
:1001F000F0B441EA012141EA014122F007047FF015
:1002000000070023F0E80256083C85EA010586EA6B
:10021000010685FA47F5A3FA87F586FA47F6A5FAA7
:1002200087F68EB9EED1F0BC01F0FF0102F00702B3
:1002300032B110F8013B013A83EA010313B1F8D15E
:100240000020704701387047002D06BF354603383F
:10025000073815F0010F07D1013015F4807F02BF78
:10026000013015F4C03F0130F0BC0138704700BFC9
:1002700081F0004102E000BF83F0004330B54FEA57
:1002800041044FEA430594EA050F08BF90EA020FC4
:100290001FBF54EA000C55EA020C7FEA645C7FEA57
:1002A000655C00F0E2804FEA5454D4EB5555B8BF7A
:1002B0006D420CDD2C4480EA020281EA030382EAEB
:1002C000000083EA010180EA020281EA0303362D7D
:1002D00088BF30BD11F0004F4FEA01314FF4801C50
:1002E0004CEA113102D0404261EB410113F0004F62
:1002F0004FEA03334CEA133302D0524263EB430319
:1003000094EA050F00F0A780A4F10104D5F1200EB6
:100310000DDB02FA0EFC22FA05F2801841F1000111
:1003200003FA0EF2801843FA05F359410EE0A5F1E5
:1003300020050EF1200E012A03FA0EFC28BF4CF016
:10034000020C43FA05F3C01851EBE37101F00045CC
:1003500007D54FF0000EDCF1000C7EEB00006EEBD9
:100360000101B1F5801F1BD3B1F5001F0CD3490863
:100370005FEA30004FEA3C0C04F101044FEA4452BA
:1003800012F5800F80F09A80BCF1004F08BF5FEA41
:10039000500C50F1000041EB045141EA050130BD21
:1003A0005FEA4C0C404141EB0101013C28BFB1F533
:1003B000801FE9D291F0000F04BF01460020B1FA7E
:1003C00081F308BF2033A3F10B03B3F120020CDA51
:1003D0000C3208DD02F1140CC2F10C0201FA0CF02F
:1003E00021FA02F10CE002F11402D8BFC2F1200C94
:1003F00001FA02F120FA0CFCDCBF41EA0C0190404A
:10040000E41AA2BF01EB0451294330BD6FEA040492
:100410001F3C1CDA0C340EDC04F11404C4F120027D
:1004200020FA04F001FA02F340EA030021FA04F38F
:1004300045EA030130BDC4F10C04C4F1200220FAE6
:1004400002F001FA04F340EA0300294630BD21FA24
:1004500004F0294630BD94F0000F83F4801306BFEA
:1004600081F480110134013D4EE77FEA645C18BFDE
:100470007FEA655C29D094EA050F08BF90EA020F75
:1004800005D054EA000C04BF1946104630BD91EA6D
:10049000030F1EBF0021002030BD5FEA545C05D170
:1004A0004000494128BF41F0004130BD14F58004AF
:1004B0003CBF01F5801130BD01F0004545F0FE4123
:1004C00041F470014FF0000030BD7FEA645C1ABF58
:1004D000194610467FEA655C1CBF0B46024650EA8F
:1004E000013406BF52EA033591EA030F41F40021BB
:1004F00030BD00BF90F0000F04BF0021704730B541
:100500004FF4806404F132044FF000054FF0000115
:1005100050E700BF90F0000F04BF0021704730B5D6
:100520004FF4806404F1320410F0004548BF4042AB
:100530004FF000013EE700BF42004FEAE2014FEA00
:1005400031014FEA02701FBF12F07F4393F07F4FDB
:1005500081F06051704732F07F4208BF704793F0DE
:100560007F4F04BF41F40021704730B54FF46074F1
:1005700001F0004521F000411CE700BF50EA0102F4
:1005800008BF704730B54FF000050AE050EA01029D
:1005900008BF704730B511F0004502D5404261EB0D
:1005A00041014FF4806404F132045FEA915C3FF44E
:1005B000D8AE4FF003025FEADC0C18BF03325FEAEB
:1005C000DC0C18BF033202EBDC02C2F1200300FA9C
:1005D00003FC20FA02F001FA03FE40EA0E0021FAC1
:1005E00002F11444BDE600BF70B54FF0FF0C4CF4AF
:1005F000E06C1CEA11541DBF1CEA135594EA0C0F61
:1006000095EA0C0F00F0DEF82C4481EA030621EA9B
:100610004C5123EA4C5350EA013518BF52EA0335D6
:1006200041F4801143F4801338D0A0FB02CE4FF088
:100630000005E1FB02E506F00042E0FB03E54FF0B8
:100640000006E1FB03569CF0000F18BF4EF0010EB0
:10065000A4F1FF04B6F5007F64F5407404D25FEAAC
:100660004E0E6D4146EB060642EAC62141EA55515F
:100670004FEAC52040EA5E504FEACE2EB4F1FD0CA1
:1006800088BFBCF5E06F1ED8BEF1004F08BF5FEA1F
:10069000500E50F1000041EB045170BD06F00046D1
:1006A00046EA010140EA020081EA0301B4EB5C047E
:1006B000C2BFD4EB0C0541EA045170BD41F4801176
:1006C0004FF0000E013C00F3AB8014F1360FDEBF9B
:1006D000002001F0004170BDC4F10004203C35DA77
:1006E0000C341BDC04F11404C4F1200500FA05F3FA
:1006F00020FA04F001FA05F240EA020001F000429B
:1007000021F0004110EBD37021FA04F642EB060110
:100710005EEA430E08BF20EAD37070BDC4F10C043A
:10072000C4F1200500FA04F320FA05F001FA04F2FE
:1007300040EA020001F0004110EBD37041F10001EA
:100740005EEA430E08BF20EAD37070BDC4F12005F5
:1007500000FA05F24EEA020E20FA04F301FA05F25D
:1007600043EA020321FA04F001F0004121FA04F205
:1007700020EA020000EBD3705EEA430E08BF20EAD5
:10078000D37070BD94F0000F0FD101F0004640000F
:1007900041EB010111F4801F08BF013CF7D041EA91
:1007A000060195F0000F18BF704703F00046520095
:1007B00043EB030313F4801F08BF013DF7D043EA66
:1007C0000603704794EA0C0F0CEA135518BF95EA1C
:1007D0000C0F0CD050EA410618BF52EA4306D1D1A3
:1007E00081EA030101F000414FF0000070BD50EAC2
:1007F000410606BF1046194652EA430619D094EA4C
:100800000C0F02D150EA013613D195EA0C0F05D135
:1008100052EA03361CBF104619460AD181EA030189
:1008200001F0004141F0FE4141F470014FF0000041
:1008300070BD41F0FE4141F4780170BD70B54FF0DC
:10084000FF0C4CF4E06C1CEA11541DBF1CEA13555C
:1008500094EA0C0F95EA0C0F00F0A7F8A4EB05043E
:1008600081EA030E52EA03354FEA013100F0888035
:100870004FEA03334FF0805545EA131343EA1263FE
:100880004FEA022245EA111545EA10654FEA0026B3
:100890000EF000419D4208BF964244F1FD0404F56C
:1008A000407402D25B084FEA3202B61A65EB0305C8
:1008B0005B084FEA32024FF480104FF4002CB6EB85
:1008C000020E75EB030E22BFB61A754640EA0C0005
:1008D0005B084FEA3202B6EB020E75EB030E22BF45
:1008E000B61A754640EA5C005B084FEA3202B6EB86
:1008F000020E75EB030E22BFB61A754640EA9C0045
:100900005B084FEA3202B6EB020E75EB030E22BF14
:10091000B61A754640EADC0055EA060E18D04FEAD2
:10092000051545EA16754FEA06164FEAC30343EA72
:1009300052734FEAC2025FEA1C1CC0D111F4801F3F
:100940000BD141EA00014FF000004FF0004CB6E738
:1009500011F4801F04BF01430020B4F1FD0C88BFD7
:10096000BCF5E06F3FF6AFAEB5EB030C04BFB6EBE2
:10097000020C5FEA500C50F1000041EB045170BDD5
:100980000EF0004E4EEA113114EB5C04C2BFD4EB02
:100990000C0541EA045170BD41F480114FF0000E86
:1009A000013C90E645EA060E8DE60CEA135594EA02
:1009B0000C0F08BF95EA0C0F3FF43BAF94EA0C0F05
:1009C0000AD150EA01347FF434AF95EA0C0F7FF47A
:1009D00025AF104619462CE795EA0C0F06D152EACE
:1009E00003353FF4FDAE1046194622E750EA4106B2
:1009F00018BF52EA43067FF4C5AE50EA41047FF4C3
:100A00000DAF52EA43057FF4EBAE12E74FF0FF3C27
:100A100006E000BF4FF0010C02E000BF4FF0010CF8
:100A20004DF804CD4FEA410C7FEA6C5C4FEA430C71
:100A300018BF7FEA6C5C1BD001B050EA410C0CBFC0
:100A400052EA430C91EA030F02BF90EA020F002022
:100A5000704710F1000F91EA030F58BF994208BF89
:100A600090422CBFD8176FEAE37040F00100704746
:100A70004FEA410C7FEA6C5C02D150EA013C07D19D
:100A80004FEA430C7FEA6C5CD6D152EA033CD3D0E8
:100A90005DF8040B704700BF8446104662468C46E2
:100AA0001946634600E000BF01B5FFF7B7FF002815
:100AB00048BF10F1000F01BD4DF808EDFFF7F4FF3E
:100AC0000CBF012000205DF808FB00BF4DF808EDC9
:100AD000FFF7EAFF34BF012000205DF808FB00BFEC
:100AE0004DF808EDFFF7E0FF94BF012000205DF80E
:100AF00008FB00BF4DF808EDFFF7CEFF94BF0120C3
:100B000000205DF808FB00BF4DF808EDFFF7C4FFBB
:100B100034BF012000205DF808FB00BF4FEA410C04
:100B20007FEA6C5C02D150EA013C0AD14FEA430CE7
:100B30007FEA6C5C02D152EA033C02D14FF0000024
:100B400070474FF0010070474FEA410212F5001262
:100B500015D211D56FF47873B3EB625212D94FEA04
:100B6000C12343F0004343EA505311F0004F23FAEE
:100B700002F018BF404270474FF00000704750EA43
:100B8000013005D111F0004008BF6FF00040704700
:100B90004FF00000704700BF4A0011D212F500125A
:100BA00011D20DD56FF47873B3EB62520ED44FEAC5
:100BB000C12343F0004343EA505323FA02F0704745
:100BC0004FF00000704750EA013002D14FF0FF3083
:100BD00070474FF00000704753B94AB9002908BF69
:100BE00000281CBF4FF0FF314FF0FF3000F0E2B89B
:100BF000ADF1080C6DE904CE0DF0A4FFDDF804E0C2
:100C0000DDE9022304B0704700F1340191E83800B7
:100C10009C46A6464CF8045D90E8FF0FE54600BDF3
:100C200090EC210B704700BF80EC210B704700BF98
:100C300090EC200B704700BF80EC200B704700BF8A
:100C4000D0EC200B704700BFC0EC200B704700BFFA
:100C5000F0EC0201F0EC0211F0EC0221F0EC0231B8
:100C6000F0EC0241F0EC0251F0EC0261F0EC0271A8
:100C7000F0EC0281F0EC0291F0EC02A1F0EC02B198
:100C8000F0EC02C1F0EC02D1F0EC02E1F0EC02F188
:100C9000704700BFE0EC0201E0EC0211E0EC022141
:100CA000E0EC0231E0EC0241E0EC0251E0EC0261E8
:100CB000E0EC0271E0EC0281E0EC0291E0EC02A1D8
:100CC000E0EC02B1E0EC02C1E0EC02D1E0EC02E1C8
:100CD000E0EC02F1704700BFB0FC0181B0FC019173
:100CE000B0FC01A1B0FC01B1704700BFA0FC0181C4
:100CF000A0FC0191A0FC01A1A0FC01B1704700BFC4
:100D0000EC4600B52DE900502DE9FF1F4FF0000320
:100D10002DE90C0001A90EF0C9F9DDF840E012B090
:100D2000704700BFEC4600B52DE900502DE9FF1FCC
:100D30004FF000032DE90C0001A90EF0F3F9DDF8E6
:100D400040E012B0704700BFEC4600B52DE90050FE
:100D50002DE9FF1F4FF000032DE90C0001A90EF053
:100D600003FADDF840E012B0704700BFEC4600B572
:100D70002DE900502DE9FF1F4FF000032DE90C0075
:100D800001AB0EF0C7F9DDF840E012B0704700BFCC
:100D9000EC4600B52DE900502DE9FF1F4FF0000390
:100DA0002DE90C0001AA0EF033FADDF840E012B094
:100DB000704700BF704700BF10B5054C237833B9AA
:100DC000044B13B10448AFF300800123237010BD1E
:100DD000E001002000000000C8FA000808B5034B3D
:100DE0001BB103490348AFF3008008BD00000000B9
:100DF000E4010020C8FA0008B0B586B000AF034691
:100E00000A46FB801346BB80FB88012B02D0022BD5
:100E10006FD093E0BB881846FFF77CFB50A3D3E963
:100E20000023FFF7E1FB02460B46C7E90423D7E99D
:100E3000042353A1D1E90001FFF71EFA02460B4635
:100E40001046194650A3D3E90023FFF7F7FC0246EA
:100E50000B46D7E90401FFF7F1FC02460B46C7E950
:100E6000022397ED020B0CF0C3FB51EC100B48A3CF
:100E7000D3E90023FFF7B8FB02460B46104619469C
:100E800045A3D3E90023FFF7F9F902460B461446C0
:100E90001D4697ED020B0CF0ABFBB0EE407AF0EE86
:100EA000607A9FED2B1BB0EE470AF0EE670A0CF05C
:100EB000E3FB51EC100B3AA3D3E90023FFF794FBBB
:100EC00002460B4620462946FFF7D8F902460B4654
:100ED0004FF000002849FFF7B1FC02460B461046D0
:100EE00019461DA3D3E90023FFF7C6F902460B46B6
:100EF00025E0BB881846FFF70DFB19A3D3E90023B3
:100F0000FFF772FB02460B4617A1D1E90001FFF77C
:100F1000B3F902460B461046194615A3D3E9002340
:100F2000FFF78CFC02460B46104619464FF00002B4
:100F3000124BFFF7A3F902460B4600E001E043EC39
:100F4000172BB0EE470AF0EE670A1837BD46B0BD62
:100F50000000000000000840666666666612714088
:100F60006666666666660A3F52B81E85EB51E83FC4
:100F70007B14AE47E17A643F0000F03F00003E4042
:100F80006666666666660A40000000000088C34028
:100F90000395F1EF332E2C3FD7F7E12021CA473FCD
:100FA000B905B0A0E7517C3E80B483B000AF0346E2
:100FB0000A46FB801346BB80FB88002B03D1054A01
:100FC000BB88936300BF00BF0C37BD465DF8047B50
:100FD000704700BF000400402DE9B04392B000AF5D
:100FE00087ED040B87ED021BB4A3D3E90023D7E9F7
:100FF0000401FFF7F9FA02460B4690469946AFA363
:10100000D3E90023D7E90201FFF7EEFA02460B46C7
:1010100040464946FFF730F902460B46C7E9102320
:10102000A6A3D3E90023D7E90401FFF7DDFA0246BE
:101030000B4690469946A1A3D3E90023D7E90201C4
:10104000FFF7D2FA02460B4640464946FFF716F92B
:1010500002460B46C7E90E23914B1B881846FFF743
:1010600059FAD7E90E23FFF7BFFA02460B4611469D
:10107000396323F000437B63894B1B881846FFF7D5
:1010800049FAD7E91023FFF7AFFA02460B4611469B
:10109000B96223F00043FB624FF000024FF00003FF
:1010A000D7E90C01FFF730FD0346002B7BD0D7E9D1
:1010B0000C234FF000007B49FFF7C0FB02460B46B4
:1010C000104619464FF00002774BFFF78DFA0246A3
:1010D0000B46104619466AA3D3E90023FFF784FAAA
:1010E00002460B461046194667A3D3E90023FFF7D3
:1010F000A5FB02460B461046194665A3D3E900231B
:10110000FFF772FA02460B4610461946FFF744FDF8
:1011100003467B6201F06AF803461A46634B1B687C
:10112000D31A7A6A9A423ED8BB6B3B60FB6B23F0C2
:1011300000437B6058A3D3E90023D7E90001FFF700
:10114000E3FC0346002B2ED04FF000024FF00003CB
:10115000D7E90E01FFF7D8FC0346002B09D0012286
:101160000221534804F076FA4021524804F08AFAEA
:1011700013E04FF000024FF00003D7E90E01FFF734
:10118000A5FC0346002B08D000220221484804F0A9
:1011900061FA4021474804F075FA01F027F8034648
:1011A0001A46424B1A604FF000024FF00003D7E995
:1011B0000A01FFF7A9FC0346002B00F09E80D7E947
:1011C0000A234FF000003749FFF738FB02460B4671
:1011D000104619464FF00002334BFFF705FA02465E
:1011E0000B461046194626A3D3E90023FFF7FCF966
:1011F00002460B461046194623A3D3E90023FFF706
:101200001DFB02460B461046194621A3D3E90023D5
:10121000FFF7EAF902460B4610461946FFF7BCFCF9
:1012200003463B6200F0E2FF03461A46224B1B686E
:10123000D31A3A6A9A4260D83C6C7B6C23F0004522
:1012400015A3D3E9002320462946FFF75DFC03469A
:10125000002B52D04FF000024FF00003D7E91001ED
:10126000FFF752FC0346002B2CD00122042110482A
:1012700004F0F0F980214FF0904004F003FA36E0DA
:10128000000000205C475140000000000064B940AD
:101290000000000080842E41FCA9F1D24D62503F35
:1012A000460200200000F03F00004E4034020020C3
:1012B000001400480008004838020020CD3B7F663B
:1012C0009EA0E63F4FF000024FF00003D7E9100167
:1012D000FFF7FCFB0346002B09D0002204218E48B7
:1012E00004F0B8F980214FF0904004F0CBF900F001
:1012F0007DFF03461A46894B1A60894B1B88002BD9
:1013000000F0F980864B1B881846FFF7F3F8024679
:101310000B464FF000008349FFF790FA02460B4658
:10132000104619464FF000027F4BFFF75DF9024669
:101330000B461046194672A3D3E90023FFF754F970
:1013400002460B46104619466FA3D3E90023FFF768
:1013500075FA02460B46104619466DA3D3E90023E1
:10136000FFF742F902460B4610461946FFF714FCF8
:101370000346FB6100F03AFF03461A466B4B1B68BD
:10138000D31AFA699A4200F2B6804FF000024FF089
:101390000003D7E90401FFF7B7FB0346002B26D073
:1013A000D7E90423D7E90401FFF71EF902460B46EB
:1013B0001046194652A3D3E90023FFF715F9024658
:1013C0000B461046194650A3D3E90023FFF736FA1F
:1013D00002460B4610461946554BD3E90023FEF74B
:1013E0004DFF02460B465249C1E9002325E0504B10
:1013F000D3E90045D7E90423D7E90401FFF7F4F85E
:1014000002460B46104619463DA3D3E90023FFF7D9
:10141000EBF802460B46104619463BA3D3E90023DE
:10142000FFF70CFA02460B4620462946FEF724FF3A
:1014300002460B463E49C1E900234FF000024FF03F
:101440000003D7E90201FFF75FFB0346002B26D01C
:10145000D7E90223D7E90201FFF7C6F802460B4697
:101460001046194626A3D3E90023FFF7BDF802462C
:101470000B461046194624A3D3E90023FFF7DEF9F3
:1014800002460B46104619462A4BD3E90023FEF7C5
:10149000F5FE02460B462749C1E9002325E0254B0E
:1014A000D3E90045D7E90223D7E90201FFF79CF809
:1014B00002460B461046194611A3D3E90023FFF755
:1014C00093F802460B46104619460FA3D3E90023B2
:1014D000FFF7B4F902460B4620462946FEF7CCFE3C
:1014E00002460B461349C1E9002300F07FFE034684
:1014F0001A460E4B1A6000BF4837BD46BDE8B083A0
:10150000000000205C475140000000000064B9402A
:101510000000000080842E410014004838020020A2
:10152000460200200000F03F00004E403C02002038
:10153000080200201002002080B584B000AF87EDC3
:10154000020B78600B467B8013463B80CAA3D3E92D
:101550000023D7E90201FFF7CDFA0346002B0AD199
:10156000C7A3D3E90023D7E90201FFF7B9FA03467D
:10157000002B00F0518100F039FE03461A467B68CB
:10158000D21A3B889A42C0F04B813B88002B00F076
:101590004781AD4B01221A704FF000024FF000035B
:1015A000D7E90201FFF792FA0346002B00F0998079
:1015B0007B88032B00F22C8101A252F823F000BF9C
:1015C0004716000895160008D11500080B160008EC
:1015D000012208219D4804F03DF89D4BD3E900010C
:1015E00093A3D3E90023FEF747FE02460B46984932
:1015F000C1E900230121974804F044F800F0F6FD0A
:1016000003461A46944B1A6005E100224FF480719C
:101610008E4804F01FF8914BD3E9000186A3D3E96B
:101620000023FEF729FE02460B468C49C1E9002340
:101630000221884804F026F800F0D8FD03461A4637
:10164000874B1A60E7E000220221804804F002F88C
:10165000002204217D4803F0FDFF824BD3E9000105
:1016600077A3D3E90023FEF707FE02460B467D4928
:10167000C1E9002340217C4804F004F880214FF0A8
:10168000904003F0FFFF00F0B1FD03461A46774B90
:101690001A60C0E0002202216C4803F0DBFF012247
:1016A00004216A4803F0D6FF714BD3E9000164A31B
:1016B000D3E90023FEF7E0FD02460B466C49C1E981
:1016C00000234021684803F0DDFF80214FF0904067
:1016D00003F0D8FF00F08AFD03461A46654B1A60F6
:1016E00099E07B88032B00F2958001A252F823F049
:1016F00075170008C3170008011700083B170008FA
:1017000000220821514803F0A5FF514BD3E9000105
:1017100047A3D3E90023FEF7B1FD02460B464C492F
:10172000C1E9002301214B4803F0ACFF00F05EFD4E
:1017300003461A46484B1A606DE001224FF480714F
:10174000424803F087FF454BD3E900013AA3D3E9B0
:101750000023FEF793FD02460B464049C1E90023F2
:1017600002213C4803F08EFF00F040FD03461A467C
:101770003B4B1A6001220221344803F06BFF012227
:101780000421324803F066FF364BD3E900012CA355
:10179000D3E90023FEF772FD02460B463149C1E949
:1017A00000234021304803F06DFF80214FF090402E
:1017B00003F068FF00F01AFD03461A462B4B1A602F
:1017C00029E001220221214803F044FF00220421E4
:1017D0001E4803F03FFF264BD3E9000118A3D3E9CD
:1017E0000023FEF74BFD02460B462149C1E90023C9
:1017F00040211D4803F046FF80214FF0904003F048
:1018000041FF00F0F3FC03461A461A4B1A6002E04F
:1018100000BF05E000BF03E00B4B00221A7000E0A0
:1018200000BF00BF1037BD4680BD00BFAFF30080D2
:10183000000000A0D091533F000000402D3A3B3FF4
:1018400000000060CBC6853F200200200014004845
:10185000000200200004004824020020180200209A
:101860003002002008020020000800482802002062
:10187000100200202C020020FA7E6ABC7493883F7C
:10188000FA7E6ABC749388BF2DE9B04392B000AF72
:10189000734BD3E90001734BD3E90023FEF7ECFC53
:1018A00002460B46C7E910236F4BD3E900016F4B8B
:1018B000D3E90023FEF7E0FC02460B46C7E90E23FE
:1018C0006B4BD3E900016B4BD3E90023FEF7D4FC4B
:1018D00002460B46C7E90C23674BD3E90001674B6F
:1018E000D3E90023FEF7C8FC02460B46C7E90A23EA
:1018F000D7E90C23D7E90C01FEF776FE02460B462A
:1019000090469946D7E90A23D7E90A01FEF76CFE0B
:1019100002460B4640464946FEF7B0FC02460B46DF
:1019200043EC172BB0EE470AF0EE670A0BF01CFFF2
:1019300087ED080BD7E90823D7E90C01FEF77EFFF6
:1019400002460B46C7E90623D7E90823D7E90A016F
:10195000FEF774FF02460B46C7E90423484B1B8879
:101960001846FEF7C7FD02460B464FF000004549FA
:10197000FEF764FF02460B46104619464FF0000280
:10198000414BFEF731FE02460B46104619464FF01A
:1019900000023E4BFEF728FE02460B461046194653
:1019A00029A3D3E90023FEF749FF02460B46104660
:1019B000194627A3D3E90023FEF716FE02460B467D
:1019C00010461946FFF7E8F80346FB60304B1B68EA
:1019D000FA6892B20321184697ED0E0BFFF7ACFDA3
:1019E0002C4B1B68FA6892B20221184697ED100B37
:1019F000FFF7A2FD3B6B3B607B6B23F000437B60FA
:101A000015A3D3E90023D7E90001FFF77DF80346CA
:101A1000002B0ED1BC6AFB6A23F000450EA3D3E96C
:101A2000002320462946FFF76FF80346002B00D11C
:101A300005E097ED041B97ED060BFFF7CDFA00BF0D
:101A40004837BD46BDE8B0830000000000CED2405C
:101A50000000000080842E41FA7E6ABC7493883FA7
:101A6000480200200002002060020020180200202E
:101A7000500200200802002058020020100200201E
:101A8000460200200000F03F00004E4000003740BA
:101A90003002002024020020B0B500AF284B5B6864
:101AA0009BB219460120FFF7A7F953EC102B104603
:101AB0001946FFF771F803469AB2224B1A80214B60
:101AC0001A88214B1B889A422ED81E4B1B88184619
:101AD000FEF710FD18A3D3E90023FEF785FD0246AB
:101AE0000B4614461D46184B1B881846FEF702FD90
:101AF00002460B4620462946FEF7C0FB02460B462F
:101B0000104619464FF00002104BFEF7B7FB024695
:101B10000B4610461946FFF73FF803469BB219469D
:101B20000020FFF741FA03E000210020FFF73CFA14
:101B300000BFB0BDAFF30080000000C0CCCCECBF54
:101B40007C0B00206A02002068020020000059403F
:101B500080B500AF00224FF48051024803F07AFDB7
:101B600000BF80BD0018004880B582B000AF0346BA
:101B7000FB71FB7901220121184600F043FB00BFF5
:101B80000837BD4680BD000080B582B000AF034677
:101B9000FB7100224FF480510B4803F05BFD0022E3
:101BA0004FF40051084803F055FDFB791846FFF744
:101BB000DBFF01224FF48051034803F04BFD00BFCF
:101BC0000837BD4680BD00BF0018004880B582B010
:101BD00000AF0346FB7101224FF400510B4803F0A4
:101BE00039FD00224FF48051084803F033FDFB79A2
:101BF0001846FFF7B9FF01224FF48051034803F064
:101C000029FD00BF0837BD4680BD00BF0018004851
:101C100090B583B000AF0446084611461A462346E5
:101C2000FB800346BB800B467B8013463B802A200B
:101C3000FFF7AAFFFB881B0A9BB2DBB21846FFF72F
:101C4000C5FFFB88DBB21846FFF7C0FF7B881B0A85
:101C50009BB2DBB21846FFF7B9FF7B88DBB21846B0
:101C6000FFF7B4FF2B20FFF78FFFBB881B0A9BB247
:101C7000DBB21846FFF7AAFFBB88DBB21846FFF7B6
:101C8000A5FF3B881B0A9BB2DBB21846FFF79EFFFD
:101C90003B88DBB21846FFF799FF2C20FFF774FF53
:101CA00000BF0C37BD4690BD80B500AF01224FF498
:101CB00080410B4803F0CEFCC82001F0D3FC002289
:101CC0004FF48051064803F0C5FCC82001F0CAFC5F
:101CD00001224FF48041024803F0BCFC00BF80BDEC
:101CE0000018004880B584B000AF0346FB71FB7953
:101CF000FB733620FFF748FF012001F0B3FCFB7BAC
:101D0000032B37D801A252F823F000BF1D1D000895
:101D1000331D0008491D00085F1D00084820FFF71B
:101D200055FF174BF0221A80164B4FF4A0721A8001
:101D300021E02820FFF74AFF114B4FF4A0721A80D0
:101D4000104BF0221A8016E08820FFF73FFF0C4B63
:101D5000F0221A800B4B4FF4A0721A800BE0E8209F
:101D6000FFF734FF064B4FF4A0721A80054BF022A8
:101D70001A8000E000BF00BF1037BD4680BD00BF25
:101D8000020000200000002080B500AF01224FF4C7
:101D90008041024803F05EFC00BF80BD001800488F
:101DA00080B500AFFFF7F0FFFFF7D2FEFFF77CFF33
:101DB0000120FFF7E9FE4FF47A7001F053FCCB20CD
:101DC000FFF7E2FE3920FFF701FF2C20FFF7FEFEB0
:101DD0000020FFF7FBFE3420FFF7F8FE0220FFF79C
:101DE000F5FECF20FFF7D0FE0020FFF7EFFEC12069
:101DF000FFF7ECFE3020FFF7E9FEE820FFF7C4FE16
:101E00008520FFF7E3FE0020FFF7E0FE7820FFF7D4
:101E1000DDFEEA20FFF7B8FE0020FFF7D7FE002026
:101E2000FFF7D4FEED20FFF7AFFE6420FFF7CEFEF4
:101E30000320FFF7CBFE1220FFF7C8FE8120FFF73B
:101E4000C5FEF720FFF7A0FE2020FFF7BFFEC02051
:101E5000FFF79AFE2320FFF7B9FEC120FFF794FE9B
:101E60001020FFF7B3FEC520FFF78EFE3E20FFF7E0
:101E7000ADFE2820FFF7AAFEC720FFF785FE8620CB
:101E8000FFF7A4FE3620FFF77FFE4820FFF79EFEF7
:101E90003A20FFF779FE5520FFF798FEB120FFF7B3
:101EA00073FE0020FFF792FE1820FFF78FFEB6208A
:101EB000FFF76AFE0820FFF789FE8220FFF786FE03
:101EC0002720FFF783FEF220FFF75EFE0020FFF7DA
:101ED0007DFE2620FFF758FE0120FFF777FEE02069
:101EE000FFF752FE0F20FFF771FE3120FFF76EFE65
:101EF0002B20FFF76BFE0C20FFF768FE0E20FFF78C
:101F000065FE0820FFF762FE4E20FFF75FFEF1201E
:101F1000FFF75CFE3720FFF759FE0720FFF756FE5C
:101F20001020FFF753FE0320FFF750FE0E20FFF7AF
:101F30004DFE0920FFF74AFE0020FFF747FEE12093
:101F4000FFF722FE0020FFF741FE0E20FFF73EFEC6
:101F50001420FFF73BFE0320FFF738FE1120FFF7A8
:101F600035FE0720FFF732FE3120FFF72FFEC1209C
:101F7000FFF72CFE4820FFF729FE0820FFF726FE7A
:101F80000F20FFF723FE0C20FFF720FE3120FFF784
:101F90001DFE3620FFF71AFE0F20FFF717FE112057
:101FA000FFF7F2FD782001F05DFB2920FFF7ECFD43
:101FB0000020FFF797FE00BF80BD00002DE9F04331
:101FC0008DB000AF03463960FB806B461E46002390
:101FD000FB623B685B00B3F5207F02D23B68FB628B
:101FE00002E04FF42073FB6201224FF4005140489D
:101FF00003F030FB00224FF480513D4803F02AFBF0
:10200000FB881B0A9BB287F82330F96A0B46013B19
:10201000FB610023884699464FF000024FF0000311
:102020004FEAC90343EA58734FEAC80200230C463B
:102030001D464FF000024FF00003EB0043EA5473DB
:10204000E200CB1DDB08DB00ADEB030D6B4600337C
:10205000BB610023BB620EE0BA69BB6A134497F808
:1020600023201A70BB6A0133FA88D1B2BA69D154FD
:10207000BB6A0233BB62BA6AFB6A9A42ECD33B6822
:102080005B007B617A69FB6AB2FBF3F33B617B69BE
:10209000FA6AB3FBF2F2F96A01FB02F29B1AFB60E7
:1020A0003B69002B10D000237B6209E0FB6A9BB2E6
:1020B0000A221946B86900F0A5F87B6A01337B62F1
:1020C0007A6A3B699A42F1D3FB689BB20A221946AD
:1020D000B86900F097F801224FF48051044803F0EA
:1020E000B9FAB54600BF3437BD46BDE8F08300BF3E
:1020F0000018004880B582B000AF0346FB800E4B4D
:102100001B889AB20D4B1B889BB200210020FFF761
:102110007FFD094B1B889BB21A46084B1B889BB25C
:1021200002FB03F31A46FB8811461846FFF746FFE9
:1021300000BF0837BD4680BD02000020000000201F
:1021400080B400AF074B4FF6FF721A80064B002297
:102150001A80064B00221A8000BFBD465DF8047B42
:10216000704700BF400200204202002044020020CD
:1021700080B582B000AF78600B467B807B681B68BF
:10218000094A93420CD114220849094808F0C0F9C1
:10219000084B1B681A68074B1B6822F004021A6080
:1021A00000BF0837BD4680BD008000406C020020A3
:1021B000480300206804002080B483B000AF0346C9
:1021C000FB80094B1B6800225A6200BF064B1B684C
:1021D0005A6AFB889A42F9D300BF00BF0C37BD464C
:1021E0005DF8047B704700BFD805002080B400AFC5
:1021F000034B1B685B6A1846BD465DF8047B70475D
:102200002406002080B584B000AFF8600B467A60E9
:102210007B817A8907F10C017B68034805F053FA4A
:1022200000BF1037BD4680BDDC04002080B584B0FF
:1022300000AF01F0A3F900F0AFF800F0A3FC00F04C
:102240006FFC00F09FF900F041FC00F0A3FB00F0F0
:10225000E9F900F007FB00F0F3F800F0E9FB00F00B
:1022600081FA00F041FA00F029FA00213F4805F018
:102270001FFE04213D4805F01BFE08213B4805F0E8
:1022800017FE03223A493B4801F04AFD3A4805F05F
:1022900045FD3A4805F042FD14223949394808F015
:1022A00037F9394B1B681A68374B1B6822F0040258
:1022B0001A6014220021324808F0D8FCFFF740FFD2
:1022C0000023FB6000237B600023BB60FFF768FDF9
:1022D0000320FFF707FD4FF6FF70FFF70BFF40F6F7
:1022E000B83001F0BFF91021284803F09BF90346EC
:1022F000012B08D02021254803F094F90346012B37
:1023000001D0FFF7C1FAFFF7C7FBFB6841F6641283
:10231000934210DC01224FF480711C4803F09AF9BB
:1023200002211B4803F0AEF94FF41670FFF744FF8B
:10233000FB680133FB604FF40051164803F072F95B
:102340000346012BC4D1FFF751FF03461A46BB6871
:10235000D31AB3F5FA6FBBD380214FF0904003F04E
:1023600091F9FFF743FF0346BB60B1E78C050020FE
:102370007C0B002080020020D805002024060020CD
:102380006C0200204803002068040020001400486C
:10239000000400480008004880B598B000AF07F17D
:1023A000180348220021184608F060FC3B1D00225B
:1023B0001A605A609A60DA601A61002003F0E4FA49
:1023C0000346002B01D000F0E9FC3023BB61012360
:1023D0003B6401237B630023BB636023FB63022315
:1023E0007B640123BB640123FB643C233B65022324
:1023F0007B650223BB650223FB6507F118031846C2
:1024000003F086FB0346002B01D000F0C7FC0F232E
:102410007B600323BB600023FB6000233B61002340
:102420007B613B1D0521184603F0EEFF0346002BA0
:1024300001D000F0B3FC00BF6037BD4680BD000096
:1024400080B58AB000AF07F11C0300221A605A6001
:102450009A603B1D00221A605A609A60DA601A6125
:102460005A61434B434A1A60414B00225A60404B29
:1024700000229A603E4B0022DA603D4B01221A6135
:102480003B4B04225A613A4B00221A76384B012208
:102490005A76374B0322DA61354B002283F820202D
:1024A000334B00229A62324B0022DA62304B012217
:1024B00083F830202E4B00225A632D4B012283F8E3
:1024C00038202B4B0C22DA63294B00221A64284B4C
:1024D00000225A64264B01229A64254801F0CEFA64
:1024E0000346002B01D000F059FC0023FB6107F1EB
:1024F0001C0319461E4802F01FFA0346002B01D0A8
:1025000000F04CFC1C4B7B600623BB600623FB6089
:102510007F233B6104237B610023BB613B1D194684
:10252000134801F0CFFC0346002B01D000F036FC2D
:10253000124B7B600C23BB603B1D19460C4801F01D
:10254000C1FC0346002B01D000F028FC0C4B7B6043
:102550001223BB603B1D1946054801F0B3FC03463E
:10256000002B01D000F01AFC00BF2837BD4680BD0B
:1025700080020020000004500200300404006008C3
:10258000000052C780B500AF244B254A1A60234B88
:102590004FF4E1325A60214B00229A601F4B002217
:1025A000DA601E4B00221A611C4B0C225A611B4B35
:1025B00000229A61194B00221A62184B00225A62BB
:1025C000164B10229A62154B4FF48052DA63134B6C
:1025D00000225A66114806F007FC0346002B01D082
:1025E00000F0DCFB00210D4807F016FF0346002B2E
:1025F00001D000F0D3FB0021084807F04BFF034651
:10260000002B01D000F0CAFB044807F0CCFE0346C3
:10261000002B01D000F0C2FB00BF80BD48030020AA
:102620000080004080B500AF224B234A1A60214B46
:102630004FF4E1325A601F4B00229A601D4B00227A
:10264000DA601C4B00221A611A4B0C225A61194B9A
:1026500000229A61174B0022DA61164B00221A629F
:10266000144B00225A62134B00229A62114806F062
:10267000BBFB0346002B01D000F090FB00210D486E
:1026800007F0CAFE0346002B01D000F087FB0021B3
:10269000084807F0FFFE0346002B01D000F07EFB48
:1026A000044807F080FE0346002B01D000F076FBC3
:1026B00000BF80BDD8030020004C004080B500AFB3
:1026C000074B084A1A60064B00225A60044804F07F
:1026D000ADFE0346002B01D000F060FB00BF80BDC3
:1026E000C80400200008065080B500AF1B4B1C4AF0
:1026F0001A601A4B4FF482725A60184B00229A608B
:10270000164B4FF4E062DA60144B00221A61134B4F
:1027100000225A61114B4FF400729A610F4B08224C
:10272000DA610E4B00221A620C4B00225A620B4BEC
:1027300000229A62094B0722DA62084B00221A63D0
:10274000064B08225A63054804F01AFF0346002B83
:1027500001D000F023FB00BF80BD00BFDC040020DF
:102760000030014080B58EB000AF07F12803002291
:102770001A605A609A60DA6007F11C0300221A603E
:102780005A609A603B4600221A605A609A60DA608A
:102790001A615A619A61324B4FF080421A60304B95
:1027A00077225A602E4B00229A602D4BFF22DA606E
:1027B0002B4B00221A612A4B00229A61284805F00F
:1027C00055FA0346002B01D000F0E8FA4FF480538D
:1027D000BB6207F128031946214805F083FD034633
:1027E000002B01D000F0DAFA1D4805F0FFFA03468D
:1027F000002B01D000F0D2FA0023FB6100237B62A2
:1028000007F11C031946164806F066FA0346002B2A
:1028100001D000F0C3FA60233B6000237B600023FB
:10282000BB6000233B613B46002219460C4805F083
:1028300045FC0346002B01D000F0B0FA3B460422D1
:102840001946074805F03AFC0346002B01D000F07A
:10285000A5FA034800F052FD00BF3837BD4680BDE1
:102860004005002080B58EB000AF07F1280300229C
:102870001A605A609A60DA6007F11C0300221A603D
:102880005A609A603B4600221A605A609A60DA6089
:102890001A615A619A613D4B3D4A1A603B4B77225F
:1028A0005A603A4B00229A60384BFF22DA60374B6D
:1028B00000221A61354B80229A61344805F0D6F91E
:1028C0000346002B01D000F069FA4FF48053BB623D
:1028D00007F1280319462D4805F004FD0346002B97
:1028E00001D000F05BFA294805F080FA0346002B7E
:1028F00001D000F053FA0023FB6100237B6207F153
:102900001C031946214806F0E7F90346002B01D0C5
:1029100000F044FA60233B6000237B600023BB602F
:1029200000233B613B4600221946184805F0C6FBD0
:102930000346002B01D000F031FA3B460422194631
:10294000124805F0BBFB0346002B01D000F026FA2D
:102950003B46082219460D4805F0B0FB0346002B04
:1029600001D000F01BFA3B460C221946074805F03F
:10297000A5FB0346002B01D000F010FA034800F03D
:10298000BDFC00BF3837BD4680BD00BF8C050020B0
:102990000004004080B588B000AF07F110030022AA
:1029A0001A605A609A60DA603B1D00221A605A6011
:1029B0009A601D4B1D4A1A601B4B77225A601A4BB6
:1029C00000229A60184B4FF6FF72DA60164B002215
:1029D0001A61154B00229A61134805F047F9034626
:1029E000002B01D000F0DAF94FF480533B6107F17E
:1029F000100319460C4805F075FC0346002B01D066
:102A000000F0CCF900237B600023FB603B1D1946DE
:102A1000054806F061F90346002B01D000F0BEF92D
:102A200000BF2037BD4680BDD8050020000800400B
:102A300080B588B000AF07F1100300221A605A6019
:102A40009A60DA603B1D00221A605A609A601D4B42
:102A50001D4A1A601B4B77225A601A4B00229A605B
:102A6000184B4FF0FF32DA60164B00221A61154BFB
:102A700000229A61134805F0F9F80346002B01D0B3
:102A800000F08CF94FF480533B6107F110031946B5
:102A90000C4805F027FC0346002B01D000F07EF91E
:102AA00000237B600023FB603B1D1946054806F0B0
:102AB00013F90346002B01D000F070F900BF203756
:102AC000BD4680BD24060020000C004080B500AF4C
:102AD000124B4FF0A0421A60104B06225A600F4B67
:102AE00002229A610D4B0122DA610C4B00221A621C
:102AF0000A4B00225A62094B01229A62074B0022BC
:102B00001A63064B0122DA62044802F0D5FD03463F
:102B1000002B01D000F042F900BF80BD70060020FC
:102B200080B582B000AF164B9B6C154A43F004038E
:102B30009364134B9B6C03F004037B607B68104B26
:102B40009B6C0F4A43F0010393640D4B9B6C03F0A5
:102B500001033B603B68002200210B2002F06BF870
:102B60000B2002F084F8002200210C2002F063F810
:102B70000C2002F07CF800BF0837BD4680BD00BFC6
:102B80000010024080B58CB000AF07F11C0300229A
:102B90001A605A609A60DA601A617B4BDB6C7A4A81
:102BA00043F01003D364784BDB6C03F01003BB617C
:102BB000BB69754BDB6C744A43F00403D364724BFE
:102BC000DB6C03F004037B617B696F4BDB6C6E4A4B
:102BD00043F02003D3646C4BDB6C03F020033B61B8
:102BE0003B69694BDB6C684A43F08003D364664BF6
:102BF000DB6C03F08003FB60FB68634BDB6C624AB9
:102C000043F00103D364604BDB6C03F00103BB6052
:102C1000BB685D4BDB6C5C4A43F00203D3645A4BE8
:102C2000DB6C03F002037B607B68574BDB6C564A1E
:102C300043F04003D364544BDB6C03F040033B6030
:102C40003B6802F055FF00224FF4E7714F4802F055
:102C500001FD002280214FF0904002F0FBFC002299
:102C600044F283014A4802F0F5FC00224FF2400191
:102C7000484802F0EFFC00224021474802F0EAFCFD
:102C80004FF40053FB614FF488133B6200237B62D7
:102C900007F11C031946404802F032FB40F2312391
:102CA000FB6100233B6200237B6207F11C03194692
:102CB000364802F025FB4FF4E773FB6101233B62CA
:102CC00000237B620023BB6207F11C0319462F48D7
:102CD00002F016FB8023FB6101233B6200237B6231
:102CE0000023BB6207F11C0319464FF0904002F02D
:102CF00007FB44F28303FB6101233B6200237B62F9
:102D00000023BB6207F11C031946214802F0F8FAC0
:102D10004FF40263FB6100233B6200237B6207F1F7
:102D20001C0319461B4802F0EBFA4023FB61012308
:102D30003B6200237B620023BB6207F11C03194640
:102D4000144802F0DDFA4023FB6101233B620023BB
:102D50007B620023BB6207F11C0319460E4802F098
:102D6000CFFA4FF47043FB6101233B6200237B6287
:102D70000323BB6207F11C031946064802F0C0FAA0
:102D800000BF3037BD4680BD00100240001400482F
:102D900000040048001800480008004880B400AF54
:102DA00072B600BFFEE7000080B483B000AF0F4BE7
:102DB0001B6E0E4A43F0010313660C4B1B6E03F0AF
:102DC00001037B607B68094B9B6D084A43F080538D
:102DD0009365064B9B6D03F080533B603B6800BFDF
:102DE0000C37BD465DF8047B704700BF0010024001
:102DF00080B5B0B000AF786007F1AC0300221A6074
:102E00005A609A60DA601A6107F11403982200216F
:102E1000184607F02BFF7B681B683C4A934271D130
:102E20004FF480437B614FF08053C7F89430012307
:102E3000BB610123FB6118233B6202237B620423F5
:102E4000BB620223FB624FF080733B6307F1140304
:102E5000184603F097FD0346002B01D0FFF79EFFB5
:102E60002B4BDB6C2A4A43F40053D364284BDB6CB6
:102E700003F400533B613B69254BDB6C244A43F070
:102E80000403D364224BDB6C03F00403FB60FB6898
:102E90000323C7F8AC300B23C7F8B0300023C7F8C2
:102EA000B43007F1AC0319461A4802F029FA1A4B5C
:102EB0001A4A1A60184B05225A60174B00229A6072
:102EC000154B0022DA60144B80221A61124B4FF42A
:102ED00000725A61104B4FF400629A610E4B20222F
:102EE000DA610D4B00221A620B4801F0DBFE03464B
:102EF000002B01D0FFF752FF7B68074A1A65064A8C
:102F00007B68936200BFC037BD4680BD000004509F
:102F10000010024000080048E802002008000240BB
:102F200080B5B2B000AF786007F1B40300221A6038
:102F30005A609A60DA601A6107F11C039822002136
:102F4000184607F093FE7B681B686D4A93426FD169
:102F50002023FB610023FB6607F11C03184603F0E6
:102F600011FD0346002B01D0FFF718FF654BDB6D09
:102F7000644A43F00103D365624BDB6D03F0010348
:102F8000BB61BB695F4BDB6C5E4A43F04003D364BB
:102F90005C4BDB6C03F040037B617B6902F0A8FDB6
:102FA0004FF4C073C7F8B4300223C7F8B830002319
:102FB000C7F8BC300323C7F8C0300823C7F8C430B3
:102FC00007F1B4031946504802F09AF94F4B504AA2
:102FD0001A604E4B23225A604C4B00229A604B4B96
:102FE0000022DA60494B80221A61484B00225A6164
:102FF000464B00229A61454B0022DA61434B002286
:103000001A62424801F04EFE0346002B01D0FFF742
:10301000C5FE7B683D4ADA673C4A7B6893620022C2
:103020000021462001F007FE462001F020FE62E06C
:103030007B681B68374A93425DD10823FB610023FC
:103040007B6607F11C03184603F09CFC0346002B2B
:1030500001D0FFF7A3FE2B4B9B6D2A4A43F40023BC
:103060009365284B9B6D03F400233B613B69254B23
:10307000DB6C244A43F00103D364224BDB6C03F086
:103080000103FB60FB681F4BDB6C1E4A43F004032B
:10309000D3641C4BDB6C03F00403BB60BB680123EF
:1030A000C7F8B4300223C7F8B8300023C7F8BC30E3
:1030B0000323C7F8C0300823C7F8C43007F1B403AE
:1030C00019464FF0904002F01BF94FF40063C7F827
:1030D000B4300223C7F8B8300023C7F8BC3003234C
:1030E000C7F8C0300823C7F8C43007F1B403194645
:1030F000094802F005F900BFC837BD4680BD00BFD2
:1031000000800040001002400018004868040020C1
:103110001C000240004C00400008004880B5AAB0E6
:1031200000AF786007F1100398220021184607F0DD
:103130009DFD7B681B68114A93421BD14FF480238D
:103140003B610023C7F88C3007F11003184603F0E9
:1031500019FC0346002B01D0FFF720FE084BDB6C67
:10316000074A43F48023D364054BDB6C03F48023CC
:10317000FB60FB6800BFA837BD4680BD0008065055
:103180000010024080B58AB000AF786007F11403E8
:1031900000221A605A609A60DA601A617B681B68C4
:1031A000264A934245D1264B1B6E254A43F4805351
:1031B0001366234B1B6E03F480533B613B69204B2A
:1031C000DB6C1F4A43F00103D3641D4BDB6C03F03F
:1031D0000103FB60FB681A4BDB6C194A43F01003D8
:1031E000D364174BDB6C03F01003BB60BB68402358
:1031F0007B610223BB610023FB6103233B62052348
:103200007B6207F1140319464FF0904002F078F802
:103210004FF420437B610223BB610023FB61032346
:103220003B6205237B6207F114031946054802F04F
:1032300067F800BF2837BD4680BD00BF00300140A1
:10324000001002400010004880B487B000AF7860E2
:103250007B681B68B3F1804F0CD1244B9B6D234AD4
:1032600043F001039365214B9B6D03F001037B61E8
:103270007B6934E07B681B681D4A93420CD11B4B71
:103280009B6D1A4A43F002039365184B9B6D03F044
:1032900002033B613B6922E07B681B68154A93424D
:1032A0000CD1124B9B6D114A43F0040393650F4BF5
:1032B0009B6D03F00403FB60FB6810E07B681B68F8
:1032C0000D4A93420BD1094B9B6D084A43F008030A
:1032D0009365064B9B6D03F00803BB60BB6800BFA2
:1032E0001C37BD465DF8047B704700BF00100240EC
:1032F0000004004000080040000C004080B58AB087
:1033000000AF786007F1140300221A605A609A60D7
:10331000DA601A617B681B68B3F1804F1DD1214BC5
:10332000DB6C204A43F00103D3641E4BDB6C03F0DB
:1033300001033B613B6922237B610223BB610023C4
:10334000FB6100233B6201237B6207F114031946F2
:103350004FF0904001F0D4FF20E07B681B68124AD8
:1033600093421BD10F4BDB6C0E4A43F01003D36426
:103370000C4BDB6C03F01003FB60FB6878237B6174
:103380000223BB610023FB6100233B6202237B62BB
:1033900007F114031946054801F0B2FF00BF2837B2
:1033A000BD4680BD001002400004004000100048EF
:1033B00080B5B0B000AF786007F1AC0300221A60AE
:1033C0005A609A60DA601A6107F1140398220021AA
:1033D000184607F04BFC7B681B68B3F1A04F6CD11B
:1033E0004FF400537B610023C7F8883007F11403C2
:1033F000184603F0C7FA0346002B01D0FFF7CEFCB6
:10340000304BDB6C2F4A43F00103D3642D4BDB6C54
:1034100003F001033B613B694FF4E853C7F8AC305C
:103420000223C7F8B0300023C7F8B4300323C7F82D
:10343000B8300A23C7F8BC3007F1AC0319464FF087
:10344000904001F05DFF4FF40073C7F8AC300023EB
:10345000C7F8B0300023C7F8B43007F1AC03194601
:103460004FF0904001F04CFF164BDB6C154A43F4D3
:103470008053D364134BDB6C03F48053FB60FB6815
:10348000104B9B6D03F08053002B14D10D4B9B6DA3
:103490000C4A43F0805393650A4B9B6D03F08053B5
:1034A000BB60BB6802F014FB064B9B6D054A23F022
:1034B0008053936501E002F00BFB00BFC037BD46AF
:1034C00080BD00BF0010024080B400AFFEE780B4B2
:1034D00000AFFEE780B400AFFEE780B400AFFEE7C8
:1034E00080B400AFFEE780B400AF00BFBD465DF81A
:1034F000047B704780B400AF00BFBD465DF8047B1D
:10350000704780B400AF00BFBD465DF8047B7047D4
:1035100080B500AF00F086F800BF80BD80B500AF79
:10352000024801F09DFD00BF80BD00BFE802002001
:1035300080B500AF024801F093FD00BF80BD00BF21
:103540006804002080B500AF024805F09DFC00BF74
:1035500080BD00BF4803002080B400AF064BD3F805
:103560008830054A43F47003C2F8883000BFBD4676
:103570005DF8047B704700BF00ED00E080B582B0CD
:1035800000AF0023FB71032001F04AFB002000F094
:103590000DF80346002B02D00123FB7101E0FFF779
:1035A00003FCFB7918460837BD4680BD80B584B062
:1035B00000AF78600023FB73174B1B78002B23D0E0
:1035C000164B1A68144B1B7819464FF47A73B3FBE9
:1035D000F1F3B2FBF3F3184601F057FB0346002B5F
:1035E0000FD17B680F2B09D8002279684FF0FF308C
:1035F00001F021FB0A4A7B68136007E00123FB739B
:1036000004E00123FB7301E00123FB73FB7B1846FD
:103610001037BD4680BD00BF0C0000200400002014
:103620000800002080B400AF064B1B781A46064BFA
:103630001B681344044A136000BFBD465DF8047B59
:10364000704700BF0C000020880B002080B400AF42
:10365000034B1B681846BD465DF8047B704700BFEE
:10366000880B002080B584B000AF7860FFF7EEFFD4
:10367000B8607B68FB60FB68B3F1FF3F05D00A4B85
:103680001B781A46FB681344FB6000BFFFF7DEFFA0
:103690000246BB68D31AFA689A42F7D800BF00BF47
:1036A0001037BD4680BD00BF0C00002080B483B041
:1036B00000AF786039607B689B6823F47C123B68BC
:1036C0001A437B689A6000BF0C37BD465DF8047BE7
:1036D000704780B483B000AF786039607B689B68C6
:1036E00023F0E0723B681A437B689A6000BF0C3796
:1036F000BD465DF8047B704780B483B000AF78604E
:103700007B689B6803F0E07318460C37BD465DF894
:10371000047B704780B487B000AFF860B9607A600E
:103720003B60FB6860331A46BB689B0013447B61B7
:103730007B691A68084B13407A6802F0F8413A68CE
:103740000A43134343F000427B691A6000BF1C37F1
:10375000BD465DF8047B704700F0FF0380B485B080
:1037600000AF786039607B6860331A463B689B0025
:103770001344FB60FB681B6803F0F84318461437DA
:10378000BD465DF8047B704780B487B000AFF86039
:10379000B9607A60FB6860331A46BB689B001344CB
:1037A0007B617B691B6823F000427B681A437B695D
:1037B0001A6000BF1C37BD465DF8047B704780B4BB
:1037C00083B000AF786039607B685B6923F00042AA
:1037D0003B681A437B685A6100BF0C37BD465DF8F1
:1037E000047B704780B483B000AF78607B68DB688F
:1037F00003F44063002B01D1012300E000231846AD
:103800000C37BD465DF8047B704780B487B000AFCD
:10381000F860B9607A60FB6830331A46BB681B0AEF
:103820009B0003F00C0313447B617B691A68BB683F
:1038300003F01F031F2101FA03F3DB431A407B68E7
:103840009B0E03F01F01BB6803F01F0301FA03F393
:103850001A437B691A6000BF1C37BD465DF8047BC4
:10386000704780B487B000AFF860B9607A60FB68D9
:1038700014331A46BB685B0E9B0003F00403134429
:103880007B617B691A68BB681B0D03F01F0307216E
:1038900001FA03F3DB431A40BB681B0D03F01F035F
:1038A000796801FA03F31A437B691A6000BF1C3779
:1038B000BD465DF8047B704780B485B000AFF8600A
:1038C000B9607A60FB68D3F8B020BB68C3F3120319
:1038D000DB431A407B6803F018030849D940BB68F2
:1038E0000B40C3F312031A43FB68C3F8B02000BFB8
:1038F0001437BD465DF8047B704700BFFFFF07002B
:1039000080B483B000AF78607B689B6803F01F03CE
:1039100018460C37BD465DF8047B704780B483B011
:1039200000AF78607B689B6823F0204323F03F035F
:103930007A68936000BF0C37BD465DF8047B704722
:1039400080B483B000AF78607B689B6803F000535D
:10395000B3F1005F01D1012300E0002318460C37CA
:10396000BD465DF8047B704780B483B000AF7860DB
:103970007B689B6823F0104323F03F0343F08052A1
:103980007B689A6000BF0C37BD465DF8047B7047CA
:1039900080B483B000AF78607B689B6803F080538D
:1039A000B3F1805F01D1012300E0002318460C37FA
:1039B000BD465DF8047B704780B483B000AF78608B
:1039C0007B689B6823F0004323F03F0343F0010230
:1039D0007B689A6000BF0C37BD465DF8047B70477A
:1039E00080B483B000AF78607B689B6803F001030C
:1039F000012B01D1012300E0002318460C37BD46FE
:103A00005DF8047B704780B483B000AF78607B685A
:103A10009B6823F0004323F03F0343F004027B68DC
:103A20009A6000BF0C37BD465DF8047B704780B4D8
:103A300083B000AF78607B689B6803F00403042BBD
:103A400001D1012300E0002318460C37BD465DF884
:103A5000047B704780B483B000AF78607B689B685C
:103A600003F00803082B01D1012300E000231846CE
:103A70000C37BD465DF8047B7047000090B589B0F7
:103A800000AF78600023FB770023BB607B68002BCE
:103A900001D1012334E17B681B69002B7B689B6D9E
:103AA000002B09D17868FFF7A3F97B680022DA655B
:103AB0007B68002283F854207B681B681846FFF758
:103AC0003FFF0346002B04D07B681B681846FFF7B6
:103AD00025FF7B681B681846FFF75AFF0346002B3B
:103AE00015D17B681B681846FFF73EFF864B1B68A5
:103AF0009B09864AA2FB03239B0901335B00BB6041
:103B000002E0BB68013BBB60BB68002BF9D17B685E
:103B10001B681846FFF73CFF0346002B0DD17B685E
:103B20009B6D43F010027B689A657B68DB6D43F008
:103B300001027B68DA650123FB777B681B68184606
:103B4000FFF775FF78617B689B6D03F01003002B16
:103B500040F0CD807B69002B40F0C9807B689B6D75
:103B600023F4817343F002027B689A657B681B68CB
:103B70001846FFF735FF0346002B10D16448FFF7C6
:103B80002FFF04466348FFF72BFF03462343002B18
:103B900005D17B685B6819465F48FFF787FD7B6846
:103BA0005B7E5A037B685B6B1A437B68DB681A4356
:103BB0007B689B681A437B6893F820301B0413438F
:103BC000BB617B6893F82030012B06D17B685B6A70
:103BD000013B5B04BA691343BB617B689B6A002BA2
:103BE00009D07B689B6A03F470727B68DB6A1343BD
:103BF000BA691343BB617B681B68DA68474B1340A3
:103C00007A681268B9690B43D3607B681B681846F1
:103C1000FFF70DFF38617B681B681846FFF71AFF36
:103C2000F8603B69002B40D1FB68002B3DD17B68DD
:103C3000DA6C7B681B7E9B031A437B6893F83030F9
:103C40005B001343BB617B681B68DB6823F4804324
:103C500023F006037A681268B9690B43D3607B6866
:103C600093F83830012B18D17B681B681B6923F44B
:103C7000FF6323F004037A68D16B7A68126C1143F6
:103C80007A68526C11437A68926C0A431A437B68D3
:103C90001B6842F001021A6107E07B681B681A6921
:103CA0007B681B6822F001021A617B681B69012B8B
:103CB0000CD17B681B681B6B23F00F017B68DB69F1
:103CC0005A1E7B681B680A431A6307E07B681B68FF
:103CD0001A6B7B681B6822F00F021A637B689B6D6E
:103CE00023F0030343F001027B689A6507E07B68D9
:103CF0009B6D43F010027B689A650123FB77FB7F85
:103D000018462437BD4690BD04000020632D3E05B3
:103D100000000450000104500003045007C0F0FFED
:103D200080B586B000AFF860B9607A605048FFF7A0
:103D3000E7FD3861FB681B681846FFF778FE03460D
:103D4000002B40F08E80FB6893F85430012B01D19A
:103D5000022389E0FB68012283F854203B69002B91
:103D600005D03B69052B02D03B69092B72D1F8685D
:103D700000F0A2FC0346FB75FB7D002B65D1FB68C0
:103D80009B6D23F4706323F0010343F48072FB689E
:103D90009A65FB681B68374A934202D0FB681B6830
:103DA00000E0354BFA681268934202D03B69002B61
:103DB00005D1FB689B6D23F48012FB689A65FB6854
:103DC0009B6D03F48053002B06D0FB68DB6D23F062
:103DD0000602FB68DA6502E0FB680022DA65FB6830
:103DE0001B6D264ADA62FB681B6D254A1A63FB6865
:103DF0001B6D244A5A63FB681B681C221A60FB680F
:103E0000002283F85420FB681B685A68FB681B6813
:103E100042F010025A60FB681B68DA68FB681B6896
:103E200042F00102DA60FB68186DFB681B684033E2
:103E30001946BA687B6800F0DDFF0346FB75FB6836
:103E40001B681846FFF7DFFD0DE0FB68002283F8D2
:103E5000542008E00123FB75FB68002283F85420FE
:103E600001E00223FB75FB7D18461837BD4680BD77
:103E7000000304500001045000000450C54700082E
:103E80009D480008B948000880B483B000AF78604E
:103E900000BF0C37BD465DF8047B704780B483B02B
:103EA00000AF786000BF0C37BD465DF8047B7047FB
:103EB00080B483B000AF786000BF0C37BD465DF8BA
:103EC000047B704780B5B6B000AF786039600023DE
:103ED00087F8D7300023FB607B6893F85430012BC0
:103EE00001D10223D3E37B68012283F854207B684D
:103EF0001B681846FFF79BFD0346002B40F0B88374
:103F00003B685B68052B24D83B685B68023B032B4E
:103F10001BD801A252F823F0293F0008313F0008C6
:103F2000393F0008413F00083B680C225A6010E00E
:103F30003B6812225A600CE03B6818225A6008E085
:103F40003B684FF480725A6003E03B6806225A6077
:103F500000BF7B6818683B6859683B681B681A4655
:103F6000FFF753FC7B681B681846FFF760FDC7F836
:103F7000D0007B681B681846FFF76CFDC7F8CC00C3
:103F8000D7F8D030002B40F0C181D7F8CC30002BCF
:103F900040F0BC813B689B68B3F1004F0FD17B6858
:103FA00018683B681B6800221946FFF75AFC7B68BB
:103FB0001B684FF000411846FFF701FC0EE07B68DC
:103FC00018683B6819683B689B681A46FFF749FC0C
:103FD0007B681B6800211846FFF7F1FB3B685A69B4
:103FE0007B681B68DB68DB0803F003035B0002FAF5
:103FF00003F3C7F8C8303B681B69042B0AD07B6801
:1040000018683B6819693B681A68D7F8C830FFF729
:1040100081FB7BE17B681B6800211846FFF79EFB54
:104020000346C3F31203002B0AD17B681B680021EF
:104030001846FFF793FB03469B0E03F01F021EE09A
:104040007B681B6800211846FFF788FB0346C7F80A
:10405000BC30D7F8BC3093FAA3F3C7F8B830D7F820
:10406000B830C7F8C030D7F8C030002B01D12023BA
:1040700004E0D7F8C030B3FA83F3DBB21A463B68EA
:104080001B68C3F31203002B05D13B681B689B0E12
:1040900003F01F0318E03B681B68C7F8B030D7F87F
:1040A000B03093FAA3F3C7F8AC30D7F8AC30C7F808
:1040B000B430D7F8B430002B01D1202304E0D7F876
:1040C000B430B3FA83F3DBB29A4206D17B681B6843
:1040D000002200211846FFF757FB7B681B6801216F
:1040E0001846FFF73BFB0346C3F31203002B0AD12C
:1040F0007B681B6801211846FFF730FB03469B0EC7
:1041000003F01F021EE07B681B6801211846FFF7C1
:1041100025FB0346C7F8A430D7F8A43093FAA3F3DD
:10412000C7F8A030D7F8A030C7F8A830D7F8A83023
:10413000002B01D1202304E0D7F8A830B3FA83F391
:10414000DBB21A463B681B68C3F31203002B05D190
:104150003B681B689B0E03F01F0318E03B681B685D
:10416000C7F89830D7F8983093FAA3F3C7F894308B
:10417000D7F89430C7F89C30D7F89C30002B01D189
:10418000202304E0D7F89C30B3FA83F3DBB29A42E1
:1041900006D17B681B68002201211846FFF7F4FA5C
:1041A0007B681B6802211846FFF7D8FA0346C3F361
:1041B0001203002B0AD17B681B6802211846FFF707
:1041C000CDFA03469B0E03F01F021EE07B681B68BE
:1041D00002211846FFF7C2FA0346C7F88C30D7F819
:1041E0008C3093FAA3F3C7F88830D7F88830C7F833
:1041F0009030D7F89030002B01D1202304E0D7F87D
:104200009030B3FA83F3DBB21A463B681B68C3F302
:104210001203002B05D13B681B689B0E03F01F03A4
:1042200016E03B681B68C7F88030D7F8803093FAF7
:10423000A3F3FB67FB6FC7F88430D7F88430002BFB
:1042400001D1202304E0D7F88430B3FA83F3DBB242
:104250009A4206D17B681B68002202211846FFF7AC
:1042600093FA7B681B6803211846FFF777FA034629
:10427000C3F31203002B0AD17B681B680321184685
:10428000FFF76CFA03469B0E03F01F0217E07B68F2
:104290001B6803211846FFF761FA03467B677B6FB3
:1042A00093FAA3F33B673B6FBB67BB6F002B01D156
:1042B000202303E0BB6FB3FA83F3DBB21A463B68FB
:1042C0001B68C3F31203002B05D13B681B689B0ED0
:1042D00003F01F0311E03B681B68BB66BB6E93FADB
:1042E000A3F37B667B6EFB66FB6E002B01D1202364
:1042F00003E0FB6EB3FA83F3DBB29A4206D17B682C
:104300001B68002203211846FFF73EFA7B681B68F2
:104310001846FFF765FB0346002B40F03F817B68A2
:1043200018683B6819683B68DB681A46FFF7C4FAEF
:104330003B68DB688E4A934240F030817B681868A6
:104340003B681B68C3F31203002B0BD13B681B684F
:104350009B0E013303F01F03092B94BF012300239D
:10436000DBB219E03B681B68FB65FB6D93FAA3F3B6
:10437000BB65BB6D3B663B6E002B01D1202303E088
:104380003B6EB3FA83F3DBB2013303F01F03092B57
:1043900094BF01230023DBB2002B79D03B681B685C
:1043A000C3F31203002B07D13B681B689B0E01333C
:1043B0009B0603F0F84215E03B681B683B653B6DCC
:1043C00093FAA3F3FB64FB6C7B657B6D002B01D13F
:1043D000202303E07B6DB3FA83F3DBB201339B064A
:1043E00003F0F8423B681B68C3F31203002B09D1AA
:1043F0003B681B689B0E013303F01F03012101FA88
:1044000003F317E03B681B687B647B6C93FAA3F3B0
:104410003B643B6CBB64BB6C002B01D1202303E0ED
:10442000BB6CB3FA83F3DBB2013303F01F0301214A
:1044300001FA03F342EA03013B681B68C3F312036A
:10444000002B0AD13B681B689B0E013303F01F024F
:1044500013465B0013441B0518E03B681B68BB63F5
:10446000BB6B93FAA3F37B637B6BFB63FB6B002B50
:1044700001D1202303E0FB6BB3FA83F3DBB20133FA
:1044800003F01F0213465B0013441B050B4380E03F
:104490003B681B68C3F31203002B07D13B681B6802
:1044A0009B0E01339B0603F0F84215E03B681B6846
:1044B000FB62FB6A93FAA3F3BB62BB6A3B633B6B91
:1044C000002B01D1202303E03B6BB3FA83F3DBB273
:1044D00001339B0603F0F8423B681B68C3F31203E9
:1044E000002B09D13B681B689B0E013303F01F03AF
:1044F000012101FA03F317E03B681B683B623B6A4A
:1045000093FAA3F3FB61FB697B627B6A002B01D109
:10451000202303E07B6AB3FA83F3DBB2013303F0B9
:104520001F03012101FA03F342EA03013B681B6800
:10453000C3F31203002B0DD13B681B689B0E0133A4
:1045400003F01F0213465B0013441E3B1B0543F0A0
:1045500000731DE03B681B687B617B6993FAA3F3E2
:104560003B613B69BB61BB69002B03D1202305E0A4
:1045700000007F40BB69B3FA83F3DBB2013303F081
:104580001F0213465B0013441E3B1B0543F00073E0
:104590000B433A6892681946FFF763F93B681A685B
:1045A0003D4B1340002B6CD03C48FFF7A5F8C7F8F3
:1045B000C4003B681B683A4A934227D1D7F8C430FD
:1045C00003F40003002B21D17B681B68354A93421A
:1045D00057D1D7F8C43043F4000319462F48FFF7EA
:1045E00078F8314B1B689B09304AA2FB03239B09D7
:1045F0005A1C13465B0013449B00FB6002E0FB68FF
:10460000013BFB60FB68002BF9D13AE03B681B687B
:10461000274A934213D1D7F8C43003F08073002B9C
:104620000DD17B681B681F4A93422AD1D7F8C4304A
:1046300043F0807319461948FFF74BF821E03B68B7
:104640001B681C4A93421CD1D7F8C43003F4800382
:10465000002B16D17B681B68124A934211D1D7F800
:10466000C43043F4800319460C48FFF732F808E0E1
:104670007B689B6D43F020027B689A65012387F875
:10468000D7307B68002283F8542097F8D73018463B
:10469000D837BD4680BD00BF00000880000304502D
:1046A000000052C70000045004000020632D3E05A6
:1046B000000084CB0100008080B584B000AF78603A
:1046C0000023BB607B681B681846FFF789F9034627
:1046D000002B69D17B681B689A68364B1340002B0E
:1046E0000DD07B689B6D43F010027B689A657B68F8
:1046F000DB6D43F001027B68DA65012355E07B68DE
:104700001B681846FFF758F92B48FEF7F5FF0346DC
:1047100003F40003002B13D0284B1B689B09284A85
:10472000A2FB03239B095A1C13465B0013449B0006
:10473000BB6002E0BB68013BBB60BB68002BF9D1EA
:10474000FEF784FFF86028E07B681B681846FFF7D7
:1047500047F90346002B04D17B681B681846FFF716
:104760002BF9FEF773FF0246FB68D31A022B14D90C
:104770007B681B681B6803F00103012B0DD07B686D
:104780009B6D43F010027B689A657B68DB6D43F09C
:1047900001027B68DA65012307E07B681B681B6800
:1047A00003F00103012BCFD1002318461037BD467B
:1047B00080BD00BF3F0000800003045004000020C3
:1047C000632D3E0580B584B000AF78607B689B6A3E
:1047D000FB60FB689B6D03F05003002B4BD1FB6823
:1047E0009B6D43F40072FB689A65FB681B681B684D
:1047F00003F00803002B21D0FB681B681846FEF766
:10480000F1FF0346002B32D0FB681B68DB6803F422
:104810000053002B2BD1FB689B6D23F48072FB6847
:104820009A65FB689B6D03F48053002B1FD1FB68D6
:104830009B6D43F00102FB689A6518E0FB681B68FA
:10484000DB6803F00203002B11D1FB689B6D23F49E
:104850008072FB689A65FB689B6D03F48053002BA4
:1048600005D1FB689B6D43F00102FB689A65F8680F
:10487000FFF70AFB0EE0FB689B6D03F01003002BB3
:1048800003D0F868FFF714FB04E0FB681B6D5B6B5B
:104890007868984700BF1037BD4680BD80B584B0AA
:1048A00000AF78607B689B6AFB60F868FFF7F6FAF8
:1048B00000BF1037BD4680BD80B584B000AF7860C2
:1048C0007B689B6AFB60FB689B6D43F04002FB6862
:1048D0009A65FB68DB6D43F00402FB68DA65F868F3
:1048E000FFF7E6FA00BF1037BD4680BD80B483B045
:1048F00000AF78607B689B6803F00103012B01D156
:10490000012300E0002318460C37BD465DF8047B08
:10491000704780B483B000AF78607B689B6803F019
:104920000403042B01D1012300E0002318460C37B7
:10493000BD465DF8047B704790B5A1B000AF7860CC
:104940003960002387F87F307B6893F85430012B5F
:1049500001D1022389E07B68012283F854200023DF
:104960007B660023BB667B681B68424A934202D188
:10497000414BFB6001E00023FB60FB68002B0BD187
:104980007B689B6D43F020027B689A657B68002200
:1049900083F85420012368E0FB681846FFF7B9FF4D
:1049A000B8677B681B681846FFF7B3FF0346002B08
:1049B0004AD1BB6F002B47D1304B7B673B681B68EC
:1049C000002B27D07B6F9B6823F460423B685968BB
:1049D0007B6893F830305B030B431A437B6F9A601C
:1049E0002448FFF783FF04462348FFF77FFF034671
:1049F0002343002B32D17B6F9B6823F4716323F038
:104A00000F033A6811683A6892680A431A437B6F49
:104A10009A6023E07B6F9B6823F460427B6F9A600F
:104A20001448FFF763FF04461348FFF75FFF034690
:104A30002343002B12D17B6F9B6823F4716323F017
:104A40000F037A6F936009E07B689B6D43F020024F
:104A50007B689A65012387F87F3000E000BF7B68A0
:104A6000002283F8542097F87F3018468437BD46DB
:104A700090BD00BF0000045000010450000304502A
:104A800080B485B000AF78607B6803F00703FB60FB
:104A90000C4BDB68BB60BA684FF6FF031340BB608A
:104AA000FB681A02BB68134343F0BF6343F400334F
:104AB000BB60044ABB68D36000BF1437BD465DF8D5
:104AC000047B704700ED00E080B400AF044BDB686E
:104AD0001B0A03F007031846BD465DF8047B7047C8
:104AE00000ED00E080B483B000AF0346FB7197F99E
:104AF0000730002B0BDBFB7903F01F02074997F906
:104B000007305B09012000FA02F241F8232000BFC0
:104B10000C37BD465DF8047B704700BF00E100E044
:104B200080B483B000AF03463960FB7197F907305A
:104B3000002B0ADB3B68DAB20C4997F90730120107
:104B4000D2B20B4483F800230AE03B68DAB208498A
:104B5000FB7903F00F03043B1201D2B20B441A7627
:104B600000BF0C37BD465DF8047B704700E100E0F4
:104B700000ED00E080B489B000AFF860B9607A6001
:104B8000FB6803F00703FB61FB69C3F10703042B18
:104B900028BF0423BB61FB690433062B02D9FB69E0
:104BA000033B00E000237B614FF0FF32BB6902FA58
:104BB00003F3DA43BB681A407B699A404FF0FF3138
:104BC0007B6901FA03F3D9437B680B401343184612
:104BD0002437BD465DF8047B7047000080B582B085
:104BE00000AF78607B68013BB3F1807F01D3012384
:104BF0000FE00A4A7B68013B53600F214FF0FF3002
:104C0000FFF78EFF054B00229A60044B07221A60C3
:104C1000002318460837BD4680BD00BF10E000E005
:104C200080B582B000AF78607868FFF729FF00BFD9
:104C30000837BD4680BD80B586B000AF0346B96079
:104C40007A60FB7300237B61FFF73EFF78617A682F
:104C5000B9687869FFF78EFF024697F90F30114661
:104C60001846FFF75DFF00BF1837BD4680BD80B511
:104C700082B000AF0346FB7197F907301846FFF783
:104C800031FF00BF0837BD4680BD80B582B000AFA0
:104C900078607868FFF7A2FF034618460837BD46DC
:104CA00080BD000080B584B000AF78607B68002BC9
:104CB00001D101238DE07B681B681A46474B9A425D
:104CC0000FD87B681B681A46454B1344454AA2FB24
:104CD00003231B099A007B685A647B68424A1A6462
:104CE0000EE07B681B681A46404B13443D4AA2FB0A
:104CF00003231B099A007B685A647B683C4A1A6448
:104D00007B68022283F825207B681B681B68FB6098
:104D1000FB6823F4FF4323F07003FB607B689A6811
:104D20007B68DB681A437B681B691A437B685B6995
:104D30001A437B689B691A437B68DB691A437B686B
:104D40001B6A1343FA681343FB607B681B68FA68AD
:104D50001A60786800F072FA7B689B68B3F5804F40
:104D600002D17B6800225A607B685A687B689B6C22
:104D7000D2B21A607B68DB6C7A68126D5A607B680D
:104D80005B68002B10D07B685B68042B0CD87868BC
:104D900000F092FA7B685B6D00221A607B689B6D65
:104DA0007A68D26D5A6008E07B6800225A657B6899
:104DB00000229A657B680022DA657B680022DA634C
:104DC0007B68012283F825207B68002283F8242059
:104DD000002318461037BD4680BD00BF07040240BF
:104DE000F8FFFDBFCDCCCCCC00000240F8FBFDBFEE
:104DF0000004024080B586B000AFF860B9607A6008
:104E00003B600023FB75FB6893F82430012B01D134
:104E1000022366E0FB68012283F82420FB6893F8F4
:104E20002530DBB2012B55D1FB68022283F8252007
:104E3000FB680022DA63FB681B681A68FB681B6862
:104E400022F001021A603B687A68B968F86800F0DD
:104E5000B6F9FB681B6B002B08D0FB681B681A684F
:104E6000FB681B6842F00E021A600FE0FB681B68CB
:104E70001A68FB681B6822F004021A60FB681B6852
:104E80001A68FB681B6842F00A021A60FB689B6C98
:104E90001B6803F48033002B07D0FB689B6C1A68F7
:104EA000FB689B6C42F480721A60FB685B6D002BA0
:104EB00007D0FB685B6D1A68FB685B6D42F480721B
:104EC0001A60FB681B681A68FB681B6842F00102E5
:104ED0001A6005E0FB68002283F824200223FB759A
:104EE000FB7D18461837BD4680BD80B485B000AF45
:104EF00078600023FB737B6893F82530DBB2022BCC
:104F000008D07B680422DA637B68002283F82420BF
:104F1000012340E07B681B681A687B681B6822F0ED
:104F20000E021A607B689B6C1A687B689B6C22F48B
:104F300080721A607B681B681A687B681B6822F0A5
:104F400001021A607B685B6C03F01C027B681B6CBF
:104F5000012101FA02F25A607B68DB6C7A68126DFB
:104F60005A607B685B6D002B0CD07B685B6D1A68A8
:104F70007B685B6D22F480721A607B689B6D7A6837
:104F8000D26D5A607B68012283F825207B6800225D
:104F900083F82420FB7B18461437BD465DF8047B5C
:104FA000704780B584B000AF78600023FB737B68E6
:104FB00093F82530DBB2022B05D07B680422DA633C
:104FC0000123FB7347E07B681B681A687B681B68DA
:104FD00022F00E021A607B681B681A687B681B68E7
:104FE00022F001021A607B689B6C1A687B689B6CDC
:104FF00022F480721A607B685B6C03F01C027B6891
:105000001B6C012101FA02F25A607B68DB6C7A6842
:10501000126D5A607B685B6D002B0CD07B685B6DFA
:105020001A687B685B6D22F480721A607B689B6DE6
:105030007A68D26D5A607B68012283F825207B68EC
:10504000002283F824207B689B6B002B03D07B68B5
:105050009B6B78689847FB7B18461037BD4680BD30
:1050600080B584B000AF78607B681B6C1B68FB6008
:105070007B681B681B68BB607B685B6C03F01C0370
:1050800004229A40FB681340002B26D0BB6803F033
:105090000403002B21D07B681B681B6803F02003EE
:1050A000002B07D17B681B681A687B681B6822F09D
:1050B00004021A607B685B6C03F01C027B681B6C4B
:1050C000042101FA02F25A607B681B6B002B71D03D
:1050D0007B681B6B786898476CE07B685B6C03F0BF
:1050E0001C0302229A40FB681340002B2ED0BB68A1
:1050F00003F00203002B29D07B681B681B6803F0B8
:105100002003002B0BD17B681B681A687B681B6827
:1051100022F00A021A607B68012283F825207B684E
:105120005B6C03F01C027B681B6C022101FA02F22B
:105130005A607B68002283F824207B68DB6A002B9E
:1051400038D07B68DB6A7868984733E07B685B6CB3
:1051500003F01C0308229A40FB681340002B2AD05E
:10516000BB6803F00803002B25D07B681B681A6816
:105170007B681B6822F00E021A607B685B6C03F090
:105180001C027B681B6C012101FA02F25A607B68E9
:105190000122DA637B68012283F825207B680022E4
:1051A00083F824207B685B6B002B04D07B685B6BEF
:1051B0007868984700BF00BF1037BD4680BD80B4F7
:1051C00085B000AFF860B9607A603B60FB68DB6C6B
:1051D000FA68126D5A60FB685B6D002B04D0FB68A7
:1051E0009B6DFA68D26D5A60FB685B6C03F01C0221
:1051F000FB681B6C012101FA02F25A60FB681B6814
:105200003A685A60FB689B68102B08D1FB681B68E2
:105210007A689A60FB681B68BA68DA6007E0FB6826
:105220001B68BA689A60FB681B687A68DA6000BF1E
:105230001437BD465DF8047B7047000080B485B02C
:1052400000AF78607B681B681A46174B9A420AD8F1
:105250007B685B6C9B089B0003F1804303F5023382
:105260007A68936407E07B685B6C9B089A000F4B3D
:1052700013447A6893647B681B68DBB2083B0C4A72
:10528000A2FB03231B09FB607B680A4ADA64FB6804
:1052900003F01F0301229A407B681A6500BF143790
:1052A000BD465DF8047B7047070402401C080240BD
:1052B000CDCCCCCC8008024080B485B000AF786003
:1052C0007B685B68DBB2FB60FA680B4B13449B00A6
:1052D0001A467B685A657B68084A9A65FB68013BF9
:1052E00003F0030301229A407B68DA6500BF14379C
:1052F000BD465DF8047B70473F82001040090240C4
:1053000080B487B000AF7860396000237B6166E1CC
:105310003B681A6801217B6901FA03F31340FB60C3
:10532000FB68002B00F058813B685B6803F00303C7
:10533000012B05D03B685B6803F00303022B30D1DF
:105340007B689B683B617B695B00032202FA03F385
:10535000DB433A6913403B613B68DA687B695B0079
:1053600002FA03F33A6913433B617B683A699A6036
:105370007B685B683B6101227B6902FA03F3DB43D4
:105380003A6913403B613B685B681B0903F001020B
:105390007B6902FA03F33A6913433B617B683A691C
:1053A0005A603B685B6803F00303032B17D07B68EC
:1053B000DB683B617B695B00032202FA03F3DB439A
:1053C0003A6913403B613B689A687B695B0002FA6B
:1053D00003F33A6913433B617B683A69DA603B68DF
:1053E0005B6803F00303022B23D17B69DA087B6837
:1053F000083253F822303B617B6903F007039B00BE
:105400000F2202FA03F3DB433A6913403B613B6826
:105410001A697B6903F007039B0002FA03F33A69F8
:1054200013433B617B69DA087B680832396943F8CA
:1054300022107B681B683B617B695B00032202FAD8
:1054400003F3DB433A6913403B613B685B6803F05D
:1054500003027B695B0002FA03F33A6913433B6181
:105460007B683A691A603B685B6803F44033002B41
:1054700000F0B280614B1B6E604A43F0010313667B
:105480005E4B1B6E03F00103BB60BB685C4A7B692B
:105490009B08023352F823303B617B6903F003031E
:1054A0009B000F2202FA03F3DB433A6913403B618E
:1054B0007B68B3F1904F2BD07B68524A934225D042
:1054C0007B68514A93421FD07B68504A934219D05F
:1054D0007B684F4A934213D07B684E4A93420DD06B
:1054E0007B684D4A934207D07B684C4A934201D176
:1054F00007230EE008230CE006230AE0052308E05A
:10550000042306E0032304E0022302E0012300E079
:1055100000237A6902F00302920093403A69134330
:105520003B6137497B699B0802333A6941F8232084
:105530003B4B9B683B61FB68DB433A6913403B6133
:105540003B685B6803F48013002B03D03A69FB6867
:1055500013433B61324A3B699360314BDB683B61EB
:10556000FB68DB433A6913403B613B685B6803F4CB
:105570000013002B03D03A69FB6813433B61284AB0
:105580003B69D360264B5B683B61FB68DB433A6950
:1055900013403B613B685B6803F40033002B03D08E
:1055A0003A69FB6813433B611D4A3B6953601C4BDE
:1055B0001B683B61FB68DB433A6913403B613B6816
:1055C0005B6803F48033002B03D03A69FB68134314
:1055D0003B61134A3B6913607B6901337B613B6824
:1055E0001A687B6922FA03F3002B7FF491AE00BFA7
:1055F00000BF1C37BD465DF8047B704700100240B9
:10560000000001400004004800080048000C004869
:10561000001000480014004800180048001C004812
:105620000004014080B485B000AF78600B467B80F9
:105630007B681A697B881340002B02D00123FB731F
:1056400001E00023FB73FB7B18461437BD465DF871
:10565000047B704780B483B000AF78600B467B80DA
:1056600013467B707B78002B03D07A887B689A6125
:1056700002E07A887B689A6200BF0C37BD465DF80D
:10568000047B704780B485B000AF78600B467B80A8
:105690007B685B69FB607A88FB6813401A04FB68CF
:1056A000D9437B880B401A437B689A6100BF14374B
:1056B000BD465DF8047B7047F0B58FB00AAF7860E7
:1056C0007B68002B01D1012316E17B681B68BB605E
:1056D0007B6893F8BD34DBB2002B06D17B680022D7
:1056E00083F8BC247868FDF763FE7B68032283F8A7
:1056F000BD24BB68DB6B03F48073002B02D17B6895
:1057000000221A617B681B68184604F0D7FF7B688B
:105710001B683B607E686D4606F110040FCC0FC518
:105720000FCC0FC594E8030085E80300331D0ECBB2
:10573000386804F097FF0346002B05D07B680222EF
:1057400083F8BD240123D7E07B681B68002118463D
:1057500004F0C5FF0023FB734AE0FA7B7968134627
:10576000DB0013449B000B443D3301221A70FA7B8B
:1057700079681346DB0013449B000B443C33FA7BEF
:105780001A70FA7BFB7B98B279681346DB001344EE
:105790009B000B44443302461A80FA7B7968134617
:1057A000DB0013449B000B44403300221A70FA7B49
:1057B00079681346DB0013449B000B4448330022F6
:1057C0001A60FA7B79681346DB0013449B000B4494
:1057D0004C3300221A60FA7B79681346DB001344CD
:1057E0009B000B44543300221A60FB7B0133FB7394
:1057F000FA7B7B685B689A42AFD30023FB7344E07B
:10580000FA7B79681346DB0013449B000B4403F2D8
:105810007D2300221A70FA7B79681346DB0013445B
:105820009B000B4403F51F73FA7B1A70FA7B7968AF
:105830001346DB0013449B000B4403F52073002246
:105840001A70FA7B79681346DB0013449B000B4403
:1058500003F5227300221A60FA7B79681346DB0095
:1058600013449B000B4403F5237300221A60FA7B58
:1058700079681346DB0013449B000B4403F5257342
:1058800000221A60FB7B0133FB73FA7B7B685B6849
:105890009A42B5D37B681B683B607E686D4606F113
:1058A00010040FCC0FC50FCC0FC594E8030085E89A
:1058B0000300331D0ECB386804F05EFF0346002B57
:1058C00005D07B68022283F8BD24012314E07B68A5
:1058D000002283F838207B68012283F8BD247B688E
:1058E0005B6A012B02D1786800F00AF87B681B68BC
:1058F000184605F00AF9002318461437BD46F0BDD6
:1059000080B485B000AF78607B681B68FB607B6803
:105910000122C3F800257B68002283F8F424FB6889
:105920009B6943F00062FB689A61FB685B6D43F022
:10593000805343F00303FA68536500231846143775
:10594000BD465DF8047B704780B400AF0D4B1B680B
:1059500003F4C063B3F5806F02D14FF480630BE0B2
:10596000084BD3F8803003F48073B3F5807F02D105
:105970004FF4007300E000231846BD465DF8047B39
:10598000704700BF0070004080B485B000AF786001
:105990007B68002B41D14B4B1B6803F4C063B3F50C
:1059A000806F31D1474BD3F88030464A23F480735F
:1059B000C2F88030434B1B6823F4C063414A43F470
:1059C00000731360404B1B68322202FB03F33F4A13
:1059D000A2FB03239B0C0133FB6002E0FB68013B4D
:1059E000FB60384B5B6903F48063B3F5806F02D1D1
:1059F000FB68002BF2D1334B5B6903F48063B3F592
:105A0000806F58D1032357E02E4BD3F880302D4AB6
:105A100023F48073C2F880304DE07B68B3F5007FDB
:105A200041D1284B1B6803F4C063B3F5806F31D1BB
:105A3000244BD3F88030234A43F48073C2F880307B
:105A4000204B1B6823F4C0631E4A43F400731360A9
:105A50001D4B1B68322202FB03F31C4AA2FB0323EB
:105A60009B0C0133FB6002E0FB68013BFB60154BC4
:105A70005B6903F48063B3F5806F02D1FB68002B90
:105A8000F2D1104B5B6903F48063B3F5806F12D1E0
:105A9000032311E00B4BD3F880300A4A43F48073A0
:105AA000C2F8803007E0074B1B6823F4C063054A47
:105AB00043F480631360002318461437BD465DF835
:105AC000047B7047007000400400002083DE1B430D
:105AD00080B400AF054B5B68044A43F480635360B5
