:020000040800F2
:10000000000005207D1C0108FD35000803360008AE
:10001000093600080F3600081536000800000000F9
:100020000000000000000000000000001B36000877
:100030002936000800000000373600084536000861
:10004000CD1C0108CD1C0108CD1C0108CD1C0108E8
:10005000CD1C0108CD1C0108CD1C0108CD1C0108D8
:10006000CD1C0108CD1C0108CD1C0108513600082B
:1000700065360008CD1C0108CD1C0108CD1C010807
:10008000CD1C0108CD1C0108CD1C0108CD1C0108A8
:10009000CD1C0108CD1C0108CD1C0108CD1C010898
:1000A000CD1C0108CD1C0108CD1C0108CD1C010888
:1000B000CD1C0108CD1C0108CD1C0108CD1C010878
:1000C000CD1C0108CD1C0108CD1C0108CD1C010868
:1000D000CD1C0108CD1C0108CD1C0108CD1C010858
:1000E000CD1C0108CD1C010800000000CD1C01083A
:1000F000CD1C0108CD1C0108CD1C0108CD1C010838
:10010000CD1C0108CD1C0108CD1C0108CD1C010827
:10011000CD1C0108CD1C0108CD1C0108CD1C010817
:10012000CD1C0108CD1C0108CD1C0108CD1C010807
:10013000CD1C0108CD1C0108CD1C010800000000E9
:10014000CD1C0108CD1C0108CD1C0108CD1C0108E7
:10015000CD1C0108CD1C010879360008CD1C010812
:10016000CD1C0108CD1C0108CD1C0108CD1C0108C7
:10017000CD1C0108CD1C010800000000000000009B
:10018000CD1C0108CD1C0108CD1C0108CD1C0108A7
:10019000CD1C0108CD1C010800000000000000007B
:1001A0000000000000000000CD1C0108CD1C01086B
:1001B000CD1C010800000000CD1C0108000000005B
:1001C000034613F8012B002AFBD1181A0138704797
:1001D00001F0FF01102A2BDB10F0070F08D010F8F8
:1001E000013B013A8B422DD010F0070F42B3F6D1FC
:1001F000F0B441EA012141EA014122F007047FF015
:1002000000070023F0E80256083C85EA010586EA6B
:10021000010685FA47F5A3FA87F586FA47F6A5FAA7
:1002200087F68EB9EED1F0BC01F0FF0102F00702B3
:1002300032B110F8013B013A83EA010313B1F8D15E
:100240000020704701387047002D06BF354603383F
:10025000073815F0010F07D1013015F4807F02BF78
:10026000013015F4C03F0130F0BC0138704700BFC9
:1002700081F0004102E000BF83F0004330B54FEA57
:1002800041044FEA430594EA050F08BF90EA020FC4
:100290001FBF54EA000C55EA020C7FEA645C7FEA57
:1002A000655C00F0E2804FEA5454D4EB5555B8BF7A
:1002B0006D420CDD2C4480EA020281EA030382EAEB
:1002C000000083EA010180EA020281EA0303362D7D
:1002D00088BF30BD11F0004F4FEA01314FF4801C50
:1002E0004CEA113102D0404261EB410113F0004F62
:1002F0004FEA03334CEA133302D0524263EB430319
:1003000094EA050F00F0A780A4F10104D5F1200EB6
:100310000DDB02FA0EFC22FA05F2801841F1000111
:1003200003FA0EF2801843FA05F359410EE0A5F1E5
:1003300020050EF1200E012A03FA0EFC28BF4CF016
:10034000020C43FA05F3C01851EBE37101F00045CC
:1003500007D54FF0000EDCF1000C7EEB00006EEBD9
:100360000101B1F5801F1BD3B1F5001F0CD3490863
:100370005FEA30004FEA3C0C04F101044FEA4452BA
:1003800012F5800F80F09A80BCF1004F08BF5FEA41
:10039000500C50F1000041EB045141EA050130BD21
:1003A0005FEA4C0C404141EB0101013C28BFB1F533
:1003B000801FE9D291F0000F04BF01460020B1FA7E
:1003C00081F308BF2033A3F10B03B3F120020CDA51
:1003D0000C3208DD02F1140CC2F10C0201FA0CF02F
:1003E00021FA02F10CE002F11402D8BFC2F1200C94
:1003F00001FA02F120FA0CFCDCBF41EA0C0190404A
:10040000E41AA2BF01EB0451294330BD6FEA040492
:100410001F3C1CDA0C340EDC04F11404C4F120027D
:1004200020FA04F001FA02F340EA030021FA04F38F
:1004300045EA030130BDC4F10C04C4F1200220FAE6
:1004400002F001FA04F340EA0300294630BD21FA24
:1004500004F0294630BD94F0000F83F4801306BFEA
:1004600081F480110134013D4EE77FEA645C18BFDE
:100470007FEA655C29D094EA050F08BF90EA020F75
:1004800005D054EA000C04BF1946104630BD91EA6D
:10049000030F1EBF0021002030BD5FEA545C05D170
:1004A0004000494128BF41F0004130BD14F58004AF
:1004B0003CBF01F5801130BD01F0004545F0FE4123
:1004C00041F470014FF0000030BD7FEA645C1ABF58
:1004D000194610467FEA655C1CBF0B46024650EA8F
:1004E000013406BF52EA033591EA030F41F40021BB
:1004F00030BD00BF90F0000F04BF0021704730B541
:100500004FF4806404F132044FF000054FF0000115
:1005100050E700BF90F0000F04BF0021704730B5D6
:100520004FF4806404F1320410F0004548BF4042AB
:100530004FF000013EE700BF42004FEAE2014FEA00
:1005400031014FEA02701FBF12F07F4393F07F4FDB
:1005500081F06051704732F07F4208BF704793F0DE
:100560007F4F04BF41F40021704730B54FF46074F1
:1005700001F0004521F000411CE700BF50EA0102F4
:1005800008BF704730B54FF000050AE050EA01029D
:1005900008BF704730B511F0004502D5404261EB0D
:1005A00041014FF4806404F132045FEA915C3FF44E
:1005B000D8AE4FF003025FEADC0C18BF03325FEAEB
:1005C000DC0C18BF033202EBDC02C2F1200300FA9C
:1005D00003FC20FA02F001FA03FE40EA0E0021FAC1
:1005E00002F11444BDE600BF70B54FF0FF0C4CF4AF
:1005F000E06C1CEA11541DBF1CEA135594EA0C0F61
:1006000095EA0C0F00F0DEF82C4481EA030621EA9B
:100610004C5123EA4C5350EA013518BF52EA0335D6
:1006200041F4801143F4801338D0A0FB02CE4FF088
:100630000005E1FB02E506F00042E0FB03E54FF0B8
:100640000006E1FB03569CF0000F18BF4EF0010EB0
:10065000A4F1FF04B6F5007F64F5407404D25FEAAC
:100660004E0E6D4146EB060642EAC62141EA55515F
:100670004FEAC52040EA5E504FEACE2EB4F1FD0CA1
:1006800088BFBCF5E06F1ED8BEF1004F08BF5FEA1F
:10069000500E50F1000041EB045170BD06F00046D1
:1006A00046EA010140EA020081EA0301B4EB5C047E
:1006B000C2BFD4EB0C0541EA045170BD41F4801176
:1006C0004FF0000E013C00F3AB8014F1360FDEBF9B
:1006D000002001F0004170BDC4F10004203C35DA77
:1006E0000C341BDC04F11404C4F1200500FA05F3FA
:1006F00020FA04F001FA05F240EA020001F000429B
:1007000021F0004110EBD37021FA04F642EB060110
:100710005EEA430E08BF20EAD37070BDC4F10C043A
:10072000C4F1200500FA04F320FA05F001FA04F2FE
:1007300040EA020001F0004110EBD37041F10001EA
:100740005EEA430E08BF20EAD37070BDC4F12005F5
:1007500000FA05F24EEA020E20FA04F301FA05F25D
:1007600043EA020321FA04F001F0004121FA04F205
:1007700020EA020000EBD3705EEA430E08BF20EAD5
:10078000D37070BD94F0000F0FD101F0004640000F
:1007900041EB010111F4801F08BF013CF7D041EA91
:1007A000060195F0000F18BF704703F00046520095
:1007B00043EB030313F4801F08BF013DF7D043EA66
:1007C0000603704794EA0C0F0CEA135518BF95EA1C
:1007D0000C0F0CD050EA410618BF52EA4306D1D1A3
:1007E00081EA030101F000414FF0000070BD50EAC2
:1007F000410606BF1046194652EA430619D094EA4C
:100800000C0F02D150EA013613D195EA0C0F05D135
:1008100052EA03361CBF104619460AD181EA030189
:1008200001F0004141F0FE4141F470014FF0000041
:1008300070BD41F0FE4141F4780170BD70B54FF0DC
:10084000FF0C4CF4E06C1CEA11541DBF1CEA13555C
:1008500094EA0C0F95EA0C0F00F0A7F8A4EB05043E
:1008600081EA030E52EA03354FEA013100F0888035
:100870004FEA03334FF0805545EA131343EA1263FE
:100880004FEA022245EA111545EA10654FEA0026B3
:100890000EF000419D4208BF964244F1FD0404F56C
:1008A000407402D25B084FEA3202B61A65EB0305C8
:1008B0005B084FEA32024FF480104FF4002CB6EB85
:1008C000020E75EB030E22BFB61A754640EA0C0005
:1008D0005B084FEA3202B6EB020E75EB030E22BF45
:1008E000B61A754640EA5C005B084FEA3202B6EB86
:1008F000020E75EB030E22BFB61A754640EA9C0045
:100900005B084FEA3202B6EB020E75EB030E22BF14
:10091000B61A754640EADC0055EA060E18D04FEAD2
:10092000051545EA16754FEA06164FEAC30343EA72
:1009300052734FEAC2025FEA1C1CC0D111F4801F3F
:100940000BD141EA00014FF000004FF0004CB6E738
:1009500011F4801F04BF01430020B4F1FD0C88BFD7
:10096000BCF5E06F3FF6AFAEB5EB030C04BFB6EBE2
:10097000020C5FEA500C50F1000041EB045170BDD5
:100980000EF0004E4EEA113114EB5C04C2BFD4EB02
:100990000C0541EA045170BD41F480114FF0000E86
:1009A000013C90E645EA060E8DE60CEA135594EA02
:1009B0000C0F08BF95EA0C0F3FF43BAF94EA0C0F05
:1009C0000AD150EA01347FF434AF95EA0C0F7FF47A
:1009D00025AF104619462CE795EA0C0F06D152EACE
:1009E00003353FF4FDAE1046194622E750EA4106B2
:1009F00018BF52EA43067FF4C5AE50EA41047FF4C3
:100A00000DAF52EA43057FF4EBAE12E74FF0FF3C27
:100A100006E000BF4FF0010C02E000BF4FF0010CF8
:100A20004DF804CD4FEA410C7FEA6C5C4FEA430C71
:100A300018BF7FEA6C5C1BD001B050EA410C0CBFC0
:100A400052EA430C91EA030F02BF90EA020F002022
:100A5000704710F1000F91EA030F58BF994208BF89
:100A600090422CBFD8176FEAE37040F00100704746
:100A70004FEA410C7FEA6C5C02D150EA013C07D19D
:100A80004FEA430C7FEA6C5CD6D152EA033CD3D0E8
:100A90005DF8040B704700BF8446104662468C46E2
:100AA0001946634600E000BF01B5FFF7B7FF002815
:100AB00048BF10F1000F01BD4DF808EDFFF7F4FF3E
:100AC0000CBF012000205DF808FB00BF4DF808EDC9
:100AD000FFF7EAFF34BF012000205DF808FB00BFEC
:100AE0004DF808EDFFF7E0FF94BF012000205DF80E
:100AF00008FB00BF4DF808EDFFF7CEFF94BF0120C3
:100B000000205DF808FB00BF4DF808EDFFF7C4FFBB
:100B100034BF012000205DF808FB00BF4FEA410C04
:100B20007FEA6C5C02D150EA013C0AD14FEA430CE7
:100B30007FEA6C5C02D152EA033C02D14FF0000024
:100B400070474FF0010070474FEA410212F5001262
:100B500015D211D56FF47873B3EB625212D94FEA04
:100B6000C12343F0004343EA505311F0004F23FAEE
:100B700002F018BF404270474FF00000704750EA43
:100B8000013005D111F0004008BF6FF00040704700
:100B90004FF00000704700BF4A0011D212F500125A
:100BA00011D20DD56FF47873B3EB62520ED44FEAC5
:100BB000C12343F0004343EA505323FA02F0704745
:100BC0004FF00000704750EA013002D14FF0FF3083
:100BD00070474FF00000704753B94AB9002908BF69
:100BE00000281CBF4FF0FF314FF0FF3000F0E2B89B
:100BF000ADF1080C6DE904CE16F09EFDDDF804E0C1
:100C0000DDE9022304B0704700F1340191E83800B7
:100C10009C46A6464CF8045D90E8FF0FE54600BDF3
:100C200090EC210B704700BF80EC210B704700BF98
:100C300090EC200B704700BF80EC200B704700BF8A
:100C4000D0EC200B704700BFC0EC200B704700BFFA
:100C5000F0EC0201F0EC0211F0EC0221F0EC0231B8
:100C6000F0EC0241F0EC0251F0EC0261F0EC0271A8
:100C7000F0EC0281F0EC0291F0EC02A1F0EC02B198
:100C8000F0EC02C1F0EC02D1F0EC02E1F0EC02F188
:100C9000704700BFE0EC0201E0EC0211E0EC022141
:100CA000E0EC0231E0EC0241E0EC0251E0EC0261E8
:100CB000E0EC0271E0EC0281E0EC0291E0EC02A1D8
:100CC000E0EC02B1E0EC02C1E0EC02D1E0EC02E1C8
:100CD000E0EC02F1704700BFB0FC0181B0FC019173
:100CE000B0FC01A1B0FC01B1704700BFA0FC0181C4
:100CF000A0FC0191A0FC01A1A0FC01B1704700BFC4
:100D0000EC4600B52DE900502DE9FF1F4FF0000320
:100D10002DE90C0001A916F0C3FFDDF840E012B088
:100D2000704700BFEC4600B52DE900502DE9FF1FCC
:100D30004FF000032DE90C0001A916F0EDFFDDF8DE
:100D400040E012B0704700BFEC4600B52DE90050FE
:100D50002DE9FF1F4FF000032DE90C0001A916F04B
:100D6000FDFFDDF840E012B0704700BFEC4600B573
:100D70002DE900502DE9FF1F4FF000032DE90C0075
:100D800001AB16F0C1FFDDF840E012B0704700BFC4
:100D9000EC4600B52DE900502DE9FF1F4FF0000390
:100DA0002DE90C0001AA17F02DF8DDF840E012B093
:100DB000704700BF704700BF10B5054C237833B9AA
:100DC000044B13B10448AFF300800123237010BD1E
:100DD000C804002000000000BC86010808B5034BD1
:100DE0001BB103490348AFF3008008BD00000000B9
:100DF000CC040020BC860108B0B586B000AF034625
:100E00000A46FB801346BB80FB88022B00F0E6807D
:100E1000022B00F30881002B71D0012B40F00381DD
:100E2000BB881846FFF776FB89A3D3E90023FFF7B9
:100E3000DBFB02460B46C7E90423D7E9042386A15E
:100E4000D1E90001FFF718FA02460B461046194691
:100E500083A3D3E90023FFF7F1FC02460B46D7E951
:100E60000401FFF7EBFC02460B46C7E9022397EDAE
:100E7000020B15F0B5F951EC100B87A3D3E9002351
:100E8000FFF7B2FB02460B461046194684A3D3E98E
:100E90000023FFF7F3F902460B4614461D4697ED73
:100EA000020B15F09DF9B0EE407AF0EE607A9FEDFE
:100EB000641BB0EE470AF0EE670A15F0D5F951EC65
:100EC000100B79A3D3E90023FFF78EFB02460B46F4
:100ED00020462946FFF7D2F902460B464FF00000A4
:100EE0006B49FFF7ABFC02460B461046194656A36A
:100EF000D3E90023FFF7C0F902460B4694E0BB8814
:100F00001846FFF707FB52A3D3E90023FFF76CFB5A
:100F100002460B46C7E90423D7E904234EA1D1E9D1
:100F20000001FFF7A9F902460B46104619464CA3EB
:100F3000D3E90023FFF782FC02460B46D7E9040100
:100F4000FFF77CFC02460B46C7E9022397ED020B34
:100F500015F046F951EC100B43A3D3E90023FFF73A
:100F600043FB02460B461046194641A3D3E9002332
:100F7000FFF784F902460B4614461D4697ED020B17
:100F800015F02EF9B0EE407AF0EE607A9FED2C1B52
:100F9000B0EE470AF0EE670A15F066F951EC100B57
:100FA00035A3D3E90023FFF71FFB02460B4620467B
:100FB0002946FFF763F902460B464FF0000034491B
:100FC000FFF73CFC02460B46104619461EA3D3E928
:100FD0000023FFF751F902460B4625E0BB8818466F
:100FE000FFF798FA1AA3D3E90023FFF7FDFA0246A8
:100FF0000B4623A1D1E90001FFF73EF902460B465B
:101000001046194620A3D3E90023FFF717FC024638
:101010000B46104619464FF000021E4BFFF72EF903
:1010200002460B4600E001E043EC172BB0EE470A06
:10103000F0EE670A1837BD46B0BD00BFAFF30080C1
:101040000000000000000840666666666612714097
:101050006666666666660A3F6666666666660A4035
:1010600000000000005CB240691D554D10752F3F17
:10107000F168E388B5F8543FFD9453D027D1763E0C
:1010800052B81E85EB51E83F7B14AE47E17A643FCE
:101090000000F03F00003E40BB230343CDC52C3F82
:1010A000DA98CAE784EC463F18E332328B59783E2F
:1010B00080B483B000AF03460A46FB801346BB8072
:1010C000FB88002B02D0012B04D007E0064ABB8826
:1010D000936303E0044ABB88536300BF00BF0C372F
:1010E000BD465DF8047B70470004004080B483B0C7
:1010F00000AF03460A46FB801346BB80FB88002BEB
:1011000003D1054ABB88D36300BF00BF0C37BD467F
:101110005DF8047B704700BF0004004090B583B0C9
:1011200000AF0446084611461A462346FB80034694
:10113000BB800B467B8013463B807B88002B02D014
:10114000012B26D04BE03B88DBB21A460221264811
:1011500004F004FD3B8BDBB21A460421224804F064
:10116000FDFC0CE04021214804F010FD80214FF0EF
:10117000904004F00BFDBB88184600F003FF1021DF
:10118000194804F0D3FC03469BB2FA889A42E9D18D
:1011900025E03B88DBB21A460221134804F0DEFC4E
:1011A0003B8BDBB21A4604210F4804F0D7FC0CE05D
:1011B00040210E4804F0EAFC80214FF0904004F0FA
:1011C000E5FCBB88184600F0DDFE2021064804F04F
:1011D000ADFC03469BB2FA889A42E9D100BF00BF3A
:1011E0000C37BD4690BD00BF001400480008004801
:1011F000B0B5A0B000AF87ED100B87ED0E1B87EDEB
:101200000C2B87ED0A3BD7E90E23D7E91001FFF736
:1012100035F802460B46C7E91E23D7E90E23D7E966
:101220001001FFF729F802460B46C7E91C23BB6FE4
:101230003B62FB6F23F000437B62BC6FFB6F23F0CC
:1012400000453B6FBB617B6F23F00043FB61D7E937
:10125000062320462946FFF711F802460B46D7E938
:101260000801FFF7EBFA02460B46C7E91A233B6F6A
:101270003B617B6F23F000437B61BB6FBB60FB6F07
:1012800023F00043FB603B6F3B607B6F23F0004328
:101290007B60D7E90023D7E90201FEF7EFFF0246A2
:1012A0000B46D7E90401FFF7C9FA02460B46C7E926
:1012B0001823BB4B1B881846FFF71CF902460B4648
:1012C0004FF00000B749FFF7B9FA02460B46104647
:1012D0001946ABA3D3E90023FFF786F902460B4674
:1012E00010461946A8A3D3E90023FFF7A7FA024640
:1012F0000B4610461946A6A3D3E90023FFF774F95D
:1013000002460B4610461946D7E91A23FFF796FA0C
:1013100002460B4610461946FFF73EFC0346A7F867
:101320005E309F4B1B881846FFF7E4F802460B46D9
:101330004FF000009B49FFF781FA02460B4610462A
:1013400019468FA3D3E90023FFF74EF902460B4657
:10135000104619468CA3D3E90023FFF76FFA024623
:101360000B46104619468AA3D3E90023FFF73CF940
:1013700002460B4610461946D7E91823FFF75EFAD6
:1013800002460B4610461946FFF706FC0346A7F82F
:101390005C30834B1B881846FFF7ACF802460B46BF
:1013A0004FF000007F49FFF749FA02460B4610460E
:1013B00019464FF000027C4BFFF716F902460B4628
:1013C0001046194670A3D3E90023FFF737FA024607
:1013D0000B46104619466EA3D3E90023FFF704F924
:1013E00002460B4610461946FFF7D6FB0346A7F800
:1013F0005A3063A3D3E90023D7E91E01FFF71EFA91
:1014000002460B46104619465FA3D3E90023FFF7B7
:10141000EBF802460B4610461946FFF795FB0346CC
:10142000002BB8BF5B42A7F8583055A3D3E900237F
:10143000D7E91C01FFF702FA02460B46104619468F
:1014400051A3D3E90023FFF7CFF802460B4610461D
:101450001946FFF779FB0346002BB8BF5B42A7F89C
:1014600056304FF00002514BD7E90C01FFF7E6F977
:1014700002460B461046194647A3D3E90023FFF75F
:10148000B3F802460B4610461946FFF75DFB0346CC
:10149000002BB8BF5B42A7F854304FF00002424B1C
:1014A000D7E90A01FFF7CAF902460B46104619466A
:1014B00035A3D3E90023FFF797F802460B46104601
:1014C0001946FFF741FB0346002BB8BF5B42A7F864
:1014D0005230B7F85830B7F85E2002FB03F31846D5
:1014E000FFF718F8D7E91A23FFF77EF802460B46F4
:1014F00014461D46B7F85630B7F85C2002FB03F3DC
:101500001846FFF707F8D7E91823FFF76DF80246EA
:101510000B4620462946FEF7B1FE02460B46104612
:101520001946FFF739FB0346FB64B7F85430FA6CF1
:10153000B2FBF3F3A7F84A301D4B1B88B7F85820CD
:101540009A4250D300F038FD03461A46194B1B68E7
:10155000D21AB7F85E309A4245D34FF000024FF0EE
:101560000003D7E91E01FFF7B1FA0346002B25D08F
:1015700001220221104804F0F1FA24E0AFF30080C8
:10158000000000205C475140000000000064B940AA
:1015900000000000389C8C410000000000CED240CA
:1015A000240500200000F03F0000204000003740EC
:1015B0000000002010050020001400480022022135
:1015C000794804F0CBFA4021784804F0DFFA00F0C3
:1015D000F3FC03461A46764B1A60764B1B880133A0
:1015E0009AB2744B1A80744B1B88B7F856209A42F3
:1015F00031D300F0E1FC03461A46704B1B68D21A47
:10160000B7F85C309A4226D34FF000024FF0000347
:10161000D7E91C01FFF75AFA0346002B05D0012237
:101620000421614804F09AFA04E0002204215E4893
:1016300004F094FA80214FF0904004F0A7FA00F0F3
:10164000BBFC03461A465D4B1A605B4B1B8801339B
:101650009AB2594B1A805A4B1B88B7F854209A42B9
:1016600030D300F0A9FC03461A46564B1B68D21A29
:10167000B7F84A309A4225D34FF000024FF00003EA
:10168000D7E90C01FFF722FA0346002B05D0002210
:101690000821454804F062FA04E00122082142488A
:1016A00004F05CFA0121484804F070FA00F084FC70
:1016B00003461A46434B1A60414B1B8801339AB2CA
:1016C0003F4B1A80414B1B88B7F852209A4232D3C5
:1016D00000F072FC03461A463D4B1B68D21AB7F85D
:1016E0005A309A4227D34FF000024FF00003D7E957
:1016F0000A01FFF7EBF90346002B06D001224FF455
:101700008071294804F02AFA05E000224FF4807124
:10171000254804F023FA02212B4804F037FA00F0A0
:101720004BFC03461A462A4B1A60284B1B88013390
:101730009AB2264B1A80B7F856201F4B1B88013BE4
:101740009A422CD1B7F858201A4B1B88013B9A4279
:1017500025D1B7F854201A4B1B88013B9A421ED161
:10176000B7F85220194B1B88013B9A4217D1194BED
:10177000D3E900231849C1E90023184BD3E900231A
:101780001749C1E90023174BD3E900231649C1E9E2
:101790000023164BD3E900231549C1E9002300BFFC
:1017A0008037BD46B0BD00BF0014004800080048A7
:1017B0001005002000000020020000201405002079
:1017C000040000200C050020000400480600002052
:1017D0001805002030050020F00400203805002006
:1017E000F804002028050020E8040020400500201F
:1017F00000050020B0B584B002AF03460A46FB8066
:101800001346BB800F4B5B689BB219460120FFF764
:10181000F3FA55EC104B0B4B1B689BB2194600209A
:10182000FFF7EAFAB0EE407AF0EE607A8DED007BD9
:1018300022462B46044800F05BFB00BF0837BD463C
:10184000B0BD00BF280F0020D886010880B483B047
:1018500000AF0346FB80FB881A465201D21A920061
:101860001344DB009BB218460C37BD465DF8047B81
:1018700070470000B0B588B000AF3A4BD3E9000123
:10188000394BD3E90023FEF7F7FC02460B46C7E9C4
:101890000623364BD3E90001354BD3E90023FEF78D
:1018A000EBFC02460B46C7E90423324BD3E90001A7
:1018B000314BD3E90023FEF7DFFC02460B46C7E9B4
:1018C00002232E4BD3E900012D4BD3E90023FEF771
:1018D000D3FC02460B46C7E900233C687B6883F0D3
:1018E000004597ED043B97ED062B45EC114B97ED2A
:1018F000020BFFF77DFC4FF000024FF00003D7E929
:101900000601FFF7D9F80346002B00D126E04FF07F
:1019100000024FF00003D7E90401FFF7CDF80346BA
:10192000002B00D11AE04FF000024FF00003D7E97E
:101930000201FFF7C1F80346002B00D10EE04FF083
:1019400000024FF00003D7E90001FFF7B5F80346A6
:10195000002B00D102E00B4B00221A7000BF203791
:10196000BD46B0BD28050020E80400204005002049
:101970000005002030050020F0040020380500207C
:10198000F804002008050020B0B582B000AF2E4B4F
:101990005B689BB219460120FFF72EFA53EC102B1F
:1019A00010461946FFF7F8F80346FB80274B1B88C3
:1019B000002B34D0254B1B881A46FB88D31AA3F57D
:1019C00087731846FEF7A6FD02460B469FED181BCF
:1019D00043EC102B14F048FC53EC102B144683F00E
:1019E000004515A3D3E9002320462946FEF726FF2C
:1019F00002460B461046194611A3D3E90023FEF711
:101A00003DFC02460B4610461946FFF7C5F8034653
:101A1000BB80BB8819460020FFF74AFB03E000218A
:101A20000020FFF745FB00BF0837BD46B0BD00BF33
:101A300000000000000000400000000000C07240F4
:101A40000000000000E06F40280F00204805002043
:101A500080B582B000AF0346FB80FB8819460020AA
:101A6000FFF744FB00BF0837BD4680BD0000000003
:101A7000B0B582B000AF2C4B1B689BB2194600205A
:101A8000FFF7BAF953EC102B10461946FFF784F80C
:101A90000346FB80254B1B88002B33D0234B1B8830
:101AA0001A46FB88D31A643B1846FEF733FD0246FC
:101AB0000B469FED191B43EC102B14F0D5FB53EC98
:101AC000102B144683F000454FF00002184B2046BF
:101AD0002946FEF7B3FE02460B461046194610A3F0
:101AE000D3E90023FEF7CAFB02460B46104619460F
:101AF000FFF752F80346BB80BB8819460120FFF769
:101B0000D7FA03E000210120FFF7D2FA00BF08371F
:101B1000BD46B0BDAFF300800000000000000040F3
:101B20000000000000E06F40280F00204A05002060
:101B30000000444080B582B002AF2B4B01221A70E6
:101B40002A494FF000024FF00003C1E90023284961
:101B50004FF000024FF00003C1E90023012300937E
:101B6000012300224FF4C8710120FFF7D7FA0023A8
:101B70000093002300224FF496710020FFF7CEFA65
:101B80001C494FF000024FF00003C1E900231A493D
:101B90004FF000024FF00003C1E90023012300933E
:101BA000002301224FF4C8710120FFF7B7FA002388
:101BB0000093012301224FF496710020FFF7AEFA43
:101BC0000E494FF000024FF00003C1E900230C4919
:101BD0004FF000024FF00003C1E90023024B002246
:101BE0001A7000BFBD4680BD08050020E804002033
:101BF00028050020F004002030050020F804002013
:101C00003805002080B400AF074B4FF6FF721A80F2
:101C1000064B00221A80064B00221A8000BFBD46E8
:101C20005DF8047B704700BF1C0500201E050020E6
:101C30002005002080B584B000AF7860404BFB6089
:101C4000786800F093F8F968786811F009FBB860DB
:101C5000BB681B78472B42D04D2B65D1012001F08A
:101C600085FF7B680133184610F034F803469B2B40
:101C70002AD09B2B57DC8C2B1FD08C2B53DC6A2B50
:101C800015D06A2B4FDC682B0AD0692B4BD12D4B1A
:101C90001B882D4A128811461846FFF7ABFD1DE040
:101CA0002A4B1A882A4B1A80FFF76EFE16E0274B44
:101CB0001B881846FFF7CCFE10E0244B1A88254BF2
:101CC0001A80FFF7D5FE09E0204B1B881846FFF766
:101CD000BDFD03461A46204B1A8000BF23E00120B9
:101CE00001F044FF7B68013318460FF0F3FF034611
:101CF000012B02DC002B03DA16E01C2B0FD013E0C3
:101D0000164B01221A80164B01221A80154B012214
:101D10001A80154B01221A80FFF7ACFD02E0FFF795
:101D200009FF00BF00E000BFFFF76CFF04220021A5
:101D3000B86810F005F800BF1037BD4680BD00BF81
:101D4000EC8601081C0500201E050020200500204F
:101D5000480500204A050020220500200000002040
:101D600002000020040000200600002080B584B09E
:101D700000AF7860012001F0F9FE5449786811F055
:101D80006FFAF86098E0FB681B78453B152B00F272
:101D90008B8001A252F823F08F1E00082D1E000830
:101DA000A91E0008A91E0008A91E0008A91E0008F7
:101DB000A91E0008A91E0008A91E0008A91E0008E7
:101DC000A91E0008A91E0008A91E0008F11D000890
:101DD000191E0008051E0008A91E0008A91E0008FB
:101DE000A91E0008411E00085B1E0008751E0008A1
:101DF000FB68013318460FF06DFF03469AB2344B6F
:101E00001A8051E0FB68013318460FF063FF034668
:101E10009AB2304B1A8047E0FB68013318460FF046
:101E200059FF03469AB22C4B1A803DE0FB68013300
:101E300018460FF04FFF03469AB2284B1A8033E042
:101E4000FB68013318460FF042FFB0EE407AF0EE27
:101E5000607A234B83ED007B26E0FB680133184654
:101E60000FF035FFB0EE407AF0EE607A1D4B83ED57
:101E7000007B19E0FB68013318460FF028FFB0EE35
:101E8000407AF0EE607A184B83ED007B0CE0FB6843
:101E9000013318460FF01BFFB0EE407AF0EE607A87
:101EA000124B83ED007B00BF012001F05FFE07496C
:101EB000002011F0D5F9F860FB68002B7FF463AFC8
:101EC00000BF00BF1037BD4680BD00BFEC860108D3
:101ED0001C0500201E0500202005002024050020F0
:101EE000300500203805002040050020280500208E
:101EF0000FB480B582B000AF07F114033B603B68BC
:101F00003A694FF480710B4811F0BEFA0948FEF7A8
:101F100057F903467B607B689AB24FF0FF3305495F
:101F2000054808F0D1F900BF0837BD46BDE880403C
:101F300004B07047C41000209006002080B582B025
:101F400000AF78600B467B807B681B68094A934230
:101F50000CD128220849094809F090FD084B1B685C
:101F60001A68074B1B6822F004021A6000BF08378A
:101F7000BD4680BD008000404C050020900600203A
:101F8000B007002080B483B000AF0346FB80094B4C
:101F90001B6800225A6200BF064B1B685A6AFB8806
:101FA0009A42F9D300BF00BF0C37BD465DF8047BF1
:101FB000704700BF8409002080B400AF034B1B684A
:101FC0005B6A1846BD465DF8047B7047D009002067
:101FD00080B584B000AFF8600B467A607B817A8967
:101FE00007F10C017B68034806F07BFB00BF10374C
:101FF000BD4680BD240800202DE9F0438FB008AF16
:1020000001F03FFD00F036F900F0A8FD00F074FD8E
:1020100000F066FA00F046FD00F0A8FC00F0B0FA0F
:1020200000F00CFC00F07AF900F0EEFC00F086FB0A
:1020300000F008FB00F0F0FA00F012FA00F040FBAC
:102040000FF074F80021784807F052F9042176481F
:1020500007F04EF90821744807F04AF90322734942
:10206000734802F0E1F8734807F078F8724807F017
:1020700075F828227149724809F000FD714B1B6800
:102080001A68704B1B6822F004021A602822002193
:102090006A480FF055FEFFF7B5FD00237B61002372
:1020A000FB740023FB600023BB6001F0DDFB664B8B
:1020B0001B68664AC3F85C21634B1B68522283F895
:1020C000602100224FF48061614803F047FD142035
:1020D00001F04CFD01224FF480615D4803F03EFDAC
:1020E000142001F043FD584B1B6818460AF020FBF2
:1020F000554B1B6818460AF035F8534B1B681846B9
:102100000AF094F9504B1B687A1CB91C18460BF066
:102110002DF84D4B1B68FA1C391D18460BF0B2FC0C
:10212000494B1B68002118460AF0A0FB464B1B6870
:102130000122002118460AF013FE434B1B680122BE
:10214000012118460AF00CFE3F4B1B6841F699121C
:10215000012118460AF0B4FE3B4B1B684FF4701285
:10216000002118460AF0ACFE374B1B683949184667
:102170000AF0DAFB344B1B681222002118460AF0E1
:10218000F9FB314B1B680E22012118460AF0F2FBC5
:102190002A4B1B78002B0ED02F4B1B7883F00103AA
:1021A000DBB2002B07D02548FFF744FD2822002191
:1021B00022480FF0C5FD1021254803F0B7FC034667
:1021C000012B08D02021224803F0B0FC0346012B4C
:1021D00001D0FFF74FFBFFF7D7FBFFF749FC4FF4A8
:1021E00000511E4803F0A2FC0346012BD0D101236D
:1021F000FB741B4BD3E900891A4BD3E900231A491E
:10220000D1E90001194CD4E90045134E3678069601
:10221000CDE90445CDE90201CDE9002342464B4614
:102220001348FFF765FEB3E738090020280F0020A8
:102230007405002084090020D00900204C050020EE
:1022400090060020B0070020080000203C06002077
:102250000014004880841E00080500200008004883
:10226000F004002030050020F8040020380500208C
:10227000F086010880B598B000AF07F11803482236
:10228000002118460FF05CFD3B1D00221A605A60C9
:102290009A60DA601A61002004F084FB0346002B88
:1022A00001D000F067FD3023BB6101233B640123B3
:1022B0007B630023BB636023FB6302237B640123F6
:1022C000BB640123FB643C233B6502237B65022343
:1022D000BB650223FB6507F11803184604F026FCD2
:1022E0000346002B01D000F045FD0F237B60032344
:1022F000BB600023FB6000233B6100237B613B1D2F
:102300000521184605F08EF80346002B01D000F099
:1023100031FD00BF6037BD4680BD000080B58AB08A
:1023200000AF07F11C0300221A605A609A603B1D3F
:1023300000221A605A609A60DA601A615A61434B4F
:10234000434A1A60414B00225A60404B00229A6077
:102350003E4B0022DA603D4B01221A613B4B0422C6
:102360005A613A4B00221A76384B01225A76374B83
:102370000322DA61354B002283F82020334B002200
:102380009A62324B0022DA62304B012283F830200D
:102390002E4B00225A632D4B012283F838202B4B01
:1023A0000C22DA63294B00221A64284B00225A645B
:1023B000264B01229A64254801F0E4FD0346002BD8
:1023C00001D000F0D7FC0023FB6107F11C03194684
:1023D0001E4802F035FD0346002B01D000F0CAFC78
:1023E0001C4B7B600623BB600723FB607F233B61A4
:1023F00004237B610023BB613B1D1946134801F098
:10240000E5FF0346002B01D000F0B4FC124B7B60CB
:102410000C23BB603B1D19460C4801F0D7FF034657
:10242000002B01D000F0A6FC0C4B7B601223BB609C
:102430003B1D1946054801F0C9FF0346002B01D09A
:1024400000F098FC00BF2837BD4680BD7405002011
:10245000000004500200300404006008000052C76D
:1024600080B500AF1B4B1C4A1A601A4B1B4A5A60BE
:10247000184B00229A60174B0122DA60154B00229C
:102480001A61144B00225A61124B00229A61114BBF
:102490000022DA610F4B00221A620E4803F090FB13
:1024A0000346002B01D000F065FC0021094804F030
:1024B00079F80346002B01D000F05CFC00210548B0
:1024C00004F0BBF80346002B01D000F053FC00BF22
:1024D00080BD00BF3C06002000540040DB3FB00040
:1024E00080B500AF244B254A1A60234B4FF4E132EC
:1024F0005A60214B00229A601F4B0022DA601E4B6B
:1025000000221A611C4B0C225A611B4B00229A615B
:10251000194B00221A62184B00225A62164B1022E5
:102520009A62154B4FF48052DA63134B00225A66BD
:10253000114807F079FE0346002B01D000F01AFC89
:1025400000210D4809F01EFA0346002B01D000F0CF
:1025500011FC0021084809F053FA0346002B01D072
:1025600000F008FC044809F0D4F90346002B01D020
:1025700000F000FC00BF80BD9006002000800040FD
:1025800080B500AF224B234A1A60214B4FF4E13251
:102590005A601F4B00229A601D4B0022DA601C4BD0
:1025A00000221A611A4B0C225A61194B00229A61BF
:1025B000174B0022DA61164B00221A62144B0022DC
:1025C0005A62134B00229A62114807F02DFE03460F
:1025D000002B01D000F0CEFB00210D4809F0D2F90C
:1025E0000346002B01D000F0C5FB0021084809F08C
:1025F00007FA0346002B01D000F0BCFB044809F0A9
:1026000088F90346002B01D000F0B4FB00BF80BD69
:1026100020070020004C004080B500AF074B084A5F
:102620001A60064B00225A60044805F00DFF03466D
:10263000002B01D000F09EFB00BF80BD10080020E1
:102640000008065080B500AF1B4B1C4A1A601A4B9D
:102650004FF482725A60184B00229A60164B4FF466
:10266000E062DA60144B00221A61134B00225A61B7
:10267000114B4FF400729A610F4B0822DA610E4B36
:1026800000221A620C4B00225A620B4B00229A6203
:10269000094B0722DA62084B00221A63064B082214
:1026A0005A63054805F07AFF0346002B01D000F07D
:1026B00061FB00BF80BD00BF240800200030014046
:1026C00080B500AF1B4B1C4A1A601A4B4FF4827244
:1026D0005A60184B00229A60164B4FF4E062DA60A1
:1026E000144B00221A61134B00225A61114B4FF414
:1026F00000729A610F4B3822DA610E4B00221A6287
:102700000C4B00225A620B4B00229A62094B0722A3
:10271000DA62084B00221A63064B08225A63054806
:1027200005F03CFF0346002B01D000F023FB00BF67
:1027300080BD00BF880800200038004080B58EB002
:1027400000AF07F1280300221A605A609A60DA602D
:1027500007F11C0300221A605A609A603B4600226F
:102760001A605A609A60DA601A615A619A61324B53
:102770004FF080421A60304B77225A602E4B002275
:102780009A602D4BFF22DA602B4B00221A612A4BF4
:1027900000229A61284806F089FC0346002B01D0EC
:1027A00000F0E8FA4FF48053BB6207F128031946A2
:1027B000214806F0B7FF0346002B01D000F0DAFAFB
:1027C0001D4806F033FD0346002B01D000F0D2FA7D
:1027D0000023FB6100237B6207F11C0319461648A6
:1027E00007F09AFC0346002B01D000F0C3FA6023E7
:1027F0003B6000237B600023BB6000233B613B46C2
:10280000002219460C4806F079FE0346002B01D041
:1028100000F0B0FA3B4604221946074806F06EFE67
:102820000346002B01D000F0A5FA034800F000FE9B
:1028300000BF3837BD4680BDEC08002080B58EB0A3
:1028400000AF07F1280300221A605A609A60DA602C
:1028500007F11C0300221A605A609A603B4600226E
:102860001A605A609A60DA601A615A619A613D4B47
:102870003D4A1A603B4B42F66F325A60394B002298
:102880009A60384BFF22DA60364B00221A61354BD2
:1028900080229A61334806F009FC0346002B01D0E0
:1028A00000F068FA4FF48053BB6207F12803194621
:1028B0002C4806F037FF0346002B01D000F05AFAEF
:1028C000284806F0B3FC0346002B01D000F052FA72
:1028D0000023FB6100237B6207F11C03194621489A
:1028E00007F01AFC0346002B01D000F043FA6023E6
:1028F0003B6000237B600023BB6000233B613B46C1
:1029000000221946174806F0F9FD0346002B01D0B6
:1029100000F030FA3B4604221946124806F0EEFD5C
:102920000346002B01D000F025FA3B460822194649
:102930000C4806F0E3FD0346002B01D000F01AFA24
:102940003B460C221946074806F0D8FD0346002BEB
:1029500001D000F00FFA034800F06AFD00BF3837DD
:10296000BD4680BD380900200004004080B588B015
:1029700000AF07F1100300221A605A609A60DA6013
:102980003B1D00221A605A609A601D4B1D4A1A6056
:102990001B4B77225A601A4B00229A60184B4FF655
:1029A000FF72DA60164B00221A61154B00229A6101
:1029B000134806F07BFB0346002B01D000F0DAF948
:1029C0004FF480533B6107F1100319460C4806F0A1
:1029D000A9FE0346002B01D000F0CCF900237B6058
:1029E0000023FB603B1D1946054807F095FB034695
:1029F000002B01D000F0BEF900BF2037BD4680BDDE
:102A0000840900200008004080B588B000AF07F1BD
:102A1000100300221A605A609A60DA603B1D00229F
:102A20001A605A609A601D4B1D4A1A601B4B772230
:102A30005A601A4B00229A60184B4FF0FF32DA604E
:102A4000164B00221A61154B00229A61134806F0BA
:102A50002DFB0346002B01D000F08CF94FF480537E
:102A60003B6107F1100319460C4806F05BFE034674
:102A7000002B01D000F07EF900237B600023FB6077
:102A80003B1D1946054807F047FB0346002B01D0C4
:102A900000F070F900BF2037BD4680BDD00900208E
:102AA000000C004080B500AF124B4FF0A0421A60FE
:102AB000104B06225A600F4B02229A610D4B0122E5
:102AC000DA610C4B00221A620A4B00225A62094B4F
:102AD00001229A62074B00221A63064B0122DA6236
:102AE000044803F0F6FD0346002B01D000F042F944
:102AF00000BF80BD1C0A002080B582B000AF164B1D
:102B00009B6C154A43F004039364134B9B6C03F0D6
:102B100004037B607B68104B9B6C0F4A43F00103FE
:102B200093640D4B9B6C03F001033B603B680022F8
:102B300000210B2002F003FB0B2002F01CFB002203
:102B400000210C2002F0FBFA0C2002F014FB00BF65
:102B50000837BD4680BD00BF0010024080B58CB074
:102B600000AF07F11C0300221A605A609A60DA6015
:102B70001A617B4BDB6C7A4A43F01003D364784BC9
:102B8000DB6C03F01003BB61BB69754BDB6C744AF3
:102B900043F00403D364724BDB6C03F004037B61EA
:102BA0007B696F4BDB6C6E4A43F02003D3646C4B44
:102BB000DB6C03F020033B613B69694BDB6C684ACB
:102BC00043F08003D364664BDB6C03F08003FB604F
:102BD000FB68634BDB6C624A43F00103D364604BD8
:102BE000DB6C03F00103BB60BB685D4BDB6C5C4AD4
:102BF00043F00203D3645A4BDB6C03F002037B60A7
:102C00007B68574BDB6C564A43F04003D364544B0C
:102C1000DB6C03F040033B603B6803F077FF00226E
:102C200040F2CE514F4802F099FF002280214FF030
:102C3000904002F093FF002244F283014A4802F0E0
:102C40008DFF002247F24041484802F087FF0022F2
:102C50004021474802F082FF4FF40053FB614FF4DC
:102C600088133B6200237B6207F11C03194640482E
:102C700002F0CAFD40F23123FB6100233B620023D6
:102C80007B6207F11C031946364802F0BDFD40F295
:102C9000CE53FB6101233B6200237B620023BB62B6
:102CA00007F11C0319462F4802F0AEFD8023FB619B
:102CB00001233B6200237B620023BB6207F11C03FC
:102CC00019464FF0904002F09FFD44F28303FB61F0
:102CD00001233B6200237B620023BB6207F11C03DC
:102CE0001946214802F090FD2023FB6100233B623E
:102CF00000237B6207F11C0319461C4802F084FD87
:102D00004FF48863FB6101233B6200237B62002355
:102D1000BB6207F11C031946144802F075FD4023FD
:102D2000FB6101233B6200237B620023BB6207F14E
:102D30001C0319460E4802F067FD4FF4E043FB61A7
:102D400001233B6200237B620323BB6207F11C0368
:102D50001946064802F058FD00BF3037BD4680BD19
:102D60000010024000140048000400480018004809
:102D70000008004880B400AF72B600BFFEE7000054
:102D800080B483B000AF0F4B1B6E0E4A43F00103BB
:102D900013660C4B1B6E03F001037B607B68094BD1
:102DA0009B6D084A43F080539365064B9B6D03F07F
:102DB00080533B603B6800BF0C37BD465DF8047B29
:102DC000704700BF0010024080B5B0B000AF78601F
:102DD00007F1AC0300221A605A609A60DA601A6147
:102DE00007F114039822002118460EF0A9FF7B6812
:102DF0001B683C4A934271D14FF480437B614FF092
:102E00008053C7F894300123BB610123FB61182371
:102E10003B6202237B620423BB620223FB624FF00E
:102E200080733B6307F11403184604F0B9FD0346B1
:102E3000002B01D0FFF79EFF2B4BDB6C2A4A43F49B
:102E40000053D364284BDB6C03F400533B613B69B4
:102E5000254BDB6C244A43F00403D364224BDB6C28
:102E600003F00403FB60FB680323C7F8AC300B23BB
:102E7000C7F8B0300023C7F8B43007F1AC031946E7
:102E80001A4802F0C1FC1A4B1A4A1A60184B052264
:102E90005A60174B00229A60154B0022DA60144BDF
:102EA00080221A61124B4FF400725A61104B4FF49A
:102EB00000629A610E4B2022DA610D4B00221A62E9
:102EC0000B4802F073F90346002B01D0FFF752FFC5
:102ED0007B68074A1A65064A7B68936200BFC03761
:102EE000BD4680BD000004500010024000080048AC
:102EF000DC0500200800024080B5B0B000AF78606B
:102F000007F1AC0300221A605A609A60DA601A6115
:102F100007F114039822002118460EF011FF7B6878
:102F20001B68214A93423BD140237B610023BB664F
:102F300007F11403184604F033FD0346002B01D0BB
:102F4000FFF718FF194BDB6C184A43F00203D364F8
:102F5000164BDB6C03F002033B613B694FF41073CB
:102F6000C7F8AC301223C7F8B0300023C7F8B4302C
:102F70000323C7F8B8300423C7F8BC3007F1AC030B
:102F800019460B4802F040FC084B9B6D074A43F47E
:102F900000139365054B9B6D03F40013FB60FB6806
:102FA00000BFC037BD4680BD005400400010024045
:102FB0000004004880B5B2B000AF786007F1B403F8
:102FC00000221A605A609A60DA601A6107F11C03E5
:102FD0009822002118460EF0B3FE7B681B686D4AEC
:102FE00093426FD12023FB610023FB6607F11C0392
:102FF000184604F0D5FC0346002B01D0FFF7BAFEBB
:10300000654BDB6D644A43F00103D365624BDB6DB6
:1030100003F00103BB61BB695F4BDB6C5E4A43F0AD
:103020004003D3645C4BDB6C03F040037B617B6942
:1030300003F06CFD4FF4C073C7F8B4300223C7F837
:10304000B8300023C7F8BC300323C7F8C0300823CA
:10305000C7F8C43007F1B4031946504802F0D4FB56
:103060004F4B504A1A604E4B23225A604C4B002261
:103070009A604B4B0022DA60494B80221A61484B20
:1030800000225A61464B00229A61454B0022DA61C8
:10309000434B00221A62424802F088F80346002B94
:1030A00001D0FFF767FE7B683D4ADA673C4A7B68E0
:1030B000936200220021462002F041F8462002F0EF
:1030C0005AF862E07B681B68374A93425DD1082357
:1030D000FB6100237B6607F11C03184604F060FCCB
:1030E0000346002B01D0FFF745FE2B4B9B6D2A4A70
:1030F00043F400239365284B9B6D03F400233B614D
:103100003B69254BDB6C244A43F00103D364224B1B
:10311000DB6C03F00103FB60FB681F4BDB6C1E4A9A
:1031200043F00403D3641C4BDB6C03F00403BB606B
:10313000BB680123C7F8B4300223C7F8B8300023B6
:10314000C7F8BC300323C7F8C0300823C7F8C43021
:1031500007F1B40319464FF0904002F055FB4FF4CD
:103160000063C7F8B4300223C7F8B8300023C7F8AB
:10317000BC300323C7F8C0300823C7F8C43007F1B8
:10318000B4031946094802F03FFB00BFC837BD46EB
:1031900080BD00BF008000400010024000180048C1
:1031A000B00700201C000240004C0040000800480E
:1031B00080B5AAB000AF786007F110039822002113
:1031C00018460EF0BDFD7B681B68114A93421BD167
:1031D0004FF480233B610023C7F88C3007F11003C4
:1031E000184604F0DDFB0346002B01D0FFF7C2FDBB
:1031F000084BDB6C074A43F48023D364054BDB6C3C
:1032000003F48023FB60FB6800BFA837BD4680BD88
:10321000000806500010024080B58EB000AF786004
:1032200007F1240300221A605A609A60DA601A617A
:103230007B681B684B4A934246D14B4B1B6E4A4AF4
:1032400043F480531366484B1B6E03F480533B6278
:103250003B6A454BDB6C444A43F00103D364424B69
:10326000DB6C03F00103FB61FB693F4BDB6C3E4A07
:1032700043F01003D3643C4BDB6C03F01003BB61E1
:10328000BB6940237B620223BB620023FB620323F2
:103290003B6305237B6307F1240319464FF09040FD
:1032A00002F0B2FA4FF420437B620223BB62002398
:1032B000FB6203233B6305237B6307F12403194669
:1032C0002A4802F0A1FA49E07B681B68284A934229
:1032D00044D1254B9B6D244A43F480439365224B94
:1032E0009B6D03F480437B617B691F4BDB6C1E4A43
:1032F00043F00403D3641C4BDB6C03F004033B6119
:103300003B69194BDB6C184A43F00203D364164B3C
:10331000DB6C03F00203FB60FB680C237B6202237F
:10332000BB620023FB6203233B6305237B6307F13E
:10333000240319460F4802F067FA4FF480637B625A
:103340000223BB620023FB6203233B6305237B63F1
:1033500007F124031946084802F056FA00BF38372F
:10336000BD4680BD00300140001002400010004802
:1033700000380040000800480004004880B487B0CE
:1033800000AF78607B681B68B3F1804F0CD1244B91
:103390009B6D234A43F001039365214B9B6D03F022
:1033A00001037B617B6934E07B681B681D4A9342A3
:1033B0000CD11B4B9B6D1A4A43F002039365184BCB
:1033C0009B6D03F002033B613B6922E07B681B6855
:1033D000154A93420CD1124B9B6D114A43F00403E2
:1033E00093650F4B9B6D03F00403FB60FB6810E0DB
:1033F0007B681B680D4A93420BD1094B9B6D084AB1
:1034000043F008039365064B9B6D03F00803BB6014
:10341000BB6800BF1C37BD465DF8047B704700BF2A
:10342000001002400004004000080040000C004072
:1034300080B58AB000AF786007F1140300221A60EB
:103440005A609A60DA601A617B681B68B3F1804F3A
:103450001DD1214BDB6C204A43F00103D3641E4B8A
:10346000DB6C03F001033B613B6922237B61022398
:10347000BB610023FB6100233B6201237B6207F1F8
:10348000140319464FF0904002F0BEF920E07B682B
:103490001B68124A93421BD10F4BDB6C0E4A43F060
:1034A0001003D3640C4BDB6C03F01003FB60FB6870
:1034B00078237B610223BB610023FB6100233B6215
:1034C00002237B6207F114031946054802F09CF9B8
:1034D00000BF2837BD4680BD0010024000040040F8
:1034E0000010004880B5B0B000AF786007F1AC03C1
:1034F00000221A605A609A60DA601A6107F11403B8
:103500009822002118460EF01BFC7B681B68B3F163
:10351000A04F6CD14FF400537B610023C7F8883073
:1035200007F11403184604F03BFA0346002B01D0C0
:10353000FFF720FC304BDB6C2F4A43F00103D364D0
:103540002D4BDB6C03F001033B613B694FF4E85307
:10355000C7F8AC300223C7F8B0300023C7F8B43046
:103560000323C7F8B8300A23C7F8BC3007F1AC030F
:1035700019464FF0904002F047F94FF40073C7F836
:10358000AC300023C7F8B0300023C7F8B43007F1DF
:10359000AC0319464FF0904002F036F9164BDB6C45
:1035A000154A43F48053D364134BDB6C03F480530C
:1035B000FB60FB68104B9B6D03F08053002B14D114
:1035C0000D4B9B6D0C4A43F0805393650A4B9B6DEA
:1035D00003F08053BB60BB6803F088FA064B9B6D19
:1035E000054A23F08053936501E003F07FFA00BFA2
:1035F000C037BD4680BD00BF0010024080B400AFA0
:10360000FEE780B400AFFEE780B400AFFEE780B411
:1036100000AFFEE780B400AFFEE780B400AF00BFAC
:10362000BD465DF8047B704780B400AF00BFBD4667
:103630005DF8047B704780B400AF00BFBD465DF805
:10364000047B704780B500AF00F070FA00BF80BD0A
:1036500080B500AF024801F087FF00BF80BD00BF0A
:10366000DC05002080B500AF024801F07DFF00BFFF
:1036700080BD00BFB007002080B500AF024806F053
:10368000B9FE00BF80BD00BF9006002080B400AF2F
:10369000064BD3F88830054A43F47003C2F88830EB
:1036A00000BFBD465DF8047B704700BF00ED00E041
:1036B00080B500AF00224FF48051024802F04EFA6C
:1036C00000BF80BD0018004880B582B000AF03463F
:1036D000FB71FB79012201211846FEF779FC00BF3E
:1036E0000837BD4680BD000080B582B000AF0346FC
:1036F000FB7100224FF480510B4802F02FFA002298
:103700004FF40051084802F029FAFB791846FFF7F8
:10371000DBFF01224FF48051034802F01FFA00BF83
:103720000837BD4680BD00BF0018004880B582B094
:1037300000AF0346FB7101224FF400510B4802F029
:103740000DFA00224FF48051084802F007FAFB7985
:103750001846FFF7B9FF01224FF48051034802F0E9
:10376000FDF900BF0837BD4680BD00BF0018004806
:1037700080B500AF01224FF480410B4802F0EEF912
:10378000C82000F0F3F900224FF48051064802F0FF
:10379000E5F9C82000F0EAF901224FF4804102481F
:1037A00002F0DCF900BF80BD0018004880B584B08D
:1037B00000AF0346FB71FB79FB733620FFF794FFE4
:1037C000012000F0D3F9FB7B032B37D801A252F87C
:1037D00023F000BFE5370008FB3700081138000868
:1037E000273800084820FFF7A1FF174BF0221A8066
:1037F000164B4FF4A0721A8021E02820FFF796FFA5
:10380000114B4FF4A0721A80104BF0221A8016E070
:103810008820FFF78BFF0C4BF0221A800B4B4FF4E4
:10382000A0721A800BE0E820FFF780FF064B4FF4F0
:10383000A0721A80054BF0221A8000E000BF00BF82
:103840001037BD4680BD00BF1200002010000020D0
:1038500080B500AF01224FF48041024802F07EF9AA
:1038600000BF80BD0018004880B500AFFFF7F0FF33
:10387000FFF71EFFFFF77CFF0120FFF735FF4FF436
:103880007A7000F073F9CB20FFF72EFF3920FFF795
:103890004DFF2C20FFF74AFF0020FFF747FF3420A1
:1038A000FFF744FF0220FFF741FFCF20FFF71CFF87
:1038B0000020FFF73BFFC120FFF738FF3020FFF764
:1038C00035FFE820FFF710FF8520FFF72FFF0020CE
:1038D000FFF72CFF7820FFF729FFEA20FFF704FF0E
:1038E0000020FFF723FF0020FFF720FFED20FFF768
:1038F000FBFE6420FFF71AFF0320FFF717FF1220DB
:10390000FFF714FF8120FFF711FFF720FFF7ECFE10
:103910002020FFF70BFFC020FFF7E6FE2320FFF774
:1039200005FFC120FFF7E0FE1020FFF7FFFEC520D6
:10393000FFF7DAFE3E20FFF7F9FE2820FFF7F6FE3C
:10394000C720FFF7D1FE8620FFF7F0FE3620FFF7F5
:10395000CBFE4820FFF7EAFE3A20FFF7C5FE5520D0
:10396000FFF7E4FEB120FFF7BFFE0020FFF7DEFE09
:103970001820FFF7DBFEB620FFF7B6FE0820FFF7A2
:10398000D5FE8220FFF7D2FE2720FFF7CFFEF220E0
:10399000FFF7AAFE0020FFF7C9FE2620FFF7A4FECE
:1039A0000120FFF7C3FEE020FFF79EFE0F20FFF788
:1039B000BDFE3120FFF7BAFE2B20FFF7B7FE0C202B
:1039C000FFF7B4FE0E20FFF7B1FE0820FFF7AEFEB2
:1039D0004E20FFF7ABFEF120FFF7A8FE3720FFF7E0
:1039E000A5FE0720FFF7A2FE1020FFF79FFE032091
:1039F000FFF79CFE0E20FFF799FE0920FFF796FEC9
:103A00000020FFF793FEE120FFF76EFE0020FFF796
:103A10008DFE0E20FFF78AFE1420FFF787FE03209D
:103A2000FFF784FE1120FFF781FE0720FFF77EFEDF
:103A30003120FFF77BFEC120FFF778FE4820FFF71B
:103A400075FE0820FFF772FE0F20FFF76FFE0C20B7
:103A5000FFF76CFE3120FFF769FE3620FFF766FEA8
:103A60000F20FFF763FE1120FFF73EFE782000F0E5
:103A70007DF82920FFF738FE0020FFF797FE00BFF2
:103A800080BD80B582B000AF0023FB71032001F040
:103A90004BFB002000F00EF80346002B02D0012360
:103AA000FB7101E0FFF76CF9FB7918460837BD465A
:103AB00080BD000080B584B000AF78600023FB7348
:103AC000174B1B78002B23D0164B1A68144B1B780E
:103AD00019464FF47A73B3FBF1F3B2FBF3F31846D4
:103AE00001F057FB0346002B0FD17B680F2B09D841
:103AF000002279684FF0FF3001F021FB0A4A7B6811
:103B0000136007E00123FB7304E00123FB7301E072
:103B10000123FB73FB7B18461037BD4680BD00BFF9
:103B2000180000200C0000201400002080B400AF1A
:103B3000064B1B781A46064B1B681344044A136055
:103B400000BFBD465DF8047B704700BF1800002031
:103B5000C411002080B400AF034B1B681846BD465B
:103B60005DF8047B704700BFC411002080B584B0AD
:103B700000AF7860FFF7EEFFB8607B68FB60FB6822
:103B8000B3F1FF3F05D00A4B1B781A46FB6813447C
:103B9000FB6000BFFFF7DEFF0246BB68D31AFA687E
:103BA0009A42F7D800BF00BF1037BD4680BD00BFA6
:103BB0001800002080B483B000AF786039607B6863
:103BC0009B6823F47C123B681A437B689A6000BFB1
:103BD0000C37BD465DF8047B704780B483B000AFFE
:103BE000786039607B689B6823F0E0723B681A4319
:103BF0007B689A6000BF0C37BD465DF8047B704758
:103C000080B483B000AF78607B689B6803F0E0739A
:103C100018460C37BD465DF8047B704780B487B00A
:103C200000AFF860B9607A603B60FB6860331A46A9
:103C3000BB689B0013447B617B691A68084B134087
:103C40007A6802F0F8413A680A43134343F00042AD
:103C50007B691A6000BF1C37BD465DF8047B704766
:103C600000F0FF0380B485B000AF786039607B68F6
:103C700060331A463B689B001344FB60FB681B687B
:103C800003F0F84318461437BD465DF8047B7047CF
:103C900080B487B000AFF860B9607A60FB686033C9
:103CA0001A46BB689B0013447B617B691B6823F049
:103CB00000427B681A437B691A6000BF1C37BD460F
:103CC0005DF8047B704780B483B000AF78603960E2
:103CD0007B685B6923F000423B681A437B685A614A
:103CE00000BF0C37BD465DF8047B704780B483B0DD
:103CF00000AF78607B68DB6803F44063002B01D180
:103D0000012300E0002318460C37BD465DF8047B14
:103D1000704780B487B000AFF860B9607A60FB6824
:103D200030331A46BB681B0A9B0003F00C03134494
:103D30007B617B691A68BB6803F01F031F2101FACE
:103D400003F3DB431A407B689B0E03F01F01BB6843
:103D500003F01F0301FA03F31A437B691A6000BFE3
:103D60001C37BD465DF8047B704780B487B000AF58
:103D7000F860B9607A60FB6814331A46BB685B0E62
:103D80009B0003F0040313447B617B691A68BB68E2
:103D90001B0D03F01F03072101FA03F3DB431A4055
:103DA000BB681B0D03F01F03796801FA03F31A4384
:103DB0007B691A6000BF1C37BD465DF8047B704705
:103DC00080B485B000AFF860B9607A60FB68D3F862
:103DD000B020BB68C3F31203DB431A407B6803F0D7
:103DE00018030849D940BB680B40C3F312031A43B8
:103DF000FB68C3F8B02000BF1437BD465DF8047BF4
:103E0000704700BFFFFF070080B483B000AF786049
:103E10007B689B6803F01F0318460C37BD465DF8AE
:103E2000047B704780B483B000AF78607B689B6888
:103E300023F0204323F03F037A68936000BF0C37E0
:103E4000BD465DF8047B704780B483B000AF7860F6
:103E50007B689B6803F00053B3F1005F01D101233D
:103E600000E0002318460C37BD465DF8047B704720
:103E700080B483B000AF78607B689B6823F0104308
:103E800023F03F0343F080527B689A6000BF0C37F9
:103E9000BD465DF8047B704780B483B000AF7860A6
:103EA0007B689B6803F08053B3F1805F01D10123ED
:103EB00000E0002318460C37BD465DF8047B7047D0
:103EC00080B483B000AF78607B689B6823F00043C8
:103ED00023F03F0343F001027B689A6000BF0C3778
:103EE000BD465DF8047B704780B483B000AF786056
:103EF0007B689B6803F00103012B01D1012300E0E3
:103F0000002318460C37BD465DF8047B704780B42B
:103F100083B000AF78607B689B6823F0004323F098
:103F20003F0343F004027B689A6000BF0C37BD4634
:103F30005DF8047B704780B483B000AF78607B6825
:103F40009B6803F00403042B01D1012300E000234C
:103F500018460C37BD465DF8047B704780B483B0CB
:103F600000AF78607B689B6803F00803082B01D1E1
:103F7000012300E0002318460C37BD465DF8047BA2
:103F80007047000090B589B000AF78600023FB77E0
:103F90000023BB607B68002B01D1012334E17B68E7
:103FA0001B69002B7B689B6D002B09D17868FEF79D
:103FB0000BFF7B680022DA657B68002283F85420BF
:103FC0007B681B681846FFF73FFF0346002B04D0B1
:103FD0007B681B681846FFF725FF7B681B6818463F
:103FE000FFF75AFF0346002B15D17B681B68184664
:103FF000FFF73EFF864B1B689B09864AA2FB032303
:104000009B0901335B00BB6002E0BB68013BBB6006
:10401000BB68002BF9D17B681B681846FFF73CFF93
:104020000346002B0DD17B689B6D43F010027B682B
:104030009A657B68DB6D43F001027B68DA650123DA
:10404000FB777B681B681846FFF775FF78617B6814
:104050009B6D03F01003002B40F0CD807B69002B9B
:1040600040F0C9807B689B6D23F4817343F00202AA
:104070007B689A657B681B681846FFF735FF034627
:10408000002B10D16448FFF72FFF04466348FFF769
:104090002BFF03462343002B05D17B685B68194641
:1040A0005F48FFF787FD7B685B7E5A037B685B6B2D
:1040B0001A437B68DB681A437B689B681A437B68FA
:1040C00093F820301B041343BB617B6893F82030C6
:1040D000012B06D17B685B6A013B5B04BA69134321
:1040E000BB617B689B6A002B09D07B689B6A03F4E9
:1040F00070727B68DB6A1343BA691343BB617B68E8
:104100001B68DA68474B13407A681268B9690B4339
:10411000D3607B681B681846FFF70DFF38617B682A
:104120001B681846FFF71AFFF8603B69002B40D167
:10413000FB68002B3DD17B68DA6C7B681B7E9B03A0
:104140001A437B6893F830305B001343BB617B6894
:104150001B68DB6823F4804323F006037A68126847
:10416000B9690B43D3607B6893F83830012B18D1C1
:104170007B681B681B6923F4FF6323F004037A68E0
:10418000D16B7A68126C11437A68526C11437A6869
:10419000926C0A431A437B681B6842F001021A6161
:1041A00007E07B681B681A697B681B6822F00102C4
:1041B0001A617B681B69012B0CD17B681B681B6B28
:1041C00023F00F017B68DB695A1E7B681B680A437A
:1041D0001A6307E07B681B681A6B7B681B6822F018
:1041E0000F021A637B689B6D23F0030343F0010207
:1041F0007B689A6507E07B689B6D43F010027B68E3
:104200009A650123FB77FB7F18462437BD4690BD96
:104210000C000020632D3E050000045000010450F6
:104220000003045007C0F0FF80B586B000AFF8600F
:10423000B9607A605048FFF7E7FD3861FB681B689A
:104240001846FFF778FE0346002B40F08E80FB688F
:1042500093F85430012B01D1022389E0FB6801223D
:1042600083F854203B69002B05D03B69052B02D015
:104270003B69092B72D1F86800F0A2FC0346FB757C
:10428000FB7D002B65D1FB689B6D23F4706323F0ED
:10429000010343F48072FB689A65FB681B68374A28
:1042A000934202D0FB681B6800E0354BFA68126845
:1042B000934202D03B69002B05D1FB689B6D23F430
:1042C0008012FB689A65FB689B6D03F48053002B9A
:1042D00006D0FB68DB6D23F00602FB68DA6502E0BE
:1042E000FB680022DA65FB681B6D264ADA62FB6810
:1042F0001B6D254A1A63FB681B6D244A5A63FB68D1
:104300001B681C221A60FB68002283F85420FB689B
:104310001B685A68FB681B6842F010025A60FB6811
:104320001B68DA68FB681B6842F00102DA60FB6810
:10433000186DFB681B6840331946BA687B6800F04B
:10434000DDFF0346FB75FB681B681846FFF7DFFDC2
:104350000DE0FB68002283F8542008E00123FB7580
:10436000FB68002283F8542001E00223FB75FB7DEB
:1043700018461837BD4680BD0003045000010450A4
:1043800000000450CD4C0008A54D0008C14D0008A8
:1043900080B483B000AF786000BF0C37BD465DF8D5
:1043A000047B704780B483B000AF786000BF0C37E7
:1043B000BD465DF8047B704780B483B000AF786081
:1043C00000BF0C37BD465DF8047B704780B5B6B0C2
:1043D00000AF78603960002387F8D7300023FB6096
:1043E0007B6893F85430012B01D10223D3E37B681F
:1043F000012283F854207B681B681846FFF79BFD59
:104400000346002B40F0B8833B685B68052B24D83B
:104410003B685B68023B032B1BD801A252F823F0D8
:104420003144000839440008414400084944000868
:104430003B680C225A6010E03B6812225A600CE084
:104440003B6818225A6008E03B684FF480725A605B
:1044500003E03B6806225A6000BF7B6818683B682F
:1044600059683B681B681A46FFF753FC7B681B685A
:104470001846FFF760FDC7F8D0007B681B68184638
:10448000FFF76CFDC7F8CC00D7F8D030002B40F018
:10449000C181D7F8CC30002B40F0BC813B689B68D1
:1044A000B3F1004F0FD17B6818683B681B6800228E
:1044B0001946FFF75AFC7B681B684FF0004118460D
:1044C000FFF701FC0EE07B6818683B6819683B68E1
:1044D0009B681A46FFF749FC7B681B680021184659
:1044E000FFF7F1FB3B685A697B681B68DB68DB08F8
:1044F00003F003035B0002FA03F3C7F8C8303B681C
:104500001B69042B0AD07B6818683B6819693B68F3
:104510001A68D7F8C830FFF781FB7BE17B681B681E
:1045200000211846FFF79EFB0346C3F31203002B3E
:104530000AD17B681B6800211846FFF793FB0346EE
:104540009B0E03F01F021EE07B681B6800211846CB
:10455000FFF788FB0346C7F8BC30D7F8BC3093FAA6
:10456000A3F3C7F8B830D7F8B830C7F8C030D7F8D9
:10457000C030002B01D1202304E0D7F8C030B3FABB
:1045800083F3DBB21A463B681B68C3F31203002BAC
:1045900005D13B681B689B0E03F01F0318E03B68C6
:1045A0001B68C7F8B030D7F8B03093FAA3F3C7F858
:1045B000AC30D7F8AC30C7F8B430D7F8B430002BF3
:1045C00001D1202304E0D7F8B430B3FA83F3DBB28F
:1045D0009A4206D17B681B68002200211846FFF72B
:1045E00057FB7B681B6801211846FFF73BFB03461E
:1045F000C3F31203002B0AD17B681B680121184604
:10460000FFF730FB03469B0E03F01F021EE07B68A2
:104610001B6801211846FFF725FB0346C7F8A430A5
:10462000D7F8A43093FAA3F3C7F8A030D7F8A03096
:10463000C7F8A830D7F8A830002B01D1202304E018
:10464000D7F8A830B3FA83F3DBB21A463B681B688D
:10465000C3F31203002B05D13B681B689B0E03F0CC
:104660001F0318E03B681B68C7F89830D7F89830EC
:1046700093FAA3F3C7F89430D7F89430C7F89C3076
:10468000D7F89C30002B01D1202304E0D7F89C30D0
:10469000B3FA83F3DBB29A4206D17B681B6800222F
:1046A00001211846FFF7F4FA7B681B6802211846BF
:1046B000FFF7D8FA0346C3F31203002B0AD17B6835
:1046C0001B6802211846FFF7CDFA03469B0E03F044
:1046D0001F021EE07B681B6802211846FFF7C2FA22
:1046E0000346C7F88C30D7F88C3093FAA3F3C7F899
:1046F0008830D7F88830C7F89030D7F89030002B42
:1047000001D1202304E0D7F89030B3FA83F3DBB271
:104710001A463B681B68C3F31203002B05D13B68A4
:104720001B689B0E03F01F0316E03B681B68C7F86D
:104730008030D7F8803093FAA3F3FB67FB6FC7F89C
:104740008430D7F88430002B01D1202304E0D7F83F
:104750008430B3FA83F3DBB29A4206D17B681B68DC
:10476000002202211846FFF793FA7B681B68032199
:104770001846FFF777FA0346C3F31203002B0AD15A
:104780007B681B6803211846FFF76CFA03469B0EF3
:1047900003F01F0217E07B681B6803211846FFF730
:1047A00061FA03467B677B6F93FAA3F33B673B6F2A
:1047B000BB67BB6F002B01D1202303E0BB6FB3FAB3
:1047C00083F3DBB21A463B681B68C3F31203002B6A
:1047D00005D13B681B689B0E03F01F0311E03B688B
:1047E0001B68BB66BB6E93FAA3F37B667B6EFB66AE
:1047F000FB6E002B01D1202303E0FB6EB3FA83F3A1
:10480000DBB29A4206D17B681B680022032118465E
:10481000FFF73EFA7B681B681846FFF765FB034607
:10482000002B40F03F817B6818683B6819683B6843
:10483000DB681A46FFF7C4FA3B68DB688E4A93428E
:1048400040F030817B6818683B681B68C3F3120333
:10485000002B0BD13B681B689B0E013303F01F0339
:10486000092B94BF01230023DBB219E03B681B68CE
:10487000FB65FB6D93FAA3F3BB65BB6D3B663B6EBB
:10488000002B01D1202303E03B6EB3FA83F3DBB2AC
:10489000013303F01F03092B94BF01230023DBB274
:1048A000002B79D03B681B68C3F31203002B07D1A0
:1048B0003B681B689B0E01339B0603F0F84215E032
:1048C0003B681B683B653B6D93FAA3F3FB64FB6C91
:1048D0007B657B6D002B01D1202303E07B6DB3FA58
:1048E00083F3DBB201339B0603F0F8423B681B689D
:1048F000C3F31203002B09D13B681B689B0E0133E5
:1049000003F01F03012101FA03F317E03B681B6862
:104910007B647B6C93FAA3F33B643B6CBB64BB6C22
:10492000002B01D1202303E0BB6CB3FA83F3DBB28D
:10493000013303F01F03012101FA03F342EA0301EB
:104940003B681B68C3F31203002B0AD13B681B684A
:104950009B0E013303F01F0213465B0013441B053B
:1049600018E03B681B68BB63BB6B93FAA3F37B63E4
:104970007B6BFB63FB6B002B01D1202303E0FB6B04
:10498000B3FA83F3DBB2013303F01F0213465B007B
:1049900013441B050B4380E03B681B68C3F3120301
:1049A000002B07D13B681B689B0E01339B0603F06D
:1049B000F84215E03B681B68FB62FB6A93FAA3F3BD
:1049C000BB62BB6A3B633B6B002B01D1202303E03E
:1049D0003B6BB3FA83F3DBB201339B0603F0F8427F
:1049E0003B681B68C3F31203002B09D13B681B68AB
:1049F0009B0E013303F01F03012101FA03F317E0BB
:104A00003B681B683B623B6A93FAA3F3FB61FB695B
:104A10007B627B6A002B01D1202303E07B6AB3FA1F
:104A200083F3DBB2013303F01F03012101FA03F327
:104A300042EA03013B681B68C3F31203002B0DD14C
:104A40003B681B689B0E013303F01F0213465B009B
:104A500013441E3B1B0543F000731DE03B681B68BD
:104A60007B617B6993FAA3F33B613B69BB61BB69E3
:104A7000002B03D1202305E000007F40BB69B3FA7F
:104A800083F3DBB2013303F01F0213465B001344D0
:104A90001E3B1B0543F000730B433A6892681946AE
:104AA000FFF763F93B681A683D4B1340002B6CD04D
:104AB0003C48FFF7A5F8C7F8C4003B681B683A4AB2
:104AC000934227D1D7F8C43003F40003002B21D13F
:104AD0007B681B68354A934257D1D7F8C43043F4FA
:104AE000000319462F48FFF778F8314B1B689B09E4
:104AF000304AA2FB03239B095A1C13465B00134454
:104B00009B00FB6002E0FB68013BFB60FB68002B45
:104B1000F9D13AE03B681B68274A934213D1D7F892
:104B2000C43003F08073002B0DD17B681B681F4AD3
:104B300093422AD1D7F8C43043F0807319461948FC
:104B4000FFF74BF821E03B681B681C4A93421CD1DD
:104B5000D7F8C43003F48003002B16D17B681B68A0
:104B6000124A934211D1D7F8C43043F48003194656
:104B70000C48FFF732F808E07B689B6D43F0200299
:104B80007B689A65012387F8D7307B68002283F819
:104B9000542097F8D7301846D837BD4680BD00BF9F
:104BA0000000088000030450000052C700000450B9
:104BB0000C000020632D3E05000084CB0100008026
:104BC00080B584B000AF78600023BB607B681B6851
:104BD0001846FFF789F90346002B69D17B681B68EB
:104BE0009A68364B1340002B0DD07B689B6D43F0C9
:104BF00010027B689A657B68DB6D43F001027B687D
:104C0000DA65012355E07B681B681846FFF758F901
:104C10002B48FEF7F5FF034603F40003002B13D0E7
:104C2000284B1B689B09284AA2FB03239B095A1C9B
:104C300013465B0013449B00BB6002E0BB68013B72
:104C4000BB60BB68002BF9D1FEF784FFF86028E059
:104C50007B681B681846FFF747F90346002B04D111
:104C60007B681B681846FFF72BF9FEF773FF0246B7
:104C7000FB68D31A022B14D97B681B681B6803F0EE
:104C80000103012B0DD07B689B6D43F010027B6804
:104C90009A657B68DB6D43F001027B68DA6501236E
:104CA00007E07B681B681B6803F00103012BCFD171
:104CB000002318461037BD4680BD00BF3F0000806E
:104CC000000304500C000020632D3E0580B584B025
:104CD00000AF78607B689B6AFB60FB689B6D03F0AC
:104CE0005003002B4BD1FB689B6D43F40072FB68B3
:104CF0009A65FB681B681B6803F00803002B21D032
:104D0000FB681B681846FEF7F1FF0346002B32D004
:104D1000FB681B68DB6803F40053002B2BD1FB6896
:104D20009B6D23F48072FB689A65FB689B6D03F4AE
:104D30008053002B1FD1FB689B6D43F00102FB6881
:104D40009A6518E0FB681B68DB6803F00203002B20
:104D500011D1FB689B6D23F48072FB689A65FB6838
:104D60009B6D03F48053002B05D1FB689B6D43F0D2
:104D70000102FB689A65F868FFF70AFB0EE0FB6822
:104D80009B6D03F01003002B03D0F868FFF714FBB2
:104D900004E0FB681B6D5B6B7868984700BF1037B9
:104DA000BD4680BD80B584B000AF78607B689B6AEB
:104DB000FB60F868FFF7F6FA00BF1037BD4680BD0C
:104DC00080B584B000AF78607B689B6AFB60FB684D
:104DD0009B6D43F04002FB689A65FB68DB6D43F016
:104DE0000402FB68DA65F868FFF7E6FA00BF1037DF
:104DF000BD4680BD80B483B000AF78607B689B689F
:104E000003F00103012B01D1012300E00023184628
:104E10000C37BD465DF8047B704780B483B000AFAB
:104E200078607B689B6803F00403042B01D10123A5
:104E300000E0002318460C37BD465DF8047B704740
:104E400090B5A1B000AF78603960002387F87F305B
:104E50007B6893F85430012B01D1022389E07B68F1
:104E6000012283F8542000237B660023BB667B6805
:104E70001B68424A934202D1414BFB6001E0002390
:104E8000FB60FB68002B0BD17B689B6D43F020021D
:104E90007B689A657B68002283F85420012368E0D0
:104EA000FB681846FFF7B9FFB8677B681B681846B0
:104EB000FFF7B3FF0346002B4AD1BB6F002B47D14E
:104EC000304B7B673B681B68002B27D07B6F9B6850
:104ED00023F460423B6859687B6893F830305B0389
:104EE0000B431A437B6F9A602448FFF783FF044605
:104EF0002348FFF77FFF03462343002B32D17B6F0C
:104F00009B6823F4716323F00F033A6811683A68D1
:104F100092680A431A437B6F9A6023E07B6F9B6819
:104F200023F460427B6F9A601448FFF763FF0446E6
:104F30001348FFF75FFF03462343002B12D17B6F1B
:104F40009B6823F4716323F00F037A6F936009E089
:104F50007B689B6D43F020027B689A65012387F88C
:104F60007F3000E000BF7B68002283F8542097F870
:104F70007F3018468437BD4690BD00BF0000045006
:104F8000000104500003045080B485B000AF786085
:104F90007B6803F00703FB600C4BDB68BB60BA68FF
:104FA0004FF6FF031340BB60FB681A02BB68134354
:104FB00043F0BF6343F40033BB60044ABB68D36073
:104FC00000BF1437BD465DF8047B704700ED00E07C
:104FD00080B400AF044BDB681B0A03F007031846DC
:104FE000BD465DF8047B704700ED00E080B483B0FF
:104FF00000AF0346FB7197F90730002B0BDBFB7901
:1050000003F01F02074997F907305B09012000FAF6
:1050100002F241F8232000BF0C37BD465DF8047B47
:10502000704700BF00E100E080B483B000AF0346EA
:105030003960FB7197F90730002B0ADB3B68DAB265
:105040000C4997F907301201D2B20B4483F80023C0
:105050000AE03B68DAB20849FB7903F00F03043B2E
:105060001201D2B20B441A7600BF0C37BD465DF870
:10507000047B704700E100E000ED00E080B489B0FF
:1050800000AFF860B9607A60FB6803F00703FB616A
:10509000FB69C3F10703042B28BF0423BB61FB6931
:1050A0000433062B02D9FB69033B00E000237B613C
:1050B0004FF0FF32BB6902FA03F3DA43BB681A40D0
:1050C0007B699A404FF0FF317B6901FA03F3D943C2
:1050D0007B680B40134318462437BD465DF8047BBC
:1050E0007047000080B582B000AF78607B68013BFC
:1050F000B3F1807F01D301230FE00A4A7B68013BB3
:1051000053600F214FF0FF30FFF78EFF054B002259
:105110009A60044B07221A60002318460837BD46E0
:1051200080BD00BF10E000E080B582B000AF7860C5
:105130007868FFF729FF00BF0837BD4680BD80B5FE
:1051400086B000AF0346B9607A60FB7300237B61D1
:10515000FFF73EFF78617A68B9687869FFF78EFFDC
:10516000024697F90F3011461846FFF75DFF00BF62
:105170001837BD4680BD80B582B000AF0346FB71D5
:1051800097F907301846FFF731FF00BF0837BD46D3
:1051900080BD80B582B000AF78607868FFF7A2FF6D
:1051A000034618460837BD4680BD000080B584B070
:1051B00000AF78607B68002B01D101238DE07B6814
:1051C0001B681A46474B9A420FD87B681B681A46E1
:1051D000454B1344454AA2FB03231B099A007B68F5
:1051E0005A647B68424A1A640EE07B681B681A4660
:1051F000404B13443D4AA2FB03231B099A007B68E2
:105200005A647B683C4A1A647B68022283F8252032
:105210007B681B681B68FB60FB6823F4FF4323F07B
:105220007003FB607B689A687B68DB681A437B6865
:105230001B691A437B685B691A437B689B691A4345
:105240007B68DB691A437B681B6A1343FA68134364
:10525000FB607B681B68FA681A60786800F072FA75
:105260007B689B68B3F5804F02D17B6800225A604F
:105270007B685A687B689B6CD2B21A607B68DB6C77
:105280007A68126D5A607B685B68002B10D07B686F
:105290005B68042B0CD8786800F092FA7B685B6D31
:1052A00000221A607B689B6D7A68D26D5A6008E0B4
:1052B0007B6800225A657B6800229A657B68002221
:1052C000DA657B680022DA637B68012283F8252097
:1052D0007B68002283F82420002318461037BD463F
:1052E00080BD00BF07040240F8FFFDBFCDCCCCCC91
:1052F00000000240F8FBFDBF0004024080B586B00C
:1053000000AFF860B9607A603B600023FB75FB6812
:1053100093F82430012B01D1022366E0FB680122BF
:1053200083F82420FB6893F82530DBB2012B55D19C
:10533000FB68022283F82520FB680022DA63FB6801
:105340001B681A68FB681B6822F001021A603B6840
:105350007A68B968F86800F0B6F9FB681B6B002B37
:1053600008D0FB681B681A68FB681B6842F00E02D5
:105370001A600FE0FB681B681A68FB681B6822F064
:1053800004021A60FB681B681A68FB681B6842F01D
:105390000A021A60FB689B6C1B6803F48033002BC5
:1053A00007D0FB689B6C1A68FB689B6C42F48072A8
:1053B0001A60FB685B6D002B07D0FB685B6D1A6899
:1053C000FB685B6D42F480721A60FB681B681A68A8
:1053D000FB681B6842F001021A6005E0FB680022CE
:1053E00083F824200223FB75FB7D18461837BD4641
:1053F00080BD80B485B000AF78600023FB737B680C
:1054000093F82530DBB2022B08D07B680422DA63E4
:105410007B68002283F82420012340E07B681B681E
:105420001A687B681B6822F00E021A607B689B6C0E
:105430001A687B689B6C22F480721A607B681B6818
:105440001A687B681B6822F001021A607B685B6C3B
:1054500003F01C027B681B6C012101FA02F25A6006
:105460007B68DB6C7A68126D5A607B685B6D002B21
:105470000CD07B685B6D1A687B685B6D22F4807270
:105480001A607B689B6D7A68D26D5A607B680122D6
:1054900083F825207B68002283F82420FB7B1846B4
:1054A0001437BD465DF8047B704780B584B000AF0B
:1054B00078600023FB737B6893F82530DBB2022B06
:1054C00005D07B680422DA630123FB7347E07B6825
:1054D0001B681A687B681B6822F00E021A607B68E2
:1054E0001B681A687B681B6822F001021A607B68DF
:1054F0009B6C1A687B689B6C22F480721A607B68D4
:105500005B6C03F01C027B681B6C012101FA02F248
:105510005A607B68DB6C7A68126D5A607B685B6DE1
:10552000002B0CD07B685B6D1A687B685B6D22F486
:1055300080721A607B689B6D7A68D26D5A607B6856
:10554000012283F825207B68002283F824207B68D1
:105550009B6B002B03D07B689B6B78689847FB7B29
:1055600018461037BD4680BD80B584B000AF786066
:105570007B681B6C1B68FB607B681B681B68BB60DF
:105580007B685B6C03F01C0304229A40FB681340A9
:10559000002B26D0BB6803F00403002B21D07B68CE
:1055A0001B681B6803F02003002B07D17B681B6876
:1055B0001A687B681B6822F004021A607B685B6CC7
:1055C00003F01C027B681B6C042101FA02F25A6092
:1055D0007B681B6B002B71D07B681B6B78689847CE
:1055E0006CE07B685B6C03F01C0302229A40FB6852
:1055F0001340002B2ED0BB6803F00203002B29D0F0
:105600007B681B681B6803F02003002B0BD17B68B1
:105610001B681A687B681B6822F00A021A607B68A4
:10562000012283F825207B685B6C03F01C027B68F9
:105630001B6C022101FA02F25A607B68002283F897
:1056400024207B68DB6A002B38D07B68DB6A7868B3
:10565000984733E07B685B6C03F01C0308229A4098
:10566000FB681340002B2AD0BB6803F00803002B13
:1056700025D07B681B681A687B681B6822F00E02C5
:105680001A607B685B6C03F01C027B681B6C012159
:1056900001FA02F25A607B680122DA637B68012218
:1056A00083F825207B68002283F824207B685B6BCD
:1056B000002B04D07B685B6B7868984700BF00BF05
:1056C0001037BD4680BD80B485B000AFF860B960CA
:1056D0007A603B60FB68DB6CFA68126D5A60FB68AD
:1056E0005B6D002B04D0FB689B6DFA68D26D5A602D
:1056F000FB685B6C03F01C02FB681B6C012101FA68
:1057000002F25A60FB681B683A685A60FB689B6843
:10571000102B08D1FB681B687A689A60FB681B68CD
:10572000BA68DA6007E0FB681B68BA689A60FB68D1
:105730001B687A68DA6000BF1437BD465DF8047BE9
:105740007047000080B485B000AF78607B681B684C
:105750001A46174B9A420AD87B685B6C9B089B00E1
:1057600003F1804303F502337A68936407E07B68B2
:105770005B6C9B089A000F4B13447A6893647B68B8
:105780001B68DBB2083B0C4AA2FB03231B09FB602E
:105790007B680A4ADA64FB6803F01F0301229A401F
:1057A0007B681A6500BF1437BD465DF8047B7047FF
:1057B000070402401C080240CDCCCCCC800802403B
:1057C00080B485B000AF78607B685B68DBB2FB605B
:1057D000FA680B4B13449B001A467B685A657B683A
:1057E000084A9A65FB68013B03F0030301229A40D3
:1057F0007B68DA6500BF1437BD465DF8047B7047EF
:105800003F8200104009024080B487B000AF78604A
:10581000396000237B6166E13B681A6801217B697E
:1058200001FA03F31340FB60FB68002B00F0588182
:105830003B685B6803F00303012B05D03B685B68A2
:1058400003F00303022B30D17B689B683B617B69CB
:105850005B00032202FA03F3DB433A6913403B6126
:105860003B68DA687B695B0002FA03F33A69134329
:105870003B617B683A699A607B685B683B610122A7
:105880007B6902FA03F3DB433A6913403B613B68EF
:105890005B681B0903F001027B6902FA03F33A69B2
:1058A00013433B617B683A695A603B685B6803F06D
:1058B0000303032B17D07B68DB683B617B695B00CC
:1058C000032202FA03F3DB433A6913403B613B686E
:1058D0009A687B695B0002FA03F33A6913433B6100
:1058E0007B683A69DA603B685B6803F00303022B6C
:1058F00023D17B69DA087B68083253F822303B6198
:105900007B6903F007039B000F2202FA03F3DB43DA
:105910003A6913403B613B681A697B6903F00703EE
:105920009B0002FA03F33A6913433B617B69DA088F
:105930007B680832396943F822107B681B683B6139
:105940007B695B00032202FA03F3DB433A691340ED
:105950003B613B685B6803F003027B695B0002FA12
:1059600003F33A6913433B617B683A691A603B6809
:105970005B6803F44033002B00F0B280614B1B6E78
:10598000604A43F0010313665E4B1B6E03F0010394
:10599000BB60BB685C4A7B699B08023352F82330CA
:1059A0003B617B6903F003039B000F2202FA03F3C0
:1059B000DB433A6913403B617B68B3F1904F2BD0D6
:1059C0007B68524A934225D07B68514A93421FD04C
:1059D0007B68504A934219D07B684F4A934213D058
:1059E0007B684E4A93420DD07B684D4A934207D064
:1059F0007B684C4A934201D107230EE008230CE058
:105A000006230AE0052308E0042306E0032304E05C
:105A1000022302E0012300E000237A6902F003027E
:105A2000920093403A6913433B6137497B699B0875
:105A300002333A6941F823203B4B9B683B61FB688A
:105A4000DB433A6913403B613B685B6803F48013B6
:105A5000002B03D03A69FB6813433B61324A3B6930
:105A60009360314BDB683B61FB68DB433A69134071
:105A70003B613B685B6803F40013002B03D03A6979
:105A8000FB6813433B61284A3B69D360264B5B6844
:105A90003B61FB68DB433A6913403B613B685B68F1
:105AA00003F40033002B03D03A69FB6813433B61D6
:105AB0001D4A3B6953601C4B1B683B61FB68DB4321
:105AC0003A6913403B613B685B6803F48033002B09
:105AD00003D03A69FB6813433B61134A3B69136087
