:020000040800F2
:100000000000052041420108353E00083B3E000843
:10001000413E0008473E00084D3E00080000000039
:10002000000000000000000000000000533E000837
:10003000613E0008000000006F3E00087D3E0008A1
:100040009142010891420108914201089142010840
:100050009142010891420108914201089142010830
:10006000914201089142010891420108893E00082D
:100070009D3E000891420108914201089142010809
:100080009142010891420108914201089142010800
:1000900091420108914201089142010891420108F0
:1000A00091420108914201089142010891420108E0
:1000B00091420108914201089142010891420108D0
:1000C00091420108914201089142010891420108C0
:1000D00091420108914201089142010891420108B0
:1000E000914201089142010800000000914201087C
:1000F0009142010891420108914201089142010890
:10010000914201089142010891420108914201087F
:10011000914201089142010891420108914201086F
:10012000914201089142010891420108914201085F
:10013000914201089142010891420108000000002B
:10014000914201089142010891420108914201083F
:100150009142010891420108B13E00089142010814
:10016000914201089142010891420108914201081F
:1001700091420108914201080000000000000000C7
:1001800091420108914201089142010891420108FF
:1001900091420108914201080000000000000000A7
:1001A0000000000000000000914201089142010897
:1001B0009142010800000000914201080000000087
:1001C000034613F8012B002AFBD1181A0138704797
:1001D00001F0FF01102A2BDB10F0070F08D010F8F8
:1001E000013B013A8B422DD010F0070F42B3F6D1FC
:1001F000F0B441EA012141EA014122F007047FF015
:1002000000070023F0E80256083C85EA010586EA6B
:10021000010685FA47F5A3FA87F586FA47F6A5FAA7
:1002200087F68EB9EED1F0BC01F0FF0102F00702B3
:1002300032B110F8013B013A83EA010313B1F8D15E
:100240000020704701387047002D06BF354603383F
:10025000073815F0010F07D1013015F4807F02BF78
:10026000013015F4C03F0130F0BC0138704700BFC9
:1002700081F0004102E000BF83F0004330B54FEA57
:1002800041044FEA430594EA050F08BF90EA020FC4
:100290001FBF54EA000C55EA020C7FEA645C7FEA57
:1002A000655C00F0E2804FEA5454D4EB5555B8BF7A
:1002B0006D420CDD2C4480EA020281EA030382EAEB
:1002C000000083EA010180EA020281EA0303362D7D
:1002D00088BF30BD11F0004F4FEA01314FF4801C50
:1002E0004CEA113102D0404261EB410113F0004F62
:1002F0004FEA03334CEA133302D0524263EB430319
:1003000094EA050F00F0A780A4F10104D5F1200EB6
:100310000DDB02FA0EFC22FA05F2801841F1000111
:1003200003FA0EF2801843FA05F359410EE0A5F1E5
:1003300020050EF1200E012A03FA0EFC28BF4CF016
:10034000020C43FA05F3C01851EBE37101F00045CC
:1003500007D54FF0000EDCF1000C7EEB00006EEBD9
:100360000101B1F5801F1BD3B1F5001F0CD3490863
:100370005FEA30004FEA3C0C04F101044FEA4452BA
:1003800012F5800F80F09A80BCF1004F08BF5FEA41
:10039000500C50F1000041EB045141EA050130BD21
:1003A0005FEA4C0C404141EB0101013C28BFB1F533
:1003B000801FE9D291F0000F04BF01460020B1FA7E
:1003C00081F308BF2033A3F10B03B3F120020CDA51
:1003D0000C3208DD02F1140CC2F10C0201FA0CF02F
:1003E00021FA02F10CE002F11402D8BFC2F1200C94
:1003F00001FA02F120FA0CFCDCBF41EA0C0190404A
:10040000E41AA2BF01EB0451294330BD6FEA040492
:100410001F3C1CDA0C340EDC04F11404C4F120027D
:1004200020FA04F001FA02F340EA030021FA04F38F
:1004300045EA030130BDC4F10C04C4F1200220FAE6
:1004400002F001FA04F340EA0300294630BD21FA24
:1004500004F0294630BD94F0000F83F4801306BFEA
:1004600081F480110134013D4EE77FEA645C18BFDE
:100470007FEA655C29D094EA050F08BF90EA020F75
:1004800005D054EA000C04BF1946104630BD91EA6D
:10049000030F1EBF0021002030BD5FEA545C05D170
:1004A0004000494128BF41F0004130BD14F58004AF
:1004B0003CBF01F5801130BD01F0004545F0FE4123
:1004C00041F470014FF0000030BD7FEA645C1ABF58
:1004D000194610467FEA655C1CBF0B46024650EA8F
:1004E000013406BF52EA033591EA030F41F40021BB
:1004F00030BD00BF90F0000F04BF0021704730B541
:100500004FF4806404F132044FF000054FF0000115
:1005100050E700BF90F0000F04BF0021704730B5D6
:100520004FF4806404F1320410F0004548BF4042AB
:100530004FF000013EE700BF42004FEAE2014FEA00
:1005400031014FEA02701FBF12F07F4393F07F4FDB
:1005500081F06051704732F07F4208BF704793F0DE
:100560007F4F04BF41F40021704730B54FF46074F1
:1005700001F0004521F000411CE700BF50EA0102F4
:1005800008BF704730B54FF000050AE050EA01029D
:1005900008BF704730B511F0004502D5404261EB0D
:1005A00041014FF4806404F132045FEA915C3FF44E
:1005B000D8AE4FF003025FEADC0C18BF03325FEAEB
:1005C000DC0C18BF033202EBDC02C2F1200300FA9C
:1005D00003FC20FA02F001FA03FE40EA0E0021FAC1
:1005E00002F11444BDE600BF70B54FF0FF0C4CF4AF
:1005F000E06C1CEA11541DBF1CEA135594EA0C0F61
:1006000095EA0C0F00F0DEF82C4481EA030621EA9B
:100610004C5123EA4C5350EA013518BF52EA0335D6
:1006200041F4801143F4801338D0A0FB02CE4FF088
:100630000005E1FB02E506F00042E0FB03E54FF0B8
:100640000006E1FB03569CF0000F18BF4EF0010EB0
:10065000A4F1FF04B6F5007F64F5407404D25FEAAC
:100660004E0E6D4146EB060642EAC62141EA55515F
:100670004FEAC52040EA5E504FEACE2EB4F1FD0CA1
:1006800088BFBCF5E06F1ED8BEF1004F08BF5FEA1F
:10069000500E50F1000041EB045170BD06F00046D1
:1006A00046EA010140EA020081EA0301B4EB5C047E
:1006B000C2BFD4EB0C0541EA045170BD41F4801176
:1006C0004FF0000E013C00F3AB8014F1360FDEBF9B
:1006D000002001F0004170BDC4F10004203C35DA77
:1006E0000C341BDC04F11404C4F1200500FA05F3FA
:1006F00020FA04F001FA05F240EA020001F000429B
:1007000021F0004110EBD37021FA04F642EB060110
:100710005EEA430E08BF20EAD37070BDC4F10C043A
:10072000C4F1200500FA04F320FA05F001FA04F2FE
:1007300040EA020001F0004110EBD37041F10001EA
:100740005EEA430E08BF20EAD37070BDC4F12005F5
:1007500000FA05F24EEA020E20FA04F301FA05F25D
:1007600043EA020321FA04F001F0004121FA04F205
:1007700020EA020000EBD3705EEA430E08BF20EAD5
:10078000D37070BD94F0000F0FD101F0004640000F
:1007900041EB010111F4801F08BF013CF7D041EA91
:1007A000060195F0000F18BF704703F00046520095
:1007B00043EB030313F4801F08BF013DF7D043EA66
:1007C0000603704794EA0C0F0CEA135518BF95EA1C
:1007D0000C0F0CD050EA410618BF52EA4306D1D1A3
:1007E00081EA030101F000414FF0000070BD50EAC2
:1007F000410606BF1046194652EA430619D094EA4C
:100800000C0F02D150EA013613D195EA0C0F05D135
:1008100052EA03361CBF104619460AD181EA030189
:1008200001F0004141F0FE4141F470014FF0000041
:1008300070BD41F0FE4141F4780170BD70B54FF0DC
:10084000FF0C4CF4E06C1CEA11541DBF1CEA13555C
:1008500094EA0C0F95EA0C0F00F0A7F8A4EB05043E
:1008600081EA030E52EA03354FEA013100F0888035
:100870004FEA03334FF0805545EA131343EA1263FE
:100880004FEA022245EA111545EA10654FEA0026B3
:100890000EF000419D4208BF964244F1FD0404F56C
:1008A000407402D25B084FEA3202B61A65EB0305C8
:1008B0005B084FEA32024FF480104FF4002CB6EB85
:1008C000020E75EB030E22BFB61A754640EA0C0005
:1008D0005B084FEA3202B6EB020E75EB030E22BF45
:1008E000B61A754640EA5C005B084FEA3202B6EB86
:1008F000020E75EB030E22BFB61A754640EA9C0045
:100900005B084FEA3202B6EB020E75EB030E22BF14
:10091000B61A754640EADC0055EA060E18D04FEAD2
:10092000051545EA16754FEA06164FEAC30343EA72
:1009300052734FEAC2025FEA1C1CC0D111F4801F3F
:100940000BD141EA00014FF000004FF0004CB6E738
:1009500011F4801F04BF01430020B4F1FD0C88BFD7
:10096000BCF5E06F3FF6AFAEB5EB030C04BFB6EBE2
:10097000020C5FEA500C50F1000041EB045170BDD5
:100980000EF0004E4EEA113114EB5C04C2BFD4EB02
:100990000C0541EA045170BD41F480114FF0000E86
:1009A000013C90E645EA060E8DE60CEA135594EA02
:1009B0000C0F08BF95EA0C0F3FF43BAF94EA0C0F05
:1009C0000AD150EA01347FF434AF95EA0C0F7FF47A
:1009D00025AF104619462CE795EA0C0F06D152EACE
:1009E00003353FF4FDAE1046194622E750EA4106B2
:1009F00018BF52EA43067FF4C5AE50EA41047FF4C3
:100A00000DAF52EA43057FF4EBAE12E74FF0FF3C27
:100A100006E000BF4FF0010C02E000BF4FF0010CF8
:100A20004DF804CD4FEA410C7FEA6C5C4FEA430C71
:100A300018BF7FEA6C5C1BD001B050EA410C0CBFC0
:100A400052EA430C91EA030F02BF90EA020F002022
:100A5000704710F1000F91EA030F58BF994208BF89
:100A600090422CBFD8176FEAE37040F00100704746
:100A70004FEA410C7FEA6C5C02D150EA013C07D19D
:100A80004FEA430C7FEA6C5CD6D152EA033CD3D0E8
:100A90005DF8040B704700BF8446104662468C46E2
:100AA0001946634600E000BF01B5FFF7B7FF002815
:100AB00048BF10F1000F01BD4DF808EDFFF7F4FF3E
:100AC0000CBF012000205DF808FB00BF4DF808EDC9
:100AD000FFF7EAFF34BF012000205DF808FB00BFEC
:100AE0004DF808EDFFF7E0FF94BF012000205DF80E
:100AF00008FB00BF4DF808EDFFF7CEFF94BF0120C3
:100B000000205DF808FB00BF4DF808EDFFF7C4FFBB
:100B100034BF012000205DF808FB00BF4FEA410C04
:100B20007FEA6C5C02D150EA013C0AD14FEA430CE7
:100B30007FEA6C5C02D152EA033C02D14FF0000024
:100B400070474FF0010070474FEA410212F5001262
:100B500015D211D56FF47873B3EB625212D94FEA04
:100B6000C12343F0004343EA505311F0004F23FAEE
:100B700002F018BF404270474FF00000704750EA43
:100B8000013005D111F0004008BF6FF00040704700
:100B90004FF00000704700BF4A0011D212F500125A
:100BA00011D20DD56FF47873B3EB62520ED44FEAC5
:100BB000C12343F0004343EA505323FA02F0704745
:100BC0004FF00000704750EA013002D14FF0FF3083
:100BD00070474FF00000704753B94AB9002908BF69
:100BE00000281CBF4FF0FF314FF0FF3000F0E2B89B
:100BF000ADF1080C6DE904CE19F0D2F8DDF804E08F
:100C0000DDE9022304B0704700F1340191E83800B7
:100C10009C46A6464CF8045D90E8FF0FE54600BDF3
:100C200090EC210B704700BF80EC210B704700BF98
:100C300090EC200B704700BF80EC200B704700BF8A
:100C4000D0EC200B704700BFC0EC200B704700BFFA
:100C5000F0EC0201F0EC0211F0EC0221F0EC0231B8
:100C6000F0EC0241F0EC0251F0EC0261F0EC0271A8
:100C7000F0EC0281F0EC0291F0EC02A1F0EC02B198
:100C8000F0EC02C1F0EC02D1F0EC02E1F0EC02F188
:100C9000704700BFE0EC0201E0EC0211E0EC022141
:100CA000E0EC0231E0EC0241E0EC0251E0EC0261E8
:100CB000E0EC0271E0EC0281E0EC0291E0EC02A1D8
:100CC000E0EC02B1E0EC02C1E0EC02D1E0EC02E1C8
:100CD000E0EC02F1704700BFB0FC0181B0FC019173
:100CE000B0FC01A1B0FC01B1704700BFA0FC0181C4
:100CF000A0FC0191A0FC01A1A0FC01B1704700BFC4
:100D0000EC4600B52DE900502DE9FF1F4FF0000320
:100D10002DE90C0001A919F0F7FADDF840E012B056
:100D2000704700BFEC4600B52DE900502DE9FF1FCC
:100D30004FF000032DE90C0001A919F021FBDDF8AB
:100D400040E012B0704700BFEC4600B52DE90050FE
:100D50002DE9FF1F4FF000032DE90C0001A919F048
:100D600031FBDDF840E012B0704700BFEC4600B543
:100D70002DE900502DE9FF1F4FF000032DE90C0075
:100D800001AB19F0F5FADDF840E012B0704700BF92
:100D9000EC4600B52DE900502DE9FF1F4FF0000390
:100DA0002DE90C0001AA19F061FBDDF840E012B05A
:100DB000704700BF704700BF10B5054C237833B9AA
:100DC000044B13B10448AFF300800123237010BD1E
:100DD000C00400200000000024AD010808B5034B4A
:100DE0001BB103490348AFF3008008BD00000000B9
:100DF000C404002024AD0108B0B586B000AF03469E
:100E00000A46FB801346BB80FB88012B02D0022BD5
:100E10006FD093E0BB881846FFF77CFB50A3D3E963
:100E20000023FFF7E1FB02460B46C7E90423D7E99D
:100E3000042353A1D1E90001FFF71EFA02460B4635
:100E40001046194650A3D3E90023FFF7F7FC0246EA
:100E50000B46D7E90401FFF7F1FC02460B46C7E950
:100E6000022397ED020B17F0BBFC51EC100B48A3CB
:100E7000D3E90023FFF7B8FB02460B46104619469C
:100E800045A3D3E90023FFF7F9F902460B461446C0
:100E90001D4697ED020B17F0A3FCB0EE407AF0EE82
:100EA000607A9FED2B1BB0EE470AF0EE670A17F051
:100EB000DBFC51EC100B3AA3D3E90023FFF794FBC2
:100EC00002460B4620462946FFF7D8F902460B4654
:100ED0004FF000002849FFF7B1FC02460B461046D0
:100EE00019461DA3D3E90023FFF7C6F902460B46B6
:100EF00025E0BB881846FFF70DFB19A3D3E90023B3
:100F0000FFF772FB02460B4617A1D1E90001FFF77C
:100F1000B3F902460B461046194615A3D3E9002340
:100F2000FFF78CFC02460B46104619464FF00002B4
:100F3000124BFFF7A3F902460B4600E001E043EC39
:100F4000172BB0EE470AF0EE670A1837BD46B0BD62
:100F50000000000000000840666666666612714088
:100F60006666666666660A3F52B81E85EB51E83FC4
:100F70007B14AE47E17A643F0000F03F00003E4042
:100F80006666666666660A40000000000088C34028
:100F90000395F1EF332E2C3FD7F7E12021CA473FCD
:100FA000B905B0A0E7517C3E80B483B000AF0346E2
:100FB0000A46FB801346BB80FB88002B03D1054A01
:100FC000BB88936300BF00BF0C37BD465DF8047B50
:100FD000704700BF0004004080B483B000AF0346F8
:100FE0000A46FB801346BB80FB88002B03D1054AD1
:100FF000BB88D36300BF00BF0C37BD465DF8047BE0
:10100000704700BF000400402DE9B04392B000AF2C
:1010100087ED040B87ED021BB4A3D3E90023D7E9C6
:101020000401FFF7E1FA02460B4690469946AFA34A
:10103000D3E90023D7E90201FFF7D6FA02460B46AF
:1010400040464946FFF718F902460B46C7E9102308
:10105000A6A3D3E90023D7E90401FFF7C5FA0246A6
:101060000B4690469946A1A3D3E90023D7E9020194
:10107000FFF7BAFA02460B4640464946FFF7FEF82C
:1010800002460B46C7E90E23914B1B881846FFF713
:1010900041FAD7E90E23FFF7A7FA02460B4611469D
:1010A000396323F000437B63894B1B881846FFF7A5
:1010B00031FAD7E91023FFF797FA02460B4611469B
:1010C000B96223F00043FB624FF000024FF00003CF
:1010D000D7E90C01FFF718FD0346002B7BD0D7E9B9
:1010E0000C234FF000007B49FFF7A8FB02460B469C
:1010F000104619464FF00002774BFFF775FA02468B
:101100000B46104619466AA3D3E90023FFF76CFA91
:1011100002460B461046194667A3D3E90023FFF7A2
:101120008DFB02460B461046194665A3D3E9002302
:10113000FFF75AFA02460B4610461946FFF72CFDF8
:1011400003467B6201F056FA03461A46634B1B685E
:10115000D31A7A6A9A423ED8BB6B3B60FB6B23F092
:1011600000437B6058A3D3E90023D7E90001FFF7D0
:10117000CBFC0346002B2ED04FF000024FF00003B3
:10118000D7E90E01FFF7C0FC0346002B09D001226E
:101190000221534804F014FF4021524804F028FF74
:1011A00013E04FF000024FF00003D7E90E01FFF704
:1011B0008DFC0346002B08D000220221484804F091
:1011C000FFFE4021474804F013FF01F013FA0346E5
:1011D0001A46424B1A604FF000024FF00003D7E965
:1011E0000A01FFF791FC0346002B00F09E80D7E92F
:1011F0000A234FF000003749FFF720FB02460B4659
:10120000104619464FF00002334BFFF7EDF9024646
:101210000B461046194626A3D3E90023FFF7E4F94D
:1012200002460B461046194623A3D3E90023FFF7D5
:1012300005FB02460B461046194621A3D3E90023BD
:10124000FFF7D2F902460B4610461946FFF7A4FCF9
:1012500003463B6201F0CEF903461A46224B1B6857
:10126000D31A3A6A9A4260D83C6C7B6C23F00045F2
:1012700015A3D3E9002320462946FFF745FC034682
:10128000002B52D04FF000024FF00003D7E91001BD
:10129000FFF73AFC0346002B2CD001220421104812
:1012A00004F08EFE80214FF0904004F0A1FE36E065
:1012B000000000205C475140000000000064B9407D
:1012C0000000000080842E41FCA9F1D24D62503F05
:1012D000280500200000F03F00004E4014050020CB
:1012E000001400480008004818050020CD3B7F6628
:1012F0009EA0E63F4FF000024FF00003D7E9100137
:10130000FFF7E4FB0346002B09D0002204218E489E
:1013100004F056FE80214FF0904004F069FE01F089
:1013200069F903461A46894B1A60894B1B88002BC2
:1013300000F0F980864B1B881846FFF7DBF8024661
:101340000B464FF000008349FFF778FA02460B4640
:10135000104619464FF000027F4BFFF745F9024651
:101360000B461046194672A3D3E90023FFF73CF958
:1013700002460B46104619466FA3D3E90023FFF738
:101380005DFA02460B46104619466DA3D3E90023C9
:10139000FFF72AF902460B4610461946FFF7FCFBF9
:1013A0000346FB6101F026F903461A466B4B1B68A6
:1013B000D31AFA699A4200F2B6804FF000024FF059
:1013C0000003D7E90401FFF79FFB0346002B26D05B
:1013D000D7E90423D7E90401FFF706F902460B46D3
:1013E0001046194652A3D3E90023FFF7FDF8024641
:1013F0000B461046194650A3D3E90023FFF71EFA07
:1014000002460B4610461946554BD3E90023FEF71A
:1014100035FF02460B465249C1E9002325E0504BF7
:10142000D3E90045D7E90423D7E90401FFF7DCF845
:1014300002460B46104619463DA3D3E90023FFF7A9
:10144000D3F802460B46104619463BA3D3E90023C6
:10145000FFF7F4F902460B4620462946FEF70CFF3B
:1014600002460B463E49C1E900234FF000024FF00F
:101470000003D7E90201FFF747FB0346002B26D004
:10148000D7E90223D7E90201FFF7AEF802460B467F
:101490001046194626A3D3E90023FFF7A5F8024614
:1014A0000B461046194624A3D3E90023FFF7C6F9DB
:1014B00002460B46104619462A4BD3E90023FEF795
:1014C000DDFE02460B462749C1E9002325E0254BF6
:1014D000D3E90045D7E90223D7E90201FFF784F8F1
:1014E00002460B461046194611A3D3E90023FFF725
:1014F0007BF802460B46104619460FA3D3E900239A
:10150000FFF79CF902460B4620462946FEF7B4FE3B
:1015100002460B461349C1E9002301F06BF803466C
:101520001A460E4B1A6000BF4837BD46BDE8B0836F
:10153000000000205C475140000000000064B940FA
:101540000000000080842E4100140048180500208F
:10155000280500200000F03F00004E401C05002040
:10156000E8040020F004002080B584B000AF87EDCF
:10157000020B78600B467B8013463B80CAA3D3E9FD
:101580000023D7E90201FFF7B5FA0346002B0AD181
:10159000C7A3D3E90023D7E90201FFF7A1FA034665
:1015A000002B00F0518101F025F803461A467B68B4
:1015B000D21A3B889A42C0F04B813B88002B00F046
:1015C0004781AD4B01221A704FF000024FF000032B
:1015D000D7E90201FFF77AFA0346002B00F0998061
:1015E0007B88032B00F22C8101A252F823F000BF6C
:1015F00077160008C5160008011600083B160008FB
:10160000012208219D4804F0DBFC9D4BD3E9000139
:1016100093A3D3E90023FEF72FFE02460B46984919
:10162000C1E900230121974804F0E2FC00F0E2FF49
:1016300003461A46944B1A6005E100224FF480716C
:101640008E4804F0BDFC914BD3E9000186A3D3E999
:101650000023FEF711FE02460B468C49C1E9002328
:101660000221884804F0C4FC00F0C4FF03461A4677
:10167000874B1A60E7E000220221804804F0A0FCBA
:10168000002204217D4804F09BFC824BD3E9000139
:1016900077A3D3E90023FEF7EFFD02460B467D4911
:1016A000C1E9002340217C4804F0A2FC80214FF0D6
:1016B000904004F09DFC00F09DFF03461A46774BD6
:1016C0001A60C0E0002202216C4804F079FC01227B
:1016D00004216A4804F074FC714BD3E9000164A34F
:1016E000D3E90023FEF7C8FD02460B466C49C1E969
:1016F00000234021684804F07BFC80214FF090409B
:1017000004F076FC00F076FF03461A46654B1A603B
:1017100099E07B88032B00F2958001A252F823F018
:10172000A5170008F3170008311700086B17000809
:1017300000220821514804F043FC514BD3E9000139
:1017400047A3D3E90023FEF799FD02460B464C4917
:10175000C1E9002301214B4804F04AFC00F04AFF94
:1017600003461A46484B1A606DE001224FF480711F
:10177000424804F025FC454BD3E900013AA3D3E9E4
:101780000023FEF77BFD02460B464049C1E90023DA
:1017900002213C4804F02CFC00F02CFF03461A46C2
:1017A0003B4B1A6001220221344804F009FC01225B
:1017B0000421324804F004FC364BD3E900012CA389
:1017C000D3E90023FEF75AFD02460B463149C1E931
:1017D00000234021304804F00BFC80214FF0904062
:1017E00004F006FC00F006FF03461A462B4B1A6075
:1017F00029E001220221214804F0E2FB0022042119
:101800001E4804F0DDFB264BD3E9000118A3D3E901
:101810000023FEF733FD02460B462149C1E90023B0
:1018200040211D4804F0E4FB80214FF0904004F07B
:10183000DFFB00F0DFFE03461A461A4B1A6002E097
:1018400000BF05E000BF03E00B4B00221A7000E070
:1018500000BF00BF1037BD4680BD00BFAFF30080A2
:10186000000000A0D091533F000000402D3A3B3FC4
:1018700000000060CBC6853F000500200014004832
:10188000E00400200004004804050020F8040020C3
:1018900010050020E804002000080048080500208A
:1018A000F00400200C050020FA7E6ABC7493883F87
:1018B000FA7E6ABC749388BF90B583B000AF0446CB
:1018C000084611461A462346FB800346BB800B465A
:1018D0007B8013463B807B88002B02D0012B26D0D7
:1018E0004BE03B88DBB21A460221264804F068FB35
:1018F0003B8BDBB21A460421224804F061FB0CE06A
:101900004021214804F074FB80214FF0904004F006
:101910006FFBBB88184600F053FE1021194804F0F5
:1019200037FB03469BB2FA889A42E9D125E03B880F
:10193000DBB21A460221134804F042FB3B8BDBB2B8
:101940001A4604210F4804F03BFB0CE040210E48EE
:1019500004F04EFB80214FF0904004F049FBBB881F
:10196000184600F02DFE2021064804F011FB034626
:101970009BB2FA889A42E9D100BF00BF0C37BD463E
:1019800090BD00BF001400480008004880B582B038
:1019900000AF03460A46FB801346BB8000F036FECC
:1019A00000BF0837BD4680BD80B483B000AF03469A
:1019B000FB80FB881A465201D21A92001344DB00C6
:1019C0009BB218460C37BD465DF8047B704700009B
:1019D0002DE9B04392B000AF774B01221A70774BDC
:1019E000D3E90001764BD3E90023FEF745FC02461C
:1019F0000B46C7E91023734BD3E90001724BD3E9BF
:101A00000023FEF739FC02460B46C7E90E236F4B55
:101A1000D3E900016E4BD3E90023FEF72DFC02460B
:101A20000B46C7E90C236B4BD3E900016A4BD3E9A2
:101A30000023FEF721FC02460B46C7E90A23D7E93B
:101A40000C23D7E90C01FEF7CFFD02460B4690466A
:101A50009946D7E90A23D7E90A01FEF7C5FD0246F0
:101A60000B4640464946FEF709FC02460B4643EC4E
:101A7000172BB0EE470AF0EE670A16F06DFF87ED00
:101A8000080BD7E90823D7E90C01FEF7D7FE024679
:101A90000B46C7E90623D7E90823D7E90A01FEF771
:101AA000CDFE02460B46C7E904234C4B1B88184663
:101AB000FEF720FD02460B464FF000004849FEF7B6
:101AC000BDFE02460B46104619464FF00002454B3C
:101AD000FEF78AFD02460B46104619464FF00002FB
:101AE000414BFEF781FD02460B46104619462CA3DA
:101AF000D3E90023FEF7A2FE02460B461046194624
:101B000029A3D3E90023FEF76FFD02460B461046DA
:101B10001946FFF741F80346FB60344B1B68FA682F
:101B200092B20321184697ED0E0BFFF71DFD304BC7
:101B30001B68FA6892B20221184697ED100BFFF766
:101B400013FD3B6B3B607B6B23F000437B6018A372
:101B5000D3E90023D7E90001FEF7D6FF0346002BA7
:101B60000DD1BC6AFB6A23F0004511A3D3E9002321
:101B700020462946FEF7C8FF0346002B06D097ED06
:101B8000041B97ED060BFFF73FFA03E00A4B002218
:101B90001A7000BF00BF4837BD46BDE8B08300BF24
:101BA0000000000000CED2400000000080842E41E2
:101BB000FA7E6ABC7493883F00050020300500203F
:101BC000E004002048050020F8040020380500202B
:101BD000E804002040050020F00400202805002033
:101BE0000000F03F00004E4000003740100500208C
:101BF0000405002000000000B0B582B000AF284B03
:101C00005B689BB219460120FFF7F6F853EC102BE6
:101C100010461946FEF7C0FF0346FB80214B1B8888
:101C2000FA889A422DD8FB881846FEF763FC1AA35F
:101C3000D3E90023FEF7D8FC02460B4614461D46A6
:101C4000184B1B881846FEF755FC02460B462046EB
:101C50002946FEF713FB02460B46104619464FF085
:101C60000002114BFEF70AFB02460B4610461946CE
:101C7000FEF792FF03469BB219460020FFF794F946
:101C800003E000210020FFF78FF900BF0837BD46B1
:101C9000B0BD00BFAFF30080000000C0CCCCECBFF3
:101CA0003C0F0020500500200000594080B582B054
:101CB00000AF0346FB80FB8819460020FFF78CF934
:101CC00000BF0837BD4680BDB0B582B000AF284B1D
:101CD0001B689BB219460020FFF78EF853EC102BBF
:101CE00010461946FEF758FF0346FB80214B1B8820
:101CF000FA889A422DD8FB881846FEF7FBFB1AA3F8
:101D0000D3E90023FEF770FC02460B4614461D463D
:101D1000184B1B881846FEF7EDFB02460B46204683
:101D20002946FEF7ABFA02460B46104619464FF01D
:101D30000002114BFEF7A2FA02460B461046194666
:101D4000FEF72AFF03469BB219460120FFF72CF944
:101D500003E000210120FFF727F900BF0837BD4647
:101D6000B0BD00BFAFF30080000000C0CCCCECBF22
:101D70003C0F0020520500200000594080B582B081
:101D800002AF3D4B01221A703C494FF000024FF068
:101D90000003C1E900233A494FF000024FF000036D
:101DA000C1E9002300230093002300224FF4C871EF
:101DB0000120FFF781FD01230093012300224FF44E
:101DC0007A710020FFF778FD0023009300230022A2
:101DD0004FF47A710120FFF76FFD01230093012377
:101DE00000224FF47A710020FFF766FD25494FF07D
:101DF00000024FF00003C1E9002323494FF0000225
:101E00004FF00003C1E900230123009300230122C6
:101E10004FF4C8710120FFF74FFD00230093012309
:101E200001224FF47A710020FFF746FD0123009351
:101E3000002301224FF47A710120FFF73DFD0023BA
:101E40000093012301224FF47A710020FFF734FD43
:101E50000E494FF000024FF00003C1E900230C4986
:101E60004FF000024FF00003C1E90023024B0022B3
:101E70001A7000BFBD4680BD00050020E0040020B0
:101E800030050020E804002038050020F004002080
:101E90004005002080B500AF00224FF48051024879
:101EA00004F08EF800BF80BD0018004880B582B0F5
:101EB00000AF0346FB71FB7901220121184600F0B7
:101EC000D1FB00BF0837BD4680BD000080B582B0A1
:101ED00000AF0346FB7100224FF480510B4804F021
:101EE0006FF800224FF40051084804F069F8FB79BC
:101EF0001846FFF7DBFF01224FF48051034804F03E
:101F00005FF800BF0837BD4680BD00BF001800481D
:101F100080B582B000AF0346FB7101224FF400513F
:101F20000B4804F04DF800224FF48051084804F0AB
:101F300047F8FB791846FFF7B9FF01224FF48051AB
:101F4000034804F03DF800BF0837BD4680BD00BF20
:101F50000018004880B500AF01224FF480410B48C3
:101F600004F02EF8C82002F033F800224FF480511C
:101F7000064804F025F8C82002F02AF801224FF4A0
:101F80008041024804F01CF800BF80BD00180048E2
:101F900080B584B000AF0346FB71FB79FB7336203C
:101FA000FFF794FF012002F013F8FB7B032B37D8D7
:101FB00001A252F823F000BFC91F0008DF1F00086C
:101FC000F51F00080B2000084820FFF7A1FF174B62
:101FD000F0221A80164B4FF4A0721A8021E02820BC
:101FE000FFF796FF114B4FF4A0721A80104BF022AE
:101FF0001A8016E08820FFF78BFF0C4BF0221A8026
:102000000B4B4FF4A0721A800BE0E820FFF780FF23
:10201000064B4FF4A0721A80054BF0221A8000E0A4
:1020200000BF00BF1037BD4680BD00BF02000020CA
:102030000000002080B500AF01224FF4804102482B
:1020400003F0BEFF00BF80BD0018004880B500AFA0
:10205000FFF7F0FFFFF71EFFFFF77CFF0120FFF700
:1020600035FF4FF47A7001F0B3FFCB20FFF72EFF5E
:102070003920FFF74DFF2C20FFF74AFF0020FFF724
:1020800047FF3420FFF744FF0220FFF741FFCF2036
:10209000FFF71CFF0020FFF73BFFC120FFF738FFD1
:1020A0003020FFF735FFE820FFF710FF8520FFF70E
:1020B0002FFF0020FFF72CFF7820FFF729FFEA20F1
:1020C000FFF704FF0020FFF723FF0020FFF720FFAA
:1020D000ED20FFF7FBFE6420FFF71AFF0320FFF758
:1020E00017FF1220FFF714FF8120FFF711FFF720E1
:1020F000FFF7ECFE2020FFF70BFFC020FFF7E6FE06
:102100002320FFF705FFC120FFF7E0FE1020FFF7B7
:10211000FFFEC520FFF7DAFE3E20FFF7F9FE28207C
:10212000FFF7F6FEC720FFF7D1FE8620FFF7F0FE8F
:102130003620FFF7CBFE4820FFF7EAFE3A20FFF7F4
:10214000C5FE5520FFF7E4FEB120FFF7BFFE0020DB
:10215000FFF7DEFE1820FFF7DBFEB620FFF7B6FE26
:102160000820FFF7D5FE8220FFF7D2FE2720FFF7D9
:10217000CFFEF220FFF7AAFE0020FFF7C9FE2620BF
:10218000FFF7A4FE0120FFF7C3FEE020FFF79EFE4D
:102190000F20FFF7BDFE3120FFF7BAFE2B20FFF71F
:1021A000B7FE0C20FFF7B4FE0E20FFF7B1FE0820AB
:1021B000FFF7AEFE4E20FFF7ABFEF120FFF7A8FEC3
:1021C0003720FFF7A5FE0720FFF7A2FE1020FFF73C
:1021D0009FFE0320FFF79CFE0E20FFF799FE0920CB
:1021E000FFF796FE0020FFF793FEE120FFF76EFE5B
:1021F0000020FFF78DFE0E20FFF78AFE1420FFF768
:1022000087FE0320FFF784FE1120FFF781FE0720E1
:10221000FFF77EFE3120FFF77BFEC120FFF778FE3F
:102220004820FFF775FE0820FFF772FE0F20FFF72A
:102230006FFE0C20FFF76CFE3120FFF769FE3620A1
:10224000FFF766FE0F20FFF763FE1120FFF73EFE4B
:10225000782001F0BDFE2920FFF738FE0020FFF7AF
:1022600097FE00BF80BD000080B400AF074B4FF663
:10227000FF721A80064B00221A80064B00221A8039
:1022800000BFBD465DF8047B704700BF20050020FD
:10229000220500202405002080B584B000AF7860BE
:1022A0003A4BFB60786800F07FF8F968786813F0C3
:1022B000D7FAB860BB681B78472B42D04D2B59D159
:1022C000012001F085FE7B680133184611F0E4FF20
:1022D00003469B2B2AD09B2B4BDC8C2B1FD08C2BAB
:1022E00047DC6A2B15D06A2B43DC682B0AD0692B9C
:1022F0003FD1274B1B88274A128811461846FFF703
:1023000045FB1DE0244B1A88244B1A80FFF774FC10
:1023100016E0214B1B881846FFF7C8FC10E01E4B47
:102320001A881F4B1A80FFF7CFFC09E01A4B1B8855
:102330001846FFF739FB03461A461A4B1A8000BFAE
:1023400017E0012001F044FE7B680133184611F0CC
:10235000A3FF0346012B02DC002B03DA0AE01C2B4F
:1023600003D007E0FFF734FB02E0FFF707FD00BFF3
:1023700000E000BFFFF778FF04220021B86811F0E9
:10238000C1FF00BF1037BD4680BD00BF40AD010892
:1023900020050020220500202405002050050020F3
:1023A000520500202605002080B584B000AF78607B
:1023B000012001F00DFE5449786813F051FAF860DD
:1023C00098E0FB681B78453B152B00F28B8001A23F
:1023D00052F823F0B7240008D1240008E5240008AF
:1023E000E5240008E5240008E5240008E5240008A9
:1023F000E5240008E5240008E5240008E524000899
:10240000E5240008E52400082D24000855240008D0
:1024100041240008E5240008E5240008E52400081C
:1024200069240008832400089D240008FB68013308
:10243000184611F031FF03469AB2344B1A8051E02E
:10244000FB680133184611F027FF03469AB2304B60
:102450001A8047E0FB680133184611F01DFF034660
:102460009AB22C4B1A803DE0FB680133184611F0FC
:1024700010FFB0EE407AF0EE607A274B83ED007BE0
:1024800030E0FB680133184611F003FFB0EE407AEC
:10249000F0EE607A214B83ED007B23E0FB68013393
:1024A000184611F0F6FEB0EE407AF0EE607A1C4B62
:1024B00083ED007B16E0FB680133184611F0E9FE5E
:1024C000B0EE407AF0EE607A164B83ED007B09E0C7
:1024D000FB680133184611F0DFFE03469AB2124B37
:1024E0001A8000BF012001F073FD0749002013F09E
:1024F000B7F9F860FB68002B7FF463AF00BF00BF43
:102500001037BD4680BD00BF40AD0108200500204A
:102510002205002024050020380500204005002069
:102520004805002030050020280500200FB480B5A4
:1025300082B000AF07F114033B603B683A694FF487
:1025400080710B4813F0A0FA0948FDF739FE0346E5
:102550007B607B689AB24FF0FF330549054808F06D
:10256000E5F800BF0837BD46BDE8804004B07047BD
:10257000D8100020A406002080B582B000AF78609B
:102580000B467B807B681B68094A93420CD114225E
:102590000849094809F0A4FC084B1B681A68074B56
:1025A0001B6822F004021A6000BF0837BD4680BDD8
:1025B0000080004074050020A4060020C40700200D
:1025C00080B483B000AF0346FB80094B1B68002238
:1025D0005A6200BF064B1B685A6AFB889A42F9D3BD
:1025E00000BF00BF0C37BD465DF8047B704700BFDD
:1025F0009809002080B400AF034B1B685B6A184643
:10260000BD465DF8047B7047E409002080B582B0C8
:1026100002AF104B5B689BB219460120FEF7ECFB42
:1026200051EC100B0B4B5B68009302460B460A49BA
:102630000A4812F0D5FA0948FDF7C2FD03469AB2DE
:102640004FF0FF330549064808F070F800BFBD465B
:1026500080BD00BF3C0F002044AD010854050020A0
:10266000A406002080B584B000AFF8600B467A6005
:102670007B817A8907F10C017B68034806F063FAD5
:1026800000BF1037BD4680BD3808002080B5ADF5CD
:10269000966D00AF01F028FC00F006FA00F078FE1D
:1026A00000F044FE00F036FB00F016FE00F078FD6E
:1026B00000F080FB00F0DCFC00F04AFA00F0BEFD08
:1026C00000F056FC00F0D8FB00F0C0FB00F0E2FA8E
:1026D00000F010FC0EF05CFF0021B14807F03AF862
:1026E0000421AF4807F036F80821AD4807F032F86A
:1026F0000322AC49AC4801F0C9FFAC4806F060FFCA
:10270000AB4806F05DFF1422AA49AB4809F0E8FB8C
:10271000AA4B1B681A68A94B1B6822F004021A60B6
:1027200014220021A34811F0EDFDFFF79DFD0023C9
:10273000C7F8AC340023C7F8A0340023C7F8A83486
:10274000FFF784FC9E4B1B689E4AC3F85C219C4BA0
:102750001B68522283F8602100224FF480619A485E
:1027600003F02EFC142001F033FC01224FF48061B1
:10277000954803F025FC142001F02AFC904B1B68BF
:1027800018460AF007FA8E4B1B68184609F01CFF22
:102790008B4B1B6818460AF07BF8894B1B6807F2C5
:1027A0008D4207F28E4118460AF012FF844B1B68D7
:1027B00007F28F4207F5926118460BF095FB804BAC
:1027C0001B68002118460AF083FA7D4B1B68012222
:1027D000002118460AF0F6FC794B1B680122012102
:1027E00018460AF0EFFC764B1B6841F6991201215E
:1027F00018460AF097FD724B1B684FF470120021C7
:1028000018460AF08FFD6E4B1B68704918460AF097
:10281000BDFA6B4B1B681222002118460AF0DCFA45
:10282000674B1B680E22012118460AF0D5FA4FF4B7
:102830007A7001F0CDFB07F5177301226449184641
:1028400011F06CF8034687F8A73413E097F8A73423
:1028500019466048FFF76AFE4FF4FA7001F0B8FBC2
:1028600007F5177301225A49184611F057F8034625
:1028700087F8A73497F8A734002BE7D107F1240293
:1028800007F128031946524811F08BFB034687F8DD
:10289000A73414E097F8A73419464F48FFF746FECF
:1028A0004FF4FA7001F094FB07F1240207F12803BA
:1028B0001946474811F075FB034687F8A73497F887
:1028C000A734002BE6D107F59663A3F28C431B686F
:1028D0005B69023B07F59662A2F28C42126852894C
:1028E00002FB03F3C7F89C3407F59663A3F28C430D
:1028F0001B685B891A4607F59663A3F591631B680D
:1029000002FB03F3C7F89834D7F89C345908D7F87A
:1029100098345B081A463148FFF708FE07F12C038C
:1029200001222F49184611F03FF8034687F8A734D3
:1029300010E02C48FFF7FAFD4FF4FA7001F048FB65
:1029400007F12C0301222649184611F02DF8034601
:1029500087F8A73497F8A734002BEAD12248FFF76D
:10296000E5FD224B1B7883F00103DBB2002B47D03F
:1029700007F12C023B1D1E21184611F0C7FBC7F8BA
:102980009404D7F89434002B34D03B1D19461848D2
:10299000FFF7CCFD3B1D1846FFF77EFC30E000BF83
:1029A0004C0900203C0F00208805002098090020D9
:1029B000E409002074050020A4060020C4070020BC
:1029C00004000020500600200014004880841E00EF
:1029D0005CAD010860AD010878AD010890AD01085B
:1029E000D8AD0108E8AD0108FCAD010800050020E4
:1029F00030AE010897F8A73419462748FFF796FD2F
:102A00001021264803F0C4FA0346012B08D02021E8
:102A1000224803F0BDFA0346012B01D0FEF7D8FF90
:102A2000FFF7EAF8FFF750F9D7F8AC3441F6641233
:102A3000934212DC01224FF48071184803F0C0FA6F
:102A40000221174803F0D4FA4FF41670FFF7B8FDCF
:102A5000D7F8AC340133C7F8AC344FF40051114807
:102A600003F096FA0346012B7FF47BAFFFF7C2FD1C
:102A700003461A46D7F8A834D31AB3F5FA6FFFF411
:102A800070AF80214FF0904003F0B2FAFFF7B2FD33
:102A90000346C7F8A83464E734AE010800140048C0
:102AA000000400480008004880B598B000AF07F166
:102AB000180348220021184611F024FC3B1D002277
:102AC0001A605A609A60DA601A61002004F09CF97A
:102AD0000346002B01D000F069FD3023BB610123C8
:102AE0003B6401237B630023BB636023FB630223FE
:102AF0007B640123BB640123FB643C233B6502230D
:102B00007B650223BB650223FB6507F118031846AA
:102B100004F03EFA0346002B01D000F047FD0F23DE
:102B20007B600323BB600023FB6000233B61002329
:102B30007B613B1D0521184604F0A6FE0346002BD1
:102B400001D000F033FD00BF6037BD4680BD0000FE
:102B500080B58AB000AF07F11C0300221A605A60EA
:102B60009A603B1D00221A605A609A60DA601A610E
:102B70005A61434B434A1A60414B00225A60404B12
:102B800000229A603E4B0022DA603D4B01221A611E
:102B90003B4B04225A613A4B00221A76384B0122F1
:102BA0005A76374B0322DA61354B002283F8202016
:102BB000334B00229A62324B0022DA62304B012200
:102BC00083F830202E4B00225A632D4B012283F8CC
:102BD00038202B4B0C22DA63294B00221A64284B35
:102BE00000225A64264B01229A64254801F0FCFB1E
:102BF0000346002B01D000F0D9FC0023FB6107F154
:102C00001C0319461E4802F04DFB0346002B01D061
:102C100000F0CCFC1C4B7B600623BB600623FB60F2
:102C20007F233B6104237B610023BB613B1D19466D
:102C3000134801F0FDFD0346002B01D000F0B6FC67
:102C4000124B7B600C23BB603B1D19460C4801F006
:102C5000EFFD0346002B01D000F0A8FC0C4B7B607D
:102C60001223BB603B1D1946054801F0E1FD0346F8
:102C7000002B01D000F09AFC00BF2837BD4680BD74
:102C800088050020000004500200300404006008A1
:102C9000000052C780B500AF1B4B1C4A1A601A4B8C
:102CA0001B4A5A60184B00229A60174B0122DA60C7
:102CB000154B00221A61144B00225A61124B00225C
:102CC0009A61114B0022DA610F4B00221A620E4802
:102CD00003F0A8F90346002B01D000F067FC0021A7
:102CE000094803F091FE0346002B01D000F05EFC82
:102CF0000021054803F0D3FE0346002B01D000F06D
:102D000055FC00BF80BD00BF5006002000540040AD
:102D1000DB3FB00080B500AF244B254A1A60234B3F
:102D20004FF4E1325A60214B00229A601F4B00227F
:102D3000DA601E4B00221A611C4B0C225A611B4B9D
:102D400000229A61194B00221A62184B00225A6223
:102D5000164B10229A62154B4FF48052DA63134BD4
:102D600000225A66114807F091FC0346002B01D05F
:102D700000F01CFC00210D4809F036F80346002B3A
:102D800001D000F013FC0021084809F06BF803465D
:102D9000002B01D000F00AFC044808F0ECFF0346C9
:102DA000002B01D000F002FC00BF80BDA406002073
:102DB0000080004080B500AF224B234A1A60214BAF
:102DC0004FF4E1325A601F4B00229A601D4B0022E3
:102DD000DA601C4B00221A611A4B0C225A61194B03
:102DE00000229A61174B0022DA61164B00221A6208
:102DF000144B00225A62134B00229A62114807F0CA
:102E000045FC0346002B01D000F0D0FB00210D480B
:102E100008F0EAFF0346002B01D000F0C7FB0021B9
:102E2000084809F01FF80346002B01D000F0BEFB54
:102E3000044808F0A0FF0346002B01D000F0B6FBC9
:102E400000BF80BD34070020004C004080B500AFBB
:102E5000074B084A1A60064B00225A60044805F0E6
:102E600025FD0346002B01D000F0A0FB00BF80BD74
:102E7000240800200008065080B500AF1B4B1C4AF8
:102E80001A601A4B4FF482725A60184B00229A60F3
:102E9000164B4FF4E062DA60144B00221A61134BB8
:102EA00000225A61114B4FF400729A610F4B0822B5
:102EB000DA610E4B00221A620C4B00225A620B4B55
:102EC00000229A62094B0722DA62084B00221A6339
:102ED000064B08225A63054805F092FD0346002B75
:102EE00001D000F063FB00BF80BD00BF38080020A8
:102EF0000030014080B500AF1B4B1C4A1A601A4BD2
:102F00004FF482725A60184B00229A60164B4FF4AD
:102F1000E062DA60144B00221A61134B00225A61FE
:102F2000114B4FF400729A610F4B3822DA610E4B4D
:102F300000221A620C4B00225A620B4B00229A624A
:102F4000094B0722DA62084B00221A63064B08225B
:102F50005A63054805F054FD0346002B01D000F0EC
:102F600025FB00BF80BD00BF9C080020003800404A
:102F700080B58EB000AF07F1280300221A605A60B6
:102F80009A60DA6007F11C0300221A605A609A60A6
:102F90003B4600221A605A609A60DA601A615A61F0
:102FA0009A61324B4FF080421A60304B77225A6060
:102FB0002E4B00229A602D4BFF22DA602B4B002211
:102FC0001A612A4B00229A61284806F0A1FA0346AA
:102FD000002B01D000F0EAFA4FF48053BB6207F1F6
:102FE00028031946214806F0CFFD0346002B01D0E7
:102FF00000F0DCFA1D4806F04BFB0346002B01D025
:1030000000F0D4FA0023FB6100237B6207F11C036C
:103010001946164807F0B2FA0346002B01D000F01B
:10302000C5FA60233B6000237B600023BB60002364
:103030003B613B46002219460C4806F091FC0346D2
:10304000002B01D000F0B2FA3B4604221946074893
:1030500006F086FC0346002B01D000F0A7FA0348D7
:1030600000F002FE00BF3837BD4680BD00090020D9
:1030700080B58EB000AF07F1280300221A605A60B5
:103080009A60DA6007F11C0300221A605A609A60A5
:103090003B4600221A605A609A60DA601A615A61EF
:1030A0009A613D4B3D4A1A603B4B77225A603A4B3E
:1030B00000229A60384BFF22DA60374B00221A61F7
:1030C000354B80229A61344806F022FA0346002BE1
:1030D00001D000F06BFA4FF48053BB6207F1280374
:1030E00019462D4806F050FD0346002B01D000F094
:1030F0005DFA294806F0CCFA0346002B01D000F017
:1031000055FA0023FB6100237B6207F11C0319467B
:10311000214807F033FA0346002B01D000F046FAAD
:1031200060233B6000237B600023BB6000233B6186
:103130003B4600221946184806F012FC0346002BB5
:1031400001D000F033FA3B4604221946124806F03B
:1031500007FC0346002B01D000F028FA3B4608226A
:1031600019460D4806F0FCFB0346002B01D000F089
:103170001DFA3B460C221946074806F0F1FB0346B0
:10318000002B01D000F012FA034800F06DFD00BFE3
:103190003837BD4680BD00BF4C0900200004004008
:1031A00080B588B000AF07F1100300221A605A60A2
:1031B0009A60DA603B1D00221A605A609A601D4BCB
:1031C0001D4A1A601B4B77225A601A4B00229A60E4
:1031D000184B4FF6FF72DA60164B00221A61154B3E
:1031E00000229A61134806F093F90346002B01D0A0
:1031F00000F0DCF94FF480533B6107F110031946EE
:103200000C4806F0C1FC0346002B01D000F0CEF9BB
:1032100000237B600023FB603B1D1946054807F037
:10322000ADF90346002B01D000F0C0F900BF2037F4
:10323000BD4680BD980900200008004080B588B0D8
:1032400000AF07F1100300221A605A609A60DA603A
:103250003B1D00221A605A609A601D4B1D4A1A607D
:103260001B4B77225A601A4B00229A60184B4FF082
:10327000FF32DA60164B00221A61154B00229A6168
:10328000134806F045F90346002B01D000F08EF9F3
:103290004FF480533B6107F1100319460C4806F0C8
:1032A00073FC0346002B01D000F080F900237B6003
:1032B0000023FB603B1D1946054807F05FF90346F4
:1032C000002B01D000F072F900BF2037BD4680BD51
:1032D000E4090020000C004080B500AF124B4FF015
:1032E000A0421A60104B06225A600F4B02229A61CC
:1032F0000D4B0122DA610C4B00221A620A4B0022AC
:103300005A62094B01229A62074B00221A63064B4C
:103310000122DA62044803F00EFC0346002B01D0C0
:1033200000F044F900BF80BD300A002080B582B0B3
:1033300000AF164B9B6C154A43F004039364134B88
:103340009B6C03F004037B607B68104B9B6C0F4A03
:1033500043F0010393640D4B9B6C03F001033B604E
:103360003B68002200210B2002F01BF90B2002F029
:1033700034F9002200210C2002F013F90C2002F095
:103380002CF900BF0837BD4680BD00BF00100240C9
:1033900080B58CB000AF07F11C0300221A605A60A0
:1033A0009A60DA601A617C4BDB6C7B4A43F0100355
:1033B000D364794BDB6C03F01003BB61BB69764BC4
:1033C000DB6C754A43F00403D364734BDB6C03F08E
:1033D00004037B617B69704BDB6C6F4A43F0200315
:1033E000D3646D4BDB6C03F020033B613B696A4B9C
:1033F000DB6C694A43F08003D364674BDB6C03F0FA
:103400008003FB60FB68644BDB6C634A43F00103A1
:10341000D364614BDB6C03F00103BB60BB685E4BA4
:10342000DB6C5D4A43F00203D3645B4BDB6C03F05F
:1034300002037B607B68584BDB6C574A43F04003C8
:10344000D364554BDB6C03F040033B603B6803F0F7
:103450008FFD002240F2CE51504802F0B1FD002213
:1034600080214FF0904002F0ABFD002244F2830136
:103470004B4802F0A5FD00224FF24041494802F0BE
:103480009FFD00224021484802F09AFD4FF400536E
:10349000FB614FF488133B6200237B6207F11C033E
:1034A0001946414802F0E2FB40F23123FB61002360
:1034B0003B6200237B6207F11C031946374802F088
:1034C000D5FB40F2CE53FB6101233B6200237B62BC
:1034D0000023BB6207F11C031946304802F0C6FB0B
:1034E0008023FB6101233B6200237B620023BB62DC
:1034F00007F11C0319464FF0904002F0B7FB44F26D
:103500008303FB6101233B6200237B620023BB62D8
:1035100007F11C031946224802F0A8FB4FF402638E
:10352000FB6100233B6200237B6207F11C03194609
:103530001C4802F09BFB4FF48863FB6101233B6254
:1035400000237B620023BB6207F11C031946154868
:1035500002F08CFB4023FB6101233B6200237B6272
:103560000023BB6207F11C0319460F4802F07EFBE3
:103570004FF47043FB6101233B6200237B62032312
:10358000BB6207F11C031946064802F06FFB00BF3F
:103590003037BD4680BD00BF001002400014004817
:1035A00000040048001800480008004880B400AF3C
:1035B00072B600BFFEE7000080B483B000AF0F4BCF
:1035C0001B6E0E4A43F0010313660C4B1B6E03F097
:1035D00001037B607B68094B9B6D084A43F0805375
:1035E0009365064B9B6D03F080533B603B6800BFC7
:1035F0000C37BD465DF8047B704700BF00100240E9
:1036000080B5B0B000AF786007F1AC0300221A605B
:103610005A609A60DA601A6107F114039822002157
:10362000184610F06FFE7B681B683C4A934271D1CC
:103630004FF480437B614FF08053C7F894300123EF
:10364000BB610123FB6118233B6202237B620423DD
:10365000BB620223FB624FF080733B6307F11403EC
:10366000184604F0CFFB0346002B01D0FFF79EFF66
:103670002B4BDB6C2A4A43F40053D364284BDB6C9E
:1036800003F400533B613B69254BDB6C244A43F058
:103690000403D364224BDB6C03F00403FB60FB6880
:1036A0000323C7F8AC300B23C7F8B0300023C7F8AA
:1036B000B43007F1AC0319461A4802F0D7FA1A4B96
:1036C0001A4A1A60184B05225A60174B00229A605A
:1036D000154B0022DA60144B80221A61124B4FF412
:1036E00000725A61104B4FF400629A610E4B202217
:1036F000DA610D4B00221A620B4801F089FF034684
:10370000002B01D0FFF752FF7B68074A1A65064A73
:103710007B68936200BFC037BD4680BD0000045087
:103720000010024000080048F00500200800024098
:1037300080B5B0B000AF786007F1AC0300221A602A
:103740005A609A60DA601A6107F114039822002126
:10375000184610F0D7FD7B681B68214A93423BD185
:1037600040237B610023BB6607F11403184604F075
:1037700049FB0346002B01D0FFF718FF194BDB6C08
:10378000184A43F00203D364164BDB6C03F00203C8
:103790003B613B694FF41073C7F8AC301223C7F894
:1037A000B0300023C7F8B4300323C7F8B83004237F
:1037B000C7F8BC3007F1AC0319460B4802F056FAC3
:1037C000084B9B6D074A43F400139365054B9B6DB3
:1037D00003F40013FB60FB6800BFC037BD4680BD2B
:1037E00000540040001002400004004880B5B2B010
:1037F00000AF786007F1B40300221A605A609A6043
:10380000DA601A6107F11C0398220021184610F0B3
:1038100079FD7B681B686D4A93426FD12023FB6161
:103820000023FB6607F11C03184604F0EBFA03467D
:10383000002B01D0FFF7BAFE654BDB6D644A43F005
:103840000103D365624BDB6D03F00103BB61BB6910
:103850005F4BDB6C5E4A43F04003D3645C4BDB6C34
:1038600003F040037B617B6903F082FB4FF4C0737C
:10387000C7F8B4300223C7F8B8300023C7F8BC300B
:103880000323C7F8C0300823C7F8C43007F1B403D6
:103890001946504802F0EAF94F4B504A1A604E4B15
:1038A00023225A604C4B00229A604B4B0022DA6074
:1038B000494B80221A61484B00225A61464B002234
:1038C0009A61454B0022DA61434B00221A6242485A
:1038D00001F09EFE0346002B01D0FFF767FE7B68D8
:1038E0003D4ADA673C4A7B68936200220021462009
:1038F00001F057FE462001F070FE62E07B681B6815
:10390000374A93425DD10823FB6100237B6607F1B0
:103910001C03184604F076FA0346002B01D0FFF78B
:1039200045FE2B4B9B6D2A4A43F400239365284B9D
:103930009B6D03F400233B613B69254BDB6C244A00
:1039400043F00103D364224BDB6C03F00103FB6003
:10395000FB681F4BDB6C1E4A43F00403D3641C4B13
:10396000DB6C03F00403BB60BB680123C7F8B43011
:103970000223C7F8B8300023C7F8BC300323C7F8C8
:10398000C0300823C7F8C43007F1B40319464FF01C
:10399000904002F06BF94FF40063C7F8B430022393
:1039A000C7F8B8300023C7F8BC300323C7F8C030CD
:1039B0000823C7F8C43007F1B4031946094802F0D8
:1039C00055F900BFC837BD4680BD00BF008000402C
:1039D0000010024000180048C40700201C000240EC
:1039E000004C00400008004880B5AAB000AF7860E5
:1039F00007F1100398220021184610F083FC7B6821
:103A00001B68114A93421BD14FF480233B61002372
:103A1000C7F88C3007F11003184604F0F3F9034699
:103A2000002B01D0FFF7C2FD084BDB6C074A43F4C3
:103A30008023D364054BDB6C03F48023FB60FB68BD
:103A400000BFA837BD4680BD0008065000100240E8
:103A500080B58EB000AF786007F1240300221A60B1
:103A60005A609A60DA601A617B681B684B4A93421D
:103A700046D14B4B1B6E4A4A43F480531366484B66
:103A80001B6E03F480533B623B6A454BDB6C444A3C
:103A900043F00103D364424BDB6C03F00103FB6191
:103AA000FB693F4BDB6C3E4A43F01003D3643C4B55
:103AB000DB6C03F01003BB61BB6940237B62022314
:103AC000BB620023FB6203233B6305237B6307F197
:103AD000240319464FF0904002F0C8F84FF42043F9
:103AE0007B620223BB620023FB6203233B6305234B
:103AF0007B6307F1240319462A4802F0B7F849E02E
:103B00007B681B68284A934244D1254B9B6D244A0D
:103B100043F480439365224B9B6D03F480437B61A8
:103B20007B691F4BDB6C1E4A43F00403D3641C4BC0
:103B3000DB6C03F004033B613B69194BDB6C184AF7
:103B400043F00203D364164BDB6C03F00203FB600B
:103B5000FB680C237B620223BB620023FB6203230E
:103B60003B6305237B6307F1240319460F4802F0EA
:103B70007DF84FF480637B620223BB620023FB620B
:103B800003233B6305237B6307F12403194608489D
:103B900002F06CF800BF3837BD4680BD00300140F0
:103BA00000100240001000480038004000080048A3
:103BB0000004004880B487B000AF78607B681B6861
:103BC000B3F1804F0CD1244B9B6D234A43F001038A
:103BD0009365214B9B6D03F001037B617B6934E0AE
:103BE0007B681B681D4A93420CD11B4B9B6D1A4A84
:103BF00043F002039365184B9B6D03F002033B6196
:103C00003B6922E07B681B68154A93420CD1124B3A
:103C10009B6D114A43F0040393650F4B9B6D03F0BA
:103C20000403FB60FB6810E07B681B680D4A93424D
:103C30000BD1094B9B6D084A43F008039365064B73
:103C40009B6D03F00803BB60BB6800BF1C37BD461B
:103C50005DF8047B704700BF001002400004004084
:103C600000080040000C004080B58AB000AF7860CA
:103C700007F1140300221A605A609A60DA601A6130
:103C80007B681B68B3F1804F1DD1214BDB6C204A50
:103C900043F00103D3641E4BDB6C03F001033B6173
:103CA0003B6922237B610223BB610023FB6100236C
:103CB0003B6201237B6207F1140319464FF09040E9
:103CC00001F0D4FF20E07B681B68124A93421BD1AD
:103CD0000F4BDB6C0E4A43F01003D3640C4BDB6CD0
:103CE00003F01003FB60FB6878237B610223BB6158
:103CF0000023FB6100233B6202237B6207F1140374
:103D00001946054801F0B2FF00BF2837BD4680BD07
:103D100000100240000400400010004880B5B0B020
:103D200000AF786007F1AC0300221A605A609A6015
:103D3000DA601A6107F1140398220021184610F086
:103D4000E1FA7B681B68B3F1A04F6CD14FF40053CC
:103D50007B610023C7F8883007F11403184604F08C
:103D600051F80346002B01D0FFF720FC304BDB6CF1
:103D70002F4A43F00103D3642D4BDB6C03F00103A6
:103D80003B613B694FF4E853C7F8AC300223C7F8F6
:103D9000B0300023C7F8B4300323C7F8B8300A2383
:103DA000C7F8BC3007F1AC0319464FF0904001F062
:103DB0005DFF4FF40073C7F8AC300023C7F8B03094
:103DC0000023C7F8B43007F1AC0319464FF0904018
:103DD00001F04CFF164BDB6C154A43F48053D3645F
:103DE000134BDB6C03F48053FB60FB68104B9B6D43
:103DF00003F08053002B14D10D4B9B6D0C4A43F004
:103E0000805393650A4B9B6D03F08053BB60BB6886
:103E100003F09EF8064B9B6D054A23F08053936593
:103E200001E003F095F800BFC037BD4680BD00BF7C
:103E30000010024080B400AFFEE780B400AFFEE7A0
:103E400080B400AFFEE780B400AFFEE780B400AFFF
:103E5000FEE780B400AF00BFBD465DF8047B70474D
:103E600080B400AF00BFBD465DF8047B704780B4EE
:103E700000AF00BFBD465DF8047B704780B500AF62
:103E800000F086F800BF80BD80B500AF024801F0A9
:103E90009DFD00BF80BD00BFF005002080B500AFD4
:103EA000024801F093FD00BF80BD00BFC4070020A1
:103EB00080B500AF024806F0CFFC00BF80BD00BF58
:103EC000A406002080B400AF064BD3F88830054A22
:103ED00043F47003C2F8883000BFBD465DF8047B30
:103EE000704700BF00ED00E080B582B000AF002356
:103EF000FB71032001F04AFB002000F00DF803469F
:103F0000002B02D00123FB7101E0FFF755FBFB7989
:103F100018460837BD4680BD80B584B000AF7860D4
:103F20000023FB73174B1B78002B23D0164B1A680A
:103F3000144B1B7819464FF47A73B3FBF1F3B2FBC1
:103F4000F3F3184601F057FB0346002B0FD17B68B3
:103F50000F2B09D8002279684FF0FF3001F021FBC8
:103F60000A4A7B68136007E00123FB7304E0012326
:103F7000FB7301E00123FB73FB7B18461037BD4642
:103F800080BD00BF10000020080000200C000020B1
:103F900080B400AF064B1B781A46064B1B681344CF
:103FA000044A136000BFBD465DF8047B704700BF44
:103FB00010000020D811002080B400AF034B1B6814
:103FC0001846BD465DF8047B704700BFD81100203D
:103FD00080B584B000AF7860FFF7EEFFB8607B6813
:103FE000FB60FB68B3F1FF3F05D00A4B1B781A4614
:103FF000FB681344FB6000BFFFF7DEFF0246BB68AF
:10400000D31AFA689A42F7D800BF00BF1037BD46EE
:1040100080BD00BF1000002080B483B000AF786086
:1040200039607B689B6823F47C123B681A437B6889
:104030009A6000BF0C37BD465DF8047B704780B4C2
:1040400083B000AF786039607B689B6823F0E072D2
:104050003B681A437B689A6000BF0C37BD465DF829
:10406000047B704780B483B000AF78607B689B6846
:1040700003F0E07318460C37BD465DF8047B7047CB
:1040800080B487B000AFF860B9607A603B60FB68CD
:1040900060331A46BB689B0013447B617B691A68D6
:1040A000084B13407A6802F0F8413A680A43134318
:1040B00043F000427B691A6000BF1C37BD465DF8C3
:1040C000047B704700F0FF0380B485B000AF7860D8
:1040D00039607B6860331A463B689B001344FB6081
:1040E000FB681B6803F0F84318461437BD465DF8BB
:1040F000047B704780B487B000AFF860B9607A6025
:10410000FB6860331A46BB689B0013447B617B6984
:104110001B6823F000427B681A437B691A6000BF6A
:104120001C37BD465DF8047B704780B483B000AF98
:10413000786039607B685B6923F000423B681A4312
:104140007B685A6100BF0C37BD465DF8047B704741
:1041500080B483B000AF78607B68DB6803F44063B1
:10416000002B01D1012300E0002318460C37BD4687
:104170005DF8047B704780B487B000AFF860B96029
:104180007A60FB6830331A46BB681B0A9B0003F059
:104190000C0313447B617B691A68BB6803F01F033F
:1041A0001F2101FA03F3DB431A407B689B0E03F0E7
:1041B0001F01BB6803F01F0301FA03F31A437B6975
:1041C0001A6000BF1C37BD465DF8047B704780B4A1
:1041D00087B000AFF860B9607A60FB6814331A46A4
:1041E000BB685B0E9B0003F0040313447B617B6997
:1041F0001A68BB681B0D03F01F03072101FA03F3C4
:10420000DB431A40BB681B0D03F01F03796801FAFA
:1042100003F31A437B691A6000BF1C37BD465DF883
:10422000047B704780B485B000AFF860B9607A60F5
:10423000FB68D3F8B020BB68C3F31203DB431A401A
:104240007B6803F018030849D940BB680B40C3F3EF
:1042500012031A43FB68C3F8B02000BF1437BD46F1
:104260005DF8047B704700BFFFFF070080B483B098
:1042700000AF78607B689B6803F01F0318460C371B
:10428000BD465DF8047B704780B483B000AF7860B2
:104290007B689B6823F0204323F03F037A68936098
:1042A00000BF0C37BD465DF8047B704780B483B017
:1042B00000AF78607B689B6803F00053B3F1005F48
:1042C00001D1012300E0002318460C37BD465DF8FC
:1042D000047B704780B483B000AF78607B689B68D4
:1042E00023F0104323F03F0343F080527B689A6031
:1042F00000BF0C37BD465DF8047B704780B483B0C7
:1043000000AF78607B689B6803F08053B3F1805FF7
:1043100001D1012300E0002318460C37BD465DF8AB
:10432000047B704780B483B000AF78607B689B6883
:1043300023F0004323F03F0343F001027B689A60BF
:1043400000BF0C37BD465DF8047B704780B483B076
:1043500000AF78607B689B6803F00103012B01D1FB
:10436000012300E0002318460C37BD465DF8047BAE
:10437000704780B483B000AF78607B689B6823F09F
:10438000004323F03F0343F004027B689A6000BFC0
:104390000C37BD465DF8047B704780B483B000AF36
:1043A00078607B689B6803F00403042B01D1012330
:1043B00000E0002318460C37BD465DF8047B7047CB
:1043C00080B483B000AF78607B689B6803F008031B
:1043D000082B01D1012300E0002318460C37BD460D
:1043E0005DF8047B7047000090B589B000AF78603D
:1043F0000023FB770023BB607B68002B01D10123E6
:1044000034E17B681B69002B7B689B6D002B09D115
:104410007868FFF7F5F87B680022DA657B68002290
:1044200083F854207B681B681846FFF73FFF03465C
:10443000002B04D07B681B681846FFF725FF7B68BC
:104440001B681846FFF75AFF0346002B15D17B68FF
:104450001B681846FFF73EFF864B1B689B09864A80
:10446000A2FB03239B0901335B00BB6002E0BB6836
:10447000013BBB60BB68002BF9D17B681B68184609
:10448000FFF73CFF0346002B0DD17B689B6D43F08B
:1044900010027B689A657B68DB6D43F001027B68E4
:1044A000DA650123FB777B681B681846FFF775FF09
:1044B00078617B689B6D03F01003002B40F0CD808A
:1044C0007B69002B40F0C9807B689B6D23F481736E
:1044D00043F002027B689A657B681B681846FFF709
:1044E00035FF0346002B10D16448FFF72FFF044629
:1044F0006348FFF72BFF03462343002B05D17B685E
:104500005B6819465F48FFF787FD7B685B7E5A034F
:104510007B685B6B1A437B68DB681A437B689B682C
:104520001A437B6893F820301B041343BB617B68FC
:1045300093F82030012B06D17B685B6A013B5B045A
:10454000BA691343BB617B689B6A002B09D07B6807
:104550009B6A03F470727B68DB6A1343BA69134386
:10456000BB617B681B68DA68474B13407A68126846
:10457000B9690B43D3607B681B681846FFF70DFFD2
:1045800038617B681B681846FFF71AFFF8603B69C3
:10459000002B40D1FB68002B3DD17B68DA6C7B6837
:1045A0001B7E9B031A437B6893F830305B001343F8
:1045B000BB617B681B68DB6823F4804323F0060340
:1045C0007A681268B9690B43D3607B6893F8383016
:1045D000012B18D17B681B681B6923F4FF6323F050
:1045E00004037A68D16B7A68126C11437A68526C52
:1045F00011437A68926C0A431A437B681B6842F045
:1046000001021A6107E07B681B681A697B681B68F6
:1046100022F001021A617B681B69012B0CD17B68B7
:104620001B681B6B23F00F017B68DB695A1E7B68DC
:104630001B680A431A6307E07B681B681A6B7B6878
:104640001B6822F00F021A637B689B6D23F0030343
:1046500043F001027B689A6507E07B689B6D43F03D
:1046600010027B689A650123FB77FB7F184624378D
:10467000BD4690BD08000020632D3E05000004509B
:10468000000104500003045007C0F0FF80B586B05D
:1046900000AFF860B9607A605048FFF7E7FD386115
:1046A000FB681B681846FFF778FE0346002B40F0B6
:1046B0008E80FB6893F85430012B01D1022389E0EE
:1046C000FB68012283F854203B69002B05D03B692D
:1046D000052B02D03B69092B72D1F86800F0A2FCCF
:1046E0000346FB75FB7D002B65D1FB689B6D23F4B6
:1046F000706323F0010343F48072FB689A65FB68E2
:104700001B68374A934202D0FB681B6800E0354BB8
:10471000FA681268934202D03B69002B05D1FB680E
:104720009B6D23F48012FB689A65FB689B6D03F414
:104730008053002B06D0FB68DB6D23F00602FB687C
:10474000DA6502E0FB680022DA65FB681B6D264A29
:10475000DA62FB681B6D254A1A63FB681B6D244AED
:104760005A63FB681B681C221A60FB68002283F8EE
:104770005420FB681B685A68FB681B6842F01002F3
:104780005A60FB681B68DA68FB681B6842F001022C
:10479000DA60FB68186DFB681B6840331946BA681D
:1047A0007B6800F0DDFF0346FB75FB681B6818465D
:1047B000FFF7DFFD0DE0FB68002283F8542008E0DE
:1047C0000123FB75FB68002283F8542001E00223DB
:1047D000FB75FB7D18461837BD4680BD00030450AD
:1047E0000001045000000450315100080952000833
:1047F0002552000880B483B000AF786000BF0C374A
:10480000BD465DF8047B704780B483B000AF78602C
:1048100000BF0C37BD465DF8047B704780B483B0A1
:1048200000AF786000BF0C37BD465DF8047B704771
:1048300080B5B6B000AF78603960002387F8D73014
:104840000023FB607B6893F85430012B01D10223D5
:10485000D3E37B68012283F854207B681B681846E9
:10486000FFF79BFD0346002B40F0B8833B685B6875
:10487000052B24D83B685B68023B032B1BD801A2A5
:1048800052F823F0954800089D480008A548000804
:10489000AD4800083B680C225A6010E03B681222C9
:1048A0005A600CE03B6818225A6008E03B684FF4FD
:1048B00080725A6003E03B6806225A6000BF7B6842
:1048C00018683B6859683B681B681A46FFF753FC39
:1048D0007B681B681846FFF760FDC7F8D0007B684F
:1048E0001B681846FFF76CFDC7F8CC00D7F8D0302E
:1048F000002B40F0C181D7F8CC30002B40F0BC81B8
:104900003B689B68B3F1004F0FD17B6818683B6828
:104910001B6800221946FFF75AFC7B681B684FF0A2
:1049200000411846FFF701FC0EE07B6818683B6801
:1049300019683B689B681A46FFF749FC7B681B684F
:1049400000211846FFF7F1FB3B685A697B681B683A
:10495000DB68DB0803F003035B0002FA03F3C7F82C
:10496000C8303B681B69042B0AD07B6818683B6819
:1049700019693B681A68D7F8C830FFF781FB7BE1FB
:104980007B681B6800211846FFF79EFB0346C3F3B4
:104990001203002B0AD17B681B6800211846FFF721
:1049A00093FB03469B0E03F01F021EE07B681B680F
:1049B00000211846FFF788FB0346C7F8BC30D7F83C
:1049C000BC3093FAA3F3C7F8B830D7F8B830C7F8BB
:1049D000C030D7F8C030002B01D1202304E0D7F835
:1049E000C030B3FA83F3DBB21A463B681B68C3F3EB
:1049F0001203002B05D13B681B689B0E03F01F03BD
:104A000018E03B681B68C7F8B030D7F8B03093FAAD
:104A1000A3F3C7F8AC30D7F8AC30C7F8B430D7F848
:104A2000B430002B01D1202304E0D7F8B430B3FA1E
:104A300083F3DBB29A4206D17B681B680022002117
:104A40001846FFF757FB7B681B6801211846FFF7E4
:104A50003BFB0346C3F31203002B0AD17B681B68A0
:104A600001211846FFF730FB03469B0E03F01F029F
:104A70001EE07B681B6801211846FFF725FB0346F3
:104A8000C7F8A430D7F8A43093FAA3F3C7F8A0303E
:104A9000D7F8A030C7F8A830D7F8A830002B01D13C
:104AA000202304E0D7F8A830B3FA83F3DBB21A4628
:104AB0003B681B68C3F31203002B05D13B681B68DE
:104AC0009B0E03F01F0318E03B681B68C7F8983083
:104AD000D7F8983093FAA3F3C7F89430D7F8943006
:104AE000C7F89C30D7F89C30002B01D1202304E07C
:104AF000D7F89C30B3FA83F3DBB29A4206D17B68D5
:104B00001B68002201211846FFF7F4FA7B681B6836
:104B100002211846FFF7D8FA0346C3F31203002B0D
:104B20000AD17B681B6802211846FFF7CDFA0346BD
:104B30009B0E03F01F021EE07B681B6802211846D3
:104B4000FFF7C2FA0346C7F88C30D7F88C3093FAD7
:104B5000A3F3C7F88830D7F88830C7F89030D7F873
:104B60009030002B01D1202304E0D7F89030B3FA25
:104B700083F3DBB21A463B681B68C3F31203002BB6
:104B800005D13B681B689B0E03F01F0316E03B68D2
:104B90001B68C7F88030D7F8803093FAA3F3FB671F
:104BA000FB6FC7F88430D7F88430002B01D1202365
:104BB00004E0D7F88430B3FA83F3DBB29A4206D12B
:104BC0007B681B68002202211846FFF793FA7B6876
:104BD0001B6803211846FFF777FA0346C3F3120355
:104BE000002B0AD17B681B6803211846FFF76CFA7B
:104BF00003469B0E03F01F0217E07B681B6803212E
:104C00001846FFF761FA03467B677B6F93FAA3F3BD
:104C10003B673B6FBB67BB6F002B01D1202303E0D9
:104C2000BB6FB3FA83F3DBB21A463B681B68C3F36E
:104C30001203002B05D13B681B689B0E03F01F037A
:104C400011E03B681B68BB66BB6E93FAA3F37B66FF
:104C50007B6EFB66FB6E002B01D1202303E0FB6E15
:104C6000B3FA83F3DBB29A4206D17B681B68002259
:104C700003211846FFF73EFA7B681B681846FFF7CA
:104C800065FB0346002B40F03F817B6818683B685A
:104C900019683B68DB681A46FFF7C4FA3B68DB68B3
:104CA0008E4A934240F030817B6818683B681B68ED
:104CB000C3F31203002B0BD13B681B689B0E01331F
:104CC00003F01F03092B94BF01230023DBB219E07B
:104CD0003B681B68FB65FB6D93FAA3F3BB65BB6D7B
:104CE0003B663B6E002B01D1202303E03B6EB3FA01
:104CF00083F3DBB2013303F01F03092B94BF0123BD
:104D00000023DBB2002B79D03B681B68C3F312038E
:104D1000002B07D13B681B689B0E01339B0603F0F9
:104D2000F84215E03B681B683B653B6D93FAA3F3C3
:104D3000FB64FB6C7B657B6D002B01D1202303E0C2
:104D40007B6DB3FA83F3DBB201339B0603F0F842C9
:104D50003B681B68C3F31203002B09D13B681B6837
:104D60009B0E013303F01F03012101FA03F317E047
:104D70003B681B687B647B6C93FAA3F33B643B6CDE
:104D8000BB64BB6C002B01D1202303E0BB6CB3FAE6
:104D900083F3DBB2013303F01F03012101FA03F3B4
:104DA00042EA03013B681B68C3F31203002B0AD1DC
:104DB0003B681B689B0E013303F01F0213465B0028
:104DC00013441B0518E03B681B68BB63BB6B93FA7D
:104DD000A3F37B637B6BFB63FB6B002B01D1202375
:104DE00003E0FB6BB3FA83F3DBB2013303F01F0282
:104DF00013465B0013441B050B4380E03B681B68B4
:104E0000C3F31203002B07D13B681B689B0E0133D1
:104E10009B0603F0F84215E03B681B68FB62FB6AE7
:104E200093FAA3F3BB62BB6A3B633B6B002B01D1DC
:104E3000202303E03B6BB3FA83F3DBB201339B0621
:104E400003F0F8423B681B68C3F31203002B09D13F
:104E50003B681B689B0E013303F01F03012101FA1D
:104E600003F317E03B681B683B623B6A93FAA3F3CA
:104E7000FB61FB697B627B6A002B01D1202303E08D
:104E80007B6AB3FA83F3DBB2013303F01F03012122
:104E900001FA03F342EA03013B681B68C3F3120300
:104EA000002B0DD13B681B689B0E013303F01F02E2
:104EB00013465B0013441E3B1B0543F000731DE0CB
:104EC0003B681B687B617B6993FAA3F33B613B6999
:104ED000BB61BB69002B03D1202305E000007F40AC
:104EE000BB69B3FA83F3DBB2013303F01F0213464D
:104EF0005B0013441E3B1B0543F000730B433A68F1
:104F000092681946FFF763F93B681A683D4B1340F6
:104F1000002B6CD03C48FFF7A5F8C7F8C4003B68ED
:104F20001B683A4A934227D1D7F8C43003F40003F0
:104F3000002B21D17B681B68354A934257D1D7F8A3
:104F4000C43043F4000319462F48FFF778F8314B7B
:104F50001B689B09304AA2FB03239B095A1C13467A
:104F60005B0013449B00FB6002E0FB68013BFB60BD
:104F7000FB68002BF9D13AE03B681B68274A934253
:104F800013D1D7F8C43003F08073002B0DD17B68A8
:104F90001B681F4A93422AD1D7F8C43043F080736C
:104FA00019461948FFF74BF821E03B681B681C4A7B
:104FB00093421CD1D7F8C43003F48003002B16D1E0
:104FC0007B681B68124A934211D1D7F8C43043F46E
:104FD000800319460C48FFF732F808E07B689B6DA8
:104FE00043F020027B689A65012387F8D7307B68FD
:104FF000002283F8542097F8D7301846D837BD469A
:1050000080BD00BF0000088000030450000052C7AC
:105010000000045008000020632D3E05000084CBF2
:105020000100008080B584B000AF78600023BB60D1
:105030007B681B681846FFF789F90346002B69D186
:105040007B681B689A68364B1340002B0DD07B6839
:105050009B6D43F010027B689A657B68DB6D43F0C3
:1050600001027B68DA65012355E07B681B681846FE
:10507000FFF758F92B48FEF7F5FF034603F400034A
:10508000002B13D0284B1B689B09284AA2FB032343
:105090009B095A1C13465B0013449B00BB6002E053
:1050A000BB68013BBB60BB68002BF9D1FEF784FFF6
:1050B000F86028E07B681B681846FFF747F903464D
:1050C000002B04D17B681B681846FFF72BF9FEF70D
:1050D00073FF0246FB68D31A022B14D97B681B6846
:1050E0001B6803F00103012B0DD07B689B6D43F01F
:1050F00010027B689A657B68DB6D43F001027B6878
:10510000DA65012307E07B681B681B6803F0010375
:10511000012BCFD1002318461037BD4680BD00BFFC
:105120003F0000800003045008000020632D3E056E
:1051300080B584B000AF78607B689B6AFB60FB68D9
:105140009B6D03F05003002B4BD1FB689B6D43F428
:105150000072FB689A65FB681B681B6803F0080314
:10516000002B21D0FB681B681846FEF7F1FF0346B1
:10517000002B32D0FB681B68DB6803F40053002B64
:105180002BD1FB689B6D23F48072FB689A65FB68EA
:105190009B6D03F48053002B1FD1FB689B6D43F084
:1051A0000102FB689A6518E0FB681B68DB6803F086
:1051B0000203002B11D1FB689B6D23F48072FB6806
:1051C0009A65FB689B6D03F48053002B05D1FB6847
:1051D0009B6D43F00102FB689A65F868FFF70AFBD4
:1051E0000EE0FB689B6D03F01003002B03D0F86802
:1051F000FFF714FB04E0FB681B6D5B6B7868984756
:1052000000BF1037BD4680BD80B584B000AF786068
:105210007B689B6AFB60F868FFF7F6FA00BF1037FF
:10522000BD4680BD80B584B000AF78607B689B6A66
:10523000FB60FB689B6D43F04002FB689A65FB686E
:10524000DB6D43F00402FB68DA65F868FFF7E6FA05
:1052500000BF1037BD4680BD80B483B000AF78601A
:105260007B689B6803F00103012B01D1012300E05F
:10527000002318460C37BD465DF8047B704780B4A8
:1052800083B000AF78607B689B6803F00403042B55
:1052900001D1012300E0002318460C37BD465DF81C
:1052A000047B704790B5A1B000AF786039600023EF
:1052B00087F87F307B6893F85430012B01D10223AB
:1052C00089E07B68012283F8542000237B66002359
:1052D000BB667B681B68424A934202D1414BFB602C
:1052E00001E00023FB60FB68002B0BD17B689B6D0A
:1052F00043F020027B689A657B68002283F8542083
:10530000012368E0FB681846FFF7B9FFB8677B68C0
:105310001B681846FFF7B3FF0346002B4AD1BB6F4B
:10532000002B47D1304B7B673B681B68002B27D095
:105330007B6F9B6823F460423B6859687B6893F8F5
:1053400030305B030B431A437B6F9A602448FFF7AE
:1053500083FF04462348FFF77FFF03462343002BC8
:1053600032D17B6F9B6823F4716323F00F033A689B
:1053700011683A6892680A431A437B6F9A6023E087
:105380007B6F9B6823F460427B6F9A601448FFF741
:1053900063FF04461348FFF75FFF03462343002BD8
:1053A00012D17B6F9B6823F4716323F00F037A6F34
:1053B000936009E07B689B6D43F020027B689A65EF
:1053C000012387F87F3000E000BF7B68002283F86C
:1053D000542097F87F3018468437BD4690BD00BFF3
:1053E00000000450000104500003045080B485B054
:1053F00000AF78607B6803F00703FB600C4BDB6851
:10540000BB60BA684FF6FF031340BB60FB681A022B
:10541000BB68134343F0BF6343F40033BB60044AEB
:10542000BB68D36000BF1437BD465DF8047B70478E
:1054300000ED00E080B400AF044BDB681B0A03F012
:1054400007031846BD465DF8047B704700ED00E099
:1054500080B483B000AF0346FB7197F90730002B8F
:105460000BDBFB7903F01F02074997F907305B0953
:10547000012000FA02F241F8232000BF0C37BD469C
:105480005DF8047B704700BF00E100E080B483B0AA
:1054900000AF03463960FB7197F90730002B0ADB38
:1054A0003B68DAB20C4997F907301201D2B20B44CB
:1054B00083F800230AE03B68DAB20849FB7903F07D
:1054C0000F03043B1201D2B20B441A7600BF0C3713
:1054D000BD465DF8047B704700E100E000ED00E0B0
:1054E00080B489B000AFF860B9607A60FB6803F0FF
:1054F0000703FB61FB69C3F10703042B28BF0423E7
:10550000BB61FB690433062B02D9FB69033B00E056
:1055100000237B614FF0FF32BB6902FA03F3DA43E9
:10552000BB681A407B699A404FF0FF317B6901FAF2
:1055300003F3D9437B680B40134318462437BD4619
:105540005DF8047B7047000080B582B000AF7860E2
:105550007B68013BB3F1807F01D301230FE00A4A4E
:105560007B68013B53600F214FF0FF30FFF78EFF48
:10557000054B00229A60044B07221A60002318464C
:105580000837BD4680BD00BF10E000E080B582B0A6
:1055900000AF78607868FFF729FF00BF0837BD4685
:1055A00080BD80B586B000AF0346B9607A60FB73FA
:1055B00000237B61FFF73EFF78617A68B9687869FC
:1055C000FFF78EFF024697F90F3011461846FFF796
:1055D0005DFF00BF1837BD4680BD80B582B000AF0B
:1055E0000346FB7197F907301846FFF731FF00BFFC
:1055F0000837BD4680BD80B582B000AF786078685E
:10560000FFF7A2FF034618460837BD4680BD0000DD
:1056100080B584B000AF78607B68002B01D1012396
:105620008DE07B681B681A46474B9A420FD87B680F
:105630001B681A46454B1344454AA2FB03231B092A
:105640009A007B685A647B68424A1A640EE07B6861
:105650001B681A46404B13443D4AA2FB03231B0917
:105660009A007B685A647B683C4A1A647B68022211
:1056700083F825207B681B681B68FB60FB6823F4AC
:10568000FF4323F07003FB607B689A687B68DB68EC
:105690001A437B681B691A437B685B691A437B6802
:1056A0009B691A437B68DB691A437B681B6A134357
:1056B000FA681343FB607B681B68FA681A607868B5
:1056C00000F072FA7B689B68B3F5804F02D17B686B
:1056D00000225A607B685A687B689B6CD2B21A6061
:1056E0007B68DB6C7A68126D5A607B685B68002BA4
:1056F00010D07B685B68042B0CD8786800F092FAB5
:105700007B685B6D00221A607B689B6D7A68D26D46
:105710005A6008E07B6800225A657B6800229A651F
:105720007B680022DA657B680022DA637B680122ED
:1057300083F825207B68002283F824200023184664
:105740001037BD4680BD00BF07040240F8FFFDBF13
:10575000CDCCCCCC00000240F8FBFDBF00040240E1
:1057600080B586B000AFF860B9607A603B60002316
:10577000FB75FB6893F82430012B01D1022366E00E
:10578000FB68012283F82420FB6893F82530DBB204
:10579000012B55D1FB68022283F82520FB680022EB
:1057A000DA63FB681B681A68FB681B6822F0010259
:1057B0001A603B687A68B968F86800F0B6F9FB6867
:1057C0001B6B002B08D0FB681B681A68FB681B6802
:1057D00042F00E021A600FE0FB681B681A68FB6853
:1057E0001B6822F004021A60FB681B681A68FB68D9
:1057F0001B6842F00A021A60FB689B6C1B6803F48A
:105800008033002B07D0FB689B6C1A68FB689B6C8D
:1058100042F480721A60FB685B6D002B07D0FB6856
:105820005B6D1A68FB685B6D42F480721A60FB68FE
:105830001B681A68FB681B6842F001021A6005E0E9
:10584000FB68002283F824200223FB75FB7D1846A9
:105850001837BD4680BD80B485B000AF78600023A6
:10586000FB737B6893F82530DBB2022B08D07B6892
:105870000422DA637B68002283F82420012340E0BD
:105880007B681B681A687B681B6822F00E021A602E
:105890007B689B6C1A687B689B6C22F480721A6030
:1058A0007B681B681A687B681B6822F001021A601B
:1058B0007B685B6C03F01C027B681B6C012101FAA6
:1058C00002F25A607B68DB6C7A68126D5A607B6802
:1058D0005B6D002B0CD07B685B6D1A687B685B6D21
:1058E00022F480721A607B689B6D7A68D26D5A6070
:1058F0007B68012283F825207B68002283F824201E
:10590000FB7B18461437BD465DF8047B704780B5B5
:1059100084B000AF78600023FB737B6893F8253078
:10592000DBB2022B05D07B680422DA630123FB7310
:1059300047E07B681B681A687B681B6822F00E02D0
:105940001A607B681B681A687B681B6822F001027A
:105950001A607B689B6C1A687B689B6C22F480726F
:105960001A607B685B6C03F01C027B681B6C012176
:1059700001FA02F25A607B68DB6C7A68126D5A6039
:105980007B685B6D002B0CD07B685B6D1A687B6855
:105990005B6D22F480721A607B689B6D7A68D26DB1
:1059A0005A607B68012283F825207B68002283F8F7
:1059B00024207B689B6B002B03D07B689B6B7868F3
:1059C0009847FB7B18461037BD4680BD80B584B034
:1059D00000AF78607B681B6C1B68FB607B681B6892
:1059E0001B68BB607B685B6C03F01C0304229A405D
:1059F000FB681340002B26D0BB6803F00403002B88
:105A000021D07B681B681B6803F02003002B07D1A3
:105A10007B681B681A687B681B6822F004021A60A6
:105A20007B685B6C03F01C027B681B6C042101FA31
:105A300002F25A607B681B6B002B71D07B681B6B7A
:105A4000786898476CE07B685B6C03F01C0302226B
:105A50009A40FB681340002B2ED0BB6803F0020372
:105A6000002B29D07B681B681B6803F02003002BE8
:105A70000BD17B681B681A687B681B6822F00A02DE
:105A80001A607B68012283F825207B685B6C03F039
:105A90001C027B681B6C022101FA02F25A607B68CF
:105AA000002283F824207B68DB6A002B38D07B68D7
:105AB000DB6A7868984733E07B685B6C03F01C0313
:105AC00008229A40FB681340002B2AD0BB6803F0E1
:105AD0000803002B25D07B681B681A687B681B684D
